{
  "abi": [
    {
      "inputs": [
        {
          "internalType": "string",
          "name": "_name",
          "type": "string"
        },
        {
          "internalType": "string",
          "name": "_symbol",
          "type": "string"
        },
        {
          "internalType": "address",
          "name": "_royaltyRecipient",
          "type": "address"
        },
        {
          "internalType": "uint128",
          "name": "_royaltyBps",
          "type": "uint128"
        }
      ],
      "stateMutability": "nonpayable",
      "type": "constructor"
    },
    {
      "inputs": [],
      "name": "ApprovalCallerNotOwnerNorApproved",
      "type": "error"
    },
    {
      "inputs": [],
      "name": "ApprovalQueryForNonexistentToken",
      "type": "error"
    },
    {
      "inputs": [],
      "name": "ApprovalToCurrentOwner",
      "type": "error"
    },
    {
      "inputs": [],
      "name": "ApproveToCaller",
      "type": "error"
    },
    {
      "inputs": [],
      "name": "BalanceQueryForZeroAddress",
      "type": "error"
    },
    {
      "inputs": [],
      "name": "MintToZeroAddress",
      "type": "error"
    },
    {
      "inputs": [],
      "name": "MintZeroQuantity",
      "type": "error"
    },
    {
      "inputs": [],
      "name": "OwnerQueryForNonexistentToken",
      "type": "error"
    },
    {
      "inputs": [],
      "name": "TransferCallerNotOwnerNorApproved",
      "type": "error"
    },
    {
      "inputs": [],
      "name": "TransferFromIncorrectOwner",
      "type": "error"
    },
    {
      "inputs": [],
      "name": "TransferToNonERC721ReceiverImplementer",
      "type": "error"
    },
    {
      "inputs": [],
      "name": "TransferToZeroAddress",
      "type": "error"
    },
    {
      "inputs": [],
      "name": "URIQueryForNonexistentToken",
      "type": "error"
    },
    {
      "anonymous": false,
      "inputs": [
        {
          "indexed": true,
          "internalType": "address",
          "name": "owner",
          "type": "address"
        },
        {
          "indexed": true,
          "internalType": "address",
          "name": "approved",
          "type": "address"
        },
        {
          "indexed": true,
          "internalType": "uint256",
          "name": "tokenId",
          "type": "uint256"
        }
      ],
      "name": "Approval",
      "type": "event"
    },
    {
      "anonymous": false,
      "inputs": [
        {
          "indexed": true,
          "internalType": "address",
          "name": "owner",
          "type": "address"
        },
        {
          "indexed": true,
          "internalType": "address",
          "name": "operator",
          "type": "address"
        },
        {
          "indexed": false,
          "internalType": "bool",
          "name": "approved",
          "type": "bool"
        }
      ],
      "name": "ApprovalForAll",
      "type": "event"
    },
    {
      "anonymous": false,
      "inputs": [
        {
          "indexed": false,
          "internalType": "string",
          "name": "prevURI",
          "type": "string"
        },
        {
          "indexed": false,
          "internalType": "string",
          "name": "newURI",
          "type": "string"
        }
      ],
      "name": "ContractURIUpdated",
      "type": "event"
    },
    {
      "anonymous": false,
      "inputs": [
        {
          "indexed": true,
          "internalType": "address",
          "name": "newRoyaltyRecipient",
          "type": "address"
        },
        {
          "indexed": false,
          "internalType": "uint256",
          "name": "newRoyaltyBps",
          "type": "uint256"
        }
      ],
      "name": "DefaultRoyalty",
      "type": "event"
    },
    {
      "anonymous": false,
      "inputs": [
        {
          "indexed": true,
          "internalType": "address",
          "name": "prevOwner",
          "type": "address"
        },
        {
          "indexed": true,
          "internalType": "address",
          "name": "newOwner",
          "type": "address"
        }
      ],
      "name": "OwnerUpdated",
      "type": "event"
    },
    {
      "anonymous": false,
      "inputs": [
        {
          "indexed": true,
          "internalType": "bytes32",
          "name": "role",
          "type": "bytes32"
        },
        {
          "indexed": true,
          "internalType": "bytes32",
          "name": "previousAdminRole",
          "type": "bytes32"
        },
        {
          "indexed": true,
          "internalType": "bytes32",
          "name": "newAdminRole",
          "type": "bytes32"
        }
      ],
      "name": "RoleAdminChanged",
      "type": "event"
    },
    {
      "anonymous": false,
      "inputs": [
        {
          "indexed": true,
          "internalType": "bytes32",
          "name": "role",
          "type": "bytes32"
        },
        {
          "indexed": true,
          "internalType": "address",
          "name": "account",
          "type": "address"
        },
        {
          "indexed": true,
          "internalType": "address",
          "name": "sender",
          "type": "address"
        }
      ],
      "name": "RoleGranted",
      "type": "event"
    },
    {
      "anonymous": false,
      "inputs": [
        {
          "indexed": true,
          "internalType": "bytes32",
          "name": "role",
          "type": "bytes32"
        },
        {
          "indexed": true,
          "internalType": "address",
          "name": "account",
          "type": "address"
        },
        {
          "indexed": true,
          "internalType": "address",
          "name": "sender",
          "type": "address"
        }
      ],
      "name": "RoleRevoked",
      "type": "event"
    },
    {
      "anonymous": false,
      "inputs": [
        {
          "indexed": true,
          "internalType": "uint256",
          "name": "tokenId",
          "type": "uint256"
        },
        {
          "indexed": true,
          "internalType": "address",
          "name": "royaltyRecipient",
          "type": "address"
        },
        {
          "indexed": false,
          "internalType": "uint256",
          "name": "royaltyBps",
          "type": "uint256"
        }
      ],
      "name": "RoyaltyForToken",
      "type": "event"
    },
    {
      "anonymous": false,
      "inputs": [
        {
          "indexed": true,
          "internalType": "address",
          "name": "from",
          "type": "address"
        },
        {
          "indexed": true,
          "internalType": "address",
          "name": "to",
          "type": "address"
        },
        {
          "indexed": true,
          "internalType": "uint256",
          "name": "tokenId",
          "type": "uint256"
        }
      ],
      "name": "Transfer",
      "type": "event"
    },
    {
      "inputs": [],
      "name": "DEFAULT_ADMIN_ROLE",
      "outputs": [
        {
          "internalType": "bytes32",
          "name": "",
          "type": "bytes32"
        }
      ],
      "stateMutability": "view",
      "type": "function"
    },
    {
      "inputs": [
        {
          "internalType": "address",
          "name": "to",
          "type": "address"
        },
        {
          "internalType": "uint256",
          "name": "tokenId",
          "type": "uint256"
        }
      ],
      "name": "approve",
      "outputs": [],
      "stateMutability": "nonpayable",
      "type": "function"
    },
    {
      "inputs": [
        {
          "internalType": "address",
          "name": "owner",
          "type": "address"
        }
      ],
      "name": "balanceOf",
      "outputs": [
        {
          "internalType": "uint256",
          "name": "",
          "type": "uint256"
        }
      ],
      "stateMutability": "view",
      "type": "function"
    },
    {
      "inputs": [
        {
          "internalType": "address",
          "name": "_to",
          "type": "address"
        },
        {
          "internalType": "uint256",
          "name": "_quantity",
          "type": "uint256"
        },
        {
          "internalType": "string",
          "name": "_baseURI",
          "type": "string"
        },
        {
          "internalType": "bytes",
          "name": "_data",
          "type": "bytes"
        }
      ],
      "name": "batchMintTo",
      "outputs": [],
      "stateMutability": "nonpayable",
      "type": "function"
    },
    {
      "inputs": [
        {
          "internalType": "uint256",
          "name": "_tokenId",
          "type": "uint256"
        }
      ],
      "name": "burn",
      "outputs": [],
      "stateMutability": "nonpayable",
      "type": "function"
    },
    {
      "inputs": [],
      "name": "contractURI",
      "outputs": [
        {
          "internalType": "string",
          "name": "",
          "type": "string"
        }
      ],
      "stateMutability": "view",
      "type": "function"
    },
    {
      "inputs": [
        {
          "internalType": "uint256",
          "name": "tokenId",
          "type": "uint256"
        }
      ],
      "name": "getApproved",
      "outputs": [
        {
          "internalType": "address",
          "name": "",
          "type": "address"
        }
      ],
      "stateMutability": "view",
      "type": "function"
    },
    {
      "inputs": [],
      "name": "getBaseURICount",
      "outputs": [
        {
          "internalType": "uint256",
          "name": "",
          "type": "uint256"
        }
      ],
      "stateMutability": "view",
      "type": "function"
    },
    {
      "inputs": [
        {
          "internalType": "uint256",
          "name": "_index",
          "type": "uint256"
        }
      ],
      "name": "getBatchIdAtIndex",
      "outputs": [
        {
          "internalType": "uint256",
          "name": "",
          "type": "uint256"
        }
      ],
      "stateMutability": "view",
      "type": "function"
    },
    {
      "inputs": [],
      "name": "getDefaultRoyaltyInfo",
      "outputs": [
        {
          "internalType": "address",
          "name": "",
          "type": "address"
        },
        {
          "internalType": "uint16",
          "name": "",
          "type": "uint16"
        }
      ],
      "stateMutability": "view",
      "type": "function"
    },
    {
      "inputs": [
        {
          "internalType": "bytes32",
          "name": "role",
          "type": "bytes32"
        }
      ],
      "name": "getRoleAdmin",
      "outputs": [
        {
          "internalType": "bytes32",
          "name": "",
          "type": "bytes32"
        }
      ],
      "stateMutability": "view",
      "type": "function"
    },
    {
      "inputs": [
        {
          "internalType": "bytes32",
          "name": "role",
          "type": "bytes32"
        },
        {
          "internalType": "uint256",
          "name": "index",
          "type": "uint256"
        }
      ],
      "name": "getRoleMember",
      "outputs": [
        {
          "internalType": "address",
          "name": "member",
          "type": "address"
        }
      ],
      "stateMutability": "view",
      "type": "function"
    },
    {
      "inputs": [
        {
          "internalType": "bytes32",
          "name": "role",
          "type": "bytes32"
        }
      ],
      "name": "getRoleMemberCount",
      "outputs": [
        {
          "internalType": "uint256",
          "name": "count",
          "type": "uint256"
        }
      ],
      "stateMutability": "view",
      "type": "function"
    },
    {
      "inputs": [
        {
          "internalType": "uint256",
          "name": "_tokenId",
          "type": "uint256"
        }
      ],
      "name": "getRoyaltyInfoForToken",
      "outputs": [
        {
          "internalType": "address",
          "name": "",
          "type": "address"
        },
        {
          "internalType": "uint16",
          "name": "",
          "type": "uint16"
        }
      ],
      "stateMutability": "view",
      "type": "function"
    },
    {
      "inputs": [
        {
          "internalType": "bytes32",
          "name": "role",
          "type": "bytes32"
        },
        {
          "internalType": "address",
          "name": "account",
          "type": "address"
        }
      ],
      "name": "grantRole",
      "outputs": [],
      "stateMutability": "nonpayable",
      "type": "function"
    },
    {
      "inputs": [
        {
          "internalType": "bytes32",
          "name": "role",
          "type": "bytes32"
        },
        {
          "internalType": "address",
          "name": "account",
          "type": "address"
        }
      ],
      "name": "hasRole",
      "outputs": [
        {
          "internalType": "bool",
          "name": "",
          "type": "bool"
        }
      ],
      "stateMutability": "view",
      "type": "function"
    },
    {
      "inputs": [
        {
          "internalType": "bytes32",
          "name": "role",
          "type": "bytes32"
        },
        {
          "internalType": "address",
          "name": "account",
          "type": "address"
        }
      ],
      "name": "hasRoleWithSwitch",
      "outputs": [
        {
          "internalType": "bool",
          "name": "",
          "type": "bool"
        }
      ],
      "stateMutability": "view",
      "type": "function"
    },
    {
      "inputs": [
        {
          "internalType": "address",
          "name": "owner",
          "type": "address"
        },
        {
          "internalType": "address",
          "name": "operator",
          "type": "address"
        }
      ],
      "name": "isApprovedForAll",
      "outputs": [
        {
          "internalType": "bool",
          "name": "",
          "type": "bool"
        }
      ],
      "stateMutability": "view",
      "type": "function"
    },
    {
      "inputs": [
        {
          "internalType": "address",
          "name": "_operator",
          "type": "address"
        },
        {
          "internalType": "uint256",
          "name": "_tokenId",
          "type": "uint256"
        }
      ],
      "name": "isApprovedOrOwner",
      "outputs": [
        {
          "internalType": "bool",
          "name": "isApprovedOrOwnerOf",
          "type": "bool"
        }
      ],
      "stateMutability": "view",
      "type": "function"
    },
    {
      "inputs": [
        {
          "internalType": "address",
          "name": "_to",
          "type": "address"
        },
        {
          "internalType": "string",
          "name": "_tokenURI",
          "type": "string"
        }
      ],
      "name": "mintTo",
      "outputs": [],
      "stateMutability": "nonpayable",
      "type": "function"
    },
    {
      "inputs": [
        {
          "internalType": "bytes[]",
          "name": "data",
          "type": "bytes[]"
        }
      ],
      "name": "multicall",
      "outputs": [
        {
          "internalType": "bytes[]",
          "name": "results",
          "type": "bytes[]"
        }
      ],
      "stateMutability": "nonpayable",
      "type": "function"
    },
    {
      "inputs": [],
      "name": "name",
      "outputs": [
        {
          "internalType": "string",
          "name": "",
          "type": "string"
        }
      ],
      "stateMutability": "view",
      "type": "function"
    },
    {
      "inputs": [],
      "name": "nextTokenIdToMint",
      "outputs": [
        {
          "internalType": "uint256",
          "name": "",
          "type": "uint256"
        }
      ],
      "stateMutability": "view",
      "type": "function"
    },
    {
      "inputs": [],
      "name": "owner",
      "outputs": [
        {
          "internalType": "address",
          "name": "",
          "type": "address"
        }
      ],
      "stateMutability": "view",
      "type": "function"
    },
    {
      "inputs": [
        {
          "internalType": "uint256",
          "name": "tokenId",
          "type": "uint256"
        }
      ],
      "name": "ownerOf",
      "outputs": [
        {
          "internalType": "address",
          "name": "",
          "type": "address"
        }
      ],
      "stateMutability": "view",
      "type": "function"
    },
    {
      "inputs": [
        {
          "internalType": "uint256",
          "name": "",
          "type": "uint256"
        }
      ],
      "name": "powerLevel",
      "outputs": [
        {
          "internalType": "uint256",
          "name": "",
          "type": "uint256"
        }
      ],
      "stateMutability": "view",
      "type": "function"
    },
    {
      "inputs": [
        {
          "internalType": "bytes32",
          "name": "role",
          "type": "bytes32"
        },
        {
          "internalType": "address",
          "name": "account",
          "type": "address"
        }
      ],
      "name": "renounceRole",
      "outputs": [],
      "stateMutability": "nonpayable",
      "type": "function"
    },
    {
      "inputs": [
        {
          "internalType": "bytes32",
          "name": "role",
          "type": "bytes32"
        },
        {
          "internalType": "address",
          "name": "account",
          "type": "address"
        }
      ],
      "name": "revokeRole",
      "outputs": [],
      "stateMutability": "nonpayable",
      "type": "function"
    },
    {
      "inputs": [
        {
          "internalType": "uint256",
          "name": "tokenId",
          "type": "uint256"
        },
        {
          "internalType": "uint256",
          "name": "salePrice",
          "type": "uint256"
        }
      ],
      "name": "royaltyInfo",
      "outputs": [
        {
          "internalType": "address",
          "name": "receiver",
          "type": "address"
        },
        {
          "internalType": "uint256",
          "name": "royaltyAmount",
          "type": "uint256"
        }
      ],
      "stateMutability": "view",
      "type": "function"
    },
    {
      "inputs": [
        {
          "internalType": "address",
          "name": "from",
          "type": "address"
        },
        {
          "internalType": "address",
          "name": "to",
          "type": "address"
        },
        {
          "internalType": "uint256",
          "name": "tokenId",
          "type": "uint256"
        }
      ],
      "name": "safeTransferFrom",
      "outputs": [],
      "stateMutability": "nonpayable",
      "type": "function"
    },
    {
      "inputs": [
        {
          "internalType": "address",
          "name": "from",
          "type": "address"
        },
        {
          "internalType": "address",
          "name": "to",
          "type": "address"
        },
        {
          "internalType": "uint256",
          "name": "tokenId",
          "type": "uint256"
        },
        {
          "internalType": "bytes",
          "name": "_data",
          "type": "bytes"
        }
      ],
      "name": "safeTransferFrom",
      "outputs": [],
      "stateMutability": "nonpayable",
      "type": "function"
    },
    {
      "inputs": [
        {
          "internalType": "address",
          "name": "operator",
          "type": "address"
        },
        {
          "internalType": "bool",
          "name": "approved",
          "type": "bool"
        }
      ],
      "name": "setApprovalForAll",
      "outputs": [],
      "stateMutability": "nonpayable",
      "type": "function"
    },
    {
      "inputs": [
        {
          "internalType": "string",
          "name": "_uri",
          "type": "string"
        }
      ],
      "name": "setContractURI",
      "outputs": [],
      "stateMutability": "nonpayable",
      "type": "function"
    },
    {
      "inputs": [
        {
          "internalType": "address",
          "name": "_royaltyRecipient",
          "type": "address"
        },
        {
          "internalType": "uint256",
          "name": "_royaltyBps",
          "type": "uint256"
        }
      ],
      "name": "setDefaultRoyaltyInfo",
      "outputs": [],
      "stateMutability": "nonpayable",
      "type": "function"
    },
    {
      "inputs": [
        {
          "internalType": "address",
          "name": "_newOwner",
          "type": "address"
        }
      ],
      "name": "setOwner",
      "outputs": [],
      "stateMutability": "nonpayable",
      "type": "function"
    },
    {
      "inputs": [
        {
          "internalType": "uint256",
          "name": "_tokenId",
          "type": "uint256"
        },
        {
          "internalType": "uint256",
          "name": "_powerLevel",
          "type": "uint256"
        }
      ],
      "name": "setPowerLevel",
      "outputs": [],
      "stateMutability": "nonpayable",
      "type": "function"
    },
    {
      "inputs": [
        {
          "internalType": "uint256",
          "name": "_tokenId",
          "type": "uint256"
        },
        {
          "internalType": "address",
          "name": "_recipient",
          "type": "address"
        },
        {
          "internalType": "uint256",
          "name": "_bps",
          "type": "uint256"
        }
      ],
      "name": "setRoyaltyInfoForToken",
      "outputs": [],
      "stateMutability": "nonpayable",
      "type": "function"
    },
    {
      "inputs": [
        {
          "internalType": "bytes4",
          "name": "interfaceId",
          "type": "bytes4"
        }
      ],
      "name": "supportsInterface",
      "outputs": [
        {
          "internalType": "bool",
          "name": "",
          "type": "bool"
        }
      ],
      "stateMutability": "view",
      "type": "function"
    },
    {
      "inputs": [],
      "name": "symbol",
      "outputs": [
        {
          "internalType": "string",
          "name": "",
          "type": "string"
        }
      ],
      "stateMutability": "view",
      "type": "function"
    },
    {
      "inputs": [
        {
          "internalType": "uint256",
          "name": "_tokenId",
          "type": "uint256"
        }
      ],
      "name": "tokenURI",
      "outputs": [
        {
          "internalType": "string",
          "name": "",
          "type": "string"
        }
      ],
      "stateMutability": "view",
      "type": "function"
    },
    {
      "inputs": [],
      "name": "totalSupply",
      "outputs": [
        {
          "internalType": "uint256",
          "name": "",
          "type": "uint256"
        }
      ],
      "stateMutability": "view",
      "type": "function"
    },
    {
      "inputs": [
        {
          "internalType": "address",
          "name": "from",
          "type": "address"
        },
        {
          "internalType": "address",
          "name": "to",
          "type": "address"
        },
        {
          "internalType": "uint256",
          "name": "tokenId",
          "type": "uint256"
        }
      ],
      "name": "transferFrom",
      "outputs": [],
      "stateMutability": "nonpayable",
      "type": "function"
    }
  ],
  "devdoc": {
    "kind": "dev",
    "methods": {
      "approve(address,uint256)": {
        "details": "See {IERC721-approve}."
      },
      "balanceOf(address)": {
        "details": "See {IERC721-balanceOf}."
      },
      "batchMintTo(address,uint256,string,bytes)": {
        "details": "The logic in the `_canMint` function determines whether the caller is authorized to mint NFTs.",
        "params": {
          "_baseURI": "The baseURI for the `n` number of NFTs minted. The metadata for each NFT is `baseURI/tokenId`",
          "_data": "Additional data to pass along during the minting of the NFT.",
          "_quantity": "The number of NFTs to mint.",
          "_to": "The recipient of the NFT to mint."
        }
      },
      "burn(uint256)": {
        "details": "ERC721A's `_burn(uint256,bool)` internally checks for token approvals.",
        "params": {
          "_tokenId": "The tokenId of the NFT to burn."
        }
      },
      "getApproved(uint256)": {
        "details": "See {IERC721-getApproved}."
      },
      "getBaseURICount()": {
        "details": "Each batch of tokens has an in ID and an associated `baseURI`.                  See {batchIds}."
      },
      "getBatchIdAtIndex(uint256)": {
        "details": "See {getBaseURICount}.",
        "params": {
          "_index": "ID of a token."
        }
      },
      "getRoleAdmin(bytes32)": {
        "details": "See {grantRole} and {revokeRole}.                  To change a role's admin, use {_setRoleAdmin}.",
        "params": {
          "role": "keccak256 hash of the role. e.g. keccak256(\"TRANSFER_ROLE\")"
        }
      },
      "getRoleMember(bytes32,uint256)": {
        "details": "Returns `member` who has `role`, at `index` of role-members list.                  See struct {RoleMembers}, and mapping {roleMembers}",
        "params": {
          "index": "Index in list of current members for the role.",
          "role": "keccak256 hash of the role. e.g. keccak256(\"TRANSFER_ROLE\")"
        },
        "returns": {
          "member": " Address of account that has `role`"
        }
      },
      "getRoleMemberCount(bytes32)": {
        "details": "Returns `count` of accounts that have `role`.                  See struct {RoleMembers}, and mapping {roleMembers}",
        "params": {
          "role": "keccak256 hash of the role. e.g. keccak256(\"TRANSFER_ROLE\")"
        },
        "returns": {
          "count": "  Total number of accounts that have `role`"
        }
      },
      "getRoyaltyInfoForToken(uint256)": {
        "details": "Returns royalty recipient and bps for `_tokenId`.",
        "params": {
          "_tokenId": "The tokenID of the NFT for which to query royalty info."
        }
      },
      "grantRole(bytes32,address)": {
        "details": "Caller must have admin role for the `role`.                  Emits {RoleGranted Event}.",
        "params": {
          "account": "Address of the account to which the role is being granted.",
          "role": "keccak256 hash of the role. e.g. keccak256(\"TRANSFER_ROLE\")"
        }
      },
      "hasRole(bytes32,address)": {
        "details": "Returns `true` if `account` has been granted `role`.",
        "params": {
          "account": "Address of the account for which the role is being checked.",
          "role": "keccak256 hash of the role. e.g. keccak256(\"TRANSFER_ROLE\")"
        }
      },
      "hasRoleWithSwitch(bytes32,address)": {
        "details": "Returns `true` if `account` has been granted `role`.                  Role restrictions can be swtiched on and off:                      - If address(0) has ROLE, then the ROLE restrictions                        don't apply.                      - If address(0) does not have ROLE, then the ROLE                        restrictions will apply.",
        "params": {
          "account": "Address of the account for which the role is being checked.",
          "role": "keccak256 hash of the role. e.g. keccak256(\"TRANSFER_ROLE\")"
        }
      },
      "isApprovedForAll(address,address)": {
        "details": "See {IERC721-isApprovedForAll}."
      },
      "mintTo(address,string)": {
        "details": "The logic in the `_canMint` function determines whether the caller is authorized to mint NFTs.",
        "params": {
          "_to": "The recipient of the NFT to mint.",
          "_tokenURI": "The full metadata URI for the NFT minted."
        }
      },
      "multicall(bytes[])": {
        "details": "Receives and executes a batch of function calls on this contract.",
        "params": {
          "data": "The bytes data that makes up the batch of function calls to execute."
        },
        "returns": {
          "results": "The bytes data that makes up the result of the batch of function calls executed."
        }
      },
      "name()": {
        "details": "See {IERC721Metadata-name}."
      },
      "ownerOf(uint256)": {
        "details": "See {IERC721-ownerOf}."
      },
      "renounceRole(bytes32,address)": {
        "details": "Caller must have the `role`, with caller being the same as `account`.                  Emits {RoleRevoked Event}.",
        "params": {
          "account": "Address of the account from which the role is being revoked.",
          "role": "keccak256 hash of the role. e.g. keccak256(\"TRANSFER_ROLE\")"
        }
      },
      "revokeRole(bytes32,address)": {
        "details": "Caller must have admin role for the `role`.                  Emits {RoleRevoked Event}.",
        "params": {
          "account": "Address of the account from which the role is being revoked.",
          "role": "keccak256 hash of the role. e.g. keccak256(\"TRANSFER_ROLE\")"
        }
      },
      "royaltyInfo(uint256,uint256)": {
        "details": "Returns royalty amount and recipient for `tokenId` and `salePrice`.",
        "params": {
          "salePrice": "Sale price of the token.",
          "tokenId": "The tokenID of the NFT for which to query royalty info."
        },
        "returns": {
          "receiver": "       Address of royalty recipient account.",
          "royaltyAmount": "  Royalty amount calculated at current royaltyBps value."
        }
      },
      "safeTransferFrom(address,address,uint256)": {
        "details": "See {IERC721-safeTransferFrom}."
      },
      "safeTransferFrom(address,address,uint256,bytes)": {
        "details": "See {IERC721-safeTransferFrom}."
      },
      "setApprovalForAll(address,bool)": {
        "details": "See {IERC721-setApprovalForAll}."
      },
      "setContractURI(string)": {
        "details": "Caller should be authorized to setup contractURI, e.g. contract admin.                  See {_canSetContractURI}.                  Emits {ContractURIUpdated Event}.",
        "params": {
          "_uri": "keccak256 hash of the role. e.g. keccak256(\"TRANSFER_ROLE\")"
        }
      },
      "setDefaultRoyaltyInfo(address,uint256)": {
        "details": "Caller should be authorized to set royalty info.                  See {_canSetRoyaltyInfo}.                  Emits {DefaultRoyalty Event}; See {_setupDefaultRoyaltyInfo}.",
        "params": {
          "_royaltyBps": "Updated royalty bps.",
          "_royaltyRecipient": "Address to be set as default royalty recipient."
        }
      },
      "setOwner(address)": {
        "params": {
          "_newOwner": "The address to set as the new owner of the contract."
        }
      },
      "setRoyaltyInfoForToken(uint256,address,uint256)": {
        "details": "Sets royalty info for `_tokenId`. Caller should be authorized to set royalty info.                  See {_canSetRoyaltyInfo}.                  Emits {RoyaltyForToken Event}; See {_setupRoyaltyInfoForToken}.",
        "params": {
          "_bps": "Updated royalty bps for the token Id.",
          "_recipient": "Address to be set as royalty recipient for given token Id."
        }
      },
      "supportsInterface(bytes4)": {
        "details": "See ERC165: https://eips.ethereum.org/EIPS/eip-165"
      },
      "symbol()": {
        "details": "See {IERC721Metadata-symbol}."
      },
      "tokenURI(uint256)": {
        "details": "See `BatchMintMetadata` for handling of metadata in this contract.",
        "params": {
          "_tokenId": "The tokenId of an NFT."
        }
      },
      "totalSupply()": {
        "details": "Burned tokens are calculated here, use _totalMinted() if you want to count just minted tokens."
      },
      "transferFrom(address,address,uint256)": {
        "details": "See {IERC721-transferFrom}."
      }
    },
    "version": 1
  },
  "evm": {
    "assembly": "    /* \"Contract.sol\":182:1394  contract Contract is ERC721Base, PermissionsEnumerable {... */\n  mstore(0x40, 0x80)\n    /* \"Contract.sol\":459:757  constructor(... */\n  callvalue\n  dup1\n  iszero\n  tag_1\n  jumpi\n  0x00\n  dup1\n  revert\ntag_1:\n  pop\n  mload(0x40)\n  sub(codesize, bytecodeSize)\n  dup1\n  bytecodeSize\n  dup4\n  codecopy\n  dup2\n  add\n  0x40\n  dup2\n  swap1\n  mstore\n  tag_2\n  swap2\n  tag_3\n  jump\t// in\ntag_2:\n    /* \"Contract.sol\":621:626  _name */\n  dup4\n    /* \"Contract.sol\":636:643  _symbol */\n  dup4\n    /* \"Contract.sol\":653:670  _royaltyRecipient */\n  dup4\n    /* \"Contract.sol\":680:691  _royaltyBps */\n  dup4\n    /* \"@thirdweb-dev/contracts/base/ERC721Base.sol\":1732:1737   */\n  dup4\n    /* \"@thirdweb-dev/contracts/base/ERC721Base.sol\":1739:1746   */\n  dup4\n    /* \"@thirdweb-dev/contracts/eip/ERC721A.sol\":1858:1863   */\n  dup2\n    /* \"@thirdweb-dev/contracts/eip/ERC721A.sol\":1850:1855   */\n  0x02\n    /* \"@thirdweb-dev/contracts/eip/ERC721A.sol\":1850:1863   */\n  swap1\n  dup1\n  mload\n  swap1\n  0x20\n  add\n  swap1\n  tag_8\n  swap3\n  swap2\n  swap1\n  tag_9\n  jump\t// in\ntag_8:\n  pop\n    /* \"@thirdweb-dev/contracts/eip/ERC721A.sol\":1873:1890   */\n  dup1\n  mload\n  tag_10\n  swap1\n    /* \"@thirdweb-dev/contracts/eip/ERC721A.sol\":1873:1880   */\n  0x03\n  swap1\n    /* \"@thirdweb-dev/contracts/eip/ERC721A.sol\":1873:1890   */\n  0x20\n  dup5\n  add\n  swap1\n  tag_9\n  jump\t// in\ntag_10:\n  pop\n  pop\n    /* \"@thirdweb-dev/contracts/eip/ERC721A.sol\":2086:2093   */\n  0x00\n    /* \"@thirdweb-dev/contracts/eip/ERC721A.sol\":1900:1931   */\n  dup1\n  sstore\n  pop\n    /* \"@thirdweb-dev/contracts/base/ERC721Base.sol\":1758:1781   */\n  tag_14\n    /* \"@thirdweb-dev/contracts/base/ERC721Base.sol\":1770:1780   */\n  caller\n    /* \"@thirdweb-dev/contracts/base/ERC721Base.sol\":1758:1769   */\n  tag_15\n    /* \"@thirdweb-dev/contracts/base/ERC721Base.sol\":1758:1781   */\n  jump\t// in\ntag_14:\n    /* \"@thirdweb-dev/contracts/base/ERC721Base.sol\":1791:1847   */\n  tag_16\n    /* \"@thirdweb-dev/contracts/base/ERC721Base.sol\":1816:1833   */\n  dup3\n  sub(shl(0x80, 0x01), 0x01)\n    /* \"@thirdweb-dev/contracts/base/ERC721Base.sol\":1791:1847   */\n  dup4\n  and\n    /* \"@thirdweb-dev/contracts/base/ERC721Base.sol\":1791:1815   */\n  tag_17\n    /* \"@thirdweb-dev/contracts/base/ERC721Base.sol\":1791:1847   */\n  jump\t// in\ntag_16:\n  pop\n    /* \"Contract.sol\":708:750  _setupRole(DEFAULT_ADMIN_ROLE, msg.sender) */\n  tag_19\n  swap3\n  pop\n    /* \"@thirdweb-dev/contracts/extension/Permissions.sol\":765:769   */\n  0x00\n  swap2\n  pop\n    /* \"Contract.sol\":739:749  msg.sender */\n  caller\n  swap1\n  pop\n    /* \"Contract.sol\":708:718  _setupRole */\n  tag_20\n    /* \"Contract.sol\":708:750  _setupRole(DEFAULT_ADMIN_ROLE, msg.sender) */\n  jump\t// in\ntag_19:\n    /* \"Contract.sol\":459:757  constructor(... */\n  pop\n  pop\n  pop\n  pop\n    /* \"Contract.sol\":182:1394  contract Contract is ERC721Base, PermissionsEnumerable {... */\n  jump(tag_52)\n    /* \"@thirdweb-dev/contracts/extension/Ownable.sol\":1399:1571   */\ntag_15:\n    /* \"@thirdweb-dev/contracts/extension/Ownable.sol\":1479:1485   */\n  0x09\n  dup1\n  sload\n  sub(shl(0xa0, 0x01), 0x01)\n    /* \"@thirdweb-dev/contracts/extension/Ownable.sol\":1495:1513   */\n  dup4\n  dup2\n  and\n  not(sub(shl(0xa0, 0x01), 0x01))\n  dup4\n  and\n  dup2\n  or\n  swap1\n  swap4\n  sstore\n    /* \"@thirdweb-dev/contracts/extension/Ownable.sol\":1529:1564   */\n  mload(0x40)\n    /* \"@thirdweb-dev/contracts/extension/Ownable.sol\":1479:1485   */\n  swap2\n  and\n  swap2\n    /* \"@thirdweb-dev/contracts/extension/Ownable.sol\":1495:1513   */\n  swap1\n    /* \"@thirdweb-dev/contracts/extension/Ownable.sol\":1479:1485   */\n  dup3\n  swap1\n    /* \"@thirdweb-dev/contracts/extension/Ownable.sol\":1529:1564   */\n  0x8292fce18fa69edf4db7b94ea2e58241df0ae57f97e0a6c9b29067028bf92d76\n  swap1\n    /* \"@thirdweb-dev/contracts/extension/Ownable.sol\":1458:1476   */\n  0x00\n  swap1\n    /* \"@thirdweb-dev/contracts/extension/Ownable.sol\":1529:1564   */\n  log3\n    /* \"@thirdweb-dev/contracts/extension/Ownable.sol\":1448:1571   */\n  pop\n    /* \"@thirdweb-dev/contracts/extension/Ownable.sol\":1399:1571   */\n  pop\n  jump\t// out\n    /* \"@thirdweb-dev/contracts/extension/Royalty.sol\":3408:3742   */\ntag_17:\n    /* \"@thirdweb-dev/contracts/extension/Royalty.sol\":3527:3533   */\n  0x2710\n    /* \"@thirdweb-dev/contracts/extension/Royalty.sol\":3513:3524   */\n  dup2\n    /* \"@thirdweb-dev/contracts/extension/Royalty.sol\":3513:3533   */\n  gt\n    /* \"@thirdweb-dev/contracts/extension/Royalty.sol\":3509:3585   */\n  iszero\n  tag_25\n  jumpi\n    /* \"@thirdweb-dev/contracts/extension/Royalty.sol\":3549:3574   */\n  mload(0x40)\n  shl(0xe5, 0x461bcd)\n  dup2\n  mstore\n    /* \"#utility.yul\":2148:2150   */\n  0x20\n    /* \"@thirdweb-dev/contracts/extension/Royalty.sol\":3549:3574   */\n  0x04\n  dup3\n  add\n    /* \"#utility.yul\":2130:2151   */\n  mstore\n    /* \"#utility.yul\":2187:2189   */\n  0x0f\n    /* \"#utility.yul\":2167:2185   */\n  0x24\n  dup3\n  add\n    /* \"#utility.yul\":2160:2190   */\n  mstore\n  shl(0x88, 0x45786365656473206d617820627073)\n    /* \"#utility.yul\":2206:2224   */\n  0x44\n  dup3\n  add\n    /* \"#utility.yul\":2199:2244   */\n  mstore\n    /* \"#utility.yul\":2261:2279   */\n  0x64\n  add\n    /* \"@thirdweb-dev/contracts/extension/Royalty.sol\":3549:3574   */\n  mload(0x40)\n  dup1\n  swap2\n  sub\n  swap1\n  revert\n    /* \"@thirdweb-dev/contracts/extension/Royalty.sol\":3509:3585   */\ntag_25:\n    /* \"@thirdweb-dev/contracts/extension/Royalty.sol\":3595:3611   */\n  0x0a\n    /* \"@thirdweb-dev/contracts/extension/Royalty.sol\":3595:3631   */\n  dup1\n  sload\n  sub(shl(0xa0, 0x01), 0x01)\n  dup5\n  and\n  not(sub(shl(0xb0, 0x01), 0x01))\n    /* \"@thirdweb-dev/contracts/extension/Royalty.sol\":3641:3673   */\n  swap1\n  swap2\n  and\n  dup2\n  or\n  shl(0xa0, 0x01)\n  0xffff\n  dup6\n  and\n  mul\n  or\n  swap1\n  swap2\n  sstore\n    /* \"@thirdweb-dev/contracts/extension/Royalty.sol\":3689:3735   */\n  mload(0x40)\n    /* \"#utility.yul\":2436:2461   */\n  dup3\n  dup2\n  mstore\n    /* \"@thirdweb-dev/contracts/extension/Royalty.sol\":3689:3735   */\n  0x90d7ec04bcb8978719414f82e52e4cb651db41d0e6f8cea6118c2191e6183adb\n  swap1\n    /* \"#utility.yul\":2424:2426   */\n  0x20\n    /* \"#utility.yul\":2409:2427   */\n  add\n    /* \"@thirdweb-dev/contracts/extension/Royalty.sol\":3689:3735   */\n  mload(0x40)\n  dup1\n  swap2\n  sub\n  swap1\n  log2\n    /* \"@thirdweb-dev/contracts/extension/Royalty.sol\":3408:3742   */\n  pop\n  pop\n  jump\t// out\n    /* \"@thirdweb-dev/contracts/extension/PermissionsEnumerable.sol\":3453:3605   */\ntag_20:\n    /* \"@thirdweb-dev/contracts/extension/PermissionsEnumerable.sol\":3532:3563   */\n  tag_31\n    /* \"@thirdweb-dev/contracts/extension/PermissionsEnumerable.sol\":3549:3553   */\n  dup3\n    /* \"@thirdweb-dev/contracts/extension/PermissionsEnumerable.sol\":3555:3562   */\n  dup3\n    /* \"@thirdweb-dev/contracts/extension/PermissionsEnumerable.sol\":3532:3548   */\n  or(tag_0_228, shl(0x20, tag_32))\n    /* \"@thirdweb-dev/contracts/extension/PermissionsEnumerable.sol\":3532:3563   */\n  0x20\n  shr\n  jump\t// in\ntag_31:\n    /* \"@thirdweb-dev/contracts/extension/PermissionsEnumerable.sol\":3573:3598   */\n  tag_33\n    /* \"@thirdweb-dev/contracts/extension/PermissionsEnumerable.sol\":3584:3588   */\n  dup3\n    /* \"@thirdweb-dev/contracts/extension/PermissionsEnumerable.sol\":3590:3597   */\n  dup3\n    /* \"@thirdweb-dev/contracts/extension/PermissionsEnumerable.sol\":3573:3583   */\n  tag_34\n    /* \"@thirdweb-dev/contracts/extension/PermissionsEnumerable.sol\":3573:3598   */\n  jump\t// in\ntag_33:\n    /* \"@thirdweb-dev/contracts/extension/PermissionsEnumerable.sol\":3453:3605   */\n  pop\n  pop\n  jump\t// out\n    /* \"@thirdweb-dev/contracts/extension/Permissions.sol\":5014:5182   */\ntag_32:\n    /* \"@thirdweb-dev/contracts/extension/Permissions.sol\":5092:5106   */\n  0x00\n  dup3\n  dup2\n  mstore\n    /* \"@thirdweb-dev/contracts/extension/Permissions.sol\":5092:5100   */\n  0x0f\n    /* \"@thirdweb-dev/contracts/extension/Permissions.sol\":5092:5106   */\n  0x20\n  swap1\n  dup2\n  mstore\n  0x40\n  dup1\n  dup4\n  keccak256\n  sub(shl(0xa0, 0x01), 0x01)\n    /* \"@thirdweb-dev/contracts/extension/Permissions.sol\":5092:5115   */\n  dup6\n  and\n  dup1\n  dup6\n  mstore\n  swap3\n  mstore\n  dup1\n  dup4\n  keccak256\n    /* \"@thirdweb-dev/contracts/extension/Permissions.sol\":5092:5122   */\n  dup1\n  sload\n  not(0xff)\n  and\n    /* \"@thirdweb-dev/contracts/extension/Permissions.sol\":5118:5122   */\n  0x01\n    /* \"@thirdweb-dev/contracts/extension/Permissions.sol\":5092:5122   */\n  or\n  swap1\n  sstore\n    /* \"@thirdweb-dev/contracts/extension/Permissions.sol\":5137:5175   */\n  mload\n    /* \"@thirdweb-dev/contracts/extension/Permissions.sol\":5164:5174   */\n  caller\n  swap3\n    /* \"@thirdweb-dev/contracts/extension/Permissions.sol\":5101:5105   */\n  dup6\n  swap2\n    /* \"@thirdweb-dev/contracts/extension/Permissions.sol\":5137:5175   */\n  0x2f8788117e7eff1d82e926ec794901d17c78024a50270940304540a733656f0d\n  swap2\n    /* \"@thirdweb-dev/contracts/extension/Permissions.sol\":5092:5106   */\n  swap1\n    /* \"@thirdweb-dev/contracts/extension/Permissions.sol\":5137:5175   */\n  log4\n    /* \"@thirdweb-dev/contracts/extension/Permissions.sol\":5014:5182   */\n  pop\n  pop\n  jump\t// out\n    /* \"@thirdweb-dev/contracts/extension/PermissionsEnumerable.sol\":3668:3921   */\ntag_34:\n    /* \"@thirdweb-dev/contracts/extension/PermissionsEnumerable.sol\":3738:3749   */\n  0x00\n    /* \"@thirdweb-dev/contracts/extension/PermissionsEnumerable.sol\":3752:3769   */\n  dup3\n  dup2\n  mstore\n    /* \"@thirdweb-dev/contracts/extension/PermissionsEnumerable.sol\":3752:3763   */\n  0x11\n    /* \"@thirdweb-dev/contracts/extension/PermissionsEnumerable.sol\":3752:3769   */\n  0x20\n  mstore\n  0x40\n  dup2\n  keccak256\n    /* \"@thirdweb-dev/contracts/extension/PermissionsEnumerable.sol\":3752:3775   */\n  dup1\n  sload\n  swap2\n    /* \"@thirdweb-dev/contracts/extension/PermissionsEnumerable.sol\":3812:3813   */\n  0x01\n  swap2\n    /* \"@thirdweb-dev/contracts/extension/PermissionsEnumerable.sol\":3752:3769   */\n  swap1\n    /* \"@thirdweb-dev/contracts/extension/PermissionsEnumerable.sol\":3785:3813   */\n  tag_37\n    /* \"@thirdweb-dev/contracts/extension/PermissionsEnumerable.sol\":3812:3813   */\n  dup4\n    /* \"@thirdweb-dev/contracts/extension/PermissionsEnumerable.sol\":3752:3775   */\n  dup6\n    /* \"@thirdweb-dev/contracts/extension/PermissionsEnumerable.sol\":3785:3813   */\n  tag_38\n  jump\t// in\ntag_37:\n  swap1\n  swap2\n  sstore\n  pop\n  pop\n    /* \"@thirdweb-dev/contracts/extension/PermissionsEnumerable.sol\":3824:3841   */\n  0x00\n  swap3\n  dup4\n  mstore\n    /* \"@thirdweb-dev/contracts/extension/PermissionsEnumerable.sol\":3824:3835   */\n  0x11\n    /* \"@thirdweb-dev/contracts/extension/PermissionsEnumerable.sol\":3824:3841   */\n  0x20\n  swap1\n  dup2\n  mstore\n  0x40\n  dup1\n  dup6\n  keccak256\n    /* \"@thirdweb-dev/contracts/extension/PermissionsEnumerable.sol\":3824:3854   */\n  dup4\n  dup7\n  mstore\n    /* \"@thirdweb-dev/contracts/extension/PermissionsEnumerable.sol\":3824:3849   */\n  0x01\n  dup2\n  add\n    /* \"@thirdweb-dev/contracts/extension/PermissionsEnumerable.sol\":3824:3854   */\n  dup4\n  mstore\n  dup2\n  dup7\n  keccak256\n    /* \"@thirdweb-dev/contracts/extension/PermissionsEnumerable.sol\":3824:3864   */\n  dup1\n  sload\n  sub(shl(0xa0, 0x01), 0x01)\n  swap1\n  swap7\n  and\n  not(sub(shl(0xa0, 0x01), 0x01))\n  swap1\n  swap7\n  and\n  dup7\n  or\n  swap1\n  sstore\n    /* \"@thirdweb-dev/contracts/extension/PermissionsEnumerable.sol\":3874:3908   */\n  swap4\n  dup6\n  mstore\n    /* \"@thirdweb-dev/contracts/extension/PermissionsEnumerable.sol\":3874:3899   */\n  0x02\n  swap1\n  swap4\n  add\n    /* \"@thirdweb-dev/contracts/extension/PermissionsEnumerable.sol\":3874:3908   */\n  swap1\n  mstore\n  swap2\n  keccak256\n    /* \"@thirdweb-dev/contracts/extension/PermissionsEnumerable.sol\":3874:3914   */\n  sstore\n    /* \"@thirdweb-dev/contracts/extension/PermissionsEnumerable.sol\":3668:3921   */\n  jump\t// out\n    /* \"Contract.sol\":182:1394  contract Contract is ERC721Base, PermissionsEnumerable {... */\ntag_9:\n  dup3\n  dup1\n  sload\n  tag_39\n  swap1\n  tag_40\n  jump\t// in\ntag_39:\n  swap1\n  0x00\n  mstore\n  keccak256(0x00, 0x20)\n  swap1\n  0x1f\n  add\n  0x20\n  swap1\n  div\n  dup2\n  add\n  swap3\n  dup3\n  tag_42\n  jumpi\n  0x00\n  dup6\n  sstore\n  jump(tag_45)\ntag_42:\n  dup3\n  0x1f\n  lt\n  tag_43\n  jumpi\n  dup1\n  mload\n  not(0xff)\n  and\n  dup4\n  dup1\n  add\n  or\n  dup6\n  sstore\n  jump(tag_45)\ntag_43:\n  dup3\n  dup1\n  add\n  0x01\n  add\n  dup6\n  sstore\n  dup3\n  iszero\n  tag_45\n  jumpi\n  swap2\n  dup3\n  add\ntag_44:\n  dup3\n  dup2\n  gt\n  iszero\n  tag_45\n  jumpi\n  dup3\n  mload\n  dup3\n  sstore\n  swap2\n  0x20\n  add\n  swap2\n  swap1\n  0x01\n  add\n  swap1\n  jump(tag_44)\ntag_45:\n  pop\n  tag_46\n  swap3\n  swap2\n  pop\n  tag_47\n  jump\t// in\ntag_46:\n  pop\n  swap1\n  jump\t// out\ntag_47:\ntag_48:\n  dup1\n  dup3\n  gt\n  iszero\n  tag_46\n  jumpi\n  0x00\n  dup2\n  sstore\n  0x01\n  add\n  jump(tag_48)\n    /* \"#utility.yul\":14:141   */\ntag_50:\n    /* \"#utility.yul\":75:85   */\n  0x4e487b71\n    /* \"#utility.yul\":70:73   */\n  0xe0\n    /* \"#utility.yul\":66:86   */\n  shl\n    /* \"#utility.yul\":63:64   */\n  0x00\n    /* \"#utility.yul\":56:87   */\n  mstore\n    /* \"#utility.yul\":106:110   */\n  0x41\n    /* \"#utility.yul\":103:104   */\n  0x04\n    /* \"#utility.yul\":96:111   */\n  mstore\n    /* \"#utility.yul\":130:134   */\n  0x24\n    /* \"#utility.yul\":127:128   */\n  0x00\n    /* \"#utility.yul\":120:135   */\n  revert\n    /* \"#utility.yul\":146:1031   */\ntag_51:\n    /* \"#utility.yul\":200:205   */\n  0x00\n    /* \"#utility.yul\":253:256   */\n  dup3\n    /* \"#utility.yul\":246:250   */\n  0x1f\n    /* \"#utility.yul\":238:244   */\n  dup4\n    /* \"#utility.yul\":234:251   */\n  add\n    /* \"#utility.yul\":230:257   */\n  slt\n    /* \"#utility.yul\":220:275   */\n  tag_55\n  jumpi\n    /* \"#utility.yul\":271:272   */\n  0x00\n    /* \"#utility.yul\":268:269   */\n  dup1\n    /* \"#utility.yul\":261:273   */\n  revert\n    /* \"#utility.yul\":220:275   */\ntag_55:\n    /* \"#utility.yul\":294:307   */\n  dup2\n  mload\n  sub(shl(0x40, 0x01), 0x01)\n    /* \"#utility.yul\":356:366   */\n  dup1\n  dup3\n  gt\n    /* \"#utility.yul\":353:389   */\n  iszero\n  tag_57\n  jumpi\n    /* \"#utility.yul\":369:387   */\n  tag_57\n  tag_50\n  jump\t// in\ntag_57:\n    /* \"#utility.yul\":444:446   */\n  0x40\n    /* \"#utility.yul\":438:447   */\n  mload\n    /* \"#utility.yul\":412:414   */\n  0x1f\n    /* \"#utility.yul\":498:511   */\n  dup4\n  add\n  not(0x1f)\n    /* \"#utility.yul\":494:516   */\n  swap1\n  dup2\n  and\n    /* \"#utility.yul\":518:520   */\n  0x3f\n    /* \"#utility.yul\":490:521   */\n  add\n    /* \"#utility.yul\":486:526   */\n  and\n    /* \"#utility.yul\":474:527   */\n  dup2\n  add\n  swap1\n    /* \"#utility.yul\":542:560   */\n  dup3\n  dup3\n  gt\n    /* \"#utility.yul\":562:584   */\n  dup2\n  dup4\n  lt\n    /* \"#utility.yul\":539:585   */\n  or\n    /* \"#utility.yul\":536:608   */\n  iszero\n  tag_59\n  jumpi\n    /* \"#utility.yul\":588:606   */\n  tag_59\n  tag_50\n  jump\t// in\ntag_59:\n    /* \"#utility.yul\":628:638   */\n  dup2\n    /* \"#utility.yul\":624:626   */\n  0x40\n    /* \"#utility.yul\":617:639   */\n  mstore\n    /* \"#utility.yul\":663:665   */\n  dup4\n    /* \"#utility.yul\":655:661   */\n  dup2\n    /* \"#utility.yul\":648:666   */\n  mstore\n    /* \"#utility.yul\":685:689   */\n  0x20\n    /* \"#utility.yul\":675:689   */\n  swap3\n  pop\n    /* \"#utility.yul\":730:733   */\n  dup7\n    /* \"#utility.yul\":725:727   */\n  dup4\n    /* \"#utility.yul\":720:722   */\n  dup6\n    /* \"#utility.yul\":712:718   */\n  dup9\n    /* \"#utility.yul\":708:723   */\n  add\n    /* \"#utility.yul\":704:728   */\n  add\n    /* \"#utility.yul\":701:734   */\n  gt\n    /* \"#utility.yul\":698:751   */\n  iszero\n  tag_60\n  jumpi\n    /* \"#utility.yul\":747:748   */\n  0x00\n    /* \"#utility.yul\":744:745   */\n  dup1\n    /* \"#utility.yul\":737:749   */\n  revert\n    /* \"#utility.yul\":698:751   */\ntag_60:\n    /* \"#utility.yul\":769:770   */\n  0x00\n    /* \"#utility.yul\":760:770   */\n  swap2\n  pop\n    /* \"#utility.yul\":779:912   */\ntag_61:\n    /* \"#utility.yul\":793:795   */\n  dup4\n    /* \"#utility.yul\":790:791   */\n  dup3\n    /* \"#utility.yul\":787:796   */\n  lt\n    /* \"#utility.yul\":779:912   */\n  iszero\n  tag_63\n  jumpi\n    /* \"#utility.yul\":881:895   */\n  dup6\n  dup3\n  add\n    /* \"#utility.yul\":877:900   */\n  dup4\n  add\n    /* \"#utility.yul\":871:901   */\n  mload\n    /* \"#utility.yul\":850:864   */\n  dup2\n  dup4\n  add\n    /* \"#utility.yul\":846:869   */\n  dup5\n  add\n    /* \"#utility.yul\":839:902   */\n  mstore\n    /* \"#utility.yul\":804:814   */\n  swap1\n  dup3\n  add\n  swap1\n    /* \"#utility.yul\":779:912   */\n  jump(tag_61)\ntag_63:\n    /* \"#utility.yul\":930:932   */\n  dup4\n    /* \"#utility.yul\":927:928   */\n  dup3\n    /* \"#utility.yul\":924:933   */\n  gt\n    /* \"#utility.yul\":921:1001   */\n  iszero\n  tag_64\n  jumpi\n    /* \"#utility.yul\":989:990   */\n  0x00\n    /* \"#utility.yul\":984:986   */\n  dup4\n    /* \"#utility.yul\":979:981   */\n  dup6\n    /* \"#utility.yul\":971:977   */\n  dup4\n    /* \"#utility.yul\":967:982   */\n  add\n    /* \"#utility.yul\":963:987   */\n  add\n    /* \"#utility.yul\":956:991   */\n  mstore\n    /* \"#utility.yul\":921:1001   */\ntag_64:\n    /* \"#utility.yul\":1019:1025   */\n  swap7\n    /* \"#utility.yul\":146:1031   */\n  swap6\n  pop\n  pop\n  pop\n  pop\n  pop\n  pop\n  jump\t// out\n    /* \"#utility.yul\":1036:1941   */\ntag_3:\n    /* \"#utility.yul\":1153:1159   */\n  0x00\n    /* \"#utility.yul\":1161:1167   */\n  dup1\n    /* \"#utility.yul\":1169:1175   */\n  0x00\n    /* \"#utility.yul\":1177:1183   */\n  dup1\n    /* \"#utility.yul\":1230:1233   */\n  0x80\n    /* \"#utility.yul\":1218:1227   */\n  dup6\n    /* \"#utility.yul\":1209:1216   */\n  dup8\n    /* \"#utility.yul\":1205:1228   */\n  sub\n    /* \"#utility.yul\":1201:1234   */\n  slt\n    /* \"#utility.yul\":1198:1251   */\n  iszero\n  tag_66\n  jumpi\n    /* \"#utility.yul\":1247:1248   */\n  0x00\n    /* \"#utility.yul\":1244:1245   */\n  dup1\n    /* \"#utility.yul\":1237:1249   */\n  revert\n    /* \"#utility.yul\":1198:1251   */\ntag_66:\n    /* \"#utility.yul\":1274:1290   */\n  dup5\n  mload\n  sub(shl(0x40, 0x01), 0x01)\n    /* \"#utility.yul\":1339:1353   */\n  dup1\n  dup3\n  gt\n    /* \"#utility.yul\":1336:1370   */\n  iszero\n  tag_67\n  jumpi\n    /* \"#utility.yul\":1366:1367   */\n  0x00\n    /* \"#utility.yul\":1363:1364   */\n  dup1\n    /* \"#utility.yul\":1356:1368   */\n  revert\n    /* \"#utility.yul\":1336:1370   */\ntag_67:\n    /* \"#utility.yul\":1389:1450   */\n  tag_68\n    /* \"#utility.yul\":1442:1449   */\n  dup9\n    /* \"#utility.yul\":1433:1439   */\n  dup4\n    /* \"#utility.yul\":1422:1431   */\n  dup10\n    /* \"#utility.yul\":1418:1440   */\n  add\n    /* \"#utility.yul\":1389:1450   */\n  tag_51\n  jump\t// in\ntag_68:\n    /* \"#utility.yul\":1379:1450   */\n  swap6\n  pop\n    /* \"#utility.yul\":1496:1498   */\n  0x20\n    /* \"#utility.yul\":1485:1494   */\n  dup8\n    /* \"#utility.yul\":1481:1499   */\n  add\n    /* \"#utility.yul\":1475:1500   */\n  mload\n    /* \"#utility.yul\":1459:1500   */\n  swap2\n  pop\n    /* \"#utility.yul\":1525:1527   */\n  dup1\n    /* \"#utility.yul\":1515:1523   */\n  dup3\n    /* \"#utility.yul\":1512:1528   */\n  gt\n    /* \"#utility.yul\":1509:1545   */\n  iszero\n  tag_69\n  jumpi\n    /* \"#utility.yul\":1541:1542   */\n  0x00\n    /* \"#utility.yul\":1538:1539   */\n  dup1\n    /* \"#utility.yul\":1531:1543   */\n  revert\n    /* \"#utility.yul\":1509:1545   */\ntag_69:\n  pop\n    /* \"#utility.yul\":1564:1627   */\n  tag_70\n    /* \"#utility.yul\":1619:1626   */\n  dup8\n    /* \"#utility.yul\":1608:1616   */\n  dup3\n    /* \"#utility.yul\":1597:1606   */\n  dup9\n    /* \"#utility.yul\":1593:1617   */\n  add\n    /* \"#utility.yul\":1564:1627   */\n  tag_51\n  jump\t// in\ntag_70:\n    /* \"#utility.yul\":1670:1672   */\n  0x40\n    /* \"#utility.yul\":1655:1673   */\n  dup8\n  add\n    /* \"#utility.yul\":1649:1674   */\n  mload\n    /* \"#utility.yul\":1554:1627   */\n  swap1\n  swap5\n  pop\n    /* \"#utility.yul\":1649:1674   */\n  swap1\n  pop\n  sub(shl(0xa0, 0x01), 0x01)\n    /* \"#utility.yul\":1703:1734   */\n  dup2\n  and\n    /* \"#utility.yul\":1693:1735   */\n  dup2\n  eq\n    /* \"#utility.yul\":1683:1753   */\n  tag_71\n  jumpi\n    /* \"#utility.yul\":1749:1750   */\n  0x00\n    /* \"#utility.yul\":1746:1747   */\n  dup1\n    /* \"#utility.yul\":1739:1751   */\n  revert\n    /* \"#utility.yul\":1683:1753   */\ntag_71:\n    /* \"#utility.yul\":1822:1824   */\n  0x60\n    /* \"#utility.yul\":1807:1825   */\n  dup7\n  add\n    /* \"#utility.yul\":1801:1826   */\n  mload\n    /* \"#utility.yul\":1772:1777   */\n  swap1\n  swap3\n  pop\n  sub(shl(0x80, 0x01), 0x01)\n    /* \"#utility.yul\":1857:1890   */\n  dup2\n  and\n    /* \"#utility.yul\":1845:1891   */\n  dup2\n  eq\n    /* \"#utility.yul\":1835:1909   */\n  tag_72\n  jumpi\n    /* \"#utility.yul\":1905:1906   */\n  0x00\n    /* \"#utility.yul\":1902:1903   */\n  dup1\n    /* \"#utility.yul\":1895:1907   */\n  revert\n    /* \"#utility.yul\":1835:1909   */\ntag_72:\n    /* \"#utility.yul\":1036:1941   */\n  swap4\n  swap7\n  swap3\n  swap6\n  pop\n  swap1\n  swap4\n  pop\n  pop\n  jump\t// out\n    /* \"#utility.yul\":2472:2697   */\ntag_38:\n    /* \"#utility.yul\":2512:2515   */\n  0x00\n    /* \"#utility.yul\":2543:2544   */\n  dup3\n    /* \"#utility.yul\":2539:2545   */\n  not\n    /* \"#utility.yul\":2536:2537   */\n  dup3\n    /* \"#utility.yul\":2533:2546   */\n  gt\n    /* \"#utility.yul\":2530:2666   */\n  iszero\n  tag_76\n  jumpi\n    /* \"#utility.yul\":2588:2598   */\n  0x4e487b71\n    /* \"#utility.yul\":2583:2586   */\n  0xe0\n    /* \"#utility.yul\":2579:2599   */\n  shl\n    /* \"#utility.yul\":2576:2577   */\n  0x00\n    /* \"#utility.yul\":2569:2600   */\n  mstore\n    /* \"#utility.yul\":2623:2627   */\n  0x11\n    /* \"#utility.yul\":2620:2621   */\n  0x04\n    /* \"#utility.yul\":2613:2628   */\n  mstore\n    /* \"#utility.yul\":2651:2655   */\n  0x24\n    /* \"#utility.yul\":2648:2649   */\n  0x00\n    /* \"#utility.yul\":2641:2656   */\n  revert\n    /* \"#utility.yul\":2530:2666   */\ntag_76:\n  pop\n    /* \"#utility.yul\":2682:2691   */\n  add\n  swap1\n    /* \"#utility.yul\":2472:2697   */\n  jump\t// out\n    /* \"#utility.yul\":2702:3082   */\ntag_40:\n    /* \"#utility.yul\":2781:2782   */\n  0x01\n    /* \"#utility.yul\":2777:2789   */\n  dup2\n  dup2\n  shr\n  swap1\n    /* \"#utility.yul\":2824:2836   */\n  dup3\n  and\n  dup1\n    /* \"#utility.yul\":2845:2906   */\n  tag_78\n  jumpi\n    /* \"#utility.yul\":2899:2903   */\n  0x7f\n    /* \"#utility.yul\":2891:2897   */\n  dup3\n    /* \"#utility.yul\":2887:2904   */\n  and\n    /* \"#utility.yul\":2877:2904   */\n  swap2\n  pop\n    /* \"#utility.yul\":2845:2906   */\ntag_78:\n    /* \"#utility.yul\":2952:2954   */\n  0x20\n    /* \"#utility.yul\":2944:2950   */\n  dup3\n    /* \"#utility.yul\":2941:2955   */\n  lt\n    /* \"#utility.yul\":2921:2939   */\n  dup2\n    /* \"#utility.yul\":2918:2956   */\n  sub\n    /* \"#utility.yul\":2915:3076   */\n  tag_79\n  jumpi\n    /* \"#utility.yul\":2998:3008   */\n  0x4e487b71\n    /* \"#utility.yul\":2993:2996   */\n  0xe0\n    /* \"#utility.yul\":2989:3009   */\n  shl\n    /* \"#utility.yul\":2986:2987   */\n  0x00\n    /* \"#utility.yul\":2979:3010   */\n  mstore\n    /* \"#utility.yul\":3033:3037   */\n  0x22\n    /* \"#utility.yul\":3030:3031   */\n  0x04\n    /* \"#utility.yul\":3023:3038   */\n  mstore\n    /* \"#utility.yul\":3061:3065   */\n  0x24\n    /* \"#utility.yul\":3058:3059   */\n  0x00\n    /* \"#utility.yul\":3051:3066   */\n  revert\n    /* \"#utility.yul\":2915:3076   */\ntag_79:\n  pop\n    /* \"#utility.yul\":2702:3082   */\n  swap2\n  swap1\n  pop\n  jump\t// out\ntag_52:\n    /* \"Contract.sol\":182:1394  contract Contract is ERC721Base, PermissionsEnumerable {... */\n  dataSize(sub_0)\n  dup1\n  dataOffset(sub_0)\n  0x00\n  codecopy\n  0x00\n  return\nstop\n\nsub_0: assembly {\n        /* \"Contract.sol\":182:1394  contract Contract is ERC721Base, PermissionsEnumerable {... */\n      mstore(0x40, 0x80)\n      callvalue\n      dup1\n      iszero\n      tag_1\n      jumpi\n      0x00\n      dup1\n      revert\n    tag_1:\n      pop\n      jumpi(tag_2, lt(calldatasize, 0x04))\n      shr(0xe0, calldataload(0x00))\n      dup1\n      0x63b45e2d\n      gt\n      tag_45\n      jumpi\n      dup1\n      0xa217fddf\n      gt\n      tag_46\n      jumpi\n      dup1\n      0xb88d4fde\n      gt\n      tag_47\n      jumpi\n      dup1\n      0xd547741f\n      gt\n      tag_48\n      jumpi\n      dup1\n      0xd547741f\n      eq\n      tag_42\n      jumpi\n      dup1\n      0xe8a3d485\n      eq\n      tag_43\n      jumpi\n      dup1\n      0xe985e9c5\n      eq\n      tag_44\n      jumpi\n      0x00\n      dup1\n      revert\n    tag_48:\n      dup1\n      0xb88d4fde\n      eq\n      tag_39\n      jumpi\n      dup1\n      0xc87b56dd\n      eq\n      tag_40\n      jumpi\n      dup1\n      0xca15c873\n      eq\n      tag_41\n      jumpi\n      0x00\n      dup1\n      revert\n    tag_47:\n      dup1\n      0xa32fa5b3\n      gt\n      tag_49\n      jumpi\n      dup1\n      0xa32fa5b3\n      eq\n      tag_36\n      jumpi\n      dup1\n      0xac9650d8\n      eq\n      tag_37\n      jumpi\n      dup1\n      0xb24f2d39\n      eq\n      tag_38\n      jumpi\n      0x00\n      dup1\n      revert\n    tag_49:\n      dup1\n      0xa217fddf\n      eq\n      tag_34\n      jumpi\n      dup1\n      0xa22cb465\n      eq\n      tag_35\n      jumpi\n      0x00\n      dup1\n      revert\n    tag_46:\n      dup1\n      0x9010d07c\n      gt\n      tag_50\n      jumpi\n      dup1\n      0x938e3d7b\n      gt\n      tag_51\n      jumpi\n      dup1\n      0x938e3d7b\n      eq\n      tag_31\n      jumpi\n      dup1\n      0x95d89b41\n      eq\n      tag_32\n      jumpi\n      dup1\n      0x9bcf7a15\n      eq\n      tag_33\n      jumpi\n      0x00\n      dup1\n      revert\n    tag_51:\n      dup1\n      0x9010d07c\n      eq\n      tag_29\n      jumpi\n      dup1\n      0x91d14854\n      eq\n      tag_30\n      jumpi\n      0x00\n      dup1\n      revert\n    tag_50:\n      dup1\n      0x70a08231\n      gt\n      tag_52\n      jumpi\n      dup1\n      0x70a08231\n      eq\n      tag_26\n      jumpi\n      dup1\n      0x754a81d9\n      eq\n      tag_27\n      jumpi\n      dup1\n      0x8da5cb5b\n      eq\n      tag_28\n      jumpi\n      0x00\n      dup1\n      revert\n    tag_52:\n      dup1\n      0x63b45e2d\n      eq\n      tag_24\n      jumpi\n      dup1\n      0x6741c81b\n      eq\n      tag_25\n      jumpi\n      0x00\n      dup1\n      revert\n    tag_45:\n      dup1\n      0x248a9ca3\n      gt\n      tag_53\n      jumpi\n      dup1\n      0x42842e0e\n      gt\n      tag_54\n      jumpi\n      dup1\n      0x4cc157df\n      gt\n      tag_55\n      jumpi\n      dup1\n      0x4cc157df\n      eq\n      tag_21\n      jumpi\n      dup1\n      0x600dd5ea\n      eq\n      tag_22\n      jumpi\n      dup1\n      0x6352211e\n      eq\n      tag_23\n      jumpi\n      0x00\n      dup1\n      revert\n    tag_55:\n      dup1\n      0x42842e0e\n      eq\n      tag_18\n      jumpi\n      dup1\n      0x42966c68\n      eq\n      tag_19\n      jumpi\n      dup1\n      0x430c2081\n      eq\n      tag_20\n      jumpi\n      0x00\n      dup1\n      revert\n    tag_54:\n      dup1\n      0x2f2ff15d\n      gt\n      tag_56\n      jumpi\n      dup1\n      0x2f2ff15d\n      eq\n      tag_15\n      jumpi\n      dup1\n      0x36568abe\n      eq\n      tag_16\n      jumpi\n      dup1\n      0x3b1475a7\n      eq\n      tag_17\n      jumpi\n      0x00\n      dup1\n      revert\n    tag_56:\n      dup1\n      0x248a9ca3\n      eq\n      tag_13\n      jumpi\n      dup1\n      0x2a55205a\n      eq\n      tag_14\n      jumpi\n      0x00\n      dup1\n      revert\n    tag_53:\n      dup1\n      0x0dee795f\n      gt\n      tag_57\n      jumpi\n      dup1\n      0x18160ddd\n      gt\n      tag_58\n      jumpi\n      dup1\n      0x18160ddd\n      eq\n      tag_10\n      jumpi\n      dup1\n      0x23b872dd\n      eq\n      tag_11\n      jumpi\n      dup1\n      0x2419f51b\n      eq\n      tag_12\n      jumpi\n      0x00\n      dup1\n      revert\n    tag_58:\n      dup1\n      0x0dee795f\n      eq\n      tag_8\n      jumpi\n      dup1\n      0x13af4035\n      eq\n      tag_9\n      jumpi\n      0x00\n      dup1\n      revert\n    tag_57:\n      dup1\n      0x06fdde03\n      gt\n      tag_59\n      jumpi\n      dup1\n      0x06fdde03\n      eq\n      tag_5\n      jumpi\n      dup1\n      0x081812fc\n      eq\n      tag_6\n      jumpi\n      dup1\n      0x095ea7b3\n      eq\n      tag_7\n      jumpi\n      0x00\n      dup1\n      revert\n    tag_59:\n      dup1\n      0x75a317\n      eq\n      tag_3\n      jumpi\n      dup1\n      0x01ffc9a7\n      eq\n      tag_4\n      jumpi\n    tag_2:\n      0x00\n      dup1\n      revert\n        /* \"Contract.sol\":920:1392  function mintTo(address _to, string memory _tokenURI) public virtual override {... */\n    tag_3:\n      tag_60\n      tag_61\n      calldatasize\n      0x04\n      tag_62\n      jump\t// in\n    tag_61:\n      tag_63\n      jump\t// in\n    tag_60:\n      stop\n        /* \"@thirdweb-dev/contracts/base/ERC721Base.sol\":2104:2548   */\n    tag_4:\n      tag_64\n      tag_65\n      calldatasize\n      0x04\n      tag_66\n      jump\t// in\n    tag_65:\n      tag_67\n      jump\t// in\n    tag_64:\n      mload(0x40)\n        /* \"#utility.yul\":2023:2037   */\n      swap1\n      iszero\n        /* \"#utility.yul\":2016:2038   */\n      iszero\n        /* \"#utility.yul\":1998:2039   */\n      dup2\n      mstore\n        /* \"#utility.yul\":1986:1988   */\n      0x20\n        /* \"#utility.yul\":1971:1989   */\n      add\n        /* \"@thirdweb-dev/contracts/base/ERC721Base.sol\":2104:2548   */\n    tag_68:\n      mload(0x40)\n      dup1\n      swap2\n      sub\n      swap1\n      return\n        /* \"@thirdweb-dev/contracts/eip/ERC721A.sol\":6096:6194   */\n    tag_5:\n      tag_70\n      tag_71\n      jump\t// in\n    tag_70:\n      mload(0x40)\n      tag_68\n      swap2\n      swap1\n      tag_73\n      jump\t// in\n        /* \"@thirdweb-dev/contracts/eip/ERC721A.sol\":7574:7774   */\n    tag_6:\n      tag_74\n      tag_75\n      calldatasize\n      0x04\n      tag_76\n      jump\t// in\n    tag_75:\n      tag_77\n      jump\t// in\n    tag_74:\n      mload(0x40)\n      sub(shl(0xa0, 0x01), 0x01)\n        /* \"#utility.yul\":3150:3205   */\n      swap1\n      swap2\n      and\n        /* \"#utility.yul\":3132:3206   */\n      dup2\n      mstore\n        /* \"#utility.yul\":3120:3122   */\n      0x20\n        /* \"#utility.yul\":3105:3123   */\n      add\n        /* \"@thirdweb-dev/contracts/eip/ERC721A.sol\":7574:7774   */\n      tag_68\n        /* \"#utility.yul\":2986:3212   */\n      jump\n        /* \"@thirdweb-dev/contracts/eip/ERC721A.sol\":7129:7513   */\n    tag_7:\n      tag_60\n      tag_81\n      calldatasize\n      0x04\n      tag_82\n      jump\t// in\n    tag_81:\n      tag_83\n      jump\t// in\n        /* \"Contract.sol\":763:914  function setPowerLevel(uint256 _tokenId, uint256 _powerLevel) external onlyRole(DEFAULT_ADMIN_ROLE) {... */\n    tag_8:\n      tag_60\n      tag_85\n      calldatasize\n      0x04\n      tag_86\n      jump\t// in\n    tag_85:\n      tag_87\n      jump\t// in\n        /* \"@thirdweb-dev/contracts/extension/Ownable.sol\":1111:1284   */\n    tag_9:\n      tag_60\n      tag_89\n      calldatasize\n      0x04\n      tag_90\n      jump\t// in\n    tag_89:\n      tag_91\n      jump\t// in\n        /* \"@thirdweb-dev/contracts/eip/ERC721A.sol\":2249:2555   */\n    tag_10:\n        /* \"@thirdweb-dev/contracts/eip/ERC721A.sol\":2508:2520   */\n      sload(0x01)\n        /* \"@thirdweb-dev/contracts/eip/ERC721A.sol\":2302:2309   */\n      0x00\n        /* \"@thirdweb-dev/contracts/eip/ERC721A.sol\":2492:2505   */\n      sload\n        /* \"@thirdweb-dev/contracts/eip/ERC721A.sol\":2492:2520   */\n      sub\n        /* \"@thirdweb-dev/contracts/eip/ERC721A.sol\":2249:2555   */\n    tag_92:\n      mload(0x40)\n        /* \"#utility.yul\":4066:4091   */\n      swap1\n      dup2\n      mstore\n        /* \"#utility.yul\":4054:4056   */\n      0x20\n        /* \"#utility.yul\":4039:4057   */\n      add\n        /* \"@thirdweb-dev/contracts/eip/ERC721A.sol\":2249:2555   */\n      tag_68\n        /* \"#utility.yul\":3920:4097   */\n      jump\n        /* \"@thirdweb-dev/contracts/eip/ERC721A.sol\":8413:8577   */\n    tag_11:\n      tag_60\n      tag_97\n      calldatasize\n      0x04\n      tag_98\n      jump\t// in\n    tag_97:\n      tag_99\n      jump\t// in\n        /* \"@thirdweb-dev/contracts/extension/BatchMintMetadata.sol\":1255:1458   */\n    tag_12:\n      tag_92\n      tag_101\n      calldatasize\n      0x04\n      tag_76\n      jump\t// in\n    tag_101:\n      tag_102\n      jump\t// in\n        /* \"@thirdweb-dev/contracts/extension/Permissions.sol\":2718:2838   */\n    tag_13:\n      tag_92\n      tag_105\n      calldatasize\n      0x04\n      tag_76\n      jump\t// in\n    tag_105:\n        /* \"@thirdweb-dev/contracts/extension/Permissions.sol\":2786:2793   */\n      0x00\n        /* \"@thirdweb-dev/contracts/extension/Permissions.sol\":2812:2831   */\n      swap1\n      dup2\n      mstore\n        /* \"@thirdweb-dev/contracts/extension/Permissions.sol\":2812:2825   */\n      0x10\n        /* \"@thirdweb-dev/contracts/extension/Permissions.sol\":2812:2831   */\n      0x20\n      mstore\n      0x40\n      swap1\n      keccak256\n      sload\n      swap1\n        /* \"@thirdweb-dev/contracts/extension/Permissions.sol\":2718:2838   */\n      jump\n        /* \"@thirdweb-dev/contracts/extension/Royalty.sol\":1399:1746   */\n    tag_14:\n      tag_110\n      tag_111\n      calldatasize\n      0x04\n      tag_86\n      jump\t// in\n    tag_111:\n      tag_112\n      jump\t// in\n    tag_110:\n      0x40\n      dup1\n      mload\n      sub(shl(0xa0, 0x01), 0x01)\n        /* \"#utility.yul\":4994:5049   */\n      swap1\n      swap4\n      and\n        /* \"#utility.yul\":4976:5050   */\n      dup4\n      mstore\n        /* \"#utility.yul\":5081:5083   */\n      0x20\n        /* \"#utility.yul\":5066:5084   */\n      dup4\n      add\n        /* \"#utility.yul\":5059:5093   */\n      swap2\n      swap1\n      swap2\n      mstore\n        /* \"#utility.yul\":4949:4967   */\n      add\n        /* \"@thirdweb-dev/contracts/extension/Royalty.sol\":1399:1746   */\n      tag_68\n        /* \"#utility.yul\":4802:5099   */\n      jump\n        /* \"@thirdweb-dev/contracts/extension/Permissions.sol\":3233:3504   */\n    tag_15:\n      tag_60\n      tag_116\n      calldatasize\n      0x04\n      tag_117\n      jump\t// in\n    tag_116:\n      tag_118\n      jump\t// in\n        /* \"@thirdweb-dev/contracts/extension/Permissions.sol\":4444:4661   */\n    tag_16:\n      tag_60\n      tag_120\n      calldatasize\n      0x04\n      tag_117\n      jump\t// in\n    tag_120:\n      tag_121\n      jump\t// in\n        /* \"@thirdweb-dev/contracts/base/ERC721Base.sol\":5596:5700   */\n    tag_17:\n        /* \"@thirdweb-dev/contracts/base/ERC721Base.sol\":5654:5661   */\n      0x00\n        /* \"@thirdweb-dev/contracts/base/ERC721Base.sol\":5680:5693   */\n      sload\n        /* \"@thirdweb-dev/contracts/base/ERC721Base.sol\":5596:5700   */\n      jump(tag_92)\n        /* \"@thirdweb-dev/contracts/eip/ERC721A.sol\":8643:8822   */\n    tag_18:\n      tag_60\n      tag_126\n      calldatasize\n      0x04\n      tag_98\n      jump\t// in\n    tag_126:\n      tag_127\n      jump\t// in\n        /* \"@thirdweb-dev/contracts/base/ERC721Base.sol\":5254:5341   */\n    tag_19:\n      tag_60\n      tag_129\n      calldatasize\n      0x04\n      tag_76\n      jump\t// in\n    tag_129:\n      tag_130\n      jump\t// in\n        /* \"@thirdweb-dev/contracts/base/ERC721Base.sol\":5800:6157   */\n    tag_20:\n      tag_64\n      tag_132\n      calldatasize\n      0x04\n      tag_82\n      jump\t// in\n    tag_132:\n      tag_133\n      jump\t// in\n        /* \"@thirdweb-dev/contracts/extension/Royalty.sol\":1986:2367   */\n    tag_21:\n      tag_135\n      tag_136\n      calldatasize\n      0x04\n      tag_76\n      jump\t// in\n    tag_136:\n      tag_137\n      jump\t// in\n    tag_135:\n      0x40\n      dup1\n      mload\n      sub(shl(0xa0, 0x01), 0x01)\n        /* \"#utility.yul\":5553:5608   */\n      swap1\n      swap4\n      and\n        /* \"#utility.yul\":5535:5609   */\n      dup4\n      mstore\n        /* \"#utility.yul\":5657:5663   */\n      0xffff\n        /* \"#utility.yul\":5645:5664   */\n      swap1\n      swap2\n      and\n        /* \"#utility.yul\":5640:5642   */\n      0x20\n        /* \"#utility.yul\":5625:5643   */\n      dup4\n      add\n        /* \"#utility.yul\":5618:5665   */\n      mstore\n        /* \"#utility.yul\":5508:5526   */\n      add\n        /* \"@thirdweb-dev/contracts/extension/Royalty.sol\":1986:2367   */\n      tag_68\n        /* \"#utility.yul\":5363:5671   */\n      jump\n        /* \"@thirdweb-dev/contracts/extension/Royalty.sol\":3065:3321   */\n    tag_22:\n      tag_60\n      tag_141\n      calldatasize\n      0x04\n      tag_82\n      jump\t// in\n    tag_141:\n      tag_142\n      jump\t// in\n        /* \"@thirdweb-dev/contracts/eip/ERC721A.sol\":5911:6034   */\n    tag_23:\n      tag_74\n      tag_144\n      calldatasize\n      0x04\n      tag_76\n      jump\t// in\n    tag_144:\n      tag_145\n      jump\t// in\n        /* \"@thirdweb-dev/contracts/extension/BatchMintMetadata.sol\":958:1054   */\n    tag_24:\n        /* \"@thirdweb-dev/contracts/extension/BatchMintMetadata.sol\":1032:1040   */\n      0x0c\n        /* \"@thirdweb-dev/contracts/extension/BatchMintMetadata.sol\":1032:1047   */\n      sload\n        /* \"@thirdweb-dev/contracts/extension/BatchMintMetadata.sol\":958:1054   */\n      jump(tag_92)\n        /* \"Contract.sol\":407:452  mapping(uint256 => uint256) public powerLevel */\n    tag_25:\n      tag_92\n      tag_151\n      calldatasize\n      0x04\n      tag_76\n      jump\t// in\n    tag_151:\n      mstore(0x20, 0x12)\n      0x00\n      swap1\n      dup2\n      mstore\n      0x40\n      swap1\n      keccak256\n      sload\n      dup2\n      jump\n        /* \"@thirdweb-dev/contracts/eip/ERC721A.sol\":3337:3540   */\n    tag_26:\n      tag_92\n      tag_155\n      calldatasize\n      0x04\n      tag_90\n      jump\t// in\n    tag_155:\n      tag_156\n      jump\t// in\n        /* \"@thirdweb-dev/contracts/base/ERC721Base.sol\":4655:4980   */\n    tag_27:\n      tag_60\n      tag_159\n      calldatasize\n      0x04\n      tag_160\n      jump\t// in\n    tag_159:\n      tag_161\n      jump\t// in\n        /* \"@thirdweb-dev/contracts/extension/Ownable.sol\":849:935   */\n    tag_28:\n        /* \"@thirdweb-dev/contracts/extension/Ownable.sol\":922:928   */\n      and(sub(shl(0xa0, 0x01), 0x01), sload(0x09))\n        /* \"@thirdweb-dev/contracts/extension/Ownable.sol\":849:935   */\n      jump(tag_74)\n        /* \"@thirdweb-dev/contracts/extension/PermissionsEnumerable.sol\":1621:2254   */\n    tag_29:\n      tag_74\n      tag_166\n      calldatasize\n      0x04\n      tag_86\n      jump\t// in\n    tag_166:\n      tag_168\n      jump\t// in\n        /* \"@thirdweb-dev/contracts/extension/Permissions.sol\":1302:1433   */\n    tag_30:\n      tag_64\n      tag_171\n      calldatasize\n      0x04\n      tag_117\n      jump\t// in\n    tag_171:\n        /* \"@thirdweb-dev/contracts/extension/Permissions.sol\":1380:1384   */\n      0x00\n        /* \"@thirdweb-dev/contracts/extension/Permissions.sol\":1403:1417   */\n      swap2\n      dup3\n      mstore\n        /* \"@thirdweb-dev/contracts/extension/Permissions.sol\":1403:1411   */\n      0x0f\n        /* \"@thirdweb-dev/contracts/extension/Permissions.sol\":1403:1417   */\n      0x20\n      swap1\n      dup2\n      mstore\n      0x40\n      dup1\n      dup5\n      keccak256\n      sub(shl(0xa0, 0x01), 0x01)\n        /* \"@thirdweb-dev/contracts/extension/Permissions.sol\":1403:1426   */\n      swap4\n      swap1\n      swap4\n      and\n      dup5\n      mstore\n      swap2\n      swap1\n      mstore\n      swap1\n      keccak256\n      sload\n      0xff\n      and\n      swap1\n        /* \"@thirdweb-dev/contracts/extension/Permissions.sol\":1302:1433   */\n      jump\n        /* \"@thirdweb-dev/contracts/extension/ContractMetadata.sol\":981:1169   */\n    tag_31:\n      tag_60\n      tag_175\n      calldatasize\n      0x04\n      tag_176\n      jump\t// in\n    tag_175:\n      tag_177\n      jump\t// in\n        /* \"@thirdweb-dev/contracts/eip/ERC721A.sol\":6258:6360   */\n    tag_32:\n      tag_70\n      tag_179\n      jump\t// in\n        /* \"@thirdweb-dev/contracts/extension/Royalty.sol\":4259:4547   */\n    tag_33:\n      tag_60\n      tag_182\n      calldatasize\n      0x04\n      tag_183\n      jump\t// in\n    tag_182:\n      tag_184\n      jump\t// in\n        /* \"@thirdweb-dev/contracts/extension/Permissions.sol\":720:769   */\n    tag_34:\n      tag_92\n        /* \"@thirdweb-dev/contracts/extension/Permissions.sol\":765:769   */\n      0x00\n        /* \"@thirdweb-dev/contracts/extension/Permissions.sol\":720:769   */\n      dup2\n      jump\n        /* \"@thirdweb-dev/contracts/eip/ERC721A.sol\":7841:8123   */\n    tag_35:\n      tag_60\n      tag_189\n      calldatasize\n      0x04\n      tag_190\n      jump\t// in\n    tag_189:\n      tag_191\n      jump\t// in\n        /* \"@thirdweb-dev/contracts/extension/Permissions.sol\":2184:2395   */\n    tag_36:\n      tag_64\n      tag_193\n      calldatasize\n      0x04\n      tag_117\n      jump\t// in\n    tag_193:\n      tag_194\n      jump\t// in\n        /* \"@thirdweb-dev/contracts/extension/Multicall.sol\":740:1059   */\n    tag_37:\n      tag_196\n      tag_197\n      calldatasize\n      0x04\n      tag_198\n      jump\t// in\n    tag_197:\n      tag_199\n      jump\t// in\n    tag_196:\n      mload(0x40)\n      tag_68\n      swap2\n      swap1\n      tag_201\n      jump\t// in\n        /* \"@thirdweb-dev/contracts/extension/Royalty.sol\":2477:2621   */\n    tag_38:\n        /* \"@thirdweb-dev/contracts/extension/Royalty.sol\":2577:2593   */\n      sload(0x0a)\n      sub(shl(0xa0, 0x01), 0x01)\n      dup2\n      and\n      swap1\n      shl(0xa0, 0x01)\n        /* \"@thirdweb-dev/contracts/extension/Royalty.sol\":2602:2612   */\n      swap1\n      div\n      0xffff\n      and\n        /* \"@thirdweb-dev/contracts/extension/Royalty.sol\":2477:2621   */\n      jump(tag_135)\n        /* \"@thirdweb-dev/contracts/eip/ERC721A.sol\":8888:9269   */\n    tag_39:\n      tag_60\n      tag_206\n      calldatasize\n      0x04\n      tag_207\n      jump\t// in\n    tag_206:\n      tag_208\n      jump\t// in\n        /* \"@thirdweb-dev/contracts/base/ERC721Base.sol\":2962:3341   */\n    tag_40:\n      tag_70\n      tag_210\n      calldatasize\n      0x04\n      tag_76\n      jump\t// in\n    tag_210:\n      tag_211\n      jump\t// in\n        /* \"@thirdweb-dev/contracts/extension/PermissionsEnumerable.sol\":2661:3059   */\n    tag_41:\n      tag_92\n      tag_214\n      calldatasize\n      0x04\n      tag_76\n      jump\t// in\n    tag_214:\n      tag_215\n      jump\t// in\n        /* \"@thirdweb-dev/contracts/extension/Permissions.sol\":3875:4046   */\n    tag_42:\n      tag_60\n      tag_218\n      calldatasize\n      0x04\n      tag_117\n      jump\t// in\n    tag_218:\n      tag_219\n      jump\t// in\n        /* \"@thirdweb-dev/contracts/extension/ContractMetadata.sol\":543:577   */\n    tag_43:\n      tag_70\n      tag_221\n      jump\t// in\n        /* \"@thirdweb-dev/contracts/eip/ERC721A.sol\":8189:8351   */\n    tag_44:\n      tag_64\n      tag_224\n      calldatasize\n      0x04\n      tag_225\n      jump\t// in\n    tag_224:\n      sub(shl(0xa0, 0x01), 0x01)\n        /* \"@thirdweb-dev/contracts/eip/ERC721A.sol\":8309:8334   */\n      swap2\n      dup3\n      and\n        /* \"@thirdweb-dev/contracts/eip/ERC721A.sol\":8286:8290   */\n      0x00\n        /* \"@thirdweb-dev/contracts/eip/ERC721A.sol\":8309:8334   */\n      swap1\n      dup2\n      mstore\n        /* \"@thirdweb-dev/contracts/eip/ERC721A.sol\":8309:8327   */\n      0x07\n        /* \"@thirdweb-dev/contracts/eip/ERC721A.sol\":8309:8334   */\n      0x20\n      swap1\n      dup2\n      mstore\n      0x40\n      dup1\n      dup4\n      keccak256\n        /* \"@thirdweb-dev/contracts/eip/ERC721A.sol\":8309:8344   */\n      swap4\n      swap1\n      swap5\n      and\n      dup3\n      mstore\n      swap2\n      swap1\n      swap2\n      mstore\n      keccak256\n      sload\n      0xff\n      and\n      swap1\n        /* \"@thirdweb-dev/contracts/eip/ERC721A.sol\":8189:8351   */\n      jump\n        /* \"Contract.sol\":920:1392  function mintTo(address _to, string memory _tokenURI) public virtual override {... */\n    tag_63:\n        /* \"Contract.sol\":1080:1095  uint256 tokenId */\n      0x00\n        /* \"@thirdweb-dev/contracts/base/ERC721Base.sol\":5680:5693   */\n      sload\n        /* \"Contract.sol\":1259:1287  super.mintTo(_to, _tokenURI) */\n      tag_231\n        /* \"Contract.sol\":1272:1275  _to */\n      dup4\n        /* \"Contract.sol\":1277:1286  _tokenURI */\n      dup4\n        /* \"Contract.sol\":1259:1271  super.mintTo */\n      tag_232\n        /* \"Contract.sol\":1259:1287  super.mintTo(_to, _tokenURI) */\n      jump\t// in\n    tag_231:\n        /* \"Contract.sol\":1356:1375  powerLevel[tokenId] */\n      0x00\n      dup2\n      dup2\n      mstore\n        /* \"Contract.sol\":1356:1366  powerLevel */\n      0x12\n        /* \"Contract.sol\":1356:1375  powerLevel[tokenId] */\n      0x20\n      mstore\n      0x40\n      swap1\n      keccak256\n        /* \"Contract.sol\":1356:1385  powerLevel[tokenId] = tokenId */\n      sstore\n      pop\n      pop\n        /* \"Contract.sol\":920:1392  function mintTo(address _to, string memory _tokenURI) public virtual override {... */\n      jump\t// out\n        /* \"@thirdweb-dev/contracts/base/ERC721Base.sol\":2104:2548   */\n    tag_67:\n        /* \"@thirdweb-dev/contracts/base/ERC721Base.sol\":2207:2211   */\n      0x00\n      shl(0xe0, 0x01ffc9a7)\n      not(sub(shl(0xe0, 0x01), 0x01))\n        /* \"@thirdweb-dev/contracts/base/ERC721Base.sol\":2242:2267   */\n      dup4\n      and\n      eq\n      dup1\n        /* \"@thirdweb-dev/contracts/base/ERC721Base.sol\":2242:2342   */\n      tag_234\n      jumpi\n      pop\n      shl(0xe0, 0x80ac58cd)\n      not(sub(shl(0xe0, 0x01), 0x01))\n        /* \"@thirdweb-dev/contracts/base/ERC721Base.sol\":2317:2342   */\n      dup4\n      and\n      eq\n        /* \"@thirdweb-dev/contracts/base/ERC721Base.sol\":2242:2342   */\n    tag_234:\n        /* \"@thirdweb-dev/contracts/base/ERC721Base.sol\":2242:2417   */\n      dup1\n      tag_235\n      jumpi\n      pop\n      shl(0xe0, 0x5b5e139f)\n      not(sub(shl(0xe0, 0x01), 0x01))\n        /* \"@thirdweb-dev/contracts/base/ERC721Base.sol\":2392:2417   */\n      dup4\n      and\n      eq\n        /* \"@thirdweb-dev/contracts/base/ERC721Base.sol\":2242:2417   */\n    tag_235:\n        /* \"@thirdweb-dev/contracts/base/ERC721Base.sol\":2242:2516   */\n      dup1\n      tag_236\n      jumpi\n      pop\n      not(sub(shl(0xe0, 0x01), 0x01))\n        /* \"@thirdweb-dev/contracts/base/ERC721Base.sol\":2475:2516   */\n      dup3\n      and\n      shl(0xe1, 0x152a902d)\n      eq\n        /* \"@thirdweb-dev/contracts/base/ERC721Base.sol\":2242:2516   */\n    tag_236:\n        /* \"@thirdweb-dev/contracts/base/ERC721Base.sol\":2223:2516   */\n      swap3\n        /* \"@thirdweb-dev/contracts/base/ERC721Base.sol\":2104:2548   */\n      swap2\n      pop\n      pop\n      jump\t// out\n        /* \"@thirdweb-dev/contracts/eip/ERC721A.sol\":6096:6194   */\n    tag_71:\n        /* \"@thirdweb-dev/contracts/eip/ERC721A.sol\":6150:6163   */\n      0x60\n        /* \"@thirdweb-dev/contracts/eip/ERC721A.sol\":6182:6187   */\n      0x02\n        /* \"@thirdweb-dev/contracts/eip/ERC721A.sol\":6175:6187   */\n      dup1\n      sload\n      tag_238\n      swap1\n      tag_239\n      jump\t// in\n    tag_238:\n      dup1\n      0x1f\n      add\n      0x20\n      dup1\n      swap2\n      div\n      mul\n      0x20\n      add\n      mload(0x40)\n      swap1\n      dup2\n      add\n      0x40\n      mstore\n      dup1\n      swap3\n      swap2\n      swap1\n      dup2\n      dup2\n      mstore\n      0x20\n      add\n      dup3\n      dup1\n      sload\n      tag_240\n      swap1\n      tag_239\n      jump\t// in\n    tag_240:\n      dup1\n      iszero\n      tag_241\n      jumpi\n      dup1\n      0x1f\n      lt\n      tag_242\n      jumpi\n      0x0100\n      dup1\n      dup4\n      sload\n      div\n      mul\n      dup4\n      mstore\n      swap2\n      0x20\n      add\n      swap2\n      jump(tag_241)\n    tag_242:\n      dup3\n      add\n      swap2\n      swap1\n      0x00\n      mstore\n      keccak256(0x00, 0x20)\n      swap1\n    tag_243:\n      dup2\n      sload\n      dup2\n      mstore\n      swap1\n      0x01\n      add\n      swap1\n      0x20\n      add\n      dup1\n      dup4\n      gt\n      tag_243\n      jumpi\n      dup3\n      swap1\n      sub\n      0x1f\n      and\n      dup3\n      add\n      swap2\n    tag_241:\n      pop\n      pop\n      pop\n      pop\n      pop\n      swap1\n      pop\n        /* \"@thirdweb-dev/contracts/eip/ERC721A.sol\":6096:6194   */\n      swap1\n      jump\t// out\n        /* \"@thirdweb-dev/contracts/eip/ERC721A.sol\":7574:7774   */\n    tag_77:\n        /* \"@thirdweb-dev/contracts/eip/ERC721A.sol\":7642:7649   */\n      0x00\n        /* \"@thirdweb-dev/contracts/eip/ERC721A.sol\":7666:7682   */\n      tag_245\n        /* \"@thirdweb-dev/contracts/eip/ERC721A.sol\":7674:7681   */\n      dup3\n        /* \"@thirdweb-dev/contracts/eip/ERC721A.sol\":7666:7673   */\n      tag_246\n        /* \"@thirdweb-dev/contracts/eip/ERC721A.sol\":7666:7682   */\n      jump\t// in\n    tag_245:\n        /* \"@thirdweb-dev/contracts/eip/ERC721A.sol\":7661:7725   */\n      tag_247\n      jumpi\n        /* \"@thirdweb-dev/contracts/eip/ERC721A.sol\":7691:7725   */\n      mload(0x40)\n      shl(0xe2, 0x33d1c039)\n      dup2\n      mstore\n      0x04\n      add\n      mload(0x40)\n      dup1\n      swap2\n      sub\n      swap1\n      revert\n        /* \"@thirdweb-dev/contracts/eip/ERC721A.sol\":7661:7725   */\n    tag_247:\n      pop\n        /* \"@thirdweb-dev/contracts/eip/ERC721A.sol\":7743:7767   */\n      0x00\n      swap1\n      dup2\n      mstore\n        /* \"@thirdweb-dev/contracts/eip/ERC721A.sol\":7743:7758   */\n      0x06\n        /* \"@thirdweb-dev/contracts/eip/ERC721A.sol\":7743:7767   */\n      0x20\n      mstore\n      0x40\n      swap1\n      keccak256\n      sload\n      sub(shl(0xa0, 0x01), 0x01)\n      and\n      swap1\n        /* \"@thirdweb-dev/contracts/eip/ERC721A.sol\":7574:7774   */\n      jump\t// out\n        /* \"@thirdweb-dev/contracts/eip/ERC721A.sol\":7129:7513   */\n    tag_83:\n        /* \"@thirdweb-dev/contracts/eip/ERC721A.sol\":7201:7214   */\n      0x00\n        /* \"@thirdweb-dev/contracts/eip/ERC721A.sol\":7217:7241   */\n      tag_249\n        /* \"@thirdweb-dev/contracts/eip/ERC721A.sol\":7233:7240   */\n      dup3\n        /* \"@thirdweb-dev/contracts/eip/ERC721A.sol\":7217:7232   */\n      tag_145\n        /* \"@thirdweb-dev/contracts/eip/ERC721A.sol\":7217:7241   */\n      jump\t// in\n    tag_249:\n        /* \"@thirdweb-dev/contracts/eip/ERC721A.sol\":7201:7241   */\n      swap1\n      pop\n        /* \"@thirdweb-dev/contracts/eip/ERC721A.sol\":7261:7266   */\n      dup1\n      sub(shl(0xa0, 0x01), 0x01)\n        /* \"@thirdweb-dev/contracts/eip/ERC721A.sol\":7255:7266   */\n      and\n        /* \"@thirdweb-dev/contracts/eip/ERC721A.sol\":7255:7257   */\n      dup4\n      sub(shl(0xa0, 0x01), 0x01)\n        /* \"@thirdweb-dev/contracts/eip/ERC721A.sol\":7255:7266   */\n      and\n      sub\n        /* \"@thirdweb-dev/contracts/eip/ERC721A.sol\":7251:7299   */\n      tag_250\n      jumpi\n        /* \"@thirdweb-dev/contracts/eip/ERC721A.sol\":7275:7299   */\n      mload(0x40)\n      shl(0xe2, 0x250fdee3)\n      dup2\n      mstore\n      0x04\n      add\n      mload(0x40)\n      dup1\n      swap2\n      sub\n      swap1\n      revert\n        /* \"@thirdweb-dev/contracts/eip/ERC721A.sol\":7251:7299   */\n    tag_250:\n        /* \"@thirdweb-dev/contracts/openzeppelin-presets/utils/Context.sol\":719:729   */\n      caller\n      sub(shl(0xa0, 0x01), 0x01)\n        /* \"@thirdweb-dev/contracts/eip/ERC721A.sol\":7314:7335   */\n      dup3\n      and\n      eq\n        /* \"@thirdweb-dev/contracts/eip/ERC721A.sol\":7310:7468   */\n      tag_256\n      jumpi\n        /* \"@thirdweb-dev/contracts/eip/ERC721A.sol\":7354:7391   */\n      tag_254\n        /* \"@thirdweb-dev/contracts/eip/ERC721A.sol\":7371:7376   */\n      dup2\n        /* \"@thirdweb-dev/contracts/openzeppelin-presets/utils/Context.sol\":719:729   */\n      caller\n        /* \"@thirdweb-dev/contracts/eip/ERC721A.sol\":8189:8351   */\n      tag_224\n      jump\t// in\n        /* \"@thirdweb-dev/contracts/eip/ERC721A.sol\":7354:7391   */\n    tag_254:\n        /* \"@thirdweb-dev/contracts/eip/ERC721A.sol\":7349:7468   */\n      tag_256\n      jumpi\n        /* \"@thirdweb-dev/contracts/eip/ERC721A.sol\":7418:7453   */\n      mload(0x40)\n      shl(0xe1, 0x67d9dca1)\n      dup2\n      mstore\n      0x04\n      add\n      mload(0x40)\n      dup1\n      swap2\n      sub\n      swap1\n      revert\n        /* \"@thirdweb-dev/contracts/eip/ERC721A.sol\":7349:7468   */\n    tag_256:\n        /* \"@thirdweb-dev/contracts/eip/ERC721A.sol\":7478:7506   */\n      tag_257\n        /* \"@thirdweb-dev/contracts/eip/ERC721A.sol\":7487:7489   */\n      dup4\n        /* \"@thirdweb-dev/contracts/eip/ERC721A.sol\":7491:7498   */\n      dup4\n        /* \"@thirdweb-dev/contracts/eip/ERC721A.sol\":7500:7505   */\n      dup4\n        /* \"@thirdweb-dev/contracts/eip/ERC721A.sol\":7478:7486   */\n      tag_258\n        /* \"@thirdweb-dev/contracts/eip/ERC721A.sol\":7478:7506   */\n      jump\t// in\n    tag_257:\n        /* \"@thirdweb-dev/contracts/eip/ERC721A.sol\":7191:7513   */\n      pop\n        /* \"@thirdweb-dev/contracts/eip/ERC721A.sol\":7129:7513   */\n      pop\n      pop\n      jump\t// out\n        /* \"Contract.sol\":763:914  function setPowerLevel(uint256 _tokenId, uint256 _powerLevel) external onlyRole(DEFAULT_ADMIN_ROLE) {... */\n    tag_87:\n        /* \"@thirdweb-dev/contracts/extension/Permissions.sol\":765:769   */\n      0x00\n        /* \"@thirdweb-dev/contracts/extension/Permissions.sol\":909:937   */\n      tag_260\n        /* \"@thirdweb-dev/contracts/extension/Permissions.sol\":765:769   */\n      dup2\n        /* \"@thirdweb-dev/contracts/extension/Permissions.sol\":926:936   */\n      caller\n        /* \"@thirdweb-dev/contracts/extension/Permissions.sol\":909:919   */\n      tag_261\n        /* \"@thirdweb-dev/contracts/extension/Permissions.sol\":909:937   */\n      jump\t// in\n    tag_260:\n      pop\n        /* \"Contract.sol\":873:893  powerLevel[_tokenId] */\n      0x00\n      swap2\n      dup3\n      mstore\n        /* \"Contract.sol\":873:883  powerLevel */\n      0x12\n        /* \"Contract.sol\":873:893  powerLevel[_tokenId] */\n      0x20\n      mstore\n      0x40\n      swap1\n      swap2\n      keccak256\n        /* \"Contract.sol\":873:907  powerLevel[_tokenId] = _powerLevel */\n      sstore\n        /* \"Contract.sol\":763:914  function setPowerLevel(uint256 _tokenId, uint256 _powerLevel) external onlyRole(DEFAULT_ADMIN_ROLE) {... */\n      jump\t// out\n        /* \"@thirdweb-dev/contracts/extension/Ownable.sol\":1111:1284   */\n    tag_91:\n        /* \"@thirdweb-dev/contracts/extension/Ownable.sol\":1181:1195   */\n      tag_264\n        /* \"@thirdweb-dev/contracts/extension/Ownable.sol\":1181:1193   */\n      tag_265\n        /* \"@thirdweb-dev/contracts/extension/Ownable.sol\":1181:1195   */\n      jump\t// in\n    tag_264:\n        /* \"@thirdweb-dev/contracts/extension/Ownable.sol\":1176:1246   */\n      tag_266\n      jumpi\n        /* \"@thirdweb-dev/contracts/extension/Ownable.sol\":1211:1235   */\n      mload(0x40)\n      shl(0xe5, 0x461bcd)\n      dup2\n      mstore\n        /* \"#utility.yul\":10457:10459   */\n      0x20\n        /* \"@thirdweb-dev/contracts/extension/Ownable.sol\":1211:1235   */\n      0x04\n      dup3\n      add\n        /* \"#utility.yul\":10439:10460   */\n      mstore\n        /* \"#utility.yul\":10496:10498   */\n      0x0e\n        /* \"#utility.yul\":10476:10494   */\n      0x24\n      dup3\n      add\n        /* \"#utility.yul\":10469:10499   */\n      mstore\n      shl(0x92, 0x139bdd08185d5d1a1bdc9a5e9959)\n        /* \"#utility.yul\":10515:10533   */\n      0x44\n      dup3\n      add\n        /* \"#utility.yul\":10508:10552   */\n      mstore\n        /* \"#utility.yul\":10569:10587   */\n      0x64\n      add\n        /* \"@thirdweb-dev/contracts/extension/Ownable.sol\":1211:1235   */\n    tag_267:\n      mload(0x40)\n      dup1\n      swap2\n      sub\n      swap1\n      revert\n        /* \"@thirdweb-dev/contracts/extension/Ownable.sol\":1176:1246   */\n    tag_266:\n        /* \"@thirdweb-dev/contracts/extension/Ownable.sol\":1255:1277   */\n      tag_269\n        /* \"@thirdweb-dev/contracts/extension/Ownable.sol\":1267:1276   */\n      dup2\n        /* \"@thirdweb-dev/contracts/extension/Ownable.sol\":1255:1266   */\n      tag_270\n        /* \"@thirdweb-dev/contracts/extension/Ownable.sol\":1255:1277   */\n      jump\t// in\n    tag_269:\n        /* \"@thirdweb-dev/contracts/extension/Ownable.sol\":1111:1284   */\n      pop\n      jump\t// out\n        /* \"@thirdweb-dev/contracts/eip/ERC721A.sol\":8413:8577   */\n    tag_99:\n        /* \"@thirdweb-dev/contracts/eip/ERC721A.sol\":8542:8570   */\n      tag_257\n        /* \"@thirdweb-dev/contracts/eip/ERC721A.sol\":8552:8556   */\n      dup4\n        /* \"@thirdweb-dev/contracts/eip/ERC721A.sol\":8558:8560   */\n      dup4\n        /* \"@thirdweb-dev/contracts/eip/ERC721A.sol\":8562:8569   */\n      dup4\n        /* \"@thirdweb-dev/contracts/eip/ERC721A.sol\":8542:8551   */\n      tag_276\n        /* \"@thirdweb-dev/contracts/eip/ERC721A.sol\":8542:8570   */\n      jump\t// in\n        /* \"@thirdweb-dev/contracts/extension/BatchMintMetadata.sol\":1255:1458   */\n    tag_102:\n        /* \"@thirdweb-dev/contracts/extension/BatchMintMetadata.sol\":1319:1326   */\n      0x00\n        /* \"@thirdweb-dev/contracts/extension/BatchMintMetadata.sol\":1352:1369   */\n      tag_278\n        /* \"@thirdweb-dev/contracts/extension/BatchMintMetadata.sol\":1032:1040   */\n      0x0c\n        /* \"@thirdweb-dev/contracts/extension/BatchMintMetadata.sol\":1032:1047   */\n      sload\n      swap1\n        /* \"@thirdweb-dev/contracts/extension/BatchMintMetadata.sol\":958:1054   */\n      jump\n        /* \"@thirdweb-dev/contracts/extension/BatchMintMetadata.sol\":1352:1369   */\n    tag_278:\n        /* \"@thirdweb-dev/contracts/extension/BatchMintMetadata.sol\":1342:1348   */\n      dup3\n        /* \"@thirdweb-dev/contracts/extension/BatchMintMetadata.sol\":1342:1369   */\n      lt\n        /* \"@thirdweb-dev/contracts/extension/BatchMintMetadata.sol\":1338:1419   */\n      tag_279\n      jumpi\n        /* \"@thirdweb-dev/contracts/extension/BatchMintMetadata.sol\":1385:1408   */\n      mload(0x40)\n      shl(0xe5, 0x461bcd)\n      dup2\n      mstore\n        /* \"#utility.yul\":10800:10802   */\n      0x20\n        /* \"@thirdweb-dev/contracts/extension/BatchMintMetadata.sol\":1385:1408   */\n      0x04\n      dup3\n      add\n        /* \"#utility.yul\":10782:10803   */\n      mstore\n        /* \"#utility.yul\":10839:10841   */\n      0x0d\n        /* \"#utility.yul\":10819:10837   */\n      0x24\n      dup3\n      add\n        /* \"#utility.yul\":10812:10842   */\n      mstore\n        /* \"#utility.yul\":10878:10893   */\n      0x496e76616c696420696e64657800000000000000000000000000000000000000\n        /* \"#utility.yul\":10858:10876   */\n      0x44\n      dup3\n      add\n        /* \"#utility.yul\":10851:10894   */\n      mstore\n        /* \"#utility.yul\":10911:10929   */\n      0x64\n      add\n        /* \"@thirdweb-dev/contracts/extension/BatchMintMetadata.sol\":1385:1408   */\n      tag_267\n        /* \"#utility.yul\":10598:10935   */\n      jump\n        /* \"@thirdweb-dev/contracts/extension/BatchMintMetadata.sol\":1338:1419   */\n    tag_279:\n        /* \"@thirdweb-dev/contracts/extension/BatchMintMetadata.sol\":1435:1443   */\n      0x0c\n        /* \"@thirdweb-dev/contracts/extension/BatchMintMetadata.sol\":1444:1450   */\n      dup3\n        /* \"@thirdweb-dev/contracts/extension/BatchMintMetadata.sol\":1435:1451   */\n      dup2\n      sload\n      dup2\n      lt\n      tag_283\n      jumpi\n      tag_283\n      tag_284\n      jump\t// in\n    tag_283:\n      swap1\n      0x00\n      mstore\n      keccak256(0x00, 0x20)\n      add\n      sload\n        /* \"@thirdweb-dev/contracts/extension/BatchMintMetadata.sol\":1428:1451   */\n      swap1\n      pop\n        /* \"@thirdweb-dev/contracts/extension/BatchMintMetadata.sol\":1255:1458   */\n      swap2\n      swap1\n      pop\n      jump\t// out\n        /* \"@thirdweb-dev/contracts/extension/Royalty.sol\":1399:1746   */\n    tag_112:\n        /* \"@thirdweb-dev/contracts/extension/Royalty.sol\":1536:1552   */\n      0x00\n        /* \"@thirdweb-dev/contracts/extension/Royalty.sol\":1554:1575   */\n      dup1\n        /* \"@thirdweb-dev/contracts/extension/Royalty.sol\":1592:1609   */\n      0x00\n        /* \"@thirdweb-dev/contracts/extension/Royalty.sol\":1611:1622   */\n      dup1\n        /* \"@thirdweb-dev/contracts/extension/Royalty.sol\":1626:1657   */\n      tag_288\n        /* \"@thirdweb-dev/contracts/extension/Royalty.sol\":1649:1656   */\n      dup7\n        /* \"@thirdweb-dev/contracts/extension/Royalty.sol\":1626:1648   */\n      tag_137\n        /* \"@thirdweb-dev/contracts/extension/Royalty.sol\":1626:1657   */\n      jump\t// in\n    tag_288:\n        /* \"@thirdweb-dev/contracts/extension/Royalty.sol\":1591:1657   */\n      swap1\n      swap5\n      pop\n      dup5\n      swap3\n      pop\n      0xffff\n      and\n      swap1\n      pop\n        /* \"@thirdweb-dev/contracts/extension/Royalty.sol\":1733:1739   */\n      0x2710\n        /* \"@thirdweb-dev/contracts/extension/Royalty.sol\":1714:1729   */\n      tag_289\n        /* \"@thirdweb-dev/contracts/extension/Royalty.sol\":1591:1657   */\n      dup3\n        /* \"@thirdweb-dev/contracts/extension/Royalty.sol\":1714:1723   */\n      dup8\n        /* \"@thirdweb-dev/contracts/extension/Royalty.sol\":1714:1729   */\n      tag_290\n      jump\t// in\n    tag_289:\n        /* \"@thirdweb-dev/contracts/extension/Royalty.sol\":1713:1739   */\n      tag_291\n      swap2\n      swap1\n      tag_292\n      jump\t// in\n    tag_291:\n        /* \"@thirdweb-dev/contracts/extension/Royalty.sol\":1697:1739   */\n      swap3\n      pop\n        /* \"@thirdweb-dev/contracts/extension/Royalty.sol\":1581:1746   */\n      pop\n      pop\n        /* \"@thirdweb-dev/contracts/extension/Royalty.sol\":1399:1746   */\n      swap3\n      pop\n      swap3\n      swap1\n      pop\n      jump\t// out\n        /* \"@thirdweb-dev/contracts/extension/Permissions.sol\":3233:3504   */\n    tag_118:\n        /* \"@thirdweb-dev/contracts/extension/Permissions.sol\":3328:3347   */\n      0x00\n      dup3\n      dup2\n      mstore\n        /* \"@thirdweb-dev/contracts/extension/Permissions.sol\":3328:3341   */\n      0x10\n        /* \"@thirdweb-dev/contracts/extension/Permissions.sol\":3328:3347   */\n      0x20\n      mstore\n      0x40\n      swap1\n      keccak256\n      sload\n        /* \"@thirdweb-dev/contracts/extension/Permissions.sol\":3317:3360   */\n      tag_294\n      swap1\n        /* \"@thirdweb-dev/contracts/extension/Permissions.sol\":3349:3359   */\n      caller\n        /* \"@thirdweb-dev/contracts/extension/Permissions.sol\":3317:3327   */\n      tag_261\n        /* \"@thirdweb-dev/contracts/extension/Permissions.sol\":3317:3360   */\n      jump\t// in\n    tag_294:\n        /* \"@thirdweb-dev/contracts/extension/Permissions.sol\":3374:3388   */\n      0x00\n      dup3\n      dup2\n      mstore\n        /* \"@thirdweb-dev/contracts/extension/Permissions.sol\":3374:3382   */\n      0x0f\n        /* \"@thirdweb-dev/contracts/extension/Permissions.sol\":3374:3388   */\n      0x20\n      swap1\n      dup2\n      mstore\n      0x40\n      dup1\n      dup4\n      keccak256\n      sub(shl(0xa0, 0x01), 0x01)\n        /* \"@thirdweb-dev/contracts/extension/Permissions.sol\":3374:3397   */\n      dup6\n      and\n      dup5\n      mstore\n      swap1\n      swap2\n      mstore\n      swap1\n      keccak256\n      sload\n      0xff\n      and\n        /* \"@thirdweb-dev/contracts/extension/Permissions.sol\":3370:3463   */\n      iszero\n      tag_295\n      jumpi\n        /* \"@thirdweb-dev/contracts/extension/Permissions.sol\":3413:3452   */\n      mload(0x40)\n      shl(0xe5, 0x461bcd)\n      dup2\n      mstore\n        /* \"#utility.yul\":11836:11838   */\n      0x20\n        /* \"@thirdweb-dev/contracts/extension/Permissions.sol\":3413:3452   */\n      0x04\n      dup3\n      add\n        /* \"#utility.yul\":11818:11839   */\n      mstore\n        /* \"#utility.yul\":11875:11877   */\n      0x1d\n        /* \"#utility.yul\":11855:11873   */\n      0x24\n      dup3\n      add\n        /* \"#utility.yul\":11848:11878   */\n      mstore\n        /* \"#utility.yul\":11914:11945   */\n      0x43616e206f6e6c79206772616e7420746f206e6f6e20686f6c64657273000000\n        /* \"#utility.yul\":11894:11912   */\n      0x44\n      dup3\n      add\n        /* \"#utility.yul\":11887:11946   */\n      mstore\n        /* \"#utility.yul\":11963:11981   */\n      0x64\n      add\n        /* \"@thirdweb-dev/contracts/extension/Permissions.sol\":3413:3452   */\n      tag_267\n        /* \"#utility.yul\":11634:11987   */\n      jump\n        /* \"@thirdweb-dev/contracts/extension/Permissions.sol\":3370:3463   */\n    tag_295:\n        /* \"@thirdweb-dev/contracts/extension/Permissions.sol\":3472:3497   */\n      tag_298\n        /* \"@thirdweb-dev/contracts/extension/Permissions.sol\":3483:3487   */\n      dup3\n        /* \"@thirdweb-dev/contracts/extension/Permissions.sol\":3489:3496   */\n      dup3\n        /* \"@thirdweb-dev/contracts/extension/Permissions.sol\":3472:3482   */\n      tag_299\n        /* \"@thirdweb-dev/contracts/extension/Permissions.sol\":3472:3497   */\n      jump\t// in\n    tag_298:\n        /* \"@thirdweb-dev/contracts/extension/Permissions.sol\":3233:3504   */\n      pop\n      pop\n      jump\t// out\n        /* \"@thirdweb-dev/contracts/extension/Permissions.sol\":4444:4661   */\n    tag_121:\n        /* \"@thirdweb-dev/contracts/extension/Permissions.sol\":4535:4545   */\n      caller\n      sub(shl(0xa0, 0x01), 0x01)\n        /* \"@thirdweb-dev/contracts/extension/Permissions.sol\":4535:4556   */\n      dup3\n      and\n      eq\n        /* \"@thirdweb-dev/contracts/extension/Permissions.sol\":4531:4619   */\n      tag_301\n      jumpi\n        /* \"@thirdweb-dev/contracts/extension/Permissions.sol\":4572:4608   */\n      mload(0x40)\n      shl(0xe5, 0x461bcd)\n      dup2\n      mstore\n        /* \"#utility.yul\":12194:12196   */\n      0x20\n        /* \"@thirdweb-dev/contracts/extension/Permissions.sol\":4572:4608   */\n      0x04\n      dup3\n      add\n        /* \"#utility.yul\":12176:12197   */\n      mstore\n        /* \"#utility.yul\":12233:12235   */\n      0x1a\n        /* \"#utility.yul\":12213:12231   */\n      0x24\n      dup3\n      add\n        /* \"#utility.yul\":12206:12236   */\n      mstore\n        /* \"#utility.yul\":12272:12300   */\n      0x43616e206f6e6c792072656e6f756e636520666f722073656c66000000000000\n        /* \"#utility.yul\":12252:12270   */\n      0x44\n      dup3\n      add\n        /* \"#utility.yul\":12245:12301   */\n      mstore\n        /* \"#utility.yul\":12318:12336   */\n      0x64\n      add\n        /* \"@thirdweb-dev/contracts/extension/Permissions.sol\":4572:4608   */\n      tag_267\n        /* \"#utility.yul\":11992:12342   */\n      jump\n        /* \"@thirdweb-dev/contracts/extension/Permissions.sol\":4531:4619   */\n    tag_301:\n        /* \"@thirdweb-dev/contracts/extension/Permissions.sol\":4628:4654   */\n      tag_298\n        /* \"@thirdweb-dev/contracts/extension/Permissions.sol\":4640:4644   */\n      dup3\n        /* \"@thirdweb-dev/contracts/extension/Permissions.sol\":4646:4653   */\n      dup3\n        /* \"@thirdweb-dev/contracts/extension/Permissions.sol\":4628:4639   */\n      tag_305\n        /* \"@thirdweb-dev/contracts/extension/Permissions.sol\":4628:4654   */\n      jump\t// in\n        /* \"@thirdweb-dev/contracts/eip/ERC721A.sol\":8643:8822   */\n    tag_127:\n        /* \"@thirdweb-dev/contracts/eip/ERC721A.sol\":8776:8815   */\n      tag_257\n        /* \"@thirdweb-dev/contracts/eip/ERC721A.sol\":8793:8797   */\n      dup4\n        /* \"@thirdweb-dev/contracts/eip/ERC721A.sol\":8799:8801   */\n      dup4\n        /* \"@thirdweb-dev/contracts/eip/ERC721A.sol\":8803:8810   */\n      dup4\n        /* \"@thirdweb-dev/contracts/eip/ERC721A.sol\":8776:8815   */\n      mload(0x40)\n      dup1\n      0x20\n      add\n      0x40\n      mstore\n      dup1\n      0x00\n      dup2\n      mstore\n      pop\n        /* \"@thirdweb-dev/contracts/eip/ERC721A.sol\":8776:8792   */\n      tag_208\n        /* \"@thirdweb-dev/contracts/eip/ERC721A.sol\":8776:8815   */\n      jump\t// in\n        /* \"@thirdweb-dev/contracts/base/ERC721Base.sol\":5254:5341   */\n    tag_130:\n        /* \"@thirdweb-dev/contracts/base/ERC721Base.sol\":5313:5334   */\n      tag_269\n        /* \"@thirdweb-dev/contracts/base/ERC721Base.sol\":5319:5327   */\n      dup2\n        /* \"@thirdweb-dev/contracts/base/ERC721Base.sol\":5329:5333   */\n      0x01\n        /* \"@thirdweb-dev/contracts/base/ERC721Base.sol\":5313:5318   */\n      tag_311\n        /* \"@thirdweb-dev/contracts/base/ERC721Base.sol\":5313:5334   */\n      jump\t// in\n        /* \"@thirdweb-dev/contracts/base/ERC721Base.sol\":5800:6157   */\n    tag_133:\n        /* \"@thirdweb-dev/contracts/base/ERC721Base.sol\":5925:5949   */\n      0x00\n        /* \"@thirdweb-dev/contracts/base/ERC721Base.sol\":5965:5978   */\n      dup1\n        /* \"@thirdweb-dev/contracts/base/ERC721Base.sol\":5981:5998   */\n      tag_313\n        /* \"@thirdweb-dev/contracts/base/ERC721Base.sol\":5989:5997   */\n      dup4\n        /* \"@thirdweb-dev/contracts/base/ERC721Base.sol\":5981:5988   */\n      tag_145\n        /* \"@thirdweb-dev/contracts/base/ERC721Base.sol\":5981:5998   */\n      jump\t// in\n    tag_313:\n        /* \"@thirdweb-dev/contracts/base/ERC721Base.sol\":5965:5998   */\n      swap1\n      pop\n        /* \"@thirdweb-dev/contracts/base/ERC721Base.sol\":6044:6049   */\n      dup1\n      sub(shl(0xa0, 0x01), 0x01)\n        /* \"@thirdweb-dev/contracts/base/ERC721Base.sol\":6031:6049   */\n      and\n        /* \"@thirdweb-dev/contracts/base/ERC721Base.sol\":6031:6040   */\n      dup5\n      sub(shl(0xa0, 0x01), 0x01)\n        /* \"@thirdweb-dev/contracts/base/ERC721Base.sol\":6031:6049   */\n      and\n      eq\n        /* \"@thirdweb-dev/contracts/base/ERC721Base.sol\":6031:6099   */\n      dup1\n      tag_315\n      jumpi\n      pop\n      sub(shl(0xa0, 0x01), 0x01)\n        /* \"@thirdweb-dev/contracts/eip/ERC721A.sol\":8309:8334   */\n      dup1\n      dup3\n      and\n        /* \"@thirdweb-dev/contracts/eip/ERC721A.sol\":8286:8290   */\n      0x00\n        /* \"@thirdweb-dev/contracts/eip/ERC721A.sol\":8309:8334   */\n      swap1\n      dup2\n      mstore\n        /* \"@thirdweb-dev/contracts/eip/ERC721A.sol\":8309:8327   */\n      0x07\n        /* \"@thirdweb-dev/contracts/eip/ERC721A.sol\":8309:8334   */\n      0x20\n      swap1\n      dup2\n      mstore\n      0x40\n      dup1\n      dup4\n      keccak256\n        /* \"@thirdweb-dev/contracts/eip/ERC721A.sol\":8309:8344   */\n      swap4\n      dup9\n      and\n      dup4\n      mstore\n      swap3\n      swap1\n      mstore\n      keccak256\n      sload\n      0xff\n      and\n        /* \"@thirdweb-dev/contracts/base/ERC721Base.sol\":6065:6099   */\n    tag_315:\n        /* \"@thirdweb-dev/contracts/base/ERC721Base.sol\":6031:6149   */\n      dup1\n      tag_316\n      jumpi\n      pop\n        /* \"@thirdweb-dev/contracts/base/ERC721Base.sol\":6140:6149   */\n      dup4\n      sub(shl(0xa0, 0x01), 0x01)\n        /* \"@thirdweb-dev/contracts/base/ERC721Base.sol\":6115:6149   */\n      and\n        /* \"@thirdweb-dev/contracts/base/ERC721Base.sol\":6115:6136   */\n      tag_317\n        /* \"@thirdweb-dev/contracts/base/ERC721Base.sol\":6127:6135   */\n      dup5\n        /* \"@thirdweb-dev/contracts/base/ERC721Base.sol\":6115:6126   */\n      tag_77\n        /* \"@thirdweb-dev/contracts/base/ERC721Base.sol\":6115:6136   */\n      jump\t// in\n    tag_317:\n      sub(shl(0xa0, 0x01), 0x01)\n        /* \"@thirdweb-dev/contracts/base/ERC721Base.sol\":6115:6149   */\n      and\n      eq\n        /* \"@thirdweb-dev/contracts/base/ERC721Base.sol\":6031:6149   */\n    tag_316:\n        /* \"@thirdweb-dev/contracts/base/ERC721Base.sol\":6008:6150   */\n      swap5\n        /* \"@thirdweb-dev/contracts/base/ERC721Base.sol\":5800:6157   */\n      swap4\n      pop\n      pop\n      pop\n      pop\n      jump\t// out\n        /* \"@thirdweb-dev/contracts/extension/Royalty.sol\":1986:2367   */\n    tag_137:\n        /* \"@thirdweb-dev/contracts/extension/Royalty.sol\":2066:2073   */\n      0x00\n        /* \"@thirdweb-dev/contracts/extension/Royalty.sol\":2130:2159   */\n      dup2\n      dup2\n      mstore\n        /* \"@thirdweb-dev/contracts/extension/Royalty.sol\":2130:2149   */\n      0x0b\n        /* \"@thirdweb-dev/contracts/extension/Royalty.sol\":2130:2159   */\n      0x20\n      swap1\n      dup2\n      mstore\n      0x40\n      dup1\n      dup4\n      keccak256\n        /* \"@thirdweb-dev/contracts/extension/Royalty.sol\":2093:2159   */\n      dup2\n      mload\n      dup1\n      dup4\n      add\n      swap1\n      swap3\n      mstore\n      dup1\n      sload\n      sub(shl(0xa0, 0x01), 0x01)\n      and\n      dup1\n      dup4\n      mstore\n      0x01\n      swap1\n      swap2\n      add\n      sload\n      swap3\n      dup3\n      add\n      swap3\n      swap1\n      swap3\n      mstore\n        /* \"@thirdweb-dev/contracts/extension/Royalty.sol\":2066:2073   */\n      dup3\n      swap2\n        /* \"@thirdweb-dev/contracts/extension/Royalty.sol\":2189:2228   */\n      iszero\n        /* \"@thirdweb-dev/contracts/extension/Royalty.sol\":2189:2360   */\n      tag_319\n      jumpi\n        /* \"@thirdweb-dev/contracts/extension/Royalty.sol\":2305:2330   */\n      dup1\n      mload\n        /* \"@thirdweb-dev/contracts/extension/Royalty.sol\":2339:2358   */\n      0x20\n      dup3\n      add\n      mload\n        /* \"@thirdweb-dev/contracts/extension/Royalty.sol\":2189:2360   */\n      jump(tag_320)\n    tag_319:\n        /* \"@thirdweb-dev/contracts/extension/Royalty.sol\":2248:2264   */\n      sload(0x0a)\n      sub(shl(0xa0, 0x01), 0x01)\n      dup2\n      and\n      swap1\n      shl(0xa0, 0x01)\n        /* \"@thirdweb-dev/contracts/extension/Royalty.sol\":2273:2283   */\n      swap1\n      div\n      0xffff\n      and\n        /* \"@thirdweb-dev/contracts/extension/Royalty.sol\":2189:2360   */\n    tag_320:\n        /* \"@thirdweb-dev/contracts/extension/Royalty.sol\":2170:2360   */\n      swap3\n      pop\n      swap3\n      pop\n      pop\n        /* \"@thirdweb-dev/contracts/extension/Royalty.sol\":1986:2367   */\n      swap2\n      pop\n      swap2\n      jump\t// out\n        /* \"@thirdweb-dev/contracts/extension/Royalty.sol\":3065:3321   */\n    tag_142:\n        /* \"@thirdweb-dev/contracts/extension/Royalty.sol\":3177:3197   */\n      tag_322\n        /* \"@thirdweb-dev/contracts/extension/Royalty.sol\":3177:3195   */\n      tag_265\n        /* \"@thirdweb-dev/contracts/extension/Royalty.sol\":3177:3197   */\n      jump\t// in\n    tag_322:\n        /* \"@thirdweb-dev/contracts/extension/Royalty.sol\":3172:3248   */\n      tag_324\n      jumpi\n        /* \"@thirdweb-dev/contracts/extension/Royalty.sol\":3213:3237   */\n      mload(0x40)\n      shl(0xe5, 0x461bcd)\n      dup2\n      mstore\n        /* \"#utility.yul\":10457:10459   */\n      0x20\n        /* \"@thirdweb-dev/contracts/extension/Royalty.sol\":3213:3237   */\n      0x04\n      dup3\n      add\n        /* \"#utility.yul\":10439:10460   */\n      mstore\n        /* \"#utility.yul\":10496:10498   */\n      0x0e\n        /* \"#utility.yul\":10476:10494   */\n      0x24\n      dup3\n      add\n        /* \"#utility.yul\":10469:10499   */\n      mstore\n      shl(0x92, 0x139bdd08185d5d1a1bdc9a5e9959)\n        /* \"#utility.yul\":10515:10533   */\n      0x44\n      dup3\n      add\n        /* \"#utility.yul\":10508:10552   */\n      mstore\n        /* \"#utility.yul\":10569:10587   */\n      0x64\n      add\n        /* \"@thirdweb-dev/contracts/extension/Royalty.sol\":3213:3237   */\n      tag_267\n        /* \"#utility.yul\":10255:10593   */\n      jump\n        /* \"@thirdweb-dev/contracts/extension/Royalty.sol\":3172:3248   */\n    tag_324:\n        /* \"@thirdweb-dev/contracts/extension/Royalty.sol\":3258:3314   */\n      tag_298\n        /* \"@thirdweb-dev/contracts/extension/Royalty.sol\":3283:3300   */\n      dup3\n        /* \"@thirdweb-dev/contracts/extension/Royalty.sol\":3302:3313   */\n      dup3\n        /* \"@thirdweb-dev/contracts/extension/Royalty.sol\":3258:3282   */\n      tag_327\n        /* \"@thirdweb-dev/contracts/extension/Royalty.sol\":3258:3314   */\n      jump\t// in\n        /* \"@thirdweb-dev/contracts/eip/ERC721A.sol\":5911:6034   */\n    tag_145:\n        /* \"@thirdweb-dev/contracts/eip/ERC721A.sol\":5975:5982   */\n      0x00\n        /* \"@thirdweb-dev/contracts/eip/ERC721A.sol\":6001:6022   */\n      tag_329\n        /* \"@thirdweb-dev/contracts/eip/ERC721A.sol\":6014:6021   */\n      dup3\n        /* \"@thirdweb-dev/contracts/eip/ERC721A.sol\":6001:6013   */\n      tag_330\n        /* \"@thirdweb-dev/contracts/eip/ERC721A.sol\":6001:6022   */\n      jump\t// in\n    tag_329:\n        /* \"@thirdweb-dev/contracts/eip/ERC721A.sol\":6001:6027   */\n      mload\n      swap3\n        /* \"@thirdweb-dev/contracts/eip/ERC721A.sol\":5911:6034   */\n      swap2\n      pop\n      pop\n      jump\t// out\n        /* \"@thirdweb-dev/contracts/eip/ERC721A.sol\":3337:3540   */\n    tag_156:\n        /* \"@thirdweb-dev/contracts/eip/ERC721A.sol\":3401:3408   */\n      0x00\n      sub(shl(0xa0, 0x01), 0x01)\n        /* \"@thirdweb-dev/contracts/eip/ERC721A.sol\":3424:3443   */\n      dup3\n      and\n        /* \"@thirdweb-dev/contracts/eip/ERC721A.sol\":3420:3480   */\n      tag_333\n      jumpi\n        /* \"@thirdweb-dev/contracts/eip/ERC721A.sol\":3452:3480   */\n      mload(0x40)\n      shl(0xe2, 0x23d3ad81)\n      dup2\n      mstore\n      0x04\n      add\n      mload(0x40)\n      dup1\n      swap2\n      sub\n      swap1\n      revert\n        /* \"@thirdweb-dev/contracts/eip/ERC721A.sol\":3420:3480   */\n    tag_333:\n      pop\n      sub(shl(0xa0, 0x01), 0x01)\n        /* \"@thirdweb-dev/contracts/eip/ERC721A.sol\":3505:3524   */\n      and\n      0x00\n      swap1\n      dup2\n      mstore\n        /* \"@thirdweb-dev/contracts/eip/ERC721A.sol\":3505:3517   */\n      0x05\n        /* \"@thirdweb-dev/contracts/eip/ERC721A.sol\":3505:3524   */\n      0x20\n      mstore\n      0x40\n      swap1\n      keccak256\n        /* \"@thirdweb-dev/contracts/eip/ERC721A.sol\":3505:3532   */\n      sload\n      0xffffffffffffffff\n      and\n      swap1\n        /* \"@thirdweb-dev/contracts/eip/ERC721A.sol\":3337:3540   */\n      jump\t// out\n        /* \"@thirdweb-dev/contracts/base/ERC721Base.sol\":4655:4980   */\n    tag_161:\n        /* \"@thirdweb-dev/contracts/base/ERC721Base.sol\":4823:4833   */\n      tag_335\n        /* \"@thirdweb-dev/contracts/base/ERC721Base.sol\":4823:4831   */\n      tag_265\n        /* \"@thirdweb-dev/contracts/base/ERC721Base.sol\":4823:4833   */\n      jump\t// in\n    tag_335:\n        /* \"@thirdweb-dev/contracts/base/ERC721Base.sol\":4815:4861   */\n      tag_337\n      jumpi\n      mload(0x40)\n      shl(0xe5, 0x461bcd)\n      dup2\n      mstore\n        /* \"#utility.yul\":12549:12551   */\n      0x20\n        /* \"@thirdweb-dev/contracts/base/ERC721Base.sol\":4815:4861   */\n      0x04\n      dup3\n      add\n        /* \"#utility.yul\":12531:12552   */\n      mstore\n        /* \"#utility.yul\":12588:12590   */\n      0x17\n        /* \"#utility.yul\":12568:12586   */\n      0x24\n      dup3\n      add\n        /* \"#utility.yul\":12561:12591   */\n      mstore\n        /* \"#utility.yul\":12627:12652   */\n      0x4e6f7420617574686f72697a656420746f206d696e742e000000000000000000\n        /* \"#utility.yul\":12607:12625   */\n      0x44\n      dup3\n      add\n        /* \"#utility.yul\":12600:12653   */\n      mstore\n        /* \"#utility.yul\":12670:12688   */\n      0x64\n      add\n        /* \"@thirdweb-dev/contracts/base/ERC721Base.sol\":4815:4861   */\n      tag_267\n        /* \"#utility.yul\":12347:12694   */\n      jump\n        /* \"@thirdweb-dev/contracts/base/ERC721Base.sol\":4815:4861   */\n    tag_337:\n        /* \"@thirdweb-dev/contracts/base/ERC721Base.sol\":4871:4931   */\n      tag_340\n        /* \"@thirdweb-dev/contracts/base/ERC721Base.sol\":4890:4909   */\n      tag_341\n        /* \"@thirdweb-dev/contracts/base/ERC721Base.sol\":5654:5661   */\n      0x00\n        /* \"@thirdweb-dev/contracts/base/ERC721Base.sol\":5680:5693   */\n      sload\n      swap1\n        /* \"@thirdweb-dev/contracts/base/ERC721Base.sol\":5596:5700   */\n      jump\n        /* \"@thirdweb-dev/contracts/base/ERC721Base.sol\":4890:4909   */\n    tag_341:\n        /* \"@thirdweb-dev/contracts/base/ERC721Base.sol\":4911:4920   */\n      dup5\n        /* \"@thirdweb-dev/contracts/base/ERC721Base.sol\":4922:4930   */\n      dup5\n        /* \"@thirdweb-dev/contracts/base/ERC721Base.sol\":4871:4889   */\n      tag_342\n        /* \"@thirdweb-dev/contracts/base/ERC721Base.sol\":4871:4931   */\n      jump\t// in\n    tag_340:\n      pop\n      pop\n        /* \"@thirdweb-dev/contracts/base/ERC721Base.sol\":4941:4973   */\n      tag_343\n        /* \"@thirdweb-dev/contracts/base/ERC721Base.sol\":4951:4954   */\n      dup5\n        /* \"@thirdweb-dev/contracts/base/ERC721Base.sol\":4956:4965   */\n      dup5\n        /* \"@thirdweb-dev/contracts/base/ERC721Base.sol\":4967:4972   */\n      dup4\n        /* \"@thirdweb-dev/contracts/base/ERC721Base.sol\":4941:4950   */\n      tag_344\n        /* \"@thirdweb-dev/contracts/base/ERC721Base.sol\":4941:4973   */\n      jump\t// in\n    tag_343:\n        /* \"@thirdweb-dev/contracts/base/ERC721Base.sol\":4655:4980   */\n      pop\n      pop\n      pop\n      pop\n      jump\t// out\n        /* \"@thirdweb-dev/contracts/extension/PermissionsEnumerable.sol\":1621:2254   */\n    tag_168:\n        /* \"@thirdweb-dev/contracts/extension/PermissionsEnumerable.sol\":1705:1719   */\n      0x00\n        /* \"@thirdweb-dev/contracts/extension/PermissionsEnumerable.sol\":1754:1771   */\n      dup3\n      dup2\n      mstore\n        /* \"@thirdweb-dev/contracts/extension/PermissionsEnumerable.sol\":1754:1765   */\n      0x11\n        /* \"@thirdweb-dev/contracts/extension/PermissionsEnumerable.sol\":1754:1771   */\n      0x20\n      mstore\n      0x40\n      dup2\n      keccak256\n        /* \"@thirdweb-dev/contracts/extension/PermissionsEnumerable.sol\":1754:1777   */\n      sload\n        /* \"@thirdweb-dev/contracts/extension/PermissionsEnumerable.sol\":1705:1719   */\n      dup2\n      dup1\n        /* \"@thirdweb-dev/contracts/extension/PermissionsEnumerable.sol\":1811:2248   */\n    tag_347:\n        /* \"@thirdweb-dev/contracts/extension/PermissionsEnumerable.sol\":1835:1847   */\n      dup3\n        /* \"@thirdweb-dev/contracts/extension/PermissionsEnumerable.sol\":1831:1832   */\n      dup2\n        /* \"@thirdweb-dev/contracts/extension/PermissionsEnumerable.sol\":1831:1847   */\n      lt\n        /* \"@thirdweb-dev/contracts/extension/PermissionsEnumerable.sol\":1811:2248   */\n      iszero\n      tag_348\n      jumpi\n        /* \"@thirdweb-dev/contracts/extension/PermissionsEnumerable.sol\":1915:1916   */\n      0x00\n        /* \"@thirdweb-dev/contracts/extension/PermissionsEnumerable.sol\":1875:1892   */\n      dup7\n      dup2\n      mstore\n        /* \"@thirdweb-dev/contracts/extension/PermissionsEnumerable.sol\":1875:1886   */\n      0x11\n        /* \"@thirdweb-dev/contracts/extension/PermissionsEnumerable.sol\":1875:1892   */\n      0x20\n      swap1\n      dup2\n      mstore\n      0x40\n      dup1\n      dup4\n      keccak256\n        /* \"@thirdweb-dev/contracts/extension/PermissionsEnumerable.sol\":1875:1903   */\n      dup5\n      dup5\n      mstore\n        /* \"@thirdweb-dev/contracts/extension/PermissionsEnumerable.sol\":1875:1900   */\n      0x01\n      add\n        /* \"@thirdweb-dev/contracts/extension/PermissionsEnumerable.sol\":1875:1903   */\n      swap1\n      swap2\n      mstore\n      swap1\n      keccak256\n      sload\n      sub(shl(0xa0, 0x01), 0x01)\n      and\n        /* \"@thirdweb-dev/contracts/extension/PermissionsEnumerable.sol\":1875:1917   */\n      iszero\n        /* \"@thirdweb-dev/contracts/extension/PermissionsEnumerable.sol\":1871:2238   */\n      tag_350\n      jumpi\n        /* \"@thirdweb-dev/contracts/extension/PermissionsEnumerable.sol\":1950:1955   */\n      dup5\n        /* \"@thirdweb-dev/contracts/extension/PermissionsEnumerable.sol\":1941:1946   */\n      dup3\n        /* \"@thirdweb-dev/contracts/extension/PermissionsEnumerable.sol\":1941:1955   */\n      sub\n        /* \"@thirdweb-dev/contracts/extension/PermissionsEnumerable.sol\":1937:2070   */\n      tag_351\n      jumpi\n        /* \"@thirdweb-dev/contracts/extension/PermissionsEnumerable.sol\":1988:2005   */\n      0x00\n      dup7\n      dup2\n      mstore\n        /* \"@thirdweb-dev/contracts/extension/PermissionsEnumerable.sol\":1988:1999   */\n      0x11\n        /* \"@thirdweb-dev/contracts/extension/PermissionsEnumerable.sol\":1988:2005   */\n      0x20\n      swap1\n      dup2\n      mstore\n      0x40\n      dup1\n      dup4\n      keccak256\n        /* \"@thirdweb-dev/contracts/extension/PermissionsEnumerable.sol\":1988:2016   */\n      swap4\n      dup4\n      mstore\n        /* \"@thirdweb-dev/contracts/extension/PermissionsEnumerable.sol\":1988:2013   */\n      0x01\n      swap1\n      swap4\n      add\n        /* \"@thirdweb-dev/contracts/extension/PermissionsEnumerable.sol\":1988:2016   */\n      swap1\n      mstore\n      keccak256\n      sload\n      sub(shl(0xa0, 0x01), 0x01)\n      and\n      swap3\n      pop\n        /* \"@thirdweb-dev/contracts/extension/PermissionsEnumerable.sol\":2038:2051   */\n      tag_236\n      swap2\n      pop\n      pop\n      jump\n        /* \"@thirdweb-dev/contracts/extension/PermissionsEnumerable.sol\":1937:2070   */\n    tag_351:\n        /* \"@thirdweb-dev/contracts/extension/PermissionsEnumerable.sol\":2087:2097   */\n      tag_352\n        /* \"@thirdweb-dev/contracts/extension/PermissionsEnumerable.sol\":2096:2097   */\n      0x01\n        /* \"@thirdweb-dev/contracts/extension/PermissionsEnumerable.sol\":2087:2097   */\n      dup4\n      tag_353\n      jump\t// in\n    tag_352:\n      swap2\n      pop\n        /* \"@thirdweb-dev/contracts/extension/PermissionsEnumerable.sol\":1871:2238   */\n      jump(tag_357)\n    tag_350:\n        /* \"@thirdweb-dev/contracts/extension/PermissionsEnumerable.sol\":2144:2145   */\n      0x00\n        /* \"@thirdweb-dev/contracts/extension/Permissions.sol\":1403:1417   */\n      dup7\n      dup2\n      mstore\n        /* \"@thirdweb-dev/contracts/extension/Permissions.sol\":1403:1411   */\n      0x0f\n        /* \"@thirdweb-dev/contracts/extension/Permissions.sol\":1403:1417   */\n      0x20\n      swap1\n      dup2\n      mstore\n      0x40\n      dup1\n      dup4\n      keccak256\n        /* \"@thirdweb-dev/contracts/extension/Permissions.sol\":1403:1426   */\n      dup4\n      dup1\n      mstore\n      swap1\n      swap2\n      mstore\n      swap1\n      keccak256\n      sload\n      0xff\n      and\n        /* \"@thirdweb-dev/contracts/extension/PermissionsEnumerable.sol\":2122:2193   */\n      dup1\n      iszero\n      tag_356\n      jumpi\n      pop\n        /* \"@thirdweb-dev/contracts/extension/PermissionsEnumerable.sol\":2156:2173   */\n      0x00\n      dup7\n      dup2\n      mstore\n        /* \"@thirdweb-dev/contracts/extension/PermissionsEnumerable.sol\":2156:2167   */\n      0x11\n        /* \"@thirdweb-dev/contracts/extension/PermissionsEnumerable.sol\":2156:2173   */\n      0x20\n      swap1\n      dup2\n      mstore\n      0x40\n      dup1\n      dup4\n      keccak256\n        /* \"@thirdweb-dev/contracts/extension/PermissionsEnumerable.sol\":2156:2193   */\n      dup4\n      dup1\n      mstore\n        /* \"@thirdweb-dev/contracts/extension/PermissionsEnumerable.sol\":2156:2181   */\n      0x02\n      add\n        /* \"@thirdweb-dev/contracts/extension/PermissionsEnumerable.sol\":2156:2193   */\n      swap1\n      swap2\n      mstore\n      swap1\n      keccak256\n      sload\n        /* \"@thirdweb-dev/contracts/extension/PermissionsEnumerable.sol\":2151:2193   */\n      dup2\n      eq\n        /* \"@thirdweb-dev/contracts/extension/PermissionsEnumerable.sol\":2122:2193   */\n    tag_356:\n        /* \"@thirdweb-dev/contracts/extension/PermissionsEnumerable.sol\":2118:2238   */\n      iszero\n      tag_357\n      jumpi\n        /* \"@thirdweb-dev/contracts/extension/PermissionsEnumerable.sol\":2213:2223   */\n      tag_358\n        /* \"@thirdweb-dev/contracts/extension/PermissionsEnumerable.sol\":2222:2223   */\n      0x01\n        /* \"@thirdweb-dev/contracts/extension/PermissionsEnumerable.sol\":2213:2223   */\n      dup4\n      tag_353\n      jump\t// in\n    tag_358:\n      swap2\n      pop\n        /* \"@thirdweb-dev/contracts/extension/PermissionsEnumerable.sol\":2118:2238   */\n    tag_357:\n        /* \"@thirdweb-dev/contracts/extension/PermissionsEnumerable.sol\":1849:1855   */\n      tag_359\n        /* \"@thirdweb-dev/contracts/extension/PermissionsEnumerable.sol\":1854:1855   */\n      0x01\n        /* \"@thirdweb-dev/contracts/extension/PermissionsEnumerable.sol\":1849:1855   */\n      dup3\n      tag_353\n      jump\t// in\n    tag_359:\n      swap1\n      pop\n        /* \"@thirdweb-dev/contracts/extension/PermissionsEnumerable.sol\":1811:2248   */\n      jump(tag_347)\n    tag_348:\n      pop\n        /* \"@thirdweb-dev/contracts/extension/PermissionsEnumerable.sol\":1721:2254   */\n      pop\n      pop\n        /* \"@thirdweb-dev/contracts/extension/PermissionsEnumerable.sol\":1621:2254   */\n      swap3\n      swap2\n      pop\n      pop\n      jump\t// out\n        /* \"@thirdweb-dev/contracts/extension/ContractMetadata.sol\":981:1169   */\n    tag_177:\n        /* \"@thirdweb-dev/contracts/extension/ContractMetadata.sol\":1058:1078   */\n      tag_362\n        /* \"@thirdweb-dev/contracts/extension/ContractMetadata.sol\":1058:1076   */\n      tag_265\n        /* \"@thirdweb-dev/contracts/extension/ContractMetadata.sol\":1058:1078   */\n      jump\t// in\n    tag_362:\n        /* \"@thirdweb-dev/contracts/extension/ContractMetadata.sol\":1053:1129   */\n      tag_364\n      jumpi\n        /* \"@thirdweb-dev/contracts/extension/ContractMetadata.sol\":1094:1118   */\n      mload(0x40)\n      shl(0xe5, 0x461bcd)\n      dup2\n      mstore\n        /* \"#utility.yul\":10457:10459   */\n      0x20\n        /* \"@thirdweb-dev/contracts/extension/ContractMetadata.sol\":1094:1118   */\n      0x04\n      dup3\n      add\n        /* \"#utility.yul\":10439:10460   */\n      mstore\n        /* \"#utility.yul\":10496:10498   */\n      0x0e\n        /* \"#utility.yul\":10476:10494   */\n      0x24\n      dup3\n      add\n        /* \"#utility.yul\":10469:10499   */\n      mstore\n      shl(0x92, 0x139bdd08185d5d1a1bdc9a5e9959)\n        /* \"#utility.yul\":10515:10533   */\n      0x44\n      dup3\n      add\n        /* \"#utility.yul\":10508:10552   */\n      mstore\n        /* \"#utility.yul\":10569:10587   */\n      0x64\n      add\n        /* \"@thirdweb-dev/contracts/extension/ContractMetadata.sol\":1094:1118   */\n      tag_267\n        /* \"#utility.yul\":10255:10593   */\n      jump\n        /* \"@thirdweb-dev/contracts/extension/ContractMetadata.sol\":1053:1129   */\n    tag_364:\n        /* \"@thirdweb-dev/contracts/extension/ContractMetadata.sol\":1139:1162   */\n      tag_269\n        /* \"@thirdweb-dev/contracts/extension/ContractMetadata.sol\":1157:1161   */\n      dup2\n        /* \"@thirdweb-dev/contracts/extension/ContractMetadata.sol\":1139:1156   */\n      tag_367\n        /* \"@thirdweb-dev/contracts/extension/ContractMetadata.sol\":1139:1162   */\n      jump\t// in\n        /* \"@thirdweb-dev/contracts/eip/ERC721A.sol\":6258:6360   */\n    tag_179:\n        /* \"@thirdweb-dev/contracts/eip/ERC721A.sol\":6314:6327   */\n      0x60\n        /* \"@thirdweb-dev/contracts/eip/ERC721A.sol\":6346:6353   */\n      0x03\n        /* \"@thirdweb-dev/contracts/eip/ERC721A.sol\":6339:6353   */\n      dup1\n      sload\n      tag_238\n      swap1\n      tag_239\n      jump\t// in\n        /* \"@thirdweb-dev/contracts/extension/Royalty.sol\":4259:4547   */\n    tag_184:\n        /* \"@thirdweb-dev/contracts/extension/Royalty.sol\":4406:4426   */\n      tag_375\n        /* \"@thirdweb-dev/contracts/extension/Royalty.sol\":4406:4424   */\n      tag_265\n        /* \"@thirdweb-dev/contracts/extension/Royalty.sol\":4406:4426   */\n      jump\t// in\n    tag_375:\n        /* \"@thirdweb-dev/contracts/extension/Royalty.sol\":4401:4477   */\n      tag_376\n      jumpi\n        /* \"@thirdweb-dev/contracts/extension/Royalty.sol\":4442:4466   */\n      mload(0x40)\n      shl(0xe5, 0x461bcd)\n      dup2\n      mstore\n        /* \"#utility.yul\":10457:10459   */\n      0x20\n        /* \"@thirdweb-dev/contracts/extension/Royalty.sol\":4442:4466   */\n      0x04\n      dup3\n      add\n        /* \"#utility.yul\":10439:10460   */\n      mstore\n        /* \"#utility.yul\":10496:10498   */\n      0x0e\n        /* \"#utility.yul\":10476:10494   */\n      0x24\n      dup3\n      add\n        /* \"#utility.yul\":10469:10499   */\n      mstore\n      shl(0x92, 0x139bdd08185d5d1a1bdc9a5e9959)\n        /* \"#utility.yul\":10515:10533   */\n      0x44\n      dup3\n      add\n        /* \"#utility.yul\":10508:10552   */\n      mstore\n        /* \"#utility.yul\":10569:10587   */\n      0x64\n      add\n        /* \"@thirdweb-dev/contracts/extension/Royalty.sol\":4442:4466   */\n      tag_267\n        /* \"#utility.yul\":10255:10593   */\n      jump\n        /* \"@thirdweb-dev/contracts/extension/Royalty.sol\":4401:4477   */\n    tag_376:\n        /* \"@thirdweb-dev/contracts/extension/Royalty.sol\":4487:4540   */\n      tag_257\n        /* \"@thirdweb-dev/contracts/extension/Royalty.sol\":4513:4521   */\n      dup4\n        /* \"@thirdweb-dev/contracts/extension/Royalty.sol\":4523:4533   */\n      dup4\n        /* \"@thirdweb-dev/contracts/extension/Royalty.sol\":4535:4539   */\n      dup4\n        /* \"@thirdweb-dev/contracts/extension/Royalty.sol\":4487:4512   */\n      tag_379\n        /* \"@thirdweb-dev/contracts/extension/Royalty.sol\":4487:4540   */\n      jump\t// in\n        /* \"@thirdweb-dev/contracts/eip/ERC721A.sol\":7841:8123   */\n    tag_191:\n        /* \"@thirdweb-dev/contracts/openzeppelin-presets/utils/Context.sol\":719:729   */\n      caller\n      sub(shl(0xa0, 0x01), 0x01)\n        /* \"@thirdweb-dev/contracts/eip/ERC721A.sol\":7939:7963   */\n      dup4\n      and\n      sub\n        /* \"@thirdweb-dev/contracts/eip/ERC721A.sol\":7935:7989   */\n      tag_382\n      jumpi\n        /* \"@thirdweb-dev/contracts/eip/ERC721A.sol\":7972:7989   */\n      mload(0x40)\n      shl(0xe0, 0xb06307db)\n      dup2\n      mstore\n      0x04\n      add\n      mload(0x40)\n      dup1\n      swap2\n      sub\n      swap1\n      revert\n        /* \"@thirdweb-dev/contracts/eip/ERC721A.sol\":7935:7989   */\n    tag_382:\n        /* \"@thirdweb-dev/contracts/openzeppelin-presets/utils/Context.sol\":719:729   */\n      caller\n        /* \"@thirdweb-dev/contracts/eip/ERC721A.sol\":8000:8032   */\n      0x00\n      dup2\n      dup2\n      mstore\n        /* \"@thirdweb-dev/contracts/eip/ERC721A.sol\":8000:8018   */\n      0x07\n        /* \"@thirdweb-dev/contracts/eip/ERC721A.sol\":8000:8032   */\n      0x20\n      swap1\n      dup2\n      mstore\n      0x40\n      dup1\n      dup4\n      keccak256\n      sub(shl(0xa0, 0x01), 0x01)\n        /* \"@thirdweb-dev/contracts/eip/ERC721A.sol\":8000:8042   */\n      dup8\n      and\n      dup1\n      dup6\n      mstore\n      swap1\n      dup4\n      mstore\n      swap3\n      dup2\n      swap1\n      keccak256\n        /* \"@thirdweb-dev/contracts/eip/ERC721A.sol\":8000:8053   */\n      dup1\n      sload\n      not(0xff)\n      and\n      dup7\n      iszero\n      iszero\n      swap1\n      dup2\n      or\n      swap1\n      swap2\n      sstore\n        /* \"@thirdweb-dev/contracts/eip/ERC721A.sol\":8068:8116   */\n      swap1\n      mload\n        /* \"#utility.yul\":1998:2039   */\n      swap1\n      dup2\n      mstore\n        /* \"@thirdweb-dev/contracts/eip/ERC721A.sol\":8000:8042   */\n      swap2\n      swap3\n        /* \"@thirdweb-dev/contracts/openzeppelin-presets/utils/Context.sol\":719:729   */\n      swap2\n        /* \"@thirdweb-dev/contracts/eip/ERC721A.sol\":8068:8116   */\n      0x17307eab39ab6107e8899845ad3d59bd9653f200f220920489ca2b5937696c31\n      swap2\n        /* \"#utility.yul\":1971:1989   */\n      add\n        /* \"@thirdweb-dev/contracts/eip/ERC721A.sol\":8068:8116   */\n      mload(0x40)\n      dup1\n      swap2\n      sub\n      swap1\n      log3\n        /* \"@thirdweb-dev/contracts/eip/ERC721A.sol\":7841:8123   */\n      pop\n      pop\n      jump\t// out\n        /* \"@thirdweb-dev/contracts/extension/Permissions.sol\":2184:2395   */\n    tag_194:\n        /* \"@thirdweb-dev/contracts/extension/Permissions.sol\":2263:2267   */\n      0x00\n        /* \"@thirdweb-dev/contracts/extension/Permissions.sol\":2284:2298   */\n      dup3\n      dup2\n      mstore\n        /* \"@thirdweb-dev/contracts/extension/Permissions.sol\":2284:2292   */\n      0x0f\n        /* \"@thirdweb-dev/contracts/extension/Permissions.sol\":2284:2298   */\n      0x20\n      swap1\n      dup2\n      mstore\n      0x40\n      dup1\n      dup4\n      keccak256\n        /* \"@thirdweb-dev/contracts/extension/Permissions.sol\":2284:2310   */\n      dup4\n      dup1\n      mstore\n      swap1\n      swap2\n      mstore\n      dup2\n      keccak256\n      sload\n      0xff\n      and\n        /* \"@thirdweb-dev/contracts/extension/Permissions.sol\":2279:2367   */\n      tag_387\n      jumpi\n      pop\n        /* \"@thirdweb-dev/contracts/extension/Permissions.sol\":2333:2347   */\n      0x00\n      dup3\n      dup2\n      mstore\n        /* \"@thirdweb-dev/contracts/extension/Permissions.sol\":2333:2341   */\n      0x0f\n        /* \"@thirdweb-dev/contracts/extension/Permissions.sol\":2333:2347   */\n      0x20\n      swap1\n      dup2\n      mstore\n      0x40\n      dup1\n      dup4\n      keccak256\n      sub(shl(0xa0, 0x01), 0x01)\n        /* \"@thirdweb-dev/contracts/extension/Permissions.sol\":2333:2356   */\n      dup6\n      and\n      dup5\n      mstore\n      swap1\n      swap2\n      mstore\n      swap1\n      keccak256\n      sload\n      0xff\n      and\n        /* \"@thirdweb-dev/contracts/extension/Permissions.sol\":2326:2356   */\n      jump(tag_236)\n        /* \"@thirdweb-dev/contracts/extension/Permissions.sol\":2279:2367   */\n    tag_387:\n      pop\n        /* \"@thirdweb-dev/contracts/extension/Permissions.sol\":2384:2388   */\n      0x01\n        /* \"@thirdweb-dev/contracts/extension/Permissions.sol\":2184:2395   */\n      swap3\n      swap2\n      pop\n      pop\n      jump\t// out\n        /* \"@thirdweb-dev/contracts/extension/Multicall.sol\":740:1059   */\n    tag_199:\n        /* \"@thirdweb-dev/contracts/extension/Multicall.sol\":817:839   */\n      0x60\n        /* \"@thirdweb-dev/contracts/extension/Multicall.sol\":873:877   */\n      dup2\n        /* \"@thirdweb-dev/contracts/extension/Multicall.sol\":861:885   */\n      0xffffffffffffffff\n      dup2\n      gt\n      iszero\n      tag_390\n      jumpi\n      tag_390\n      tag_391\n      jump\t// in\n    tag_390:\n      mload(0x40)\n      swap1\n      dup1\n      dup3\n      mstore\n      dup1\n      0x20\n      mul\n      0x20\n      add\n      dup3\n      add\n      0x40\n      mstore\n      dup1\n      iszero\n      tag_392\n      jumpi\n      dup2\n      0x20\n      add\n    tag_393:\n      0x60\n      dup2\n      mstore\n      0x20\n      add\n      swap1\n      0x01\n      swap1\n      sub\n      swap1\n      dup2\n      tag_393\n      jumpi\n      swap1\n      pop\n    tag_392:\n      pop\n        /* \"@thirdweb-dev/contracts/extension/Multicall.sol\":851:885   */\n      swap1\n      pop\n        /* \"@thirdweb-dev/contracts/extension/Multicall.sol\":900:909   */\n      0x00\n        /* \"@thirdweb-dev/contracts/extension/Multicall.sol\":895:1029   */\n    tag_394:\n        /* \"@thirdweb-dev/contracts/extension/Multicall.sol\":915:930   */\n      dup3\n      dup2\n      lt\n        /* \"@thirdweb-dev/contracts/extension/Multicall.sol\":895:1029   */\n      iszero\n      tag_395\n      jumpi\n        /* \"@thirdweb-dev/contracts/extension/Multicall.sol\":964:1018   */\n      tag_397\n        /* \"@thirdweb-dev/contracts/extension/Multicall.sol\":1003:1007   */\n      address\n        /* \"@thirdweb-dev/contracts/extension/Multicall.sol\":1010:1014   */\n      dup6\n      dup6\n        /* \"@thirdweb-dev/contracts/extension/Multicall.sol\":1015:1016   */\n      dup5\n        /* \"@thirdweb-dev/contracts/extension/Multicall.sol\":1010:1017   */\n      dup2\n      dup2\n      lt\n      tag_399\n      jumpi\n      tag_399\n      tag_284\n      jump\t// in\n    tag_399:\n      swap1\n      pop\n      0x20\n      mul\n      dup2\n      add\n      swap1\n      tag_400\n      swap2\n      swap1\n      tag_401\n      jump\t// in\n    tag_400:\n        /* \"@thirdweb-dev/contracts/extension/Multicall.sol\":964:1018   */\n      dup1\n      dup1\n      0x1f\n      add\n      0x20\n      dup1\n      swap2\n      div\n      mul\n      0x20\n      add\n      mload(0x40)\n      swap1\n      dup2\n      add\n      0x40\n      mstore\n      dup1\n      swap4\n      swap3\n      swap2\n      swap1\n      dup2\n      dup2\n      mstore\n      0x20\n      add\n      dup4\n      dup4\n      dup1\n      dup3\n      dup5\n      calldatacopy\n      0x00\n      swap3\n      add\n      swap2\n      swap1\n      swap2\n      mstore\n      pop\n        /* \"@thirdweb-dev/contracts/extension/Multicall.sol\":964:994   */\n      tag_402\n      swap3\n      pop\n      pop\n      pop\n        /* \"@thirdweb-dev/contracts/extension/Multicall.sol\":964:1018   */\n      jump\t// in\n    tag_397:\n        /* \"@thirdweb-dev/contracts/extension/Multicall.sol\":951:958   */\n      dup3\n        /* \"@thirdweb-dev/contracts/extension/Multicall.sol\":959:960   */\n      dup3\n        /* \"@thirdweb-dev/contracts/extension/Multicall.sol\":951:961   */\n      dup2\n      mload\n      dup2\n      lt\n      tag_404\n      jumpi\n      tag_404\n      tag_284\n      jump\t// in\n    tag_404:\n      0x20\n      mul\n      0x20\n      add\n      add\n        /* \"@thirdweb-dev/contracts/extension/Multicall.sol\":951:1018   */\n      dup2\n      swap1\n      mstore\n      pop\n        /* \"@thirdweb-dev/contracts/extension/Multicall.sol\":932:935   */\n      dup1\n      dup1\n      tag_405\n      swap1\n      tag_406\n      jump\t// in\n    tag_405:\n      swap2\n      pop\n      pop\n        /* \"@thirdweb-dev/contracts/extension/Multicall.sol\":895:1029   */\n      jump(tag_394)\n    tag_395:\n      pop\n        /* \"@thirdweb-dev/contracts/extension/Multicall.sol\":740:1059   */\n      swap3\n      swap2\n      pop\n      pop\n      jump\t// out\n        /* \"@thirdweb-dev/contracts/eip/ERC721A.sol\":8888:9269   */\n    tag_208:\n        /* \"@thirdweb-dev/contracts/eip/ERC721A.sol\":9049:9077   */\n      tag_409\n        /* \"@thirdweb-dev/contracts/eip/ERC721A.sol\":9059:9063   */\n      dup5\n        /* \"@thirdweb-dev/contracts/eip/ERC721A.sol\":9065:9067   */\n      dup5\n        /* \"@thirdweb-dev/contracts/eip/ERC721A.sol\":9069:9076   */\n      dup5\n        /* \"@thirdweb-dev/contracts/eip/ERC721A.sol\":9049:9058   */\n      tag_276\n        /* \"@thirdweb-dev/contracts/eip/ERC721A.sol\":9049:9077   */\n      jump\t// in\n    tag_409:\n      sub(shl(0xa0, 0x01), 0x01)\n        /* \"@thirdweb-dev/contracts/eip/ERC721A.sol\":9091:9104   */\n      dup4\n      and\n        /* \"@thirdweb-dev/contracts/lib/TWAddress.sol\":1467:1486   */\n      extcodesize\n        /* \"@thirdweb-dev/contracts/lib/TWAddress.sol\":1467:1490   */\n      iszero\n        /* \"@thirdweb-dev/contracts/eip/ERC721A.sol\":9087:9263   */\n      tag_343\n      jumpi\n        /* \"@thirdweb-dev/contracts/eip/ERC721A.sol\":9125:9181   */\n      tag_413\n        /* \"@thirdweb-dev/contracts/eip/ERC721A.sol\":9156:9160   */\n      dup5\n        /* \"@thirdweb-dev/contracts/eip/ERC721A.sol\":9162:9164   */\n      dup5\n        /* \"@thirdweb-dev/contracts/eip/ERC721A.sol\":9166:9173   */\n      dup5\n        /* \"@thirdweb-dev/contracts/eip/ERC721A.sol\":9175:9180   */\n      dup5\n        /* \"@thirdweb-dev/contracts/eip/ERC721A.sol\":9125:9155   */\n      tag_414\n        /* \"@thirdweb-dev/contracts/eip/ERC721A.sol\":9125:9181   */\n      jump\t// in\n    tag_413:\n        /* \"@thirdweb-dev/contracts/eip/ERC721A.sol\":9120:9263   */\n      tag_343\n      jumpi\n        /* \"@thirdweb-dev/contracts/eip/ERC721A.sol\":9208:9248   */\n      mload(0x40)\n      shl(0xe1, 0x68d2bf6b)\n      dup2\n      mstore\n      0x04\n      add\n      mload(0x40)\n      dup1\n      swap2\n      sub\n      swap1\n      revert\n        /* \"@thirdweb-dev/contracts/base/ERC721Base.sol\":2962:3341   */\n    tag_211:\n        /* \"@thirdweb-dev/contracts/base/ERC721Base.sol\":3061:3090   */\n      0x00\n        /* \"@thirdweb-dev/contracts/base/ERC721Base.sol\":3093:3110   */\n      dup2\n      dup2\n      mstore\n        /* \"@thirdweb-dev/contracts/base/ERC721Base.sol\":3093:3100   */\n      0x0e\n        /* \"@thirdweb-dev/contracts/base/ERC721Base.sol\":3093:3110   */\n      0x20\n      mstore\n      0x40\n      dup2\n      keccak256\n        /* \"@thirdweb-dev/contracts/base/ERC721Base.sol\":3061:3110   */\n      dup1\n      sload\n        /* \"@thirdweb-dev/contracts/base/ERC721Base.sol\":3036:3049   */\n      0x60\n      swap3\n        /* \"@thirdweb-dev/contracts/base/ERC721Base.sol\":3061:3090   */\n      swap2\n        /* \"@thirdweb-dev/contracts/base/ERC721Base.sol\":3093:3110   */\n      swap1\n        /* \"@thirdweb-dev/contracts/base/ERC721Base.sol\":3061:3110   */\n      tag_417\n      swap1\n      tag_239\n      jump\t// in\n    tag_417:\n      dup1\n      0x1f\n      add\n      0x20\n      dup1\n      swap2\n      div\n      mul\n      0x20\n      add\n      mload(0x40)\n      swap1\n      dup2\n      add\n      0x40\n      mstore\n      dup1\n      swap3\n      swap2\n      swap1\n      dup2\n      dup2\n      mstore\n      0x20\n      add\n      dup3\n      dup1\n      sload\n      tag_418\n      swap1\n      tag_239\n      jump\t// in\n    tag_418:\n      dup1\n      iszero\n      tag_419\n      jumpi\n      dup1\n      0x1f\n      lt\n      tag_420\n      jumpi\n      0x0100\n      dup1\n      dup4\n      sload\n      div\n      mul\n      dup4\n      mstore\n      swap2\n      0x20\n      add\n      swap2\n      jump(tag_419)\n    tag_420:\n      dup3\n      add\n      swap2\n      swap1\n      0x00\n      mstore\n      keccak256(0x00, 0x20)\n      swap1\n    tag_421:\n      dup2\n      sload\n      dup2\n      mstore\n      swap1\n      0x01\n      add\n      swap1\n      0x20\n      add\n      dup1\n      dup4\n      gt\n      tag_421\n      jumpi\n      dup3\n      swap1\n      sub\n      0x1f\n      and\n      dup3\n      add\n      swap2\n    tag_419:\n      pop\n      pop\n      pop\n      pop\n      pop\n      swap1\n      pop\n        /* \"@thirdweb-dev/contracts/base/ERC721Base.sol\":3156:3157   */\n      0x00\n        /* \"@thirdweb-dev/contracts/base/ERC721Base.sol\":3130:3145   */\n      dup2\n        /* \"@thirdweb-dev/contracts/base/ERC721Base.sol\":3124:3153   */\n      mload\n        /* \"@thirdweb-dev/contracts/base/ERC721Base.sol\":3124:3157   */\n      gt\n        /* \"@thirdweb-dev/contracts/base/ERC721Base.sol\":3120:3206   */\n      iszero\n      tag_422\n      jumpi\n        /* \"@thirdweb-dev/contracts/base/ERC721Base.sol\":3180:3195   */\n      swap3\n        /* \"@thirdweb-dev/contracts/base/ERC721Base.sol\":2962:3341   */\n      swap2\n      pop\n      pop\n      jump\t// out\n        /* \"@thirdweb-dev/contracts/base/ERC721Base.sol\":3120:3206   */\n    tag_422:\n        /* \"@thirdweb-dev/contracts/base/ERC721Base.sol\":3216:3238   */\n      0x00\n        /* \"@thirdweb-dev/contracts/base/ERC721Base.sol\":3241:3262   */\n      tag_423\n        /* \"@thirdweb-dev/contracts/base/ERC721Base.sol\":3253:3261   */\n      dup5\n        /* \"@thirdweb-dev/contracts/base/ERC721Base.sol\":3241:3252   */\n      tag_424\n        /* \"@thirdweb-dev/contracts/base/ERC721Base.sol\":3241:3262   */\n      jump\t// in\n    tag_423:\n        /* \"@thirdweb-dev/contracts/base/ERC721Base.sol\":3216:3262   */\n      swap1\n      pop\n        /* \"@thirdweb-dev/contracts/base/ERC721Base.sol\":3303:3311   */\n      dup1\n        /* \"@thirdweb-dev/contracts/base/ERC721Base.sol\":3313:3332   */\n      tag_425\n        /* \"@thirdweb-dev/contracts/base/ERC721Base.sol\":3313:3321   */\n      dup6\n        /* \"@thirdweb-dev/contracts/base/ERC721Base.sol\":3313:3330   */\n      tag_426\n        /* \"@thirdweb-dev/contracts/base/ERC721Base.sol\":3313:3332   */\n      jump\t// in\n    tag_425:\n        /* \"@thirdweb-dev/contracts/base/ERC721Base.sol\":3286:3333   */\n      add(0x20, mload(0x40))\n      tag_427\n      swap3\n      swap2\n      swap1\n      tag_428\n      jump\t// in\n    tag_427:\n      mload(0x40)\n      0x20\n      dup2\n      dup4\n      sub\n      sub\n      dup2\n      mstore\n      swap1\n      0x40\n      mstore\n        /* \"@thirdweb-dev/contracts/base/ERC721Base.sol\":3272:3334   */\n      swap3\n      pop\n      pop\n      pop\n        /* \"@thirdweb-dev/contracts/base/ERC721Base.sol\":2962:3341   */\n      swap2\n      swap1\n      pop\n      jump\t// out\n        /* \"@thirdweb-dev/contracts/extension/PermissionsEnumerable.sol\":2661:3059   */\n    tag_215:\n        /* \"@thirdweb-dev/contracts/extension/PermissionsEnumerable.sol\":2735:2748   */\n      0x00\n        /* \"@thirdweb-dev/contracts/extension/PermissionsEnumerable.sol\":2783:2800   */\n      dup2\n      dup2\n      mstore\n        /* \"@thirdweb-dev/contracts/extension/PermissionsEnumerable.sol\":2783:2794   */\n      0x11\n        /* \"@thirdweb-dev/contracts/extension/PermissionsEnumerable.sol\":2783:2800   */\n      0x20\n      mstore\n      0x40\n      dup2\n      keccak256\n        /* \"@thirdweb-dev/contracts/extension/PermissionsEnumerable.sol\":2783:2806   */\n      sload\n        /* \"@thirdweb-dev/contracts/extension/PermissionsEnumerable.sol\":2735:2748   */\n      dup2\n        /* \"@thirdweb-dev/contracts/extension/PermissionsEnumerable.sol\":2817:2978   */\n    tag_430:\n        /* \"@thirdweb-dev/contracts/extension/PermissionsEnumerable.sol\":2841:2853   */\n      dup2\n        /* \"@thirdweb-dev/contracts/extension/PermissionsEnumerable.sol\":2837:2838   */\n      dup2\n        /* \"@thirdweb-dev/contracts/extension/PermissionsEnumerable.sol\":2837:2853   */\n      lt\n        /* \"@thirdweb-dev/contracts/extension/PermissionsEnumerable.sol\":2817:2978   */\n      iszero\n      tag_431\n      jumpi\n        /* \"@thirdweb-dev/contracts/extension/PermissionsEnumerable.sol\":2921:2922   */\n      0x00\n        /* \"@thirdweb-dev/contracts/extension/PermissionsEnumerable.sol\":2881:2898   */\n      dup5\n      dup2\n      mstore\n        /* \"@thirdweb-dev/contracts/extension/PermissionsEnumerable.sol\":2881:2892   */\n      0x11\n        /* \"@thirdweb-dev/contracts/extension/PermissionsEnumerable.sol\":2881:2898   */\n      0x20\n      swap1\n      dup2\n      mstore\n      0x40\n      dup1\n      dup4\n      keccak256\n        /* \"@thirdweb-dev/contracts/extension/PermissionsEnumerable.sol\":2881:2909   */\n      dup5\n      dup5\n      mstore\n        /* \"@thirdweb-dev/contracts/extension/PermissionsEnumerable.sol\":2881:2906   */\n      0x01\n      add\n        /* \"@thirdweb-dev/contracts/extension/PermissionsEnumerable.sol\":2881:2909   */\n      swap1\n      swap2\n      mstore\n      swap1\n      keccak256\n      sload\n      sub(shl(0xa0, 0x01), 0x01)\n      and\n        /* \"@thirdweb-dev/contracts/extension/PermissionsEnumerable.sol\":2881:2923   */\n      iszero\n        /* \"@thirdweb-dev/contracts/extension/PermissionsEnumerable.sol\":2877:2968   */\n      tag_433\n      jumpi\n        /* \"@thirdweb-dev/contracts/extension/PermissionsEnumerable.sol\":2943:2953   */\n      tag_434\n        /* \"@thirdweb-dev/contracts/extension/PermissionsEnumerable.sol\":2952:2953   */\n      0x01\n        /* \"@thirdweb-dev/contracts/extension/PermissionsEnumerable.sol\":2943:2953   */\n      dup5\n      tag_353\n      jump\t// in\n    tag_434:\n      swap3\n      pop\n        /* \"@thirdweb-dev/contracts/extension/PermissionsEnumerable.sol\":2877:2968   */\n    tag_433:\n        /* \"@thirdweb-dev/contracts/extension/PermissionsEnumerable.sol\":2855:2861   */\n      tag_435\n        /* \"@thirdweb-dev/contracts/extension/PermissionsEnumerable.sol\":2860:2861   */\n      0x01\n        /* \"@thirdweb-dev/contracts/extension/PermissionsEnumerable.sol\":2855:2861   */\n      dup3\n      tag_353\n      jump\t// in\n    tag_435:\n      swap1\n      pop\n        /* \"@thirdweb-dev/contracts/extension/PermissionsEnumerable.sol\":2817:2978   */\n      jump(tag_430)\n    tag_431:\n      pop\n        /* \"@thirdweb-dev/contracts/extension/PermissionsEnumerable.sol\":3013:3014   */\n      0x00\n        /* \"@thirdweb-dev/contracts/extension/Permissions.sol\":1403:1417   */\n      dup4\n      dup2\n      mstore\n        /* \"@thirdweb-dev/contracts/extension/Permissions.sol\":1403:1411   */\n      0x0f\n        /* \"@thirdweb-dev/contracts/extension/Permissions.sol\":1403:1417   */\n      0x20\n      swap1\n      dup2\n      mstore\n      0x40\n      dup1\n      dup4\n      keccak256\n        /* \"@thirdweb-dev/contracts/extension/Permissions.sol\":1403:1426   */\n      dup4\n      dup1\n      mstore\n      swap1\n      swap2\n      mstore\n      swap1\n      keccak256\n      sload\n      0xff\n      and\n        /* \"@thirdweb-dev/contracts/extension/PermissionsEnumerable.sol\":2987:3053   */\n      iszero\n      tag_437\n      jumpi\n        /* \"@thirdweb-dev/contracts/extension/PermissionsEnumerable.sol\":3032:3042   */\n      tag_438\n        /* \"@thirdweb-dev/contracts/extension/PermissionsEnumerable.sol\":3041:3042   */\n      0x01\n        /* \"@thirdweb-dev/contracts/extension/PermissionsEnumerable.sol\":3032:3042   */\n      dup4\n      tag_353\n      jump\t// in\n    tag_438:\n      swap2\n      pop\n        /* \"@thirdweb-dev/contracts/extension/PermissionsEnumerable.sol\":2987:3053   */\n    tag_437:\n        /* \"@thirdweb-dev/contracts/extension/PermissionsEnumerable.sol\":2750:3059   */\n      pop\n        /* \"@thirdweb-dev/contracts/extension/PermissionsEnumerable.sol\":2661:3059   */\n      swap2\n      swap1\n      pop\n      jump\t// out\n        /* \"@thirdweb-dev/contracts/extension/Permissions.sol\":3875:4046   */\n    tag_219:\n        /* \"@thirdweb-dev/contracts/extension/Permissions.sol\":3971:3990   */\n      0x00\n      dup3\n      dup2\n      mstore\n        /* \"@thirdweb-dev/contracts/extension/Permissions.sol\":3971:3984   */\n      0x10\n        /* \"@thirdweb-dev/contracts/extension/Permissions.sol\":3971:3990   */\n      0x20\n      mstore\n      0x40\n      swap1\n      keccak256\n      sload\n        /* \"@thirdweb-dev/contracts/extension/Permissions.sol\":3960:4003   */\n      tag_301\n      swap1\n        /* \"@thirdweb-dev/contracts/extension/Permissions.sol\":3992:4002   */\n      caller\n        /* \"@thirdweb-dev/contracts/extension/Permissions.sol\":3960:3970   */\n      tag_261\n        /* \"@thirdweb-dev/contracts/extension/Permissions.sol\":3960:4003   */\n      jump\t// in\n        /* \"@thirdweb-dev/contracts/extension/ContractMetadata.sol\":543:577   */\n    tag_221:\n      0x08\n      dup1\n      sload\n      tag_442\n      swap1\n      tag_239\n      jump\t// in\n    tag_442:\n      dup1\n      0x1f\n      add\n      0x20\n      dup1\n      swap2\n      div\n      mul\n      0x20\n      add\n      mload(0x40)\n      swap1\n      dup2\n      add\n      0x40\n      mstore\n      dup1\n      swap3\n      swap2\n      swap1\n      dup2\n      dup2\n      mstore\n      0x20\n      add\n      dup3\n      dup1\n      sload\n      tag_443\n      swap1\n      tag_239\n      jump\t// in\n    tag_443:\n      dup1\n      iszero\n      tag_444\n      jumpi\n      dup1\n      0x1f\n      lt\n      tag_445\n      jumpi\n      0x0100\n      dup1\n      dup4\n      sload\n      div\n      mul\n      dup4\n      mstore\n      swap2\n      0x20\n      add\n      swap2\n      jump(tag_444)\n    tag_445:\n      dup3\n      add\n      swap2\n      swap1\n      0x00\n      mstore\n      keccak256(0x00, 0x20)\n      swap1\n    tag_446:\n      dup2\n      sload\n      dup2\n      mstore\n      swap1\n      0x01\n      add\n      swap1\n      0x20\n      add\n      dup1\n      dup4\n      gt\n      tag_446\n      jumpi\n      dup3\n      swap1\n      sub\n      0x1f\n      and\n      dup3\n      add\n      swap2\n    tag_444:\n      pop\n      pop\n      pop\n      pop\n      pop\n      dup2\n      jump\t// out\n        /* \"@thirdweb-dev/contracts/extension/Permissions.sol\":5014:5182   */\n    tag_228:\n        /* \"@thirdweb-dev/contracts/extension/Permissions.sol\":5092:5106   */\n      0x00\n      dup3\n      dup2\n      mstore\n        /* \"@thirdweb-dev/contracts/extension/Permissions.sol\":5092:5100   */\n      0x0f\n        /* \"@thirdweb-dev/contracts/extension/Permissions.sol\":5092:5106   */\n      0x20\n      swap1\n      dup2\n      mstore\n      0x40\n      dup1\n      dup4\n      keccak256\n      sub(shl(0xa0, 0x01), 0x01)\n        /* \"@thirdweb-dev/contracts/extension/Permissions.sol\":5092:5115   */\n      dup6\n      and\n      dup1\n      dup6\n      mstore\n      swap3\n      mstore\n      dup1\n      dup4\n      keccak256\n        /* \"@thirdweb-dev/contracts/extension/Permissions.sol\":5092:5122   */\n      dup1\n      sload\n      not(0xff)\n      and\n        /* \"@thirdweb-dev/contracts/extension/Permissions.sol\":5118:5122   */\n      0x01\n        /* \"@thirdweb-dev/contracts/extension/Permissions.sol\":5092:5122   */\n      or\n      swap1\n      sstore\n        /* \"@thirdweb-dev/contracts/extension/Permissions.sol\":5137:5175   */\n      mload\n        /* \"@thirdweb-dev/contracts/extension/Permissions.sol\":5164:5174   */\n      caller\n      swap3\n        /* \"@thirdweb-dev/contracts/extension/Permissions.sol\":5101:5105   */\n      dup6\n      swap2\n        /* \"@thirdweb-dev/contracts/extension/Permissions.sol\":5137:5175   */\n      0x2f8788117e7eff1d82e926ec794901d17c78024a50270940304540a733656f0d\n      swap2\n        /* \"@thirdweb-dev/contracts/extension/Permissions.sol\":5092:5106   */\n      swap1\n        /* \"@thirdweb-dev/contracts/extension/Permissions.sol\":5137:5175   */\n      log4\n        /* \"@thirdweb-dev/contracts/extension/Permissions.sol\":5014:5182   */\n      pop\n      pop\n      jump\t// out\n        /* \"@thirdweb-dev/contracts/base/ERC721Base.sol\":3877:4094   */\n    tag_232:\n        /* \"@thirdweb-dev/contracts/base/ERC721Base.sol\":3964:3974   */\n      tag_450\n        /* \"@thirdweb-dev/contracts/base/ERC721Base.sol\":3964:3972   */\n      tag_265\n        /* \"@thirdweb-dev/contracts/base/ERC721Base.sol\":3964:3974   */\n      jump\t// in\n    tag_450:\n        /* \"@thirdweb-dev/contracts/base/ERC721Base.sol\":3956:4002   */\n      tag_451\n      jumpi\n      mload(0x40)\n      shl(0xe5, 0x461bcd)\n      dup2\n      mstore\n        /* \"#utility.yul\":12549:12551   */\n      0x20\n        /* \"@thirdweb-dev/contracts/base/ERC721Base.sol\":3956:4002   */\n      0x04\n      dup3\n      add\n        /* \"#utility.yul\":12531:12552   */\n      mstore\n        /* \"#utility.yul\":12588:12590   */\n      0x17\n        /* \"#utility.yul\":12568:12586   */\n      0x24\n      dup3\n      add\n        /* \"#utility.yul\":12561:12591   */\n      mstore\n        /* \"#utility.yul\":12627:12652   */\n      0x4e6f7420617574686f72697a656420746f206d696e742e000000000000000000\n        /* \"#utility.yul\":12607:12625   */\n      0x44\n      dup3\n      add\n        /* \"#utility.yul\":12600:12653   */\n      mstore\n        /* \"#utility.yul\":12670:12688   */\n      0x64\n      add\n        /* \"@thirdweb-dev/contracts/base/ERC721Base.sol\":3956:4002   */\n      tag_267\n        /* \"#utility.yul\":12347:12694   */\n      jump\n        /* \"@thirdweb-dev/contracts/base/ERC721Base.sol\":3956:4002   */\n    tag_451:\n        /* \"@thirdweb-dev/contracts/base/ERC721Base.sol\":4012:4056   */\n      tag_453\n        /* \"@thirdweb-dev/contracts/base/ERC721Base.sol\":4025:4044   */\n      tag_454\n        /* \"@thirdweb-dev/contracts/base/ERC721Base.sol\":5654:5661   */\n      0x00\n        /* \"@thirdweb-dev/contracts/base/ERC721Base.sol\":5680:5693   */\n      sload\n      swap1\n        /* \"@thirdweb-dev/contracts/base/ERC721Base.sol\":5596:5700   */\n      jump\n        /* \"@thirdweb-dev/contracts/base/ERC721Base.sol\":4025:4044   */\n    tag_454:\n        /* \"@thirdweb-dev/contracts/base/ERC721Base.sol\":4046:4055   */\n      dup3\n        /* \"@thirdweb-dev/contracts/base/ERC721Base.sol\":4012:4024   */\n      tag_455\n        /* \"@thirdweb-dev/contracts/base/ERC721Base.sol\":4012:4056   */\n      jump\t// in\n    tag_453:\n        /* \"@thirdweb-dev/contracts/base/ERC721Base.sol\":4066:4087   */\n      tag_298\n        /* \"@thirdweb-dev/contracts/base/ERC721Base.sol\":4076:4079   */\n      dup3\n        /* \"@thirdweb-dev/contracts/base/ERC721Base.sol\":4081:4082   */\n      0x01\n        /* \"@thirdweb-dev/contracts/base/ERC721Base.sol\":4066:4087   */\n      mload(0x40)\n      dup1\n      0x20\n      add\n      0x40\n      mstore\n      dup1\n      0x00\n      dup2\n      mstore\n      pop\n        /* \"@thirdweb-dev/contracts/base/ERC721Base.sol\":4066:4075   */\n      tag_344\n        /* \"@thirdweb-dev/contracts/base/ERC721Base.sol\":4066:4087   */\n      jump\t// in\n        /* \"@thirdweb-dev/contracts/eip/ERC721A.sol\":9515:9687   */\n    tag_246:\n        /* \"@thirdweb-dev/contracts/eip/ERC721A.sol\":9572:9576   */\n      0x00\n        /* \"@thirdweb-dev/contracts/eip/ERC721A.sol\":9635:9648   */\n      dup1\n      sload\n        /* \"@thirdweb-dev/contracts/eip/ERC721A.sol\":9625:9632   */\n      dup3\n        /* \"@thirdweb-dev/contracts/eip/ERC721A.sol\":9625:9648   */\n      lt\n        /* \"@thirdweb-dev/contracts/eip/ERC721A.sol\":9595:9680   */\n      dup1\n      iszero\n      tag_236\n      jumpi\n      pop\n      pop\n        /* \"@thirdweb-dev/contracts/eip/ERC721A.sol\":9653:9673   */\n      0x00\n      swap1\n      dup2\n      mstore\n        /* \"@thirdweb-dev/contracts/eip/ERC721A.sol\":9653:9664   */\n      0x04\n        /* \"@thirdweb-dev/contracts/eip/ERC721A.sol\":9653:9673   */\n      0x20\n      mstore\n      0x40\n      swap1\n      keccak256\n        /* \"@thirdweb-dev/contracts/eip/ERC721A.sol\":9653:9680   */\n      sload\n      shl(0xe0, 0x01)\n      swap1\n      div\n      0xff\n      and\n        /* \"@thirdweb-dev/contracts/eip/ERC721A.sol\":9652:9680   */\n      iszero\n      swap1\n        /* \"@thirdweb-dev/contracts/eip/ERC721A.sol\":9515:9687   */\n      jump\t// out\n        /* \"@thirdweb-dev/contracts/eip/ERC721A.sol\":18496:18685   */\n    tag_258:\n        /* \"@thirdweb-dev/contracts/eip/ERC721A.sol\":18606:18630   */\n      0x00\n      dup3\n      dup2\n      mstore\n        /* \"@thirdweb-dev/contracts/eip/ERC721A.sol\":18606:18621   */\n      0x06\n        /* \"@thirdweb-dev/contracts/eip/ERC721A.sol\":18606:18630   */\n      0x20\n      mstore\n      0x40\n      dup1\n      dup3\n      keccak256\n        /* \"@thirdweb-dev/contracts/eip/ERC721A.sol\":18606:18635   */\n      dup1\n      sload\n      not(sub(shl(0xa0, 0x01), 0x01))\n      and\n      sub(shl(0xa0, 0x01), 0x01)\n      dup8\n      dup2\n      and\n      swap2\n      dup3\n      or\n      swap1\n      swap3\n      sstore\n        /* \"@thirdweb-dev/contracts/eip/ERC721A.sol\":18650:18678   */\n      swap2\n      mload\n        /* \"@thirdweb-dev/contracts/eip/ERC721A.sol\":18606:18630   */\n      dup6\n      swap4\n        /* \"@thirdweb-dev/contracts/eip/ERC721A.sol\":18650:18678   */\n      swap2\n      dup6\n      and\n      swap2\n      0x8c5be1e5ebec7d5bd14f71427d1e84f3dd0314c0f7b2291e5b200ac8c7c3b925\n      swap2\n      log4\n        /* \"@thirdweb-dev/contracts/eip/ERC721A.sol\":18496:18685   */\n      pop\n      pop\n      pop\n      jump\t// out\n        /* \"@thirdweb-dev/contracts/extension/Permissions.sol\":5535:6030   */\n    tag_261:\n        /* \"@thirdweb-dev/contracts/extension/Permissions.sol\":5623:5637   */\n      0x00\n      dup3\n      dup2\n      mstore\n        /* \"@thirdweb-dev/contracts/extension/Permissions.sol\":5623:5631   */\n      0x0f\n        /* \"@thirdweb-dev/contracts/extension/Permissions.sol\":5623:5637   */\n      0x20\n      swap1\n      dup2\n      mstore\n      0x40\n      dup1\n      dup4\n      keccak256\n      sub(shl(0xa0, 0x01), 0x01)\n        /* \"@thirdweb-dev/contracts/extension/Permissions.sol\":5623:5646   */\n      dup6\n      and\n      dup5\n      mstore\n      swap1\n      swap2\n      mstore\n      swap1\n      keccak256\n      sload\n      0xff\n      and\n        /* \"@thirdweb-dev/contracts/extension/Permissions.sol\":5618:6024   */\n      tag_298\n      jumpi\n        /* \"@thirdweb-dev/contracts/extension/Permissions.sol\":5805:5848   */\n      tag_465\n        /* \"@thirdweb-dev/contracts/extension/Permissions.sol\":5835:5842   */\n      dup2\n      sub(shl(0xa0, 0x01), 0x01)\n        /* \"@thirdweb-dev/contracts/extension/Permissions.sol\":5805:5848   */\n      and\n        /* \"@thirdweb-dev/contracts/extension/Permissions.sol\":5845:5847   */\n      0x14\n        /* \"@thirdweb-dev/contracts/extension/Permissions.sol\":5805:5826   */\n      tag_466\n        /* \"@thirdweb-dev/contracts/extension/Permissions.sol\":5805:5848   */\n      jump\t// in\n    tag_465:\n        /* \"@thirdweb-dev/contracts/extension/Permissions.sol\":5919:5959   */\n      tag_467\n        /* \"@thirdweb-dev/contracts/extension/Permissions.sol\":5949:5953   */\n      dup4\n        /* \"@thirdweb-dev/contracts/extension/Permissions.sol\":5956:5958   */\n      0x20\n        /* \"@thirdweb-dev/contracts/extension/Permissions.sol\":5919:5940   */\n      tag_466\n        /* \"@thirdweb-dev/contracts/extension/Permissions.sol\":5919:5959   */\n      jump\t// in\n    tag_467:\n        /* \"@thirdweb-dev/contracts/extension/Permissions.sol\":5714:5981   */\n      add(0x20, mload(0x40))\n      tag_468\n      swap3\n      swap2\n      swap1\n      tag_469\n      jump\t// in\n    tag_468:\n      0x40\n      dup1\n      mload\n      not(0x1f)\n      dup2\n      dup5\n      sub\n      add\n      dup2\n      mstore\n      swap1\n      dup3\n      swap1\n      mstore\n      shl(0xe5, 0x461bcd)\n        /* \"@thirdweb-dev/contracts/extension/Permissions.sol\":5662:6013   */\n      dup3\n      mstore\n      tag_267\n      swap2\n      0x04\n      add\n      tag_73\n      jump\t// in\n        /* \"@thirdweb-dev/contracts/base/ERC721Base.sol\":7054:7169   */\n    tag_265:\n        /* \"@thirdweb-dev/contracts/base/ERC721Base.sol\":7118:7122   */\n      0x00\n        /* \"@thirdweb-dev/contracts/base/ERC721Base.sol\":7155:7162   */\n      tag_472\n        /* \"@thirdweb-dev/contracts/extension/Ownable.sol\":922:928   */\n      and(sub(shl(0xa0, 0x01), 0x01), sload(0x09))\n      swap1\n        /* \"@thirdweb-dev/contracts/extension/Ownable.sol\":849:935   */\n      jump\n        /* \"@thirdweb-dev/contracts/base/ERC721Base.sol\":7155:7162   */\n    tag_472:\n      sub(shl(0xa0, 0x01), 0x01)\n        /* \"@thirdweb-dev/contracts/base/ERC721Base.sol\":7141:7162   */\n      and\n        /* \"@thirdweb-dev/contracts/base/ERC721Base.sol\":7141:7151   */\n      caller\n      sub(shl(0xa0, 0x01), 0x01)\n        /* \"@thirdweb-dev/contracts/base/ERC721Base.sol\":7141:7162   */\n      and\n      eq\n        /* \"@thirdweb-dev/contracts/base/ERC721Base.sol\":7134:7162   */\n      swap1\n      pop\n        /* \"@thirdweb-dev/contracts/base/ERC721Base.sol\":7054:7169   */\n      swap1\n      jump\t// out\n        /* \"@thirdweb-dev/contracts/extension/Ownable.sol\":1399:1571   */\n    tag_270:\n        /* \"@thirdweb-dev/contracts/extension/Ownable.sol\":1479:1485   */\n      0x09\n      dup1\n      sload\n      sub(shl(0xa0, 0x01), 0x01)\n        /* \"@thirdweb-dev/contracts/extension/Ownable.sol\":1495:1513   */\n      dup4\n      dup2\n      and\n      not(sub(shl(0xa0, 0x01), 0x01))\n      dup4\n      and\n      dup2\n      or\n      swap1\n      swap4\n      sstore\n        /* \"@thirdweb-dev/contracts/extension/Ownable.sol\":1529:1564   */\n      mload(0x40)\n        /* \"@thirdweb-dev/contracts/extension/Ownable.sol\":1479:1485   */\n      swap2\n      and\n      swap2\n        /* \"@thirdweb-dev/contracts/extension/Ownable.sol\":1495:1513   */\n      swap1\n        /* \"@thirdweb-dev/contracts/extension/Ownable.sol\":1479:1485   */\n      dup3\n      swap1\n        /* \"@thirdweb-dev/contracts/extension/Ownable.sol\":1529:1564   */\n      0x8292fce18fa69edf4db7b94ea2e58241df0ae57f97e0a6c9b29067028bf92d76\n      swap1\n        /* \"@thirdweb-dev/contracts/extension/Ownable.sol\":1458:1476   */\n      0x00\n      swap1\n        /* \"@thirdweb-dev/contracts/extension/Ownable.sol\":1529:1564   */\n      log3\n        /* \"@thirdweb-dev/contracts/extension/Ownable.sol\":1448:1571   */\n      pop\n        /* \"@thirdweb-dev/contracts/extension/Ownable.sol\":1399:1571   */\n      pop\n      jump\t// out\n        /* \"@thirdweb-dev/contracts/eip/ERC721A.sol\":13571:15653   */\n    tag_276:\n        /* \"@thirdweb-dev/contracts/eip/ERC721A.sol\":13681:13716   */\n      0x00\n        /* \"@thirdweb-dev/contracts/eip/ERC721A.sol\":13719:13740   */\n      tag_476\n        /* \"@thirdweb-dev/contracts/eip/ERC721A.sol\":13732:13739   */\n      dup3\n        /* \"@thirdweb-dev/contracts/eip/ERC721A.sol\":13719:13731   */\n      tag_330\n        /* \"@thirdweb-dev/contracts/eip/ERC721A.sol\":13719:13740   */\n      jump\t// in\n    tag_476:\n        /* \"@thirdweb-dev/contracts/eip/ERC721A.sol\":13681:13740   */\n      swap1\n      pop\n        /* \"@thirdweb-dev/contracts/eip/ERC721A.sol\":13777:13781   */\n      dup4\n      sub(shl(0xa0, 0x01), 0x01)\n        /* \"@thirdweb-dev/contracts/eip/ERC721A.sol\":13755:13781   */\n      and\n        /* \"@thirdweb-dev/contracts/eip/ERC721A.sol\":13755:13768   */\n      dup2\n        /* \"@thirdweb-dev/contracts/eip/ERC721A.sol\":13755:13773   */\n      0x00\n      add\n      mload\n      sub(shl(0xa0, 0x01), 0x01)\n        /* \"@thirdweb-dev/contracts/eip/ERC721A.sol\":13755:13781   */\n      and\n      eq\n        /* \"@thirdweb-dev/contracts/eip/ERC721A.sol\":13751:13818   */\n      tag_477\n      jumpi\n        /* \"@thirdweb-dev/contracts/eip/ERC721A.sol\":13790:13818   */\n      mload(0x40)\n      shl(0xe8, 0xa11481)\n      dup2\n      mstore\n      0x04\n      add\n      mload(0x40)\n      dup1\n      swap2\n      sub\n      swap1\n      revert\n        /* \"@thirdweb-dev/contracts/eip/ERC721A.sol\":13751:13818   */\n    tag_477:\n        /* \"@thirdweb-dev/contracts/eip/ERC721A.sol\":13829:13851   */\n      0x00\n        /* \"@thirdweb-dev/contracts/openzeppelin-presets/utils/Context.sol\":719:729   */\n      caller\n      sub(shl(0xa0, 0x01), 0x01)\n        /* \"@thirdweb-dev/contracts/eip/ERC721A.sol\":13855:13875   */\n      dup7\n      and\n      eq\n      dup1\n        /* \"@thirdweb-dev/contracts/eip/ERC721A.sol\":13855:13927   */\n      tag_480\n      jumpi\n      pop\n        /* \"@thirdweb-dev/contracts/eip/ERC721A.sol\":13891:13927   */\n      tag_480\n        /* \"@thirdweb-dev/contracts/eip/ERC721A.sol\":13908:13912   */\n      dup6\n        /* \"@thirdweb-dev/contracts/openzeppelin-presets/utils/Context.sol\":719:729   */\n      caller\n        /* \"@thirdweb-dev/contracts/eip/ERC721A.sol\":8189:8351   */\n      tag_224\n      jump\t// in\n        /* \"@thirdweb-dev/contracts/eip/ERC721A.sol\":13891:13927   */\n    tag_480:\n        /* \"@thirdweb-dev/contracts/eip/ERC721A.sol\":13855:13979   */\n      dup1\n      tag_482\n      jumpi\n      pop\n        /* \"@thirdweb-dev/contracts/openzeppelin-presets/utils/Context.sol\":719:729   */\n      caller\n        /* \"@thirdweb-dev/contracts/eip/ERC721A.sol\":13943:13963   */\n      tag_484\n        /* \"@thirdweb-dev/contracts/eip/ERC721A.sol\":13955:13962   */\n      dup5\n        /* \"@thirdweb-dev/contracts/eip/ERC721A.sol\":13943:13954   */\n      tag_77\n        /* \"@thirdweb-dev/contracts/eip/ERC721A.sol\":13943:13963   */\n      jump\t// in\n    tag_484:\n      sub(shl(0xa0, 0x01), 0x01)\n        /* \"@thirdweb-dev/contracts/eip/ERC721A.sol\":13943:13979   */\n      and\n      eq\n        /* \"@thirdweb-dev/contracts/eip/ERC721A.sol\":13855:13979   */\n    tag_482:\n        /* \"@thirdweb-dev/contracts/eip/ERC721A.sol\":13829:13980   */\n      swap1\n      pop\n        /* \"@thirdweb-dev/contracts/eip/ERC721A.sol\":13996:14013   */\n      dup1\n        /* \"@thirdweb-dev/contracts/eip/ERC721A.sol\":13991:14057   */\n      tag_485\n      jumpi\n        /* \"@thirdweb-dev/contracts/eip/ERC721A.sol\":14022:14057   */\n      mload(0x40)\n      shl(0xe1, 0x2ce44b5f)\n      dup2\n      mstore\n      0x04\n      add\n      mload(0x40)\n      dup1\n      swap2\n      sub\n      swap1\n      revert\n        /* \"@thirdweb-dev/contracts/eip/ERC721A.sol\":13991:14057   */\n    tag_485:\n      sub(shl(0xa0, 0x01), 0x01)\n        /* \"@thirdweb-dev/contracts/eip/ERC721A.sol\":14071:14087   */\n      dup5\n      and\n        /* \"@thirdweb-dev/contracts/eip/ERC721A.sol\":14067:14119   */\n      tag_486\n      jumpi\n        /* \"@thirdweb-dev/contracts/eip/ERC721A.sol\":14096:14119   */\n      mload(0x40)\n      shl(0xe2, 0x3a954ecd)\n      dup2\n      mstore\n      0x04\n      add\n      mload(0x40)\n      dup1\n      swap2\n      sub\n      swap1\n      revert\n        /* \"@thirdweb-dev/contracts/eip/ERC721A.sol\":14067:14119   */\n    tag_486:\n        /* \"@thirdweb-dev/contracts/eip/ERC721A.sol\":14235:14270   */\n      tag_489\n        /* \"@thirdweb-dev/contracts/eip/ERC721A.sol\":14252:14253   */\n      0x00\n        /* \"@thirdweb-dev/contracts/eip/ERC721A.sol\":14256:14263   */\n      dup5\n        /* \"@thirdweb-dev/contracts/eip/ERC721A.sol\":14265:14269   */\n      dup8\n        /* \"@thirdweb-dev/contracts/eip/ERC721A.sol\":14235:14243   */\n      tag_258\n        /* \"@thirdweb-dev/contracts/eip/ERC721A.sol\":14235:14270   */\n      jump\t// in\n    tag_489:\n      sub(shl(0xa0, 0x01), 0x01)\n        /* \"@thirdweb-dev/contracts/eip/ERC721A.sol\":14560:14578   */\n      dup6\n      dup2\n      and\n      0x00\n      swap1\n      dup2\n      mstore\n        /* \"@thirdweb-dev/contracts/eip/ERC721A.sol\":14560:14572   */\n      0x05\n        /* \"@thirdweb-dev/contracts/eip/ERC721A.sol\":14560:14578   */\n      0x20\n      swap1\n      dup2\n      mstore\n      0x40\n      dup1\n      dup4\n      keccak256\n        /* \"@thirdweb-dev/contracts/eip/ERC721A.sol\":14560:14591   */\n      dup1\n      sload\n      not(0xffffffffffffffff)\n      dup1\n      dup3\n      and\n      0xffffffffffffffff\n      swap3\n      dup4\n      and\n      not(0x00)\n      add\n      dup4\n      and\n      or\n      swap1\n      swap3\n      sstore\n        /* \"@thirdweb-dev/contracts/eip/ERC721A.sol\":14605:14621   */\n      dup10\n      dup7\n      and\n      dup1\n      dup7\n      mstore\n      dup4\n      dup7\n      keccak256\n        /* \"@thirdweb-dev/contracts/eip/ERC721A.sol\":14605:14634   */\n      dup1\n      sload\n      swap4\n      dup5\n      and\n      swap4\n      dup4\n      and\n      0x01\n      swap1\n      dup2\n      add\n      dup5\n      and\n      swap5\n      swap1\n      swap5\n      or\n      swap1\n      sstore\n        /* \"@thirdweb-dev/contracts/eip/ERC721A.sol\":14683:14703   */\n      dup10\n      dup7\n      mstore\n        /* \"@thirdweb-dev/contracts/eip/ERC721A.sol\":14683:14694   */\n      0x04\n        /* \"@thirdweb-dev/contracts/eip/ERC721A.sol\":14683:14703   */\n      swap1\n      swap5\n      mstore\n      dup3\n      dup6\n      keccak256\n        /* \"@thirdweb-dev/contracts/eip/ERC721A.sol\":14717:14735   */\n      dup1\n      sload\n      not(sub(shl(0xe0, 0x01), 0x01))\n        /* \"@thirdweb-dev/contracts/eip/ERC721A.sol\":14749:14798   */\n      and\n      swap1\n      swap5\n      or\n      shl(0xa0, 0x01)\n        /* \"@thirdweb-dev/contracts/eip/ERC721A.sol\":14782:14797   */\n      timestamp\n        /* \"@thirdweb-dev/contracts/eip/ERC721A.sol\":14749:14798   */\n      swap1\n      swap3\n      and\n      swap2\n      swap1\n      swap2\n      mul\n      or\n      dup4\n      sstore\n        /* \"@thirdweb-dev/contracts/eip/ERC721A.sol\":15068:15079   */\n      dup8\n      add\n        /* \"@thirdweb-dev/contracts/eip/ERC721A.sol\":15127:15151   */\n      dup1\n      dup5\n      mstore\n      swap3\n      keccak256\n        /* \"@thirdweb-dev/contracts/eip/ERC721A.sol\":15169:15182   */\n      dup1\n      sload\n        /* \"@thirdweb-dev/contracts/eip/ERC721A.sol\":14683:14703   */\n      swap2\n      swap4\n        /* \"@thirdweb-dev/contracts/eip/ERC721A.sol\":15127:15151   */\n      swap1\n      swap2\n        /* \"@thirdweb-dev/contracts/eip/ERC721A.sol\":15169:15182   */\n      and\n        /* \"@thirdweb-dev/contracts/eip/ERC721A.sol\":15165:15542   */\n      tag_491\n      jumpi\n        /* \"@thirdweb-dev/contracts/eip/ERC721A.sol\":15376:15389   */\n      sload(0x00)\n        /* \"@thirdweb-dev/contracts/eip/ERC721A.sol\":15361:15372   */\n      dup3\n        /* \"@thirdweb-dev/contracts/eip/ERC721A.sol\":15361:15389   */\n      eq\n        /* \"@thirdweb-dev/contracts/eip/ERC721A.sol\":15357:15528   */\n      tag_491\n      jumpi\n        /* \"@thirdweb-dev/contracts/eip/ERC721A.sol\":15413:15433   */\n      dup1\n      sload\n        /* \"@thirdweb-dev/contracts/eip/ERC721A.sol\":15481:15509   */\n      0x20\n      dup7\n      add\n      mload\n        /* \"@thirdweb-dev/contracts/eip/ERC721A.sol\":15455:15509   */\n      0xffffffffffffffff\n      and\n      shl(0xa0, 0x01)\n      mul\n      not(sub(shl(0xe0, 0x01), 0x01))\n      swap1\n      swap2\n      and\n      sub(shl(0xa0, 0x01), 0x01)\n        /* \"@thirdweb-dev/contracts/eip/ERC721A.sol\":15413:15433   */\n      dup11\n      and\n        /* \"@thirdweb-dev/contracts/eip/ERC721A.sol\":15455:15509   */\n      or\n      or\n      dup2\n      sstore\n        /* \"@thirdweb-dev/contracts/eip/ERC721A.sol\":15357:15528   */\n    tag_491:\n        /* \"@thirdweb-dev/contracts/eip/ERC721A.sol\":14536:15552   */\n      pop\n      pop\n      pop\n        /* \"@thirdweb-dev/contracts/eip/ERC721A.sol\":15586:15593   */\n      dup3\n        /* \"@thirdweb-dev/contracts/eip/ERC721A.sol\":15582:15584   */\n      dup5\n      sub(shl(0xa0, 0x01), 0x01)\n        /* \"@thirdweb-dev/contracts/eip/ERC721A.sol\":15567:15594   */\n      and\n        /* \"@thirdweb-dev/contracts/eip/ERC721A.sol\":15576:15580   */\n      dup7\n      sub(shl(0xa0, 0x01), 0x01)\n        /* \"@thirdweb-dev/contracts/eip/ERC721A.sol\":15567:15594   */\n      and\n      0xddf252ad1be2c89b69c2b068fc378daa952ba7f163c4a11628f55a4df523b3ef\n      mload(0x40)\n      mload(0x40)\n      dup1\n      swap2\n      sub\n      swap1\n      log4\n        /* \"@thirdweb-dev/contracts/eip/ERC721A.sol\":13671:15653   */\n      pop\n      pop\n        /* \"@thirdweb-dev/contracts/eip/ERC721A.sol\":13571:15653   */\n      pop\n      pop\n      pop\n      jump\t// out\n        /* \"@thirdweb-dev/contracts/extension/PermissionsEnumerable.sol\":3453:3605   */\n    tag_299:\n        /* \"@thirdweb-dev/contracts/extension/PermissionsEnumerable.sol\":3532:3563   */\n      tag_495\n        /* \"@thirdweb-dev/contracts/extension/PermissionsEnumerable.sol\":3549:3553   */\n      dup3\n        /* \"@thirdweb-dev/contracts/extension/PermissionsEnumerable.sol\":3555:3562   */\n      dup3\n        /* \"@thirdweb-dev/contracts/extension/PermissionsEnumerable.sol\":3532:3548   */\n      tag_228\n        /* \"@thirdweb-dev/contracts/extension/PermissionsEnumerable.sol\":3532:3563   */\n      jump\t// in\n    tag_495:\n        /* \"@thirdweb-dev/contracts/extension/PermissionsEnumerable.sol\":3573:3598   */\n      tag_298\n        /* \"@thirdweb-dev/contracts/extension/PermissionsEnumerable.sol\":3584:3588   */\n      dup3\n        /* \"@thirdweb-dev/contracts/extension/PermissionsEnumerable.sol\":3590:3597   */\n      dup3\n        /* \"@thirdweb-dev/contracts/extension/PermissionsEnumerable.sol\":3573:3583   */\n      tag_497\n        /* \"@thirdweb-dev/contracts/extension/PermissionsEnumerable.sol\":3573:3598   */\n      jump\t// in\n        /* \"@thirdweb-dev/contracts/extension/PermissionsEnumerable.sol\":3183:3340   */\n    tag_305:\n        /* \"@thirdweb-dev/contracts/extension/PermissionsEnumerable.sol\":3263:3295   */\n      tag_499\n        /* \"@thirdweb-dev/contracts/extension/PermissionsEnumerable.sol\":3281:3285   */\n      dup3\n        /* \"@thirdweb-dev/contracts/extension/PermissionsEnumerable.sol\":3287:3294   */\n      dup3\n        /* \"@thirdweb-dev/contracts/extension/PermissionsEnumerable.sol\":3263:3280   */\n      tag_500\n        /* \"@thirdweb-dev/contracts/extension/PermissionsEnumerable.sol\":3263:3295   */\n      jump\t// in\n    tag_499:\n        /* \"@thirdweb-dev/contracts/extension/PermissionsEnumerable.sol\":4062:4073   */\n      0x00\n        /* \"@thirdweb-dev/contracts/extension/PermissionsEnumerable.sol\":4076:4093   */\n      dup3\n      dup2\n      mstore\n        /* \"@thirdweb-dev/contracts/extension/PermissionsEnumerable.sol\":4076:4087   */\n      0x11\n        /* \"@thirdweb-dev/contracts/extension/PermissionsEnumerable.sol\":4076:4093   */\n      0x20\n      swap1\n      dup2\n      mstore\n      0x40\n      dup1\n      dup4\n      keccak256\n      sub(shl(0xa0, 0x01), 0x01)\n        /* \"@thirdweb-dev/contracts/extension/PermissionsEnumerable.sol\":4076:4110   */\n      dup6\n      and\n      dup1\n      dup6\n      mstore\n        /* \"@thirdweb-dev/contracts/extension/PermissionsEnumerable.sol\":4076:4101   */\n      0x02\n      dup3\n      add\n        /* \"@thirdweb-dev/contracts/extension/PermissionsEnumerable.sol\":4076:4110   */\n      dup1\n      dup6\n      mstore\n      dup4\n      dup7\n      keccak256\n      dup1\n      sload\n        /* \"@thirdweb-dev/contracts/extension/PermissionsEnumerable.sol\":4128:4158   */\n      dup8\n      mstore\n        /* \"@thirdweb-dev/contracts/extension/PermissionsEnumerable.sol\":4128:4153   */\n      0x01\n      swap1\n      swap4\n      add\n        /* \"@thirdweb-dev/contracts/extension/PermissionsEnumerable.sol\":4128:4158   */\n      dup6\n      mstore\n      swap3\n      dup6\n      keccak256\n        /* \"@thirdweb-dev/contracts/extension/PermissionsEnumerable.sol\":4121:4158   */\n      dup1\n      sload\n      not(sub(shl(0xa0, 0x01), 0x01))\n      and\n      swap1\n      sstore\n        /* \"@thirdweb-dev/contracts/extension/PermissionsEnumerable.sol\":4175:4209   */\n      dup5\n      mstore\n      swap2\n      mstore\n        /* \"@thirdweb-dev/contracts/extension/PermissionsEnumerable.sol\":4168:4209   */\n      sstore\n        /* \"@thirdweb-dev/contracts/extension/Permissions.sol\":3233:3504   */\n      pop\n      pop\n      jump\t// out\n        /* \"@thirdweb-dev/contracts/eip/ERC721A.sol\":16030:18385   */\n    tag_311:\n        /* \"@thirdweb-dev/contracts/eip/ERC721A.sol\":16109:16144   */\n      0x00\n        /* \"@thirdweb-dev/contracts/eip/ERC721A.sol\":16147:16168   */\n      tag_504\n        /* \"@thirdweb-dev/contracts/eip/ERC721A.sol\":16160:16167   */\n      dup4\n        /* \"@thirdweb-dev/contracts/eip/ERC721A.sol\":16147:16159   */\n      tag_330\n        /* \"@thirdweb-dev/contracts/eip/ERC721A.sol\":16147:16168   */\n      jump\t// in\n    tag_504:\n        /* \"@thirdweb-dev/contracts/eip/ERC721A.sol\":16194:16212   */\n      dup1\n      mload\n        /* \"@thirdweb-dev/contracts/eip/ERC721A.sol\":16109:16168   */\n      swap1\n      swap2\n      pop\n        /* \"@thirdweb-dev/contracts/eip/ERC721A.sol\":16223:16507   */\n      dup3\n      iszero\n      tag_505\n      jumpi\n        /* \"@thirdweb-dev/contracts/eip/ERC721A.sol\":16256:16278   */\n      0x00\n        /* \"@thirdweb-dev/contracts/openzeppelin-presets/utils/Context.sol\":719:729   */\n      caller\n      sub(shl(0xa0, 0x01), 0x01)\n        /* \"@thirdweb-dev/contracts/eip/ERC721A.sol\":16282:16302   */\n      dup4\n      and\n      eq\n      dup1\n        /* \"@thirdweb-dev/contracts/eip/ERC721A.sol\":16282:16358   */\n      tag_508\n      jumpi\n      pop\n        /* \"@thirdweb-dev/contracts/eip/ERC721A.sol\":16322:16358   */\n      tag_508\n        /* \"@thirdweb-dev/contracts/eip/ERC721A.sol\":16339:16343   */\n      dup3\n        /* \"@thirdweb-dev/contracts/openzeppelin-presets/utils/Context.sol\":719:729   */\n      caller\n        /* \"@thirdweb-dev/contracts/eip/ERC721A.sol\":8189:8351   */\n      tag_224\n      jump\t// in\n        /* \"@thirdweb-dev/contracts/eip/ERC721A.sol\":16322:16358   */\n    tag_508:\n        /* \"@thirdweb-dev/contracts/eip/ERC721A.sol\":16282:16414   */\n      dup1\n      tag_510\n      jumpi\n      pop\n        /* \"@thirdweb-dev/contracts/openzeppelin-presets/utils/Context.sol\":719:729   */\n      caller\n        /* \"@thirdweb-dev/contracts/eip/ERC721A.sol\":16378:16398   */\n      tag_512\n        /* \"@thirdweb-dev/contracts/eip/ERC721A.sol\":16390:16397   */\n      dup7\n        /* \"@thirdweb-dev/contracts/eip/ERC721A.sol\":16378:16389   */\n      tag_77\n        /* \"@thirdweb-dev/contracts/eip/ERC721A.sol\":16378:16398   */\n      jump\t// in\n    tag_512:\n      sub(shl(0xa0, 0x01), 0x01)\n        /* \"@thirdweb-dev/contracts/eip/ERC721A.sol\":16378:16414   */\n      and\n      eq\n        /* \"@thirdweb-dev/contracts/eip/ERC721A.sol\":16282:16414   */\n    tag_510:\n        /* \"@thirdweb-dev/contracts/eip/ERC721A.sol\":16256:16415   */\n      swap1\n      pop\n        /* \"@thirdweb-dev/contracts/eip/ERC721A.sol\":16435:16452   */\n      dup1\n        /* \"@thirdweb-dev/contracts/eip/ERC721A.sol\":16430:16496   */\n      tag_513\n      jumpi\n        /* \"@thirdweb-dev/contracts/eip/ERC721A.sol\":16461:16496   */\n      mload(0x40)\n      shl(0xe1, 0x2ce44b5f)\n      dup2\n      mstore\n      0x04\n      add\n      mload(0x40)\n      dup1\n      swap2\n      sub\n      swap1\n      revert\n        /* \"@thirdweb-dev/contracts/eip/ERC721A.sol\":16430:16496   */\n    tag_513:\n        /* \"@thirdweb-dev/contracts/eip/ERC721A.sol\":16242:16507   */\n      pop\n        /* \"@thirdweb-dev/contracts/eip/ERC721A.sol\":16223:16507   */\n    tag_505:\n        /* \"@thirdweb-dev/contracts/eip/ERC721A.sol\":16630:16665   */\n      tag_515\n        /* \"@thirdweb-dev/contracts/eip/ERC721A.sol\":16647:16648   */\n      0x00\n        /* \"@thirdweb-dev/contracts/eip/ERC721A.sol\":16651:16658   */\n      dup6\n        /* \"@thirdweb-dev/contracts/eip/ERC721A.sol\":16660:16664   */\n      dup4\n        /* \"@thirdweb-dev/contracts/eip/ERC721A.sol\":16630:16638   */\n      tag_258\n        /* \"@thirdweb-dev/contracts/eip/ERC721A.sol\":16630:16665   */\n      jump\t// in\n    tag_515:\n      sub(shl(0xa0, 0x01), 0x01)\n        /* \"@thirdweb-dev/contracts/eip/ERC721A.sol\":16989:17007   */\n      dup1\n      dup3\n      and\n        /* \"@thirdweb-dev/contracts/eip/ERC721A.sol\":16955:16986   */\n      0x00\n        /* \"@thirdweb-dev/contracts/eip/ERC721A.sol\":16989:17007   */\n      dup2\n      dup2\n      mstore\n        /* \"@thirdweb-dev/contracts/eip/ERC721A.sol\":16989:17001   */\n      0x05\n        /* \"@thirdweb-dev/contracts/eip/ERC721A.sol\":16989:17007   */\n      0x20\n      swap1\n      dup2\n      mstore\n      0x40\n      dup1\n      dup4\n      keccak256\n        /* \"@thirdweb-dev/contracts/eip/ERC721A.sol\":17021:17045   */\n      dup1\n      sload\n        /* \"@thirdweb-dev/contracts/eip/ERC721A.sol\":17059:17088   */\n      0x0100000000000000000000000000000000\n      not(0x00)\n        /* \"@thirdweb-dev/contracts/eip/ERC721A.sol\":17021:17045   */\n      0xffffffffffffffff\n      dup1\n      dup5\n      and\n      swap2\n      swap1\n      swap2\n      add\n      dup2\n      and\n      not(0xffffffffffffffff)\n      dup5\n      and\n      dup2\n      or\n        /* \"@thirdweb-dev/contracts/eip/ERC721A.sol\":17059:17088   */\n      dup4\n      swap1\n      div\n      dup3\n      and\n        /* \"@thirdweb-dev/contracts/eip/ERC721A.sol\":17044:17045   */\n      0x01\n        /* \"@thirdweb-dev/contracts/eip/ERC721A.sol\":17059:17088   */\n      swap1\n      dup2\n      add\n      dup4\n      and\n      swap1\n      swap4\n      mul\n      0xffffffffffffffff0000000000000000ffffffffffffffff0000000000000000\n      swap1\n      swap5\n      and\n      or\n      swap3\n      swap1\n      swap3\n      or\n      dup4\n      sstore\n        /* \"@thirdweb-dev/contracts/eip/ERC721A.sol\":17218:17238   */\n      dup12\n      dup7\n      mstore\n        /* \"@thirdweb-dev/contracts/eip/ERC721A.sol\":17218:17229   */\n      0x04\n        /* \"@thirdweb-dev/contracts/eip/ERC721A.sol\":17218:17238   */\n      swap1\n      swap5\n      mstore\n      dup3\n      dup6\n      keccak256\n        /* \"@thirdweb-dev/contracts/eip/ERC721A.sol\":17252:17272   */\n      dup1\n      sload\n        /* \"@thirdweb-dev/contracts/eip/ERC721A.sol\":17349:17371   */\n      0xffffff00ffffffffffffffffffffffffffffffffffffffffffffffffffffffff\n        /* \"@thirdweb-dev/contracts/eip/ERC721A.sol\":17319:17334   */\n      timestamp\n        /* \"@thirdweb-dev/contracts/eip/ERC721A.sol\":17286:17335   */\n      swap1\n      swap4\n      and\n      shl(0xa0, 0x01)\n      mul\n      not(sub(shl(0xe0, 0x01), 0x01))\n      swap1\n      swap2\n      and\n      swap1\n      swap8\n      or\n      swap7\n      swap1\n      swap7\n      or\n        /* \"@thirdweb-dev/contracts/eip/ERC721A.sol\":17349:17371   */\n      and\n      shl(0xe0, 0x01)\n      or\n      dup6\n      sstore\n        /* \"@thirdweb-dev/contracts/eip/ERC721A.sol\":17637:17648   */\n      swap2\n      dup10\n      add\n        /* \"@thirdweb-dev/contracts/eip/ERC721A.sol\":17696:17720   */\n      dup1\n      dup5\n      mstore\n      swap3\n      keccak256\n        /* \"@thirdweb-dev/contracts/eip/ERC721A.sol\":17738:17751   */\n      dup1\n      sload\n        /* \"@thirdweb-dev/contracts/eip/ERC721A.sol\":16989:17007   */\n      swap2\n      swap5\n        /* \"@thirdweb-dev/contracts/eip/ERC721A.sol\":17696:17720   */\n      swap1\n      swap2\n        /* \"@thirdweb-dev/contracts/eip/ERC721A.sol\":17738:17751   */\n      and\n        /* \"@thirdweb-dev/contracts/eip/ERC721A.sol\":17734:18111   */\n      tag_517\n      jumpi\n        /* \"@thirdweb-dev/contracts/eip/ERC721A.sol\":17945:17958   */\n      sload(0x00)\n        /* \"@thirdweb-dev/contracts/eip/ERC721A.sol\":17930:17941   */\n      dup3\n        /* \"@thirdweb-dev/contracts/eip/ERC721A.sol\":17930:17958   */\n      eq\n        /* \"@thirdweb-dev/contracts/eip/ERC721A.sol\":17926:18097   */\n      tag_517\n      jumpi\n        /* \"@thirdweb-dev/contracts/eip/ERC721A.sol\":17982:18002   */\n      dup1\n      sload\n        /* \"@thirdweb-dev/contracts/eip/ERC721A.sol\":18050:18078   */\n      0x20\n      dup8\n      add\n      mload\n        /* \"@thirdweb-dev/contracts/eip/ERC721A.sol\":18024:18078   */\n      0xffffffffffffffff\n      and\n      shl(0xa0, 0x01)\n      mul\n      not(sub(shl(0xe0, 0x01), 0x01))\n      swap1\n      swap2\n      and\n      sub(shl(0xa0, 0x01), 0x01)\n        /* \"@thirdweb-dev/contracts/eip/ERC721A.sol\":17982:18002   */\n      dup8\n      and\n        /* \"@thirdweb-dev/contracts/eip/ERC721A.sol\":18024:18078   */\n      or\n      or\n      dup2\n      sstore\n        /* \"@thirdweb-dev/contracts/eip/ERC721A.sol\":17926:18097   */\n    tag_517:\n      pop\n      pop\n        /* \"@thirdweb-dev/contracts/eip/ERC721A.sol\":18136:18171   */\n      mload(0x40)\n        /* \"@thirdweb-dev/contracts/eip/ERC721A.sol\":18163:18170   */\n      dup7\n      swap3\n      pop\n        /* \"@thirdweb-dev/contracts/eip/ERC721A.sol\":18159:18160   */\n      0x00\n      swap2\n      pop\n      sub(shl(0xa0, 0x01), 0x01)\n        /* \"@thirdweb-dev/contracts/eip/ERC721A.sol\":18136:18171   */\n      dup5\n      and\n      swap1\n      0xddf252ad1be2c89b69c2b068fc378daa952ba7f163c4a11628f55a4df523b3ef\n      swap1\n        /* \"@thirdweb-dev/contracts/eip/ERC721A.sol\":18159:18160   */\n      dup4\n      swap1\n        /* \"@thirdweb-dev/contracts/eip/ERC721A.sol\":18136:18171   */\n      log4\n      pop\n      pop\n        /* \"@thirdweb-dev/contracts/eip/ERC721A.sol\":18354:18366   */\n      0x01\n        /* \"@thirdweb-dev/contracts/eip/ERC721A.sol\":18354:18368   */\n      dup1\n      sload\n      dup2\n      add\n      swap1\n      sstore\n      pop\n      pop\n        /* \"@thirdweb-dev/contracts/eip/ERC721A.sol\":16030:18385   */\n      jump\t// out\n        /* \"@thirdweb-dev/contracts/extension/Royalty.sol\":3408:3742   */\n    tag_327:\n        /* \"@thirdweb-dev/contracts/extension/Royalty.sol\":3527:3533   */\n      0x2710\n        /* \"@thirdweb-dev/contracts/extension/Royalty.sol\":3513:3524   */\n      dup2\n        /* \"@thirdweb-dev/contracts/extension/Royalty.sol\":3513:3533   */\n      gt\n        /* \"@thirdweb-dev/contracts/extension/Royalty.sol\":3509:3585   */\n      iszero\n      tag_522\n      jumpi\n        /* \"@thirdweb-dev/contracts/extension/Royalty.sol\":3549:3574   */\n      mload(0x40)\n      shl(0xe5, 0x461bcd)\n      dup2\n      mstore\n        /* \"#utility.yul\":14964:14966   */\n      0x20\n        /* \"@thirdweb-dev/contracts/extension/Royalty.sol\":3549:3574   */\n      0x04\n      dup3\n      add\n        /* \"#utility.yul\":14946:14967   */\n      mstore\n        /* \"#utility.yul\":15003:15005   */\n      0x0f\n        /* \"#utility.yul\":14983:15001   */\n      0x24\n      dup3\n      add\n        /* \"#utility.yul\":14976:15006   */\n      mstore\n      shl(0x88, 0x45786365656473206d617820627073)\n        /* \"#utility.yul\":15022:15040   */\n      0x44\n      dup3\n      add\n        /* \"#utility.yul\":15015:15060   */\n      mstore\n        /* \"#utility.yul\":15077:15095   */\n      0x64\n      add\n        /* \"@thirdweb-dev/contracts/extension/Royalty.sol\":3549:3574   */\n      tag_267\n        /* \"#utility.yul\":14762:15101   */\n      jump\n        /* \"@thirdweb-dev/contracts/extension/Royalty.sol\":3509:3585   */\n    tag_522:\n        /* \"@thirdweb-dev/contracts/extension/Royalty.sol\":3595:3611   */\n      0x0a\n        /* \"@thirdweb-dev/contracts/extension/Royalty.sol\":3595:3631   */\n      dup1\n      sload\n      sub(shl(0xa0, 0x01), 0x01)\n      dup5\n      and\n        /* \"@thirdweb-dev/contracts/extension/Royalty.sol\":3641:3673   */\n      0xffffffffffffffffffff00000000000000000000000000000000000000000000\n      swap1\n      swap2\n      and\n      dup2\n      or\n      shl(0xa0, 0x01)\n      0xffff\n      dup6\n      and\n      mul\n      or\n      swap1\n      swap2\n      sstore\n        /* \"@thirdweb-dev/contracts/extension/Royalty.sol\":3689:3735   */\n      mload(0x40)\n        /* \"#utility.yul\":4066:4091   */\n      dup3\n      dup2\n      mstore\n        /* \"@thirdweb-dev/contracts/extension/Royalty.sol\":3689:3735   */\n      0x90d7ec04bcb8978719414f82e52e4cb651db41d0e6f8cea6118c2191e6183adb\n      swap1\n        /* \"#utility.yul\":4054:4056   */\n      0x20\n        /* \"#utility.yul\":4039:4057   */\n      add\n        /* \"@thirdweb-dev/contracts/extension/Royalty.sol\":3689:3735   */\n      mload(0x40)\n      dup1\n      swap2\n      sub\n      swap1\n      log2\n        /* \"@thirdweb-dev/contracts/extension/Royalty.sol\":3408:3742   */\n      pop\n      pop\n      jump\t// out\n        /* \"@thirdweb-dev/contracts/eip/ERC721A.sol\":4680:5854   */\n    tag_330:\n      0x40\n      dup1\n      mload\n      0x60\n      dup2\n      add\n      dup3\n      mstore\n      0x00\n      dup1\n      dup3\n      mstore\n      0x20\n      dup3\n      add\n      dup2\n      swap1\n      mstore\n      swap2\n      dup2\n      add\n      swap2\n      swap1\n      swap2\n      mstore\n        /* \"@thirdweb-dev/contracts/eip/ERC721A.sol\":4790:4797   */\n      dup2\n        /* \"@thirdweb-dev/contracts/eip/ERC721A.sol\":4888:4901   */\n      sload(0x00)\n        /* \"@thirdweb-dev/contracts/eip/ERC721A.sol\":4881:4885   */\n      dup2\n        /* \"@thirdweb-dev/contracts/eip/ERC721A.sol\":4881:4901   */\n      lt\n        /* \"@thirdweb-dev/contracts/eip/ERC721A.sol\":4877:5790   */\n      iszero\n      tag_531\n      jumpi\n        /* \"@thirdweb-dev/contracts/eip/ERC721A.sol\":4925:4956   */\n      0x00\n        /* \"@thirdweb-dev/contracts/eip/ERC721A.sol\":4959:4976   */\n      dup2\n      dup2\n      mstore\n        /* \"@thirdweb-dev/contracts/eip/ERC721A.sol\":4959:4970   */\n      0x04\n        /* \"@thirdweb-dev/contracts/eip/ERC721A.sol\":4959:4976   */\n      0x20\n      swap1\n      dup2\n      mstore\n      0x40\n      swap2\n      dup3\n      swap1\n      keccak256\n        /* \"@thirdweb-dev/contracts/eip/ERC721A.sol\":4925:4976   */\n      dup3\n      mload\n      0x60\n      dup2\n      add\n      dup5\n      mstore\n      swap1\n      sload\n      sub(shl(0xa0, 0x01), 0x01)\n      dup2\n      and\n      dup3\n      mstore\n      shl(0xa0, 0x01)\n      dup2\n      div\n      0xffffffffffffffff\n      and\n      swap3\n      dup3\n      add\n      swap3\n      swap1\n      swap3\n      mstore\n      shl(0xe0, 0x01)\n      swap1\n      swap2\n      div\n      0xff\n      and\n      iszero\n      iszero\n      swap2\n      dup2\n      add\n      dup3\n      swap1\n      mstore\n      swap1\n        /* \"@thirdweb-dev/contracts/eip/ERC721A.sol\":4998:5772   */\n      tag_535\n      jumpi\n        /* \"@thirdweb-dev/contracts/eip/ERC721A.sol\":5051:5065   */\n      dup1\n      mload\n      sub(shl(0xa0, 0x01), 0x01)\n        /* \"@thirdweb-dev/contracts/eip/ERC721A.sol\":5051:5079   */\n      and\n      iszero\n        /* \"@thirdweb-dev/contracts/eip/ERC721A.sol\":5047:5154   */\n      tag_533\n      jumpi\n        /* \"@thirdweb-dev/contracts/eip/ERC721A.sol\":5118:5127   */\n      swap4\n        /* \"@thirdweb-dev/contracts/eip/ERC721A.sol\":4680:5854   */\n      swap3\n      pop\n      pop\n      pop\n      jump\t// out\n        /* \"@thirdweb-dev/contracts/eip/ERC721A.sol\":5047:5154   */\n    tag_533:\n      pop\n      not(0x00)\n        /* \"@thirdweb-dev/contracts/eip/ERC721A.sol\":5514:5520   */\n      add\n        /* \"@thirdweb-dev/contracts/eip/ERC721A.sol\":5562:5579   */\n      0x00\n      dup2\n      dup2\n      mstore\n        /* \"@thirdweb-dev/contracts/eip/ERC721A.sol\":5562:5573   */\n      0x04\n        /* \"@thirdweb-dev/contracts/eip/ERC721A.sol\":5562:5579   */\n      0x20\n      swap1\n      dup2\n      mstore\n      0x40\n      swap2\n      dup3\n      swap1\n      keccak256\n        /* \"@thirdweb-dev/contracts/eip/ERC721A.sol\":5550:5579   */\n      dup3\n      mload\n      0x60\n      dup2\n      add\n      dup5\n      mstore\n      swap1\n      sload\n      sub(shl(0xa0, 0x01), 0x01)\n      dup2\n      and\n      dup1\n      dup4\n      mstore\n      shl(0xa0, 0x01)\n      dup3\n      div\n      0xffffffffffffffff\n      and\n      swap4\n      dup4\n      add\n      swap4\n      swap1\n      swap4\n      mstore\n      shl(0xe0, 0x01)\n      swap1\n      div\n      0xff\n      and\n      iszero\n      iszero\n      swap3\n      dup2\n      add\n      swap3\n      swap1\n      swap3\n      mstore\n        /* \"@thirdweb-dev/contracts/eip/ERC721A.sol\":5613:5641   */\n      iszero\n        /* \"@thirdweb-dev/contracts/eip/ERC721A.sol\":5609:5724   */\n      tag_536\n      jumpi\n        /* \"@thirdweb-dev/contracts/eip/ERC721A.sol\":5684:5693   */\n      swap4\n        /* \"@thirdweb-dev/contracts/eip/ERC721A.sol\":4680:5854   */\n      swap3\n      pop\n      pop\n      pop\n      jump\t// out\n        /* \"@thirdweb-dev/contracts/eip/ERC721A.sol\":5609:5724   */\n    tag_536:\n        /* \"@thirdweb-dev/contracts/eip/ERC721A.sol\":5471:5750   */\n      jump(tag_533)\n    tag_535:\n        /* \"@thirdweb-dev/contracts/eip/ERC721A.sol\":4903:5790   */\n      pop\n        /* \"@thirdweb-dev/contracts/eip/ERC721A.sol\":4877:5790   */\n    tag_531:\n        /* \"@thirdweb-dev/contracts/eip/ERC721A.sol\":5816:5847   */\n      mload(0x40)\n      shl(0xe1, 0x6f96cda1)\n      dup2\n      mstore\n      0x04\n      add\n      mload(0x40)\n      dup1\n      swap2\n      sub\n      swap1\n      revert\n        /* \"@thirdweb-dev/contracts/extension/BatchMintMetadata.sol\":2818:3180   */\n    tag_342:\n        /* \"@thirdweb-dev/contracts/extension/BatchMintMetadata.sol\":2968:2993   */\n      0x00\n      dup1\n        /* \"@thirdweb-dev/contracts/extension/BatchMintMetadata.sol\":3032:3056   */\n      tag_540\n        /* \"@thirdweb-dev/contracts/extension/BatchMintMetadata.sol\":3043:3056   */\n      dup5\n        /* \"@thirdweb-dev/contracts/extension/BatchMintMetadata.sol\":3032:3040   */\n      dup7\n        /* \"@thirdweb-dev/contracts/extension/BatchMintMetadata.sol\":3032:3056   */\n      tag_353\n      jump\t// in\n    tag_540:\n        /* \"@thirdweb-dev/contracts/extension/BatchMintMetadata.sol\":3104:3112   */\n      0x0c\n        /* \"@thirdweb-dev/contracts/extension/BatchMintMetadata.sol\":3104:3126   */\n      dup1\n      sload\n      0x01\n      dup2\n      add\n      swap1\n      swap2\n      sstore\n      0xdf6966c971051c3d54ec59162606531493a51404a002842f56009d7e5cf4a8c7\n      add\n      dup2\n      swap1\n      sstore\n      0x00\n        /* \"@thirdweb-dev/contracts/extension/BatchMintMetadata.sol\":3137:3153   */\n      dup2\n      dup2\n      mstore\n        /* \"@thirdweb-dev/contracts/extension/BatchMintMetadata.sol\":3137:3144   */\n      0x0d\n        /* \"@thirdweb-dev/contracts/extension/BatchMintMetadata.sol\":3104:3126   */\n      0x20\n        /* \"@thirdweb-dev/contracts/extension/BatchMintMetadata.sol\":3137:3153   */\n      swap1\n      dup2\n      mstore\n      0x40\n      swap1\n      swap2\n      keccak256\n        /* \"@thirdweb-dev/contracts/extension/BatchMintMetadata.sol\":3137:3173   */\n      dup6\n      mload\n        /* \"@thirdweb-dev/contracts/extension/BatchMintMetadata.sol\":3022:3056   */\n      swap3\n      swap5\n      pop\n      dup5\n      swap4\n      pop\n        /* \"@thirdweb-dev/contracts/extension/BatchMintMetadata.sol\":3137:3173   */\n      tag_542\n      swap3\n        /* \"@thirdweb-dev/contracts/extension/BatchMintMetadata.sol\":3137:3153   */\n      swap1\n      swap2\n        /* \"@thirdweb-dev/contracts/extension/BatchMintMetadata.sol\":3137:3173   */\n      dup7\n      add\n      swap1\n      tag_543\n      jump\t// in\n    tag_542:\n      pop\n        /* \"@thirdweb-dev/contracts/extension/BatchMintMetadata.sol\":2818:3180   */\n      swap4\n      pop\n      swap4\n      swap2\n      pop\n      pop\n      jump\t// out\n        /* \"@thirdweb-dev/contracts/eip/ERC721A.sol\":10228:11936   */\n    tag_344:\n        /* \"@thirdweb-dev/contracts/eip/ERC721A.sol\":10346:10366   */\n      0x00\n        /* \"@thirdweb-dev/contracts/eip/ERC721A.sol\":10369:10382   */\n      sload\n      sub(shl(0xa0, 0x01), 0x01)\n        /* \"@thirdweb-dev/contracts/eip/ERC721A.sol\":10396:10412   */\n      dup5\n      and\n        /* \"@thirdweb-dev/contracts/eip/ERC721A.sol\":10392:10440   */\n      tag_545\n      jumpi\n        /* \"@thirdweb-dev/contracts/eip/ERC721A.sol\":10421:10440   */\n      mload(0x40)\n      shl(0xe8, 0x2e0763)\n      dup2\n      mstore\n      0x04\n      add\n      mload(0x40)\n      dup1\n      swap2\n      sub\n      swap1\n      revert\n        /* \"@thirdweb-dev/contracts/eip/ERC721A.sol\":10392:10440   */\n    tag_545:\n        /* \"@thirdweb-dev/contracts/eip/ERC721A.sol\":10454:10462   */\n      dup3\n        /* \"@thirdweb-dev/contracts/eip/ERC721A.sol\":10466:10467   */\n      0x00\n        /* \"@thirdweb-dev/contracts/eip/ERC721A.sol\":10454:10467   */\n      sub\n        /* \"@thirdweb-dev/contracts/eip/ERC721A.sol\":10450:10494   */\n      tag_546\n      jumpi\n        /* \"@thirdweb-dev/contracts/eip/ERC721A.sol\":10476:10494   */\n      mload(0x40)\n      shl(0xe0, 0xb562e8dd)\n      dup2\n      mstore\n      0x04\n      add\n      mload(0x40)\n      dup1\n      swap2\n      sub\n      swap1\n      revert\n        /* \"@thirdweb-dev/contracts/eip/ERC721A.sol\":10450:10494   */\n    tag_546:\n      sub(shl(0xa0, 0x01), 0x01)\n        /* \"@thirdweb-dev/contracts/eip/ERC721A.sol\":10837:10853   */\n      dup5\n      and\n      0x00\n      dup2\n      dup2\n      mstore\n        /* \"@thirdweb-dev/contracts/eip/ERC721A.sol\":10837:10849   */\n      0x05\n        /* \"@thirdweb-dev/contracts/eip/ERC721A.sol\":10837:10853   */\n      0x20\n      swap1\n      dup2\n      mstore\n      0x40\n      dup1\n      dup4\n      keccak256\n        /* \"@thirdweb-dev/contracts/eip/ERC721A.sol\":10837:10881   */\n      dup1\n      sload\n      not(0xffffffffffffffffffffffffffffffff)\n        /* \"@thirdweb-dev/contracts/eip/ERC721A.sol\":10895:10944   */\n      dup2\n      and\n        /* \"@thirdweb-dev/contracts/eip/ERC721A.sol\":10837:10881   */\n      0xffffffffffffffff\n      dup1\n      dup4\n      and\n      dup12\n      add\n      dup2\n      and\n        /* \"@thirdweb-dev/contracts/eip/ERC721A.sol\":10895:10944   */\n      swap2\n      dup3\n      or\n      0x010000000000000000\n      not(0xffffffffffffffff)\n        /* \"@thirdweb-dev/contracts/eip/ERC721A.sol\":10837:10881   */\n      swap1\n      swap5\n      and\n      swap1\n      swap3\n      or\n        /* \"@thirdweb-dev/contracts/eip/ERC721A.sol\":10895:10944   */\n      dup4\n      swap1\n      div\n      dup2\n      and\n      dup12\n      add\n      dup2\n      and\n      swap1\n      swap3\n      mul\n      or\n      swap1\n      swap2\n      sstore\n        /* \"@thirdweb-dev/contracts/eip/ERC721A.sol\":10959:10984   */\n      dup6\n      dup5\n      mstore\n        /* \"@thirdweb-dev/contracts/eip/ERC721A.sol\":10959:10970   */\n      0x04\n        /* \"@thirdweb-dev/contracts/eip/ERC721A.sol\":10959:10984   */\n      swap1\n      swap3\n      mstore\n      swap1\n      swap2\n      keccak256\n        /* \"@thirdweb-dev/contracts/eip/ERC721A.sol\":10959:10994   */\n      dup1\n      sload\n      not(sub(shl(0xe0, 0x01), 0x01))\n        /* \"@thirdweb-dev/contracts/eip/ERC721A.sol\":11008:11074   */\n      and\n      dup4\n      or\n      shl(0xa0, 0x01)\n        /* \"@thirdweb-dev/contracts/eip/ERC721A.sol\":11058:11073   */\n      timestamp\n        /* \"@thirdweb-dev/contracts/eip/ERC721A.sol\":11008:11074   */\n      swap1\n      swap4\n      and\n      swap3\n      swap1\n      swap3\n      mul\n      swap2\n      swap1\n      swap2\n      or\n      swap1\n      sstore\n        /* \"@thirdweb-dev/contracts/eip/ERC721A.sol\":10959:10984   */\n      dup2\n      swap1\n        /* \"@thirdweb-dev/contracts/eip/ERC721A.sol\":11152:11175   */\n      dup2\n      dup6\n      add\n      swap1\n        /* \"@thirdweb-dev/contracts/lib/TWAddress.sol\":1467:1486   */\n      extcodesize\n        /* \"@thirdweb-dev/contracts/lib/TWAddress.sol\":1467:1490   */\n      iszero\n        /* \"@thirdweb-dev/contracts/eip/ERC721A.sol\":11190:11808   */\n      tag_549\n      jumpi\n        /* \"@thirdweb-dev/contracts/eip/ERC721A.sol\":11229:11537   */\n    tag_550:\n        /* \"@thirdweb-dev/contracts/eip/ERC721A.sol\":11259:11297   */\n      mload(0x40)\n        /* \"@thirdweb-dev/contracts/eip/ERC721A.sol\":11284:11296   */\n      dup3\n      swap1\n      sub(shl(0xa0, 0x01), 0x01)\n        /* \"@thirdweb-dev/contracts/eip/ERC721A.sol\":11259:11297   */\n      dup9\n      and\n      swap1\n        /* \"@thirdweb-dev/contracts/eip/ERC721A.sol\":11276:11277   */\n      0x00\n      swap1\n        /* \"@thirdweb-dev/contracts/eip/ERC721A.sol\":11259:11297   */\n      0xddf252ad1be2c89b69c2b068fc378daa952ba7f163c4a11628f55a4df523b3ef\n      swap1\n        /* \"@thirdweb-dev/contracts/eip/ERC721A.sol\":11276:11277   */\n      dup3\n      swap1\n        /* \"@thirdweb-dev/contracts/eip/ERC721A.sol\":11259:11297   */\n      log4\n        /* \"@thirdweb-dev/contracts/eip/ERC721A.sol\":11324:11393   */\n      tag_553\n        /* \"@thirdweb-dev/contracts/eip/ERC721A.sol\":11363:11364   */\n      0x00\n        /* \"@thirdweb-dev/contracts/eip/ERC721A.sol\":11367:11369   */\n      dup8\n        /* \"@thirdweb-dev/contracts/eip/ERC721A.sol\":11371:11385   */\n      dup5\n      dup1\n      0x01\n      add\n      swap6\n      pop\n        /* \"@thirdweb-dev/contracts/eip/ERC721A.sol\":11387:11392   */\n      dup8\n        /* \"@thirdweb-dev/contracts/eip/ERC721A.sol\":11324:11354   */\n      tag_414\n        /* \"@thirdweb-dev/contracts/eip/ERC721A.sol\":11324:11393   */\n      jump\t// in\n    tag_553:\n        /* \"@thirdweb-dev/contracts/eip/ERC721A.sol\":11319:11491   */\n      tag_554\n      jumpi\n        /* \"@thirdweb-dev/contracts/eip/ERC721A.sol\":11428:11468   */\n      mload(0x40)\n      shl(0xe1, 0x68d2bf6b)\n      dup2\n      mstore\n      0x04\n      add\n      mload(0x40)\n      dup1\n      swap2\n      sub\n      swap1\n      revert\n        /* \"@thirdweb-dev/contracts/eip/ERC721A.sol\":11319:11491   */\n    tag_554:\n        /* \"@thirdweb-dev/contracts/eip/ERC721A.sol\":11532:11535   */\n      dup1\n        /* \"@thirdweb-dev/contracts/eip/ERC721A.sol\":11517:11529   */\n      dup3\n        /* \"@thirdweb-dev/contracts/eip/ERC721A.sol\":11517:11535   */\n      lt\n        /* \"@thirdweb-dev/contracts/eip/ERC721A.sol\":11229:11537   */\n      tag_550\n      jumpi\n        /* \"@thirdweb-dev/contracts/eip/ERC721A.sol\":11616:11628   */\n      dup3\n        /* \"@thirdweb-dev/contracts/eip/ERC721A.sol\":11599:11612   */\n      sload(0x00)\n        /* \"@thirdweb-dev/contracts/eip/ERC721A.sol\":11599:11628   */\n      eq\n        /* \"@thirdweb-dev/contracts/eip/ERC721A.sol\":11595:11638   */\n      tag_555\n      jumpi\n        /* \"@thirdweb-dev/contracts/eip/ERC721A.sol\":11630:11638   */\n      0x00\n      dup1\n      revert\n        /* \"@thirdweb-dev/contracts/eip/ERC721A.sol\":11595:11638   */\n    tag_555:\n        /* \"@thirdweb-dev/contracts/eip/ERC721A.sol\":11190:11808   */\n      jump(tag_556)\n    tag_549:\n        /* \"@thirdweb-dev/contracts/eip/ERC721A.sol\":11677:11794   */\n    tag_557:\n        /* \"@thirdweb-dev/contracts/eip/ERC721A.sol\":11707:11747   */\n      mload(0x40)\n        /* \"@thirdweb-dev/contracts/eip/ERC721A.sol\":11732:11746   */\n      0x01\n      dup4\n      add\n      swap3\n      swap1\n      sub(shl(0xa0, 0x01), 0x01)\n        /* \"@thirdweb-dev/contracts/eip/ERC721A.sol\":11707:11747   */\n      dup9\n      and\n      swap1\n        /* \"@thirdweb-dev/contracts/eip/ERC721A.sol\":11724:11725   */\n      0x00\n      swap1\n        /* \"@thirdweb-dev/contracts/eip/ERC721A.sol\":11707:11747   */\n      0xddf252ad1be2c89b69c2b068fc378daa952ba7f163c4a11628f55a4df523b3ef\n      swap1\n        /* \"@thirdweb-dev/contracts/eip/ERC721A.sol\":11724:11725   */\n      dup3\n      swap1\n        /* \"@thirdweb-dev/contracts/eip/ERC721A.sol\":11707:11747   */\n      log4\n        /* \"@thirdweb-dev/contracts/eip/ERC721A.sol\":11789:11792   */\n      dup1\n        /* \"@thirdweb-dev/contracts/eip/ERC721A.sol\":11774:11786   */\n      dup3\n        /* \"@thirdweb-dev/contracts/eip/ERC721A.sol\":11774:11792   */\n      lt\n        /* \"@thirdweb-dev/contracts/eip/ERC721A.sol\":11677:11794   */\n      tag_557\n      jumpi\n        /* \"@thirdweb-dev/contracts/eip/ERC721A.sol\":11190:11808   */\n    tag_556:\n      pop\n        /* \"@thirdweb-dev/contracts/eip/ERC721A.sol\":11821:11834   */\n      0x00\n        /* \"@thirdweb-dev/contracts/eip/ERC721A.sol\":11821:11849   */\n      swap1\n      dup2\n      sstore\n        /* \"@thirdweb-dev/contracts/eip/ERC721A.sol\":11869:11929   */\n      tag_343\n      swap1\n        /* \"@thirdweb-dev/contracts/eip/ERC721A.sol\":11902:11904   */\n      dup6\n        /* \"@thirdweb-dev/contracts/eip/ERC721A.sol\":11906:11918   */\n      dup4\n        /* \"@thirdweb-dev/contracts/eip/ERC721A.sol\":11920:11928   */\n      dup7\n        /* \"@thirdweb-dev/contracts/eip/ERC721A.sol\":11869:11929   */\n      dup5\n      jump\t// in\n        /* \"@thirdweb-dev/contracts/extension/ContractMetadata.sol\":1251:1436   */\n    tag_367:\n        /* \"@thirdweb-dev/contracts/extension/ContractMetadata.sol\":1317:1338   */\n      0x00\n        /* \"@thirdweb-dev/contracts/extension/ContractMetadata.sol\":1341:1352   */\n      0x08\n        /* \"@thirdweb-dev/contracts/extension/ContractMetadata.sol\":1317:1352   */\n      dup1\n      sload\n      tag_564\n      swap1\n      tag_239\n      jump\t// in\n    tag_564:\n      dup1\n      0x1f\n      add\n      0x20\n      dup1\n      swap2\n      div\n      mul\n      0x20\n      add\n      mload(0x40)\n      swap1\n      dup2\n      add\n      0x40\n      mstore\n      dup1\n      swap3\n      swap2\n      swap1\n      dup2\n      dup2\n      mstore\n      0x20\n      add\n      dup3\n      dup1\n      sload\n      tag_565\n      swap1\n      tag_239\n      jump\t// in\n    tag_565:\n      dup1\n      iszero\n      tag_566\n      jumpi\n      dup1\n      0x1f\n      lt\n      tag_567\n      jumpi\n      0x0100\n      dup1\n      dup4\n      sload\n      div\n      mul\n      dup4\n      mstore\n      swap2\n      0x20\n      add\n      swap2\n      jump(tag_566)\n    tag_567:\n      dup3\n      add\n      swap2\n      swap1\n      0x00\n      mstore\n      keccak256(0x00, 0x20)\n      swap1\n    tag_568:\n      dup2\n      sload\n      dup2\n      mstore\n      swap1\n      0x01\n      add\n      swap1\n      0x20\n      add\n      dup1\n      dup4\n      gt\n      tag_568\n      jumpi\n      dup3\n      swap1\n      sub\n      0x1f\n      and\n      dup3\n      add\n      swap2\n    tag_566:\n      pop\n      pop\n        /* \"@thirdweb-dev/contracts/extension/ContractMetadata.sol\":1362:1380   */\n      dup6\n      mload\n        /* \"@thirdweb-dev/contracts/extension/ContractMetadata.sol\":1317:1352   */\n      swap4\n      swap5\n      pop\n        /* \"@thirdweb-dev/contracts/extension/ContractMetadata.sol\":1362:1380   */\n      tag_569\n      swap4\n        /* \"@thirdweb-dev/contracts/extension/ContractMetadata.sol\":1362:1373   */\n      0x08\n      swap4\n      pop\n        /* \"@thirdweb-dev/contracts/extension/ContractMetadata.sol\":1362:1380   */\n      0x20\n      dup8\n      add\n      swap3\n      pop\n      swap1\n      pop\n      tag_543\n      jump\t// in\n    tag_569:\n      pop\n        /* \"@thirdweb-dev/contracts/extension/ContractMetadata.sol\":1396:1429   */\n      0xc9c7c3fe08b88b4df9d4d47ef47d2c43d55c025a0ba88ca442580ed9e7348a16\n        /* \"@thirdweb-dev/contracts/extension/ContractMetadata.sol\":1415:1422   */\n      dup2\n        /* \"@thirdweb-dev/contracts/extension/ContractMetadata.sol\":1424:1428   */\n      dup4\n        /* \"@thirdweb-dev/contracts/extension/ContractMetadata.sol\":1396:1429   */\n      mload(0x40)\n      tag_570\n      swap3\n      swap2\n      swap1\n      tag_571\n      jump\t// in\n    tag_570:\n      mload(0x40)\n      dup1\n      swap2\n      sub\n      swap1\n      log1\n        /* \"@thirdweb-dev/contracts/extension/ContractMetadata.sol\":1307:1436   */\n      pop\n        /* \"@thirdweb-dev/contracts/extension/ContractMetadata.sol\":1251:1436   */\n      pop\n      jump\t// out\n        /* \"@thirdweb-dev/contracts/extension/Royalty.sol\":4649:5011   */\n    tag_379:\n        /* \"@thirdweb-dev/contracts/extension/Royalty.sol\":4796:4802   */\n      0x2710\n        /* \"@thirdweb-dev/contracts/extension/Royalty.sol\":4789:4793   */\n      dup2\n        /* \"@thirdweb-dev/contracts/extension/Royalty.sol\":4789:4802   */\n      gt\n        /* \"@thirdweb-dev/contracts/extension/Royalty.sol\":4785:4854   */\n      iszero\n      tag_573\n      jumpi\n        /* \"@thirdweb-dev/contracts/extension/Royalty.sol\":4818:4843   */\n      mload(0x40)\n      shl(0xe5, 0x461bcd)\n      dup2\n      mstore\n        /* \"#utility.yul\":14964:14966   */\n      0x20\n        /* \"@thirdweb-dev/contracts/extension/Royalty.sol\":4818:4843   */\n      0x04\n      dup3\n      add\n        /* \"#utility.yul\":14946:14967   */\n      mstore\n        /* \"#utility.yul\":15003:15005   */\n      0x0f\n        /* \"#utility.yul\":14983:15001   */\n      0x24\n      dup3\n      add\n        /* \"#utility.yul\":14976:15006   */\n      mstore\n      shl(0x88, 0x45786365656473206d617820627073)\n        /* \"#utility.yul\":15022:15040   */\n      0x44\n      dup3\n      add\n        /* \"#utility.yul\":15015:15060   */\n      mstore\n        /* \"#utility.yul\":15077:15095   */\n      0x64\n      add\n        /* \"@thirdweb-dev/contracts/extension/Royalty.sol\":4818:4843   */\n      tag_267\n        /* \"#utility.yul\":14762:15101   */\n      jump\n        /* \"@thirdweb-dev/contracts/extension/Royalty.sol\":4785:4854   */\n    tag_573:\n        /* \"@thirdweb-dev/contracts/extension/Royalty.sol\":4896:4945   */\n      0x40\n      dup1\n      mload\n      dup1\n      dup3\n      add\n      dup3\n      mstore\n      sub(shl(0xa0, 0x01), 0x01)\n      dup5\n      dup2\n      and\n      dup1\n      dup4\n      mstore\n      0x20\n      dup1\n      dup5\n      add\n      dup7\n      dup2\n      mstore\n      0x00\n        /* \"@thirdweb-dev/contracts/extension/Royalty.sol\":4864:4893   */\n      dup10\n      dup2\n      mstore\n        /* \"@thirdweb-dev/contracts/extension/Royalty.sol\":4864:4883   */\n      0x0b\n        /* \"@thirdweb-dev/contracts/extension/Royalty.sol\":4864:4893   */\n      dup4\n      mstore\n      dup7\n      swap1\n      keccak256\n        /* \"@thirdweb-dev/contracts/extension/Royalty.sol\":4864:4945   */\n      swap5\n      mload\n      dup6\n      sload\n      not(sub(shl(0xa0, 0x01), 0x01))\n      and\n      swap5\n      and\n      swap4\n      swap1\n      swap4\n      or\n      dup5\n      sstore\n      swap2\n      mload\n      0x01\n      swap1\n      swap4\n      add\n      swap3\n      swap1\n      swap3\n      sstore\n        /* \"@thirdweb-dev/contracts/extension/Royalty.sol\":4961:5004   */\n      swap2\n      mload\n        /* \"#utility.yul\":4066:4091   */\n      dup4\n      dup2\n      mstore\n        /* \"@thirdweb-dev/contracts/extension/Royalty.sol\":4896:4945   */\n      swap1\n      swap2\n        /* \"@thirdweb-dev/contracts/extension/Royalty.sol\":4864:4893   */\n      dup6\n      swap2\n        /* \"@thirdweb-dev/contracts/extension/Royalty.sol\":4961:5004   */\n      0x7365cf4122f072a3365c20d54eff9b38d73c096c28e1892ec8f5b0e403a0f12d\n      swap2\n        /* \"#utility.yul\":4039:4057   */\n      add\n        /* \"@thirdweb-dev/contracts/extension/Royalty.sol\":4961:5004   */\n      mload(0x40)\n      dup1\n      swap2\n      sub\n      swap1\n      log3\n        /* \"@thirdweb-dev/contracts/extension/Royalty.sol\":4649:5011   */\n      pop\n      pop\n      pop\n      jump\t// out\n        /* \"@thirdweb-dev/contracts/lib/TWAddress.sol\":6578:6776   */\n    tag_402:\n        /* \"@thirdweb-dev/contracts/lib/TWAddress.sol\":6661:6673   */\n      0x60\n        /* \"@thirdweb-dev/contracts/lib/TWAddress.sol\":6692:6769   */\n      tag_577\n        /* \"@thirdweb-dev/contracts/lib/TWAddress.sol\":6713:6719   */\n      dup4\n        /* \"@thirdweb-dev/contracts/lib/TWAddress.sol\":6721:6725   */\n      dup4\n        /* \"@thirdweb-dev/contracts/lib/TWAddress.sol\":6692:6769   */\n      mload(0x40)\n      dup1\n      0x60\n      add\n      0x40\n      mstore\n      dup1\n      0x27\n      dup2\n      mstore\n      0x20\n      add\n      data_9fdcd12e4b726339b32a442b0a448365d5d85c96b2d2cff917b4f66c63110398\n      0x27\n      swap2\n      codecopy\n        /* \"@thirdweb-dev/contracts/lib/TWAddress.sol\":6692:6712   */\n      tag_578\n        /* \"@thirdweb-dev/contracts/lib/TWAddress.sol\":6692:6769   */\n      jump\t// in\n    tag_577:\n        /* \"@thirdweb-dev/contracts/lib/TWAddress.sol\":6685:6769   */\n      swap4\n        /* \"@thirdweb-dev/contracts/lib/TWAddress.sol\":6578:6776   */\n      swap3\n      pop\n      pop\n      pop\n      jump\t// out\n        /* \"@thirdweb-dev/contracts/eip/ERC721A.sol\":19166:19816   */\n    tag_414:\n        /* \"@thirdweb-dev/contracts/eip/ERC721A.sol\":19344:19416   */\n      mload(0x40)\n      shl(0xe1, 0x0a85bd01)\n      dup2\n      mstore\n        /* \"@thirdweb-dev/contracts/eip/ERC721A.sol\":19324:19328   */\n      0x00\n      swap1\n      sub(shl(0xa0, 0x01), 0x01)\n        /* \"@thirdweb-dev/contracts/eip/ERC721A.sol\":19344:19380   */\n      dup6\n      and\n      swap1\n      0x150b7a02\n      swap1\n        /* \"@thirdweb-dev/contracts/eip/ERC721A.sol\":19344:19416   */\n      tag_582\n      swap1\n        /* \"@thirdweb-dev/contracts/openzeppelin-presets/utils/Context.sol\":719:729   */\n      caller\n      swap1\n        /* \"@thirdweb-dev/contracts/eip/ERC721A.sol\":19395:19399   */\n      dup10\n      swap1\n        /* \"@thirdweb-dev/contracts/eip/ERC721A.sol\":19401:19408   */\n      dup9\n      swap1\n        /* \"@thirdweb-dev/contracts/eip/ERC721A.sol\":19410:19415   */\n      dup9\n      swap1\n        /* \"@thirdweb-dev/contracts/eip/ERC721A.sol\":19344:19416   */\n      0x04\n      add\n      tag_583\n      jump\t// in\n    tag_582:\n      0x20\n      mload(0x40)\n      dup1\n      dup4\n      sub\n      dup2\n      0x00\n      dup8\n      gas\n      call\n      swap3\n      pop\n      pop\n      pop\n      dup1\n      iszero\n      tag_584\n      jumpi\n      pop\n      0x40\n      dup1\n      mload\n      0x1f\n      returndatasize\n      swap1\n      dup2\n      add\n      not(0x1f)\n      and\n      dup3\n      add\n      swap1\n      swap3\n      mstore\n      tag_585\n      swap2\n      dup2\n      add\n      swap1\n      tag_586\n      jump\t// in\n    tag_585:\n      0x01\n    tag_584:\n        /* \"@thirdweb-dev/contracts/eip/ERC721A.sol\":19340:19810   */\n      tag_587\n      jumpi\n      returndatasize\n      dup1\n      dup1\n      iszero\n      tag_592\n      jumpi\n      mload(0x40)\n      swap2\n      pop\n      and(add(returndatasize, 0x3f), not(0x1f))\n      dup3\n      add\n      0x40\n      mstore\n      returndatasize\n      dup3\n      mstore\n      returndatasize\n      0x00\n      0x20\n      dup5\n      add\n      returndatacopy\n      jump(tag_591)\n    tag_592:\n      0x60\n      swap2\n      pop\n    tag_591:\n      pop\n        /* \"@thirdweb-dev/contracts/eip/ERC721A.sol\":19575:19581   */\n      dup1\n        /* \"@thirdweb-dev/contracts/eip/ERC721A.sol\":19575:19588   */\n      mload\n        /* \"@thirdweb-dev/contracts/eip/ERC721A.sol\":19592:19593   */\n      0x00\n        /* \"@thirdweb-dev/contracts/eip/ERC721A.sol\":19575:19593   */\n      sub\n        /* \"@thirdweb-dev/contracts/eip/ERC721A.sol\":19571:19800   */\n      tag_593\n      jumpi\n        /* \"@thirdweb-dev/contracts/eip/ERC721A.sol\":19620:19660   */\n      mload(0x40)\n      shl(0xe1, 0x68d2bf6b)\n      dup2\n      mstore\n      0x04\n      add\n      mload(0x40)\n      dup1\n      swap2\n      sub\n      swap1\n      revert\n        /* \"@thirdweb-dev/contracts/eip/ERC721A.sol\":19571:19800   */\n    tag_593:\n        /* \"@thirdweb-dev/contracts/eip/ERC721A.sol\":19760:19766   */\n      dup1\n        /* \"@thirdweb-dev/contracts/eip/ERC721A.sol\":19754:19767   */\n      mload\n        /* \"@thirdweb-dev/contracts/eip/ERC721A.sol\":19745:19751   */\n      dup2\n        /* \"@thirdweb-dev/contracts/eip/ERC721A.sol\":19741:19743   */\n      0x20\n        /* \"@thirdweb-dev/contracts/eip/ERC721A.sol\":19737:19752   */\n      add\n        /* \"@thirdweb-dev/contracts/eip/ERC721A.sol\":19730:19768   */\n      revert\n        /* \"@thirdweb-dev/contracts/eip/ERC721A.sol\":19340:19810   */\n    tag_587:\n      not(sub(shl(0xe0, 0x01), 0x01))\n        /* \"@thirdweb-dev/contracts/eip/ERC721A.sol\":19462:19517   */\n      and\n      shl(0xe1, 0x0a85bd01)\n      eq\n      swap1\n      pop\n        /* \"@thirdweb-dev/contracts/eip/ERC721A.sol\":19166:19816   */\n      swap5\n      swap4\n      pop\n      pop\n      pop\n      pop\n      jump\t// out\n        /* \"@thirdweb-dev/contracts/extension/BatchMintMetadata.sol\":2131:2521   */\n    tag_424:\n        /* \"@thirdweb-dev/contracts/extension/BatchMintMetadata.sol\":2193:2206   */\n      0x60\n        /* \"@thirdweb-dev/contracts/extension/BatchMintMetadata.sol\":2218:2243   */\n      0x00\n        /* \"@thirdweb-dev/contracts/extension/BatchMintMetadata.sol\":2246:2263   */\n      tag_597\n        /* \"@thirdweb-dev/contracts/extension/BatchMintMetadata.sol\":1032:1040   */\n      0x0c\n        /* \"@thirdweb-dev/contracts/extension/BatchMintMetadata.sol\":1032:1047   */\n      sload\n      swap1\n        /* \"@thirdweb-dev/contracts/extension/BatchMintMetadata.sol\":958:1054   */\n      jump\n        /* \"@thirdweb-dev/contracts/extension/BatchMintMetadata.sol\":2246:2263   */\n    tag_597:\n        /* \"@thirdweb-dev/contracts/extension/BatchMintMetadata.sol\":2218:2263   */\n      swap1\n      pop\n        /* \"@thirdweb-dev/contracts/extension/BatchMintMetadata.sol\":2273:2297   */\n      0x00\n        /* \"@thirdweb-dev/contracts/extension/BatchMintMetadata.sol\":2300:2308   */\n      0x0c\n        /* \"@thirdweb-dev/contracts/extension/BatchMintMetadata.sol\":2273:2308   */\n      dup1\n      sload\n      dup1\n      0x20\n      mul\n      0x20\n      add\n      mload(0x40)\n      swap1\n      dup2\n      add\n      0x40\n      mstore\n      dup1\n      swap3\n      swap2\n      swap1\n      dup2\n      dup2\n      mstore\n      0x20\n      add\n      dup3\n      dup1\n      sload\n      dup1\n      iszero\n      tag_598\n      jumpi\n      0x20\n      mul\n      dup3\n      add\n      swap2\n      swap1\n      0x00\n      mstore\n      keccak256(0x00, 0x20)\n      swap1\n    tag_599:\n      dup2\n      sload\n      dup2\n      mstore\n      0x20\n      add\n      swap1\n      0x01\n      add\n      swap1\n      dup1\n      dup4\n      gt\n      tag_599\n      jumpi\n    tag_598:\n      pop\n      pop\n      pop\n      pop\n      pop\n      swap1\n      pop\n        /* \"@thirdweb-dev/contracts/extension/BatchMintMetadata.sol\":2324:2333   */\n      0x00\n        /* \"@thirdweb-dev/contracts/extension/BatchMintMetadata.sol\":2319:2480   */\n    tag_600:\n        /* \"@thirdweb-dev/contracts/extension/BatchMintMetadata.sol\":2343:2360   */\n      dup3\n        /* \"@thirdweb-dev/contracts/extension/BatchMintMetadata.sol\":2339:2340   */\n      dup2\n        /* \"@thirdweb-dev/contracts/extension/BatchMintMetadata.sol\":2339:2360   */\n      lt\n        /* \"@thirdweb-dev/contracts/extension/BatchMintMetadata.sol\":2319:2480   */\n      iszero\n      tag_601\n      jumpi\n        /* \"@thirdweb-dev/contracts/extension/BatchMintMetadata.sol\":2399:2406   */\n      dup2\n        /* \"@thirdweb-dev/contracts/extension/BatchMintMetadata.sol\":2407:2408   */\n      dup2\n        /* \"@thirdweb-dev/contracts/extension/BatchMintMetadata.sol\":2399:2409   */\n      dup2\n      mload\n      dup2\n      lt\n      tag_604\n      jumpi\n      tag_604\n      tag_284\n      jump\t// in\n    tag_604:\n      0x20\n      mul\n      0x20\n      add\n      add\n      mload\n        /* \"@thirdweb-dev/contracts/extension/BatchMintMetadata.sol\":2388:2396   */\n      dup6\n        /* \"@thirdweb-dev/contracts/extension/BatchMintMetadata.sol\":2388:2409   */\n      lt\n        /* \"@thirdweb-dev/contracts/extension/BatchMintMetadata.sol\":2384:2470   */\n      iszero\n      tag_605\n      jumpi\n        /* \"@thirdweb-dev/contracts/extension/BatchMintMetadata.sol\":2436:2443   */\n      0x0d\n        /* \"@thirdweb-dev/contracts/extension/BatchMintMetadata.sol\":2436:2455   */\n      0x00\n        /* \"@thirdweb-dev/contracts/extension/BatchMintMetadata.sol\":2444:2451   */\n      dup4\n        /* \"@thirdweb-dev/contracts/extension/BatchMintMetadata.sol\":2452:2453   */\n      dup4\n        /* \"@thirdweb-dev/contracts/extension/BatchMintMetadata.sol\":2444:2454   */\n      dup2\n      mload\n      dup2\n      lt\n      tag_607\n      jumpi\n      tag_607\n      tag_284\n      jump\t// in\n    tag_607:\n      0x20\n      mul\n      0x20\n      add\n      add\n      mload\n        /* \"@thirdweb-dev/contracts/extension/BatchMintMetadata.sol\":2436:2455   */\n      dup2\n      mstore\n      0x20\n      add\n      swap1\n      dup2\n      mstore\n      0x20\n      add\n      0x00\n      keccak256\n        /* \"@thirdweb-dev/contracts/extension/BatchMintMetadata.sol\":2429:2455   */\n      dup1\n      sload\n      tag_608\n      swap1\n      tag_239\n      jump\t// in\n    tag_608:\n      dup1\n      0x1f\n      add\n      0x20\n      dup1\n      swap2\n      div\n      mul\n      0x20\n      add\n      mload(0x40)\n      swap1\n      dup2\n      add\n      0x40\n      mstore\n      dup1\n      swap3\n      swap2\n      swap1\n      dup2\n      dup2\n      mstore\n      0x20\n      add\n      dup3\n      dup1\n      sload\n      tag_609\n      swap1\n      tag_239\n      jump\t// in\n    tag_609:\n      dup1\n      iszero\n      tag_610\n      jumpi\n      dup1\n      0x1f\n      lt\n      tag_611\n      jumpi\n      0x0100\n      dup1\n      dup4\n      sload\n      div\n      mul\n      dup4\n      mstore\n      swap2\n      0x20\n      add\n      swap2\n      jump(tag_610)\n    tag_611:\n      dup3\n      add\n      swap2\n      swap1\n      0x00\n      mstore\n      keccak256(0x00, 0x20)\n      swap1\n    tag_612:\n      dup2\n      sload\n      dup2\n      mstore\n      swap1\n      0x01\n      add\n      swap1\n      0x20\n      add\n      dup1\n      dup4\n      gt\n      tag_612\n      jumpi\n      dup3\n      swap1\n      sub\n      0x1f\n      and\n      dup3\n      add\n      swap2\n    tag_610:\n      pop\n      pop\n      pop\n      pop\n      pop\n      swap4\n      pop\n      pop\n      pop\n      pop\n        /* \"@thirdweb-dev/contracts/extension/BatchMintMetadata.sol\":2131:2521   */\n      swap2\n      swap1\n      pop\n      jump\t// out\n        /* \"@thirdweb-dev/contracts/extension/BatchMintMetadata.sol\":2384:2470   */\n    tag_605:\n        /* \"@thirdweb-dev/contracts/extension/BatchMintMetadata.sol\":2362:2368   */\n      tag_613\n        /* \"@thirdweb-dev/contracts/extension/BatchMintMetadata.sol\":2367:2368   */\n      0x01\n        /* \"@thirdweb-dev/contracts/extension/BatchMintMetadata.sol\":2362:2368   */\n      dup3\n      tag_353\n      jump\t// in\n    tag_613:\n      swap1\n      pop\n        /* \"@thirdweb-dev/contracts/extension/BatchMintMetadata.sol\":2319:2480   */\n      jump(tag_600)\n    tag_601:\n      pop\n        /* \"@thirdweb-dev/contracts/extension/BatchMintMetadata.sol\":2489:2514   */\n      mload(0x40)\n      shl(0xe5, 0x461bcd)\n      dup2\n      mstore\n        /* \"#utility.yul\":16467:16469   */\n      0x20\n        /* \"@thirdweb-dev/contracts/extension/BatchMintMetadata.sol\":2489:2514   */\n      0x04\n      dup3\n      add\n        /* \"#utility.yul\":16449:16470   */\n      mstore\n        /* \"#utility.yul\":16506:16508   */\n      0x0f\n        /* \"#utility.yul\":16486:16504   */\n      0x24\n      dup3\n      add\n        /* \"#utility.yul\":16479:16509   */\n      mstore\n        /* \"#utility.yul\":16545:16562   */\n      0x496e76616c696420746f6b656e49640000000000000000000000000000000000\n        /* \"#utility.yul\":16525:16543   */\n      0x44\n      dup3\n      add\n        /* \"#utility.yul\":16518:16563   */\n      mstore\n        /* \"#utility.yul\":16580:16598   */\n      0x64\n      add\n        /* \"@thirdweb-dev/contracts/extension/BatchMintMetadata.sol\":2489:2514   */\n      tag_267\n        /* \"#utility.yul\":16265:16604   */\n      jump\n        /* \"@thirdweb-dev/contracts/lib/TWStrings.sol\":330:1033   */\n    tag_426:\n        /* \"@thirdweb-dev/contracts/lib/TWStrings.sol\":386:399   */\n      0x60\n        /* \"@thirdweb-dev/contracts/lib/TWStrings.sol\":603:608   */\n      dup2\n        /* \"@thirdweb-dev/contracts/lib/TWStrings.sol\":612:613   */\n      0x00\n        /* \"@thirdweb-dev/contracts/lib/TWStrings.sol\":603:613   */\n      sub\n        /* \"@thirdweb-dev/contracts/lib/TWStrings.sol\":599:650   */\n      tag_617\n      jumpi\n      pop\n      pop\n        /* \"@thirdweb-dev/contracts/lib/TWStrings.sol\":629:639   */\n      0x40\n      dup1\n      mload\n      dup1\n      dup3\n      add\n      swap1\n      swap2\n      mstore\n      0x01\n      dup2\n      mstore\n      shl(0xfc, 0x03)\n      0x20\n      dup3\n      add\n      mstore\n      swap1\n        /* \"@thirdweb-dev/contracts/lib/TWStrings.sol\":330:1033   */\n      jump\t// out\n        /* \"@thirdweb-dev/contracts/lib/TWStrings.sol\":599:650   */\n    tag_617:\n        /* \"@thirdweb-dev/contracts/lib/TWStrings.sol\":674:679   */\n      dup2\n        /* \"@thirdweb-dev/contracts/lib/TWStrings.sol\":659:671   */\n      0x00\n        /* \"@thirdweb-dev/contracts/lib/TWStrings.sol\":713:788   */\n    tag_618:\n        /* \"@thirdweb-dev/contracts/lib/TWStrings.sol\":720:729   */\n      dup2\n      iszero\n        /* \"@thirdweb-dev/contracts/lib/TWStrings.sol\":713:788   */\n      tag_619\n      jumpi\n        /* \"@thirdweb-dev/contracts/lib/TWStrings.sol\":745:753   */\n      dup1\n      tag_620\n      dup2\n      tag_406\n      jump\t// in\n    tag_620:\n      swap2\n      pop\n        /* \"@thirdweb-dev/contracts/lib/TWStrings.sol\":767:777   */\n      tag_621\n      swap1\n      pop\n        /* \"@thirdweb-dev/contracts/lib/TWStrings.sol\":775:777   */\n      0x0a\n        /* \"@thirdweb-dev/contracts/lib/TWStrings.sol\":767:777   */\n      dup4\n      tag_292\n      jump\t// in\n    tag_621:\n      swap2\n      pop\n        /* \"@thirdweb-dev/contracts/lib/TWStrings.sol\":713:788   */\n      jump(tag_618)\n    tag_619:\n        /* \"@thirdweb-dev/contracts/lib/TWStrings.sol\":797:816   */\n      0x00\n        /* \"@thirdweb-dev/contracts/lib/TWStrings.sol\":829:835   */\n      dup2\n        /* \"@thirdweb-dev/contracts/lib/TWStrings.sol\":819:836   */\n      0xffffffffffffffff\n      dup2\n      gt\n      iszero\n      tag_623\n      jumpi\n      tag_623\n      tag_391\n      jump\t// in\n    tag_623:\n      mload(0x40)\n      swap1\n      dup1\n      dup3\n      mstore\n      dup1\n      0x1f\n      add\n      not(0x1f)\n      and\n      0x20\n      add\n      dup3\n      add\n      0x40\n      mstore\n      dup1\n      iszero\n      tag_624\n      jumpi\n      0x20\n      dup3\n      add\n      dup2\n      dup1\n      calldatasize\n      dup4\n      calldatacopy\n      add\n      swap1\n      pop\n    tag_624:\n      pop\n        /* \"@thirdweb-dev/contracts/lib/TWStrings.sol\":797:836   */\n      swap1\n      pop\n        /* \"@thirdweb-dev/contracts/lib/TWStrings.sol\":846:996   */\n    tag_625:\n        /* \"@thirdweb-dev/contracts/lib/TWStrings.sol\":853:863   */\n      dup5\n      iszero\n        /* \"@thirdweb-dev/contracts/lib/TWStrings.sol\":846:996   */\n      tag_316\n      jumpi\n        /* \"@thirdweb-dev/contracts/lib/TWStrings.sol\":879:890   */\n      tag_627\n        /* \"@thirdweb-dev/contracts/lib/TWStrings.sol\":889:890   */\n      0x01\n        /* \"@thirdweb-dev/contracts/lib/TWStrings.sol\":879:890   */\n      dup4\n      tag_628\n      jump\t// in\n    tag_627:\n      swap2\n      pop\n        /* \"@thirdweb-dev/contracts/lib/TWStrings.sol\":947:957   */\n      tag_629\n        /* \"@thirdweb-dev/contracts/lib/TWStrings.sol\":955:957   */\n      0x0a\n        /* \"@thirdweb-dev/contracts/lib/TWStrings.sol\":947:952   */\n      dup7\n        /* \"@thirdweb-dev/contracts/lib/TWStrings.sol\":947:957   */\n      tag_630\n      jump\t// in\n    tag_629:\n        /* \"@thirdweb-dev/contracts/lib/TWStrings.sol\":934:958   */\n      tag_631\n      swap1\n        /* \"@thirdweb-dev/contracts/lib/TWStrings.sol\":934:936   */\n      0x30\n        /* \"@thirdweb-dev/contracts/lib/TWStrings.sol\":934:958   */\n      tag_353\n      jump\t// in\n    tag_631:\n        /* \"@thirdweb-dev/contracts/lib/TWStrings.sol\":921:960   */\n      0xf8\n      shl\n        /* \"@thirdweb-dev/contracts/lib/TWStrings.sol\":904:910   */\n      dup2\n        /* \"@thirdweb-dev/contracts/lib/TWStrings.sol\":911:917   */\n      dup4\n        /* \"@thirdweb-dev/contracts/lib/TWStrings.sol\":904:918   */\n      dup2\n      mload\n      dup2\n      lt\n      tag_633\n      jumpi\n      tag_633\n      tag_284\n      jump\t// in\n    tag_633:\n      0x20\n      add\n      add\n        /* \"@thirdweb-dev/contracts/lib/TWStrings.sol\":904:960   */\n      swap1\n      not(sub(shl(0xf8, 0x01), 0x01))\n      and\n      swap1\n      dup2\n      0x00\n      byte\n      swap1\n      mstore8\n      pop\n        /* \"@thirdweb-dev/contracts/lib/TWStrings.sol\":974:985   */\n      tag_634\n        /* \"@thirdweb-dev/contracts/lib/TWStrings.sol\":983:985   */\n      0x0a\n        /* \"@thirdweb-dev/contracts/lib/TWStrings.sol\":974:985   */\n      dup7\n      tag_292\n      jump\t// in\n    tag_634:\n      swap5\n      pop\n        /* \"@thirdweb-dev/contracts/lib/TWStrings.sol\":846:996   */\n      jump(tag_625)\n        /* \"@thirdweb-dev/contracts/base/ERC721Base.sol\":6360:6562   */\n    tag_455:\n        /* \"@thirdweb-dev/contracts/base/ERC721Base.sol\":6466:6483   */\n      0x00\n      dup3\n      dup2\n      mstore\n        /* \"@thirdweb-dev/contracts/base/ERC721Base.sol\":6466:6473   */\n      0x0e\n        /* \"@thirdweb-dev/contracts/base/ERC721Base.sol\":6466:6483   */\n      0x20\n      mstore\n      0x40\n      swap1\n      keccak256\n        /* \"@thirdweb-dev/contracts/base/ERC721Base.sol\":6460:6491   */\n      dup1\n      sload\n      tag_636\n      swap1\n      tag_239\n      jump\t// in\n    tag_636:\n        /* \"@thirdweb-dev/contracts/base/ERC721Base.sol\":6460:6496   */\n      iszero\n      swap1\n      pop\n        /* \"@thirdweb-dev/contracts/base/ERC721Base.sol\":6452:6516   */\n      tag_637\n      jumpi\n      mload(0x40)\n      shl(0xe5, 0x461bcd)\n      dup2\n      mstore\n        /* \"#utility.yul\":17058:17060   */\n      0x20\n        /* \"@thirdweb-dev/contracts/base/ERC721Base.sol\":6452:6516   */\n      0x04\n      dup3\n      add\n        /* \"#utility.yul\":17040:17061   */\n      mstore\n        /* \"#utility.yul\":17097:17099   */\n      0x0f\n        /* \"#utility.yul\":17077:17095   */\n      0x24\n      dup3\n      add\n        /* \"#utility.yul\":17070:17100   */\n      mstore\n        /* \"#utility.yul\":17136:17153   */\n      0x55524920616c7265616479207365740000000000000000000000000000000000\n        /* \"#utility.yul\":17116:17134   */\n      0x44\n      dup3\n      add\n        /* \"#utility.yul\":17109:17154   */\n      mstore\n        /* \"#utility.yul\":17171:17189   */\n      0x64\n      add\n        /* \"@thirdweb-dev/contracts/base/ERC721Base.sol\":6452:6516   */\n      tag_267\n        /* \"#utility.yul\":16856:17195   */\n      jump\n        /* \"@thirdweb-dev/contracts/base/ERC721Base.sol\":6452:6516   */\n    tag_637:\n        /* \"@thirdweb-dev/contracts/base/ERC721Base.sol\":6526:6543   */\n      0x00\n      dup3\n      dup2\n      mstore\n        /* \"@thirdweb-dev/contracts/base/ERC721Base.sol\":6526:6533   */\n      0x0e\n        /* \"@thirdweb-dev/contracts/base/ERC721Base.sol\":6526:6543   */\n      0x20\n      swap1\n      dup2\n      mstore\n      0x40\n      swap1\n      swap2\n      keccak256\n        /* \"@thirdweb-dev/contracts/base/ERC721Base.sol\":6526:6555   */\n      dup3\n      mload\n      tag_257\n      swap3\n      dup5\n      add\n      swap1\n      tag_543\n      jump\t// in\n        /* \"@thirdweb-dev/contracts/lib/TWStrings.sol\":1590:2031   */\n    tag_466:\n        /* \"@thirdweb-dev/contracts/lib/TWStrings.sol\":1665:1678   */\n      0x60\n        /* \"@thirdweb-dev/contracts/lib/TWStrings.sol\":1690:1709   */\n      0x00\n        /* \"@thirdweb-dev/contracts/lib/TWStrings.sol\":1722:1732   */\n      tag_642\n        /* \"@thirdweb-dev/contracts/lib/TWStrings.sol\":1726:1732   */\n      dup4\n        /* \"@thirdweb-dev/contracts/lib/TWStrings.sol\":1722:1723   */\n      0x02\n        /* \"@thirdweb-dev/contracts/lib/TWStrings.sol\":1722:1732   */\n      tag_290\n      jump\t// in\n    tag_642:\n        /* \"@thirdweb-dev/contracts/lib/TWStrings.sol\":1722:1736   */\n      tag_643\n      swap1\n        /* \"@thirdweb-dev/contracts/lib/TWStrings.sol\":1735:1736   */\n      0x02\n        /* \"@thirdweb-dev/contracts/lib/TWStrings.sol\":1722:1736   */\n      tag_353\n      jump\t// in\n    tag_643:\n        /* \"@thirdweb-dev/contracts/lib/TWStrings.sol\":1712:1737   */\n      0xffffffffffffffff\n      dup2\n      gt\n      iszero\n      tag_645\n      jumpi\n      tag_645\n      tag_391\n      jump\t// in\n    tag_645:\n      mload(0x40)\n      swap1\n      dup1\n      dup3\n      mstore\n      dup1\n      0x1f\n      add\n      not(0x1f)\n      and\n      0x20\n      add\n      dup3\n      add\n      0x40\n      mstore\n      dup1\n      iszero\n      tag_646\n      jumpi\n      0x20\n      dup3\n      add\n      dup2\n      dup1\n      calldatasize\n      dup4\n      calldatacopy\n      add\n      swap1\n      pop\n    tag_646:\n      pop\n        /* \"@thirdweb-dev/contracts/lib/TWStrings.sol\":1690:1737   */\n      swap1\n      pop\n      shl(0xfc, 0x03)\n        /* \"@thirdweb-dev/contracts/lib/TWStrings.sol\":1747:1753   */\n      dup2\n        /* \"@thirdweb-dev/contracts/lib/TWStrings.sol\":1754:1755   */\n      0x00\n        /* \"@thirdweb-dev/contracts/lib/TWStrings.sol\":1747:1756   */\n      dup2\n      mload\n      dup2\n      lt\n      tag_648\n      jumpi\n      tag_648\n      tag_284\n      jump\t// in\n    tag_648:\n      0x20\n      add\n      add\n        /* \"@thirdweb-dev/contracts/lib/TWStrings.sol\":1747:1762   */\n      swap1\n      not(sub(shl(0xf8, 0x01), 0x01))\n      and\n      swap1\n      dup2\n      0x00\n      byte\n      swap1\n      mstore8\n      pop\n      shl(0xfb, 0x0f)\n        /* \"@thirdweb-dev/contracts/lib/TWStrings.sol\":1772:1778   */\n      dup2\n        /* \"@thirdweb-dev/contracts/lib/TWStrings.sol\":1779:1780   */\n      0x01\n        /* \"@thirdweb-dev/contracts/lib/TWStrings.sol\":1772:1781   */\n      dup2\n      mload\n      dup2\n      lt\n      tag_650\n      jumpi\n      tag_650\n      tag_284\n      jump\t// in\n    tag_650:\n      0x20\n      add\n      add\n        /* \"@thirdweb-dev/contracts/lib/TWStrings.sol\":1772:1787   */\n      swap1\n      not(sub(shl(0xf8, 0x01), 0x01))\n      and\n      swap1\n      dup2\n      0x00\n      byte\n      swap1\n      mstore8\n      pop\n        /* \"@thirdweb-dev/contracts/lib/TWStrings.sol\":1802:1811   */\n      0x00\n        /* \"@thirdweb-dev/contracts/lib/TWStrings.sol\":1814:1824   */\n      tag_654\n        /* \"@thirdweb-dev/contracts/lib/TWStrings.sol\":1818:1824   */\n      dup5\n        /* \"@thirdweb-dev/contracts/lib/TWStrings.sol\":1814:1815   */\n      0x02\n        /* \"@thirdweb-dev/contracts/lib/TWStrings.sol\":1814:1824   */\n      tag_290\n      jump\t// in\n    tag_654:\n        /* \"@thirdweb-dev/contracts/lib/TWStrings.sol\":1814:1828   */\n      tag_655\n      swap1\n        /* \"@thirdweb-dev/contracts/lib/TWStrings.sol\":1827:1828   */\n      0x01\n        /* \"@thirdweb-dev/contracts/lib/TWStrings.sol\":1814:1828   */\n      tag_353\n      jump\t// in\n    tag_655:\n        /* \"@thirdweb-dev/contracts/lib/TWStrings.sol\":1802:1828   */\n      swap1\n      pop\n        /* \"@thirdweb-dev/contracts/lib/TWStrings.sol\":1797:1929   */\n    tag_651:\n        /* \"@thirdweb-dev/contracts/lib/TWStrings.sol\":1834:1835   */\n      0x01\n        /* \"@thirdweb-dev/contracts/lib/TWStrings.sol\":1830:1831   */\n      dup2\n        /* \"@thirdweb-dev/contracts/lib/TWStrings.sol\":1830:1835   */\n      gt\n        /* \"@thirdweb-dev/contracts/lib/TWStrings.sol\":1797:1929   */\n      iszero\n      tag_652\n      jumpi\n        /* \"@thirdweb-dev/contracts/lib/TWStrings.sol\":1868:1880   */\n      0x3031323334353637383961626364656600000000000000000000000000000000\n        /* \"@thirdweb-dev/contracts/lib/TWStrings.sol\":1881:1886   */\n      dup6\n        /* \"@thirdweb-dev/contracts/lib/TWStrings.sol\":1889:1892   */\n      0x0f\n        /* \"@thirdweb-dev/contracts/lib/TWStrings.sol\":1881:1892   */\n      and\n        /* \"@thirdweb-dev/contracts/lib/TWStrings.sol\":1868:1893   */\n      0x10\n      dup2\n      lt\n      tag_657\n      jumpi\n      tag_657\n      tag_284\n      jump\t// in\n    tag_657:\n      byte\n      0xf8\n      shl\n        /* \"@thirdweb-dev/contracts/lib/TWStrings.sol\":1856:1862   */\n      dup3\n        /* \"@thirdweb-dev/contracts/lib/TWStrings.sol\":1863:1864   */\n      dup3\n        /* \"@thirdweb-dev/contracts/lib/TWStrings.sol\":1856:1865   */\n      dup2\n      mload\n      dup2\n      lt\n      tag_659\n      jumpi\n      tag_659\n      tag_284\n      jump\t// in\n    tag_659:\n      0x20\n      add\n      add\n        /* \"@thirdweb-dev/contracts/lib/TWStrings.sol\":1856:1893   */\n      swap1\n      not(sub(shl(0xf8, 0x01), 0x01))\n      and\n      swap1\n      dup2\n      0x00\n      byte\n      swap1\n      mstore8\n      pop\n        /* \"@thirdweb-dev/contracts/lib/TWStrings.sol\":1917:1918   */\n      0x04\n        /* \"@thirdweb-dev/contracts/lib/TWStrings.sol\":1907:1918   */\n      swap5\n      swap1\n      swap5\n      shr\n      swap4\n        /* \"@thirdweb-dev/contracts/lib/TWStrings.sol\":1837:1840   */\n      tag_660\n      dup2\n      tag_661\n      jump\t// in\n    tag_660:\n      swap1\n      pop\n        /* \"@thirdweb-dev/contracts/lib/TWStrings.sol\":1797:1929   */\n      jump(tag_651)\n    tag_652:\n      pop\n        /* \"@thirdweb-dev/contracts/lib/TWStrings.sol\":1946:1956   */\n      dup4\n      iszero\n        /* \"@thirdweb-dev/contracts/lib/TWStrings.sol\":1938:1993   */\n      tag_577\n      jumpi\n      mload(0x40)\n      shl(0xe5, 0x461bcd)\n      dup2\n      mstore\n        /* \"#utility.yul\":17543:17545   */\n      0x20\n        /* \"@thirdweb-dev/contracts/lib/TWStrings.sol\":1938:1993   */\n      0x04\n      dup3\n      add\n        /* \"#utility.yul\":17525:17546   */\n      dup2\n      swap1\n      mstore\n        /* \"#utility.yul\":17562:17580   */\n      0x24\n      dup3\n      add\n        /* \"#utility.yul\":17555:17585   */\n      mstore\n        /* \"#utility.yul\":17621:17655   */\n      0x537472696e67733a20686578206c656e67746820696e73756666696369656e74\n        /* \"#utility.yul\":17601:17619   */\n      0x44\n      dup3\n      add\n        /* \"#utility.yul\":17594:17656   */\n      mstore\n        /* \"#utility.yul\":17673:17691   */\n      0x64\n      add\n        /* \"@thirdweb-dev/contracts/lib/TWStrings.sol\":1938:1993   */\n      tag_267\n        /* \"#utility.yul\":17341:17697   */\n      jump\n        /* \"@thirdweb-dev/contracts/extension/PermissionsEnumerable.sol\":3668:3921   */\n    tag_497:\n        /* \"@thirdweb-dev/contracts/extension/PermissionsEnumerable.sol\":3738:3749   */\n      0x00\n        /* \"@thirdweb-dev/contracts/extension/PermissionsEnumerable.sol\":3752:3769   */\n      dup3\n      dup2\n      mstore\n        /* \"@thirdweb-dev/contracts/extension/PermissionsEnumerable.sol\":3752:3763   */\n      0x11\n        /* \"@thirdweb-dev/contracts/extension/PermissionsEnumerable.sol\":3752:3769   */\n      0x20\n      mstore\n      0x40\n      dup2\n      keccak256\n        /* \"@thirdweb-dev/contracts/extension/PermissionsEnumerable.sol\":3752:3775   */\n      dup1\n      sload\n      swap2\n        /* \"@thirdweb-dev/contracts/extension/PermissionsEnumerable.sol\":3812:3813   */\n      0x01\n      swap2\n        /* \"@thirdweb-dev/contracts/extension/PermissionsEnumerable.sol\":3752:3769   */\n      swap1\n        /* \"@thirdweb-dev/contracts/extension/PermissionsEnumerable.sol\":3785:3813   */\n      tag_668\n        /* \"@thirdweb-dev/contracts/extension/PermissionsEnumerable.sol\":3812:3813   */\n      dup4\n        /* \"@thirdweb-dev/contracts/extension/PermissionsEnumerable.sol\":3752:3775   */\n      dup6\n        /* \"@thirdweb-dev/contracts/extension/PermissionsEnumerable.sol\":3785:3813   */\n      tag_353\n      jump\t// in\n    tag_668:\n      swap1\n      swap2\n      sstore\n      pop\n      pop\n        /* \"@thirdweb-dev/contracts/extension/PermissionsEnumerable.sol\":3824:3841   */\n      0x00\n      swap3\n      dup4\n      mstore\n        /* \"@thirdweb-dev/contracts/extension/PermissionsEnumerable.sol\":3824:3835   */\n      0x11\n        /* \"@thirdweb-dev/contracts/extension/PermissionsEnumerable.sol\":3824:3841   */\n      0x20\n      swap1\n      dup2\n      mstore\n      0x40\n      dup1\n      dup6\n      keccak256\n        /* \"@thirdweb-dev/contracts/extension/PermissionsEnumerable.sol\":3824:3854   */\n      dup4\n      dup7\n      mstore\n        /* \"@thirdweb-dev/contracts/extension/PermissionsEnumerable.sol\":3824:3849   */\n      0x01\n      dup2\n      add\n        /* \"@thirdweb-dev/contracts/extension/PermissionsEnumerable.sol\":3824:3854   */\n      dup4\n      mstore\n      dup2\n      dup7\n      keccak256\n        /* \"@thirdweb-dev/contracts/extension/PermissionsEnumerable.sol\":3824:3864   */\n      dup1\n      sload\n      sub(shl(0xa0, 0x01), 0x01)\n      swap1\n      swap7\n      and\n      not(sub(shl(0xa0, 0x01), 0x01))\n      swap1\n      swap7\n      and\n      dup7\n      or\n      swap1\n      sstore\n        /* \"@thirdweb-dev/contracts/extension/PermissionsEnumerable.sol\":3874:3908   */\n      swap4\n      dup6\n      mstore\n        /* \"@thirdweb-dev/contracts/extension/PermissionsEnumerable.sol\":3874:3899   */\n      0x02\n      swap1\n      swap4\n      add\n        /* \"@thirdweb-dev/contracts/extension/PermissionsEnumerable.sol\":3874:3908   */\n      swap1\n      mstore\n      swap2\n      keccak256\n        /* \"@thirdweb-dev/contracts/extension/PermissionsEnumerable.sol\":3874:3914   */\n      sstore\n        /* \"@thirdweb-dev/contracts/extension/PermissionsEnumerable.sol\":3668:3921   */\n      jump\t// out\n        /* \"@thirdweb-dev/contracts/extension/Permissions.sol\":5231:5435   */\n    tag_500:\n        /* \"@thirdweb-dev/contracts/extension/Permissions.sol\":5310:5335   */\n      tag_670\n        /* \"@thirdweb-dev/contracts/extension/Permissions.sol\":5321:5325   */\n      dup3\n        /* \"@thirdweb-dev/contracts/extension/Permissions.sol\":5327:5334   */\n      dup3\n        /* \"@thirdweb-dev/contracts/extension/Permissions.sol\":5310:5320   */\n      tag_261\n        /* \"@thirdweb-dev/contracts/extension/Permissions.sol\":5310:5335   */\n      jump\t// in\n    tag_670:\n        /* \"@thirdweb-dev/contracts/extension/Permissions.sol\":5352:5366   */\n      0x00\n      dup3\n      dup2\n      mstore\n        /* \"@thirdweb-dev/contracts/extension/Permissions.sol\":5352:5360   */\n      0x0f\n        /* \"@thirdweb-dev/contracts/extension/Permissions.sol\":5352:5366   */\n      0x20\n      swap1\n      dup2\n      mstore\n      0x40\n      dup1\n      dup4\n      keccak256\n      sub(shl(0xa0, 0x01), 0x01)\n        /* \"@thirdweb-dev/contracts/extension/Permissions.sol\":5352:5375   */\n      dup6\n      and\n      dup1\n      dup6\n      mstore\n      swap3\n      mstore\n      dup1\n      dup4\n      keccak256\n        /* \"@thirdweb-dev/contracts/extension/Permissions.sol\":5345:5375   */\n      dup1\n      sload\n      not(0xff)\n      and\n      swap1\n      sstore\n        /* \"@thirdweb-dev/contracts/extension/Permissions.sol\":5390:5428   */\n      mload\n        /* \"@thirdweb-dev/contracts/extension/Permissions.sol\":5417:5427   */\n      caller\n      swap3\n        /* \"@thirdweb-dev/contracts/extension/Permissions.sol\":5361:5365   */\n      dup6\n      swap2\n        /* \"@thirdweb-dev/contracts/extension/Permissions.sol\":5390:5428   */\n      0xf6391f5c32d9c69d2a47ea670b442974b53935d1edc7fd64eb21e047a839171b\n      swap2\n        /* \"@thirdweb-dev/contracts/extension/Permissions.sol\":5352:5366   */\n      swap1\n        /* \"@thirdweb-dev/contracts/extension/Permissions.sol\":5390:5428   */\n      log4\n        /* \"@thirdweb-dev/contracts/extension/Permissions.sol\":5231:5435   */\n      pop\n      pop\n      jump\t// out\n        /* \"@thirdweb-dev/contracts/lib/TWAddress.sol\":6962:7349   */\n    tag_578:\n        /* \"@thirdweb-dev/contracts/lib/TWAddress.sol\":7103:7115   */\n      0x60\n      sub(shl(0xa0, 0x01), 0x01)\n        /* \"@thirdweb-dev/contracts/lib/TWAddress.sol\":1467:1486   */\n      dup5\n      and\n      extcodesize\n        /* \"@thirdweb-dev/contracts/lib/TWAddress.sol\":7127:7196   */\n      tag_674\n      jumpi\n      mload(0x40)\n      shl(0xe5, 0x461bcd)\n      dup2\n      mstore\n        /* \"#utility.yul\":17904:17906   */\n      0x20\n        /* \"@thirdweb-dev/contracts/lib/TWAddress.sol\":7127:7196   */\n      0x04\n      dup3\n      add\n        /* \"#utility.yul\":17886:17907   */\n      mstore\n        /* \"#utility.yul\":17943:17945   */\n      0x26\n        /* \"#utility.yul\":17923:17941   */\n      0x24\n      dup3\n      add\n        /* \"#utility.yul\":17916:17946   */\n      mstore\n        /* \"#utility.yul\":17982:18016   */\n      0x416464726573733a2064656c65676174652063616c6c20746f206e6f6e2d636f\n        /* \"#utility.yul\":17962:17980   */\n      0x44\n      dup3\n      add\n        /* \"#utility.yul\":17955:18017   */\n      mstore\n        /* \"#utility.yul\":18053:18061   */\n      0x6e74726163740000000000000000000000000000000000000000000000000000\n        /* \"#utility.yul\":18033:18051   */\n      0x64\n      dup3\n      add\n        /* \"#utility.yul\":18026:18062   */\n      mstore\n        /* \"#utility.yul\":18079:18098   */\n      0x84\n      add\n        /* \"@thirdweb-dev/contracts/lib/TWAddress.sol\":7127:7196   */\n      tag_267\n        /* \"#utility.yul\":17702:18104   */\n      jump\n        /* \"@thirdweb-dev/contracts/lib/TWAddress.sol\":7127:7196   */\n    tag_674:\n        /* \"@thirdweb-dev/contracts/lib/TWAddress.sol\":7208:7220   */\n      0x00\n        /* \"@thirdweb-dev/contracts/lib/TWAddress.sol\":7222:7245   */\n      dup1\n        /* \"@thirdweb-dev/contracts/lib/TWAddress.sol\":7249:7255   */\n      dup6\n      sub(shl(0xa0, 0x01), 0x01)\n        /* \"@thirdweb-dev/contracts/lib/TWAddress.sol\":7249:7268   */\n      and\n        /* \"@thirdweb-dev/contracts/lib/TWAddress.sol\":7269:7273   */\n      dup6\n        /* \"@thirdweb-dev/contracts/lib/TWAddress.sol\":7249:7274   */\n      mload(0x40)\n      tag_677\n      swap2\n      swap1\n      tag_678\n      jump\t// in\n    tag_677:\n      0x00\n      mload(0x40)\n      dup1\n      dup4\n      sub\n      dup2\n      dup6\n      gas\n      delegatecall\n      swap2\n      pop\n      pop\n      returndatasize\n      dup1\n      0x00\n      dup2\n      eq\n      tag_681\n      jumpi\n      mload(0x40)\n      swap2\n      pop\n      and(add(returndatasize, 0x3f), not(0x1f))\n      dup3\n      add\n      0x40\n      mstore\n      returndatasize\n      dup3\n      mstore\n      returndatasize\n      0x00\n      0x20\n      dup5\n      add\n      returndatacopy\n      jump(tag_680)\n    tag_681:\n      0x60\n      swap2\n      pop\n    tag_680:\n      pop\n        /* \"@thirdweb-dev/contracts/lib/TWAddress.sol\":7207:7274   */\n      swap2\n      pop\n      swap2\n      pop\n        /* \"@thirdweb-dev/contracts/lib/TWAddress.sol\":7291:7342   */\n      tag_682\n        /* \"@thirdweb-dev/contracts/lib/TWAddress.sol\":7308:7315   */\n      dup3\n        /* \"@thirdweb-dev/contracts/lib/TWAddress.sol\":7317:7327   */\n      dup3\n        /* \"@thirdweb-dev/contracts/lib/TWAddress.sol\":7329:7341   */\n      dup7\n        /* \"@thirdweb-dev/contracts/lib/TWAddress.sol\":7291:7307   */\n      tag_683\n        /* \"@thirdweb-dev/contracts/lib/TWAddress.sol\":7291:7342   */\n      jump\t// in\n    tag_682:\n        /* \"@thirdweb-dev/contracts/lib/TWAddress.sol\":7284:7342   */\n      swap7\n        /* \"@thirdweb-dev/contracts/lib/TWAddress.sol\":6962:7349   */\n      swap6\n      pop\n      pop\n      pop\n      pop\n      pop\n      pop\n      jump\t// out\n        /* \"@thirdweb-dev/contracts/lib/TWAddress.sol\":7569:8261   */\n    tag_683:\n        /* \"@thirdweb-dev/contracts/lib/TWAddress.sol\":7715:7727   */\n      0x60\n        /* \"@thirdweb-dev/contracts/lib/TWAddress.sol\":7743:7750   */\n      dup4\n        /* \"@thirdweb-dev/contracts/lib/TWAddress.sol\":7739:8255   */\n      iszero\n      tag_685\n      jumpi\n      pop\n        /* \"@thirdweb-dev/contracts/lib/TWAddress.sol\":7773:7783   */\n      dup2\n        /* \"@thirdweb-dev/contracts/lib/TWAddress.sol\":7766:7783   */\n      jump(tag_577)\n        /* \"@thirdweb-dev/contracts/lib/TWAddress.sol\":7739:8255   */\n    tag_685:\n        /* \"@thirdweb-dev/contracts/lib/TWAddress.sol\":7884:7901   */\n      dup3\n      mload\n        /* \"@thirdweb-dev/contracts/lib/TWAddress.sol\":7884:7905   */\n      iszero\n        /* \"@thirdweb-dev/contracts/lib/TWAddress.sol\":7880:8245   */\n      tag_687\n      jumpi\n        /* \"@thirdweb-dev/contracts/lib/TWAddress.sol\":8078:8088   */\n      dup3\n        /* \"@thirdweb-dev/contracts/lib/TWAddress.sol\":8072:8089   */\n      mload\n        /* \"@thirdweb-dev/contracts/lib/TWAddress.sol\":8138:8153   */\n      dup1\n        /* \"@thirdweb-dev/contracts/lib/TWAddress.sol\":8125:8135   */\n      dup5\n        /* \"@thirdweb-dev/contracts/lib/TWAddress.sol\":8121:8123   */\n      0x20\n        /* \"@thirdweb-dev/contracts/lib/TWAddress.sol\":8117:8136   */\n      add\n        /* \"@thirdweb-dev/contracts/lib/TWAddress.sol\":8110:8154   */\n      revert\n        /* \"@thirdweb-dev/contracts/lib/TWAddress.sol\":7880:8245   */\n    tag_687:\n        /* \"@thirdweb-dev/contracts/lib/TWAddress.sol\":8217:8229   */\n      dup2\n        /* \"@thirdweb-dev/contracts/lib/TWAddress.sol\":8210:8230   */\n      mload(0x40)\n      shl(0xe5, 0x461bcd)\n      dup2\n      mstore\n      0x04\n      add\n      tag_267\n      swap2\n      swap1\n      tag_73\n      jump\t// in\n    tag_543:\n      dup3\n      dup1\n      sload\n      tag_690\n      swap1\n      tag_239\n      jump\t// in\n    tag_690:\n      swap1\n      0x00\n      mstore\n      keccak256(0x00, 0x20)\n      swap1\n      0x1f\n      add\n      0x20\n      swap1\n      div\n      dup2\n      add\n      swap3\n      dup3\n      tag_692\n      jumpi\n      0x00\n      dup6\n      sstore\n      jump(tag_695)\n    tag_692:\n      dup3\n      0x1f\n      lt\n      tag_693\n      jumpi\n      dup1\n      mload\n      not(0xff)\n      and\n      dup4\n      dup1\n      add\n      or\n      dup6\n      sstore\n      jump(tag_695)\n    tag_693:\n      dup3\n      dup1\n      add\n      0x01\n      add\n      dup6\n      sstore\n      dup3\n      iszero\n      tag_695\n      jumpi\n      swap2\n      dup3\n      add\n    tag_694:\n      dup3\n      dup2\n      gt\n      iszero\n      tag_695\n      jumpi\n      dup3\n      mload\n      dup3\n      sstore\n      swap2\n      0x20\n      add\n      swap2\n      swap1\n      0x01\n      add\n      swap1\n      jump(tag_694)\n    tag_695:\n      pop\n      tag_696\n      swap3\n      swap2\n      pop\n      tag_697\n      jump\t// in\n    tag_696:\n      pop\n      swap1\n      jump\t// out\n    tag_697:\n    tag_698:\n      dup1\n      dup3\n      gt\n      iszero\n      tag_696\n      jumpi\n      0x00\n      dup2\n      sstore\n      0x01\n      add\n      jump(tag_698)\n        /* \"#utility.yul\":14:210   */\n    tag_700:\n        /* \"#utility.yul\":82:102   */\n      dup1\n      calldataload\n      sub(shl(0xa0, 0x01), 0x01)\n        /* \"#utility.yul\":131:185   */\n      dup2\n      and\n        /* \"#utility.yul\":121:186   */\n      dup2\n      eq\n        /* \"#utility.yul\":111:204   */\n      tag_709\n      jumpi\n        /* \"#utility.yul\":200:201   */\n      0x00\n        /* \"#utility.yul\":197:198   */\n      dup1\n        /* \"#utility.yul\":190:202   */\n      revert\n        /* \"#utility.yul\":111:204   */\n    tag_709:\n        /* \"#utility.yul\":14:210   */\n      swap2\n      swap1\n      pop\n      jump\t// out\n        /* \"#utility.yul\":215:342   */\n    tag_391:\n        /* \"#utility.yul\":276:286   */\n      0x4e487b71\n        /* \"#utility.yul\":271:274   */\n      0xe0\n        /* \"#utility.yul\":267:287   */\n      shl\n        /* \"#utility.yul\":264:265   */\n      0x00\n        /* \"#utility.yul\":257:288   */\n      mstore\n        /* \"#utility.yul\":307:311   */\n      0x41\n        /* \"#utility.yul\":304:305   */\n      0x04\n        /* \"#utility.yul\":297:312   */\n      mstore\n        /* \"#utility.yul\":331:335   */\n      0x24\n        /* \"#utility.yul\":328:329   */\n      0x00\n        /* \"#utility.yul\":321:336   */\n      revert\n        /* \"#utility.yul\":347:1066   */\n    tag_701:\n        /* \"#utility.yul\":390:395   */\n      0x00\n        /* \"#utility.yul\":443:446   */\n      dup3\n        /* \"#utility.yul\":436:440   */\n      0x1f\n        /* \"#utility.yul\":428:434   */\n      dup4\n        /* \"#utility.yul\":424:441   */\n      add\n        /* \"#utility.yul\":420:447   */\n      slt\n        /* \"#utility.yul\":410:465   */\n      tag_712\n      jumpi\n        /* \"#utility.yul\":461:462   */\n      0x00\n        /* \"#utility.yul\":458:459   */\n      dup1\n        /* \"#utility.yul\":451:463   */\n      revert\n        /* \"#utility.yul\":410:465   */\n    tag_712:\n        /* \"#utility.yul\":497:503   */\n      dup2\n        /* \"#utility.yul\":484:504   */\n      calldataload\n        /* \"#utility.yul\":523:541   */\n      0xffffffffffffffff\n        /* \"#utility.yul\":560:562   */\n      dup1\n        /* \"#utility.yul\":556:558   */\n      dup3\n        /* \"#utility.yul\":553:563   */\n      gt\n        /* \"#utility.yul\":550:586   */\n      iszero\n      tag_714\n      jumpi\n        /* \"#utility.yul\":566:584   */\n      tag_714\n      tag_391\n      jump\t// in\n    tag_714:\n        /* \"#utility.yul\":641:643   */\n      0x40\n        /* \"#utility.yul\":635:644   */\n      mload\n        /* \"#utility.yul\":609:611   */\n      0x1f\n        /* \"#utility.yul\":695:708   */\n      dup4\n      add\n      not(0x1f)\n        /* \"#utility.yul\":691:713   */\n      swap1\n      dup2\n      and\n        /* \"#utility.yul\":715:717   */\n      0x3f\n        /* \"#utility.yul\":687:718   */\n      add\n        /* \"#utility.yul\":683:723   */\n      and\n        /* \"#utility.yul\":671:724   */\n      dup2\n      add\n      swap1\n        /* \"#utility.yul\":739:757   */\n      dup3\n      dup3\n      gt\n        /* \"#utility.yul\":759:781   */\n      dup2\n      dup4\n      lt\n        /* \"#utility.yul\":736:782   */\n      or\n        /* \"#utility.yul\":733:805   */\n      iszero\n      tag_716\n      jumpi\n        /* \"#utility.yul\":785:803   */\n      tag_716\n      tag_391\n      jump\t// in\n    tag_716:\n        /* \"#utility.yul\":825:835   */\n      dup2\n        /* \"#utility.yul\":821:823   */\n      0x40\n        /* \"#utility.yul\":814:836   */\n      mstore\n        /* \"#utility.yul\":860:862   */\n      dup4\n        /* \"#utility.yul\":852:858   */\n      dup2\n        /* \"#utility.yul\":845:863   */\n      mstore\n        /* \"#utility.yul\":906:909   */\n      dup7\n        /* \"#utility.yul\":899:903   */\n      0x20\n        /* \"#utility.yul\":894:896   */\n      dup6\n        /* \"#utility.yul\":886:892   */\n      dup9\n        /* \"#utility.yul\":882:897   */\n      add\n        /* \"#utility.yul\":878:904   */\n      add\n        /* \"#utility.yul\":875:910   */\n      gt\n        /* \"#utility.yul\":872:927   */\n      iszero\n      tag_717\n      jumpi\n        /* \"#utility.yul\":923:924   */\n      0x00\n        /* \"#utility.yul\":920:921   */\n      dup1\n        /* \"#utility.yul\":913:925   */\n      revert\n        /* \"#utility.yul\":872:927   */\n    tag_717:\n        /* \"#utility.yul\":987:989   */\n      dup4\n        /* \"#utility.yul\":980:984   */\n      0x20\n        /* \"#utility.yul\":972:978   */\n      dup8\n        /* \"#utility.yul\":968:985   */\n      add\n        /* \"#utility.yul\":961:965   */\n      0x20\n        /* \"#utility.yul\":953:959   */\n      dup4\n        /* \"#utility.yul\":949:966   */\n      add\n        /* \"#utility.yul\":936:990   */\n      calldatacopy\n        /* \"#utility.yul\":1034:1035   */\n      0x00\n        /* \"#utility.yul\":1027:1031   */\n      0x20\n        /* \"#utility.yul\":1022:1024   */\n      dup6\n        /* \"#utility.yul\":1014:1020   */\n      dup4\n        /* \"#utility.yul\":1010:1025   */\n      add\n        /* \"#utility.yul\":1006:1032   */\n      add\n        /* \"#utility.yul\":999:1036   */\n      mstore\n        /* \"#utility.yul\":1054:1060   */\n      dup1\n        /* \"#utility.yul\":1045:1060   */\n      swap5\n      pop\n      pop\n      pop\n      pop\n      pop\n        /* \"#utility.yul\":347:1066   */\n      swap3\n      swap2\n      pop\n      pop\n      jump\t// out\n        /* \"#utility.yul\":1071:1467   */\n    tag_62:\n        /* \"#utility.yul\":1149:1155   */\n      0x00\n        /* \"#utility.yul\":1157:1163   */\n      dup1\n        /* \"#utility.yul\":1210:1212   */\n      0x40\n        /* \"#utility.yul\":1198:1207   */\n      dup4\n        /* \"#utility.yul\":1189:1196   */\n      dup6\n        /* \"#utility.yul\":1185:1208   */\n      sub\n        /* \"#utility.yul\":1181:1213   */\n      slt\n        /* \"#utility.yul\":1178:1230   */\n      iszero\n      tag_719\n      jumpi\n        /* \"#utility.yul\":1226:1227   */\n      0x00\n        /* \"#utility.yul\":1223:1224   */\n      dup1\n        /* \"#utility.yul\":1216:1228   */\n      revert\n        /* \"#utility.yul\":1178:1230   */\n    tag_719:\n        /* \"#utility.yul\":1249:1278   */\n      tag_720\n        /* \"#utility.yul\":1268:1277   */\n      dup4\n        /* \"#utility.yul\":1249:1278   */\n      tag_700\n      jump\t// in\n    tag_720:\n        /* \"#utility.yul\":1239:1278   */\n      swap2\n      pop\n        /* \"#utility.yul\":1329:1331   */\n      0x20\n        /* \"#utility.yul\":1318:1327   */\n      dup4\n        /* \"#utility.yul\":1314:1332   */\n      add\n        /* \"#utility.yul\":1301:1333   */\n      calldataload\n        /* \"#utility.yul\":1356:1374   */\n      0xffffffffffffffff\n        /* \"#utility.yul\":1348:1354   */\n      dup2\n        /* \"#utility.yul\":1345:1375   */\n      gt\n        /* \"#utility.yul\":1342:1392   */\n      iszero\n      tag_721\n      jumpi\n        /* \"#utility.yul\":1388:1389   */\n      0x00\n        /* \"#utility.yul\":1385:1386   */\n      dup1\n        /* \"#utility.yul\":1378:1390   */\n      revert\n        /* \"#utility.yul\":1342:1392   */\n    tag_721:\n        /* \"#utility.yul\":1411:1461   */\n      tag_722\n        /* \"#utility.yul\":1453:1460   */\n      dup6\n        /* \"#utility.yul\":1444:1450   */\n      dup3\n        /* \"#utility.yul\":1433:1442   */\n      dup7\n        /* \"#utility.yul\":1429:1451   */\n      add\n        /* \"#utility.yul\":1411:1461   */\n      tag_701\n      jump\t// in\n    tag_722:\n        /* \"#utility.yul\":1401:1461   */\n      swap2\n      pop\n      pop\n        /* \"#utility.yul\":1071:1467   */\n      swap3\n      pop\n      swap3\n      swap1\n      pop\n      jump\t// out\n        /* \"#utility.yul\":1472:1603   */\n    tag_702:\n      not(sub(shl(0xe0, 0x01), 0x01))\n        /* \"#utility.yul\":1546:1578   */\n      dup2\n      and\n        /* \"#utility.yul\":1536:1579   */\n      dup2\n      eq\n        /* \"#utility.yul\":1526:1597   */\n      tag_269\n      jumpi\n        /* \"#utility.yul\":1593:1594   */\n      0x00\n        /* \"#utility.yul\":1590:1591   */\n      dup1\n        /* \"#utility.yul\":1583:1595   */\n      revert\n        /* \"#utility.yul\":1608:1853   */\n    tag_66:\n        /* \"#utility.yul\":1666:1672   */\n      0x00\n        /* \"#utility.yul\":1719:1721   */\n      0x20\n        /* \"#utility.yul\":1707:1716   */\n      dup3\n        /* \"#utility.yul\":1698:1705   */\n      dup5\n        /* \"#utility.yul\":1694:1717   */\n      sub\n        /* \"#utility.yul\":1690:1722   */\n      slt\n        /* \"#utility.yul\":1687:1739   */\n      iszero\n      tag_726\n      jumpi\n        /* \"#utility.yul\":1735:1736   */\n      0x00\n        /* \"#utility.yul\":1732:1733   */\n      dup1\n        /* \"#utility.yul\":1725:1737   */\n      revert\n        /* \"#utility.yul\":1687:1739   */\n    tag_726:\n        /* \"#utility.yul\":1774:1783   */\n      dup2\n        /* \"#utility.yul\":1761:1784   */\n      calldataload\n        /* \"#utility.yul\":1793:1823   */\n      tag_577\n        /* \"#utility.yul\":1817:1822   */\n      dup2\n        /* \"#utility.yul\":1793:1823   */\n      tag_702\n      jump\t// in\n        /* \"#utility.yul\":2050:2308   */\n    tag_703:\n        /* \"#utility.yul\":2122:2123   */\n      0x00\n        /* \"#utility.yul\":2132:2245   */\n    tag_730:\n        /* \"#utility.yul\":2146:2152   */\n      dup4\n        /* \"#utility.yul\":2143:2144   */\n      dup2\n        /* \"#utility.yul\":2140:2153   */\n      lt\n        /* \"#utility.yul\":2132:2245   */\n      iszero\n      tag_732\n      jumpi\n        /* \"#utility.yul\":2222:2233   */\n      dup2\n      dup2\n      add\n        /* \"#utility.yul\":2216:2234   */\n      mload\n        /* \"#utility.yul\":2203:2214   */\n      dup4\n      dup3\n      add\n        /* \"#utility.yul\":2196:2235   */\n      mstore\n        /* \"#utility.yul\":2168:2170   */\n      0x20\n        /* \"#utility.yul\":2161:2171   */\n      add\n        /* \"#utility.yul\":2132:2245   */\n      jump(tag_730)\n    tag_732:\n        /* \"#utility.yul\":2263:2269   */\n      dup4\n        /* \"#utility.yul\":2260:2261   */\n      dup2\n        /* \"#utility.yul\":2257:2270   */\n      gt\n        /* \"#utility.yul\":2254:2302   */\n      iszero\n      tag_343\n      jumpi\n      pop\n      pop\n        /* \"#utility.yul\":2298:2299   */\n      0x00\n        /* \"#utility.yul\":2280:2296   */\n      swap2\n      add\n        /* \"#utility.yul\":2273:2300   */\n      mstore\n        /* \"#utility.yul\":2050:2308   */\n      jump\t// out\n        /* \"#utility.yul\":2313:2571   */\n    tag_704:\n        /* \"#utility.yul\":2355:2358   */\n      0x00\n        /* \"#utility.yul\":2393:2398   */\n      dup2\n        /* \"#utility.yul\":2387:2399   */\n      mload\n        /* \"#utility.yul\":2420:2426   */\n      dup1\n        /* \"#utility.yul\":2415:2418   */\n      dup5\n        /* \"#utility.yul\":2408:2427   */\n      mstore\n        /* \"#utility.yul\":2436:2499   */\n      tag_735\n        /* \"#utility.yul\":2492:2498   */\n      dup2\n        /* \"#utility.yul\":2485:2489   */\n      0x20\n        /* \"#utility.yul\":2480:2483   */\n      dup7\n        /* \"#utility.yul\":2476:2490   */\n      add\n        /* \"#utility.yul\":2469:2473   */\n      0x20\n        /* \"#utility.yul\":2462:2467   */\n      dup7\n        /* \"#utility.yul\":2458:2474   */\n      add\n        /* \"#utility.yul\":2436:2499   */\n      tag_703\n      jump\t// in\n    tag_735:\n        /* \"#utility.yul\":2553:2555   */\n      0x1f\n        /* \"#utility.yul\":2532:2547   */\n      add\n      not(0x1f)\n        /* \"#utility.yul\":2528:2557   */\n      and\n        /* \"#utility.yul\":2519:2558   */\n      swap3\n      swap1\n      swap3\n      add\n        /* \"#utility.yul\":2560:2564   */\n      0x20\n        /* \"#utility.yul\":2515:2565   */\n      add\n      swap3\n        /* \"#utility.yul\":2313:2571   */\n      swap2\n      pop\n      pop\n      jump\t// out\n        /* \"#utility.yul\":2576:2796   */\n    tag_73:\n        /* \"#utility.yul\":2725:2727   */\n      0x20\n        /* \"#utility.yul\":2714:2723   */\n      dup2\n        /* \"#utility.yul\":2707:2728   */\n      mstore\n        /* \"#utility.yul\":2688:2692   */\n      0x00\n        /* \"#utility.yul\":2745:2790   */\n      tag_577\n        /* \"#utility.yul\":2786:2788   */\n      0x20\n        /* \"#utility.yul\":2775:2784   */\n      dup4\n        /* \"#utility.yul\":2771:2789   */\n      add\n        /* \"#utility.yul\":2763:2769   */\n      dup5\n        /* \"#utility.yul\":2745:2790   */\n      tag_704\n      jump\t// in\n        /* \"#utility.yul\":2801:2981   */\n    tag_76:\n        /* \"#utility.yul\":2860:2866   */\n      0x00\n        /* \"#utility.yul\":2913:2915   */\n      0x20\n        /* \"#utility.yul\":2901:2910   */\n      dup3\n        /* \"#utility.yul\":2892:2899   */\n      dup5\n        /* \"#utility.yul\":2888:2911   */\n      sub\n        /* \"#utility.yul\":2884:2916   */\n      slt\n        /* \"#utility.yul\":2881:2933   */\n      iszero\n      tag_739\n      jumpi\n        /* \"#utility.yul\":2929:2930   */\n      0x00\n        /* \"#utility.yul\":2926:2927   */\n      dup1\n        /* \"#utility.yul\":2919:2931   */\n      revert\n        /* \"#utility.yul\":2881:2933   */\n    tag_739:\n      pop\n        /* \"#utility.yul\":2952:2975   */\n      calldataload\n      swap2\n        /* \"#utility.yul\":2801:2981   */\n      swap1\n      pop\n      jump\t// out\n        /* \"#utility.yul\":3217:3471   */\n    tag_82:\n        /* \"#utility.yul\":3285:3291   */\n      0x00\n        /* \"#utility.yul\":3293:3299   */\n      dup1\n        /* \"#utility.yul\":3346:3348   */\n      0x40\n        /* \"#utility.yul\":3334:3343   */\n      dup4\n        /* \"#utility.yul\":3325:3332   */\n      dup6\n        /* \"#utility.yul\":3321:3344   */\n      sub\n        /* \"#utility.yul\":3317:3349   */\n      slt\n        /* \"#utility.yul\":3314:3366   */\n      iszero\n      tag_742\n      jumpi\n        /* \"#utility.yul\":3362:3363   */\n      0x00\n        /* \"#utility.yul\":3359:3360   */\n      dup1\n        /* \"#utility.yul\":3352:3364   */\n      revert\n        /* \"#utility.yul\":3314:3366   */\n    tag_742:\n        /* \"#utility.yul\":3385:3414   */\n      tag_743\n        /* \"#utility.yul\":3404:3413   */\n      dup4\n        /* \"#utility.yul\":3385:3414   */\n      tag_700\n      jump\t// in\n    tag_743:\n        /* \"#utility.yul\":3375:3414   */\n      swap5\n        /* \"#utility.yul\":3461:3463   */\n      0x20\n        /* \"#utility.yul\":3446:3464   */\n      swap4\n      swap1\n      swap4\n      add\n        /* \"#utility.yul\":3433:3465   */\n      calldataload\n      swap4\n      pop\n      pop\n      pop\n        /* \"#utility.yul\":3217:3471   */\n      jump\t// out\n        /* \"#utility.yul\":3476:3724   */\n    tag_86:\n        /* \"#utility.yul\":3544:3550   */\n      0x00\n        /* \"#utility.yul\":3552:3558   */\n      dup1\n        /* \"#utility.yul\":3605:3607   */\n      0x40\n        /* \"#utility.yul\":3593:3602   */\n      dup4\n        /* \"#utility.yul\":3584:3591   */\n      dup6\n        /* \"#utility.yul\":3580:3603   */\n      sub\n        /* \"#utility.yul\":3576:3608   */\n      slt\n        /* \"#utility.yul\":3573:3625   */\n      iszero\n      tag_745\n      jumpi\n        /* \"#utility.yul\":3621:3622   */\n      0x00\n        /* \"#utility.yul\":3618:3619   */\n      dup1\n        /* \"#utility.yul\":3611:3623   */\n      revert\n        /* \"#utility.yul\":3573:3625   */\n    tag_745:\n      pop\n      pop\n        /* \"#utility.yul\":3644:3667   */\n      dup1\n      calldataload\n      swap3\n        /* \"#utility.yul\":3714:3716   */\n      0x20\n        /* \"#utility.yul\":3699:3717   */\n      swap1\n      swap2\n      add\n        /* \"#utility.yul\":3686:3718   */\n      calldataload\n      swap2\n      pop\n        /* \"#utility.yul\":3476:3724   */\n      jump\t// out\n        /* \"#utility.yul\":3729:3915   */\n    tag_90:\n        /* \"#utility.yul\":3788:3794   */\n      0x00\n        /* \"#utility.yul\":3841:3843   */\n      0x20\n        /* \"#utility.yul\":3829:3838   */\n      dup3\n        /* \"#utility.yul\":3820:3827   */\n      dup5\n        /* \"#utility.yul\":3816:3839   */\n      sub\n        /* \"#utility.yul\":3812:3844   */\n      slt\n        /* \"#utility.yul\":3809:3861   */\n      iszero\n      tag_747\n      jumpi\n        /* \"#utility.yul\":3857:3858   */\n      0x00\n        /* \"#utility.yul\":3854:3855   */\n      dup1\n        /* \"#utility.yul\":3847:3859   */\n      revert\n        /* \"#utility.yul\":3809:3861   */\n    tag_747:\n        /* \"#utility.yul\":3880:3909   */\n      tag_577\n        /* \"#utility.yul\":3899:3908   */\n      dup3\n        /* \"#utility.yul\":3880:3909   */\n      tag_700\n      jump\t// in\n        /* \"#utility.yul\":4102:4430   */\n    tag_98:\n        /* \"#utility.yul\":4179:4185   */\n      0x00\n        /* \"#utility.yul\":4187:4193   */\n      dup1\n        /* \"#utility.yul\":4195:4201   */\n      0x00\n        /* \"#utility.yul\":4248:4250   */\n      0x60\n        /* \"#utility.yul\":4236:4245   */\n      dup5\n        /* \"#utility.yul\":4227:4234   */\n      dup7\n        /* \"#utility.yul\":4223:4246   */\n      sub\n        /* \"#utility.yul\":4219:4251   */\n      slt\n        /* \"#utility.yul\":4216:4268   */\n      iszero\n      tag_751\n      jumpi\n        /* \"#utility.yul\":4264:4265   */\n      0x00\n        /* \"#utility.yul\":4261:4262   */\n      dup1\n        /* \"#utility.yul\":4254:4266   */\n      revert\n        /* \"#utility.yul\":4216:4268   */\n    tag_751:\n        /* \"#utility.yul\":4287:4316   */\n      tag_752\n        /* \"#utility.yul\":4306:4315   */\n      dup5\n        /* \"#utility.yul\":4287:4316   */\n      tag_700\n      jump\t// in\n    tag_752:\n        /* \"#utility.yul\":4277:4316   */\n      swap3\n      pop\n        /* \"#utility.yul\":4335:4373   */\n      tag_753\n        /* \"#utility.yul\":4369:4371   */\n      0x20\n        /* \"#utility.yul\":4358:4367   */\n      dup6\n        /* \"#utility.yul\":4354:4372   */\n      add\n        /* \"#utility.yul\":4335:4373   */\n      tag_700\n      jump\t// in\n    tag_753:\n        /* \"#utility.yul\":4325:4373   */\n      swap2\n      pop\n        /* \"#utility.yul\":4420:4422   */\n      0x40\n        /* \"#utility.yul\":4409:4418   */\n      dup5\n        /* \"#utility.yul\":4405:4423   */\n      add\n        /* \"#utility.yul\":4392:4424   */\n      calldataload\n        /* \"#utility.yul\":4382:4424   */\n      swap1\n      pop\n        /* \"#utility.yul\":4102:4430   */\n      swap3\n      pop\n      swap3\n      pop\n      swap3\n      jump\t// out\n        /* \"#utility.yul\":5104:5358   */\n    tag_117:\n        /* \"#utility.yul\":5172:5178   */\n      0x00\n        /* \"#utility.yul\":5180:5186   */\n      dup1\n        /* \"#utility.yul\":5233:5235   */\n      0x40\n        /* \"#utility.yul\":5221:5230   */\n      dup4\n        /* \"#utility.yul\":5212:5219   */\n      dup6\n        /* \"#utility.yul\":5208:5231   */\n      sub\n        /* \"#utility.yul\":5204:5236   */\n      slt\n        /* \"#utility.yul\":5201:5253   */\n      iszero\n      tag_759\n      jumpi\n        /* \"#utility.yul\":5249:5250   */\n      0x00\n        /* \"#utility.yul\":5246:5247   */\n      dup1\n        /* \"#utility.yul\":5239:5251   */\n      revert\n        /* \"#utility.yul\":5201:5253   */\n    tag_759:\n        /* \"#utility.yul\":5285:5294   */\n      dup3\n        /* \"#utility.yul\":5272:5295   */\n      calldataload\n        /* \"#utility.yul\":5262:5295   */\n      swap2\n      pop\n        /* \"#utility.yul\":5314:5352   */\n      tag_760\n        /* \"#utility.yul\":5348:5350   */\n      0x20\n        /* \"#utility.yul\":5337:5346   */\n      dup5\n        /* \"#utility.yul\":5333:5351   */\n      add\n        /* \"#utility.yul\":5314:5352   */\n      tag_700\n      jump\t// in\n    tag_760:\n        /* \"#utility.yul\":5304:5352   */\n      swap1\n      pop\n        /* \"#utility.yul\":5104:5358   */\n      swap3\n      pop\n      swap3\n      swap1\n      pop\n      jump\t// out\n        /* \"#utility.yul\":5676:6361   */\n    tag_160:\n        /* \"#utility.yul\":5781:5787   */\n      0x00\n        /* \"#utility.yul\":5789:5795   */\n      dup1\n        /* \"#utility.yul\":5797:5803   */\n      0x00\n        /* \"#utility.yul\":5805:5811   */\n      dup1\n        /* \"#utility.yul\":5858:5861   */\n      0x80\n        /* \"#utility.yul\":5846:5855   */\n      dup6\n        /* \"#utility.yul\":5837:5844   */\n      dup8\n        /* \"#utility.yul\":5833:5856   */\n      sub\n        /* \"#utility.yul\":5829:5862   */\n      slt\n        /* \"#utility.yul\":5826:5879   */\n      iszero\n      tag_763\n      jumpi\n        /* \"#utility.yul\":5875:5876   */\n      0x00\n        /* \"#utility.yul\":5872:5873   */\n      dup1\n        /* \"#utility.yul\":5865:5877   */\n      revert\n        /* \"#utility.yul\":5826:5879   */\n    tag_763:\n        /* \"#utility.yul\":5898:5927   */\n      tag_764\n        /* \"#utility.yul\":5917:5926   */\n      dup6\n        /* \"#utility.yul\":5898:5927   */\n      tag_700\n      jump\t// in\n    tag_764:\n        /* \"#utility.yul\":5888:5927   */\n      swap4\n      pop\n        /* \"#utility.yul\":5974:5976   */\n      0x20\n        /* \"#utility.yul\":5963:5972   */\n      dup6\n        /* \"#utility.yul\":5959:5977   */\n      add\n        /* \"#utility.yul\":5946:5978   */\n      calldataload\n        /* \"#utility.yul\":5936:5978   */\n      swap3\n      pop\n        /* \"#utility.yul\":6029:6031   */\n      0x40\n        /* \"#utility.yul\":6018:6027   */\n      dup6\n        /* \"#utility.yul\":6014:6032   */\n      add\n        /* \"#utility.yul\":6001:6033   */\n      calldataload\n        /* \"#utility.yul\":6052:6070   */\n      0xffffffffffffffff\n        /* \"#utility.yul\":6093:6095   */\n      dup1\n        /* \"#utility.yul\":6085:6091   */\n      dup3\n        /* \"#utility.yul\":6082:6096   */\n      gt\n        /* \"#utility.yul\":6079:6113   */\n      iszero\n      tag_765\n      jumpi\n        /* \"#utility.yul\":6109:6110   */\n      0x00\n        /* \"#utility.yul\":6106:6107   */\n      dup1\n        /* \"#utility.yul\":6099:6111   */\n      revert\n        /* \"#utility.yul\":6079:6113   */\n    tag_765:\n        /* \"#utility.yul\":6132:6182   */\n      tag_766\n        /* \"#utility.yul\":6174:6181   */\n      dup9\n        /* \"#utility.yul\":6165:6171   */\n      dup4\n        /* \"#utility.yul\":6154:6163   */\n      dup10\n        /* \"#utility.yul\":6150:6172   */\n      add\n        /* \"#utility.yul\":6132:6182   */\n      tag_701\n      jump\t// in\n    tag_766:\n        /* \"#utility.yul\":6122:6182   */\n      swap4\n      pop\n        /* \"#utility.yul\":6235:6237   */\n      0x60\n        /* \"#utility.yul\":6224:6233   */\n      dup8\n        /* \"#utility.yul\":6220:6238   */\n      add\n        /* \"#utility.yul\":6207:6239   */\n      calldataload\n        /* \"#utility.yul\":6191:6239   */\n      swap2\n      pop\n        /* \"#utility.yul\":6264:6266   */\n      dup1\n        /* \"#utility.yul\":6254:6262   */\n      dup3\n        /* \"#utility.yul\":6251:6267   */\n      gt\n        /* \"#utility.yul\":6248:6284   */\n      iszero\n      tag_767\n      jumpi\n        /* \"#utility.yul\":6280:6281   */\n      0x00\n        /* \"#utility.yul\":6277:6278   */\n      dup1\n        /* \"#utility.yul\":6270:6282   */\n      revert\n        /* \"#utility.yul\":6248:6284   */\n    tag_767:\n      pop\n        /* \"#utility.yul\":6303:6355   */\n      tag_768\n        /* \"#utility.yul\":6347:6354   */\n      dup8\n        /* \"#utility.yul\":6336:6344   */\n      dup3\n        /* \"#utility.yul\":6325:6334   */\n      dup9\n        /* \"#utility.yul\":6321:6345   */\n      add\n        /* \"#utility.yul\":6303:6355   */\n      tag_701\n      jump\t// in\n    tag_768:\n        /* \"#utility.yul\":6293:6355   */\n      swap2\n      pop\n      pop\n        /* \"#utility.yul\":5676:6361   */\n      swap3\n      swap6\n      swap2\n      swap5\n      pop\n      swap3\n      pop\n      jump\t// out\n        /* \"#utility.yul\":6619:6941   */\n    tag_176:\n        /* \"#utility.yul\":6688:6694   */\n      0x00\n        /* \"#utility.yul\":6741:6743   */\n      0x20\n        /* \"#utility.yul\":6729:6738   */\n      dup3\n        /* \"#utility.yul\":6720:6727   */\n      dup5\n        /* \"#utility.yul\":6716:6739   */\n      sub\n        /* \"#utility.yul\":6712:6744   */\n      slt\n        /* \"#utility.yul\":6709:6761   */\n      iszero\n      tag_772\n      jumpi\n        /* \"#utility.yul\":6757:6758   */\n      0x00\n        /* \"#utility.yul\":6754:6755   */\n      dup1\n        /* \"#utility.yul\":6747:6759   */\n      revert\n        /* \"#utility.yul\":6709:6761   */\n    tag_772:\n        /* \"#utility.yul\":6797:6806   */\n      dup2\n        /* \"#utility.yul\":6784:6807   */\n      calldataload\n        /* \"#utility.yul\":6830:6848   */\n      0xffffffffffffffff\n        /* \"#utility.yul\":6822:6828   */\n      dup2\n        /* \"#utility.yul\":6819:6849   */\n      gt\n        /* \"#utility.yul\":6816:6866   */\n      iszero\n      tag_773\n      jumpi\n        /* \"#utility.yul\":6862:6863   */\n      0x00\n        /* \"#utility.yul\":6859:6860   */\n      dup1\n        /* \"#utility.yul\":6852:6864   */\n      revert\n        /* \"#utility.yul\":6816:6866   */\n    tag_773:\n        /* \"#utility.yul\":6885:6935   */\n      tag_316\n        /* \"#utility.yul\":6927:6934   */\n      dup5\n        /* \"#utility.yul\":6918:6924   */\n      dup3\n        /* \"#utility.yul\":6907:6916   */\n      dup6\n        /* \"#utility.yul\":6903:6925   */\n      add\n        /* \"#utility.yul\":6885:6935   */\n      tag_701\n      jump\t// in\n        /* \"#utility.yul\":6946:7268   */\n    tag_183:\n        /* \"#utility.yul\":7023:7029   */\n      0x00\n        /* \"#utility.yul\":7031:7037   */\n      dup1\n        /* \"#utility.yul\":7039:7045   */\n      0x00\n        /* \"#utility.yul\":7092:7094   */\n      0x60\n        /* \"#utility.yul\":7080:7089   */\n      dup5\n        /* \"#utility.yul\":7071:7078   */\n      dup7\n        /* \"#utility.yul\":7067:7090   */\n      sub\n        /* \"#utility.yul\":7063:7095   */\n      slt\n        /* \"#utility.yul\":7060:7112   */\n      iszero\n      tag_776\n      jumpi\n        /* \"#utility.yul\":7108:7109   */\n      0x00\n        /* \"#utility.yul\":7105:7106   */\n      dup1\n        /* \"#utility.yul\":7098:7110   */\n      revert\n        /* \"#utility.yul\":7060:7112   */\n    tag_776:\n        /* \"#utility.yul\":7144:7153   */\n      dup4\n        /* \"#utility.yul\":7131:7154   */\n      calldataload\n        /* \"#utility.yul\":7121:7154   */\n      swap3\n      pop\n        /* \"#utility.yul\":7173:7211   */\n      tag_753\n        /* \"#utility.yul\":7207:7209   */\n      0x20\n        /* \"#utility.yul\":7196:7205   */\n      dup6\n        /* \"#utility.yul\":7192:7210   */\n      add\n        /* \"#utility.yul\":7173:7211   */\n      tag_700\n      jump\t// in\n        /* \"#utility.yul\":7273:7620   */\n    tag_190:\n        /* \"#utility.yul\":7338:7344   */\n      0x00\n        /* \"#utility.yul\":7346:7352   */\n      dup1\n        /* \"#utility.yul\":7399:7401   */\n      0x40\n        /* \"#utility.yul\":7387:7396   */\n      dup4\n        /* \"#utility.yul\":7378:7385   */\n      dup6\n        /* \"#utility.yul\":7374:7397   */\n      sub\n        /* \"#utility.yul\":7370:7402   */\n      slt\n        /* \"#utility.yul\":7367:7419   */\n      iszero\n      tag_779\n      jumpi\n        /* \"#utility.yul\":7415:7416   */\n      0x00\n        /* \"#utility.yul\":7412:7413   */\n      dup1\n        /* \"#utility.yul\":7405:7417   */\n      revert\n        /* \"#utility.yul\":7367:7419   */\n    tag_779:\n        /* \"#utility.yul\":7438:7467   */\n      tag_780\n        /* \"#utility.yul\":7457:7466   */\n      dup4\n        /* \"#utility.yul\":7438:7467   */\n      tag_700\n      jump\t// in\n    tag_780:\n        /* \"#utility.yul\":7428:7467   */\n      swap2\n      pop\n        /* \"#utility.yul\":7517:7519   */\n      0x20\n        /* \"#utility.yul\":7506:7515   */\n      dup4\n        /* \"#utility.yul\":7502:7520   */\n      add\n        /* \"#utility.yul\":7489:7521   */\n      calldataload\n        /* \"#utility.yul\":7564:7569   */\n      dup1\n        /* \"#utility.yul\":7557:7570   */\n      iszero\n        /* \"#utility.yul\":7550:7571   */\n      iszero\n        /* \"#utility.yul\":7543:7548   */\n      dup2\n        /* \"#utility.yul\":7540:7572   */\n      eq\n        /* \"#utility.yul\":7530:7590   */\n      tag_781\n      jumpi\n        /* \"#utility.yul\":7586:7587   */\n      0x00\n        /* \"#utility.yul\":7583:7584   */\n      dup1\n        /* \"#utility.yul\":7576:7588   */\n      revert\n        /* \"#utility.yul\":7530:7590   */\n    tag_781:\n        /* \"#utility.yul\":7609:7614   */\n      dup1\n        /* \"#utility.yul\":7599:7614   */\n      swap2\n      pop\n      pop\n        /* \"#utility.yul\":7273:7620   */\n      swap3\n      pop\n      swap3\n      swap1\n      pop\n      jump\t// out\n        /* \"#utility.yul\":7625:8251   */\n    tag_198:\n        /* \"#utility.yul\":7722:7728   */\n      0x00\n        /* \"#utility.yul\":7730:7736   */\n      dup1\n        /* \"#utility.yul\":7783:7785   */\n      0x20\n        /* \"#utility.yul\":7771:7780   */\n      dup4\n        /* \"#utility.yul\":7762:7769   */\n      dup6\n        /* \"#utility.yul\":7758:7781   */\n      sub\n        /* \"#utility.yul\":7754:7786   */\n      slt\n        /* \"#utility.yul\":7751:7803   */\n      iszero\n      tag_783\n      jumpi\n        /* \"#utility.yul\":7799:7800   */\n      0x00\n        /* \"#utility.yul\":7796:7797   */\n      dup1\n        /* \"#utility.yul\":7789:7801   */\n      revert\n        /* \"#utility.yul\":7751:7803   */\n    tag_783:\n        /* \"#utility.yul\":7839:7848   */\n      dup3\n        /* \"#utility.yul\":7826:7849   */\n      calldataload\n        /* \"#utility.yul\":7868:7886   */\n      0xffffffffffffffff\n        /* \"#utility.yul\":7909:7911   */\n      dup1\n        /* \"#utility.yul\":7901:7907   */\n      dup3\n        /* \"#utility.yul\":7898:7912   */\n      gt\n        /* \"#utility.yul\":7895:7929   */\n      iszero\n      tag_784\n      jumpi\n        /* \"#utility.yul\":7925:7926   */\n      0x00\n        /* \"#utility.yul\":7922:7923   */\n      dup1\n        /* \"#utility.yul\":7915:7927   */\n      revert\n        /* \"#utility.yul\":7895:7929   */\n    tag_784:\n        /* \"#utility.yul\":7963:7969   */\n      dup2\n        /* \"#utility.yul\":7952:7961   */\n      dup6\n        /* \"#utility.yul\":7948:7970   */\n      add\n        /* \"#utility.yul\":7938:7970   */\n      swap2\n      pop\n        /* \"#utility.yul\":8008:8015   */\n      dup6\n        /* \"#utility.yul\":8001:8005   */\n      0x1f\n        /* \"#utility.yul\":7997:7999   */\n      dup4\n        /* \"#utility.yul\":7993:8006   */\n      add\n        /* \"#utility.yul\":7989:8016   */\n      slt\n        /* \"#utility.yul\":7979:8034   */\n      tag_785\n      jumpi\n        /* \"#utility.yul\":8030:8031   */\n      0x00\n        /* \"#utility.yul\":8027:8028   */\n      dup1\n        /* \"#utility.yul\":8020:8032   */\n      revert\n        /* \"#utility.yul\":7979:8034   */\n    tag_785:\n        /* \"#utility.yul\":8070:8072   */\n      dup2\n        /* \"#utility.yul\":8057:8073   */\n      calldataload\n        /* \"#utility.yul\":8096:8098   */\n      dup2\n        /* \"#utility.yul\":8088:8094   */\n      dup2\n        /* \"#utility.yul\":8085:8099   */\n      gt\n        /* \"#utility.yul\":8082:8116   */\n      iszero\n      tag_786\n      jumpi\n        /* \"#utility.yul\":8112:8113   */\n      0x00\n        /* \"#utility.yul\":8109:8110   */\n      dup1\n        /* \"#utility.yul\":8102:8114   */\n      revert\n        /* \"#utility.yul\":8082:8116   */\n    tag_786:\n        /* \"#utility.yul\":8165:8172   */\n      dup7\n        /* \"#utility.yul\":8160:8162   */\n      0x20\n        /* \"#utility.yul\":8150:8156   */\n      dup3\n        /* \"#utility.yul\":8147:8148   */\n      0x05\n        /* \"#utility.yul\":8143:8157   */\n      shl\n        /* \"#utility.yul\":8139:8141   */\n      dup6\n        /* \"#utility.yul\":8135:8158   */\n      add\n        /* \"#utility.yul\":8131:8163   */\n      add\n        /* \"#utility.yul\":8128:8173   */\n      gt\n        /* \"#utility.yul\":8125:8190   */\n      iszero\n      tag_787\n      jumpi\n        /* \"#utility.yul\":8186:8187   */\n      0x00\n        /* \"#utility.yul\":8183:8184   */\n      dup1\n        /* \"#utility.yul\":8176:8188   */\n      revert\n        /* \"#utility.yul\":8125:8190   */\n    tag_787:\n        /* \"#utility.yul\":8217:8219   */\n      0x20\n        /* \"#utility.yul\":8209:8220   */\n      swap3\n      swap1\n      swap3\n      add\n      swap7\n        /* \"#utility.yul\":8239:8245   */\n      swap2\n      swap6\n      pop\n        /* \"#utility.yul\":7625:8251   */\n      swap1\n      swap4\n      pop\n      pop\n      pop\n      pop\n      jump\t// out\n        /* \"#utility.yul\":8256:9057   */\n    tag_201:\n        /* \"#utility.yul\":8416:8420   */\n      0x00\n        /* \"#utility.yul\":8445:8447   */\n      0x20\n        /* \"#utility.yul\":8485:8487   */\n      dup1\n        /* \"#utility.yul\":8474:8483   */\n      dup4\n        /* \"#utility.yul\":8470:8488   */\n      add\n        /* \"#utility.yul\":8515:8517   */\n      dup2\n        /* \"#utility.yul\":8504:8513   */\n      dup5\n        /* \"#utility.yul\":8497:8518   */\n      mstore\n        /* \"#utility.yul\":8538:8544   */\n      dup1\n        /* \"#utility.yul\":8573:8579   */\n      dup6\n        /* \"#utility.yul\":8567:8580   */\n      mload\n        /* \"#utility.yul\":8604:8610   */\n      dup1\n        /* \"#utility.yul\":8596:8602   */\n      dup4\n        /* \"#utility.yul\":8589:8611   */\n      mstore\n        /* \"#utility.yul\":8642:8644   */\n      0x40\n        /* \"#utility.yul\":8631:8640   */\n      dup7\n        /* \"#utility.yul\":8627:8645   */\n      add\n        /* \"#utility.yul\":8620:8645   */\n      swap2\n      pop\n        /* \"#utility.yul\":8704:8706   */\n      0x40\n        /* \"#utility.yul\":8694:8700   */\n      dup2\n        /* \"#utility.yul\":8691:8692   */\n      0x05\n        /* \"#utility.yul\":8687:8701   */\n      shl\n        /* \"#utility.yul\":8676:8685   */\n      dup8\n        /* \"#utility.yul\":8672:8702   */\n      add\n        /* \"#utility.yul\":8668:8707   */\n      add\n        /* \"#utility.yul\":8654:8707   */\n      swap3\n      pop\n        /* \"#utility.yul\":8742:8744   */\n      dup4\n        /* \"#utility.yul\":8734:8740   */\n      dup8\n        /* \"#utility.yul\":8730:8745   */\n      add\n        /* \"#utility.yul\":8763:8764   */\n      0x00\n        /* \"#utility.yul\":8773:9028   */\n    tag_789:\n        /* \"#utility.yul\":8787:8793   */\n      dup3\n        /* \"#utility.yul\":8784:8785   */\n      dup2\n        /* \"#utility.yul\":8781:8794   */\n      lt\n        /* \"#utility.yul\":8773:9028   */\n      iszero\n      tag_791\n      jumpi\n        /* \"#utility.yul\":8880:8882   */\n      0x3f\n        /* \"#utility.yul\":8876:8883   */\n      not\n        /* \"#utility.yul\":8864:8873   */\n      dup9\n        /* \"#utility.yul\":8856:8862   */\n      dup7\n        /* \"#utility.yul\":8852:8874   */\n      sub\n        /* \"#utility.yul\":8848:8884   */\n      add\n        /* \"#utility.yul\":8843:8846   */\n      dup5\n        /* \"#utility.yul\":8836:8885   */\n      mstore\n        /* \"#utility.yul\":8908:8948   */\n      tag_792\n        /* \"#utility.yul\":8941:8947   */\n      dup6\n        /* \"#utility.yul\":8932:8938   */\n      dup4\n        /* \"#utility.yul\":8926:8939   */\n      mload\n        /* \"#utility.yul\":8908:8948   */\n      tag_704\n      jump\t// in\n    tag_792:\n        /* \"#utility.yul\":8898:8948   */\n      swap5\n      pop\n        /* \"#utility.yul\":9006:9018   */\n      swap3\n      dup6\n      add\n      swap3\n        /* \"#utility.yul\":8971:8986   */\n      swap1\n      dup6\n      add\n      swap1\n        /* \"#utility.yul\":8809:8810   */\n      0x01\n        /* \"#utility.yul\":8802:8811   */\n      add\n        /* \"#utility.yul\":8773:9028   */\n      jump(tag_789)\n    tag_791:\n      pop\n        /* \"#utility.yul\":9045:9051   */\n      swap3\n      swap8\n        /* \"#utility.yul\":8256:9057   */\n      swap7\n      pop\n      pop\n      pop\n      pop\n      pop\n      pop\n      pop\n      jump\t// out\n        /* \"#utility.yul\":9062:9600   */\n    tag_207:\n        /* \"#utility.yul\":9157:9163   */\n      0x00\n        /* \"#utility.yul\":9165:9171   */\n      dup1\n        /* \"#utility.yul\":9173:9179   */\n      0x00\n        /* \"#utility.yul\":9181:9187   */\n      dup1\n        /* \"#utility.yul\":9234:9237   */\n      0x80\n        /* \"#utility.yul\":9222:9231   */\n      dup6\n        /* \"#utility.yul\":9213:9220   */\n      dup8\n        /* \"#utility.yul\":9209:9232   */\n      sub\n        /* \"#utility.yul\":9205:9238   */\n      slt\n        /* \"#utility.yul\":9202:9255   */\n      iszero\n      tag_794\n      jumpi\n        /* \"#utility.yul\":9251:9252   */\n      0x00\n        /* \"#utility.yul\":9248:9249   */\n      dup1\n        /* \"#utility.yul\":9241:9253   */\n      revert\n        /* \"#utility.yul\":9202:9255   */\n    tag_794:\n        /* \"#utility.yul\":9274:9303   */\n      tag_795\n        /* \"#utility.yul\":9293:9302   */\n      dup6\n        /* \"#utility.yul\":9274:9303   */\n      tag_700\n      jump\t// in\n    tag_795:\n        /* \"#utility.yul\":9264:9303   */\n      swap4\n      pop\n        /* \"#utility.yul\":9322:9360   */\n      tag_796\n        /* \"#utility.yul\":9356:9358   */\n      0x20\n        /* \"#utility.yul\":9345:9354   */\n      dup7\n        /* \"#utility.yul\":9341:9359   */\n      add\n        /* \"#utility.yul\":9322:9360   */\n      tag_700\n      jump\t// in\n    tag_796:\n        /* \"#utility.yul\":9312:9360   */\n      swap3\n      pop\n        /* \"#utility.yul\":9407:9409   */\n      0x40\n        /* \"#utility.yul\":9396:9405   */\n      dup6\n        /* \"#utility.yul\":9392:9410   */\n      add\n        /* \"#utility.yul\":9379:9411   */\n      calldataload\n        /* \"#utility.yul\":9369:9411   */\n      swap2\n      pop\n        /* \"#utility.yul\":9462:9464   */\n      0x60\n        /* \"#utility.yul\":9451:9460   */\n      dup6\n        /* \"#utility.yul\":9447:9465   */\n      add\n        /* \"#utility.yul\":9434:9466   */\n      calldataload\n        /* \"#utility.yul\":9489:9507   */\n      0xffffffffffffffff\n        /* \"#utility.yul\":9481:9487   */\n      dup2\n        /* \"#utility.yul\":9478:9508   */\n      gt\n        /* \"#utility.yul\":9475:9525   */\n      iszero\n      tag_797\n      jumpi\n        /* \"#utility.yul\":9521:9522   */\n      0x00\n        /* \"#utility.yul\":9518:9519   */\n      dup1\n        /* \"#utility.yul\":9511:9523   */\n      revert\n        /* \"#utility.yul\":9475:9525   */\n    tag_797:\n        /* \"#utility.yul\":9544:9594   */\n      tag_768\n        /* \"#utility.yul\":9586:9593   */\n      dup8\n        /* \"#utility.yul\":9577:9583   */\n      dup3\n        /* \"#utility.yul\":9566:9575   */\n      dup9\n        /* \"#utility.yul\":9562:9584   */\n      add\n        /* \"#utility.yul\":9544:9594   */\n      tag_701\n      jump\t// in\n        /* \"#utility.yul\":9605:9865   */\n    tag_225:\n        /* \"#utility.yul\":9673:9679   */\n      0x00\n        /* \"#utility.yul\":9681:9687   */\n      dup1\n        /* \"#utility.yul\":9734:9736   */\n      0x40\n        /* \"#utility.yul\":9722:9731   */\n      dup4\n        /* \"#utility.yul\":9713:9720   */\n      dup6\n        /* \"#utility.yul\":9709:9732   */\n      sub\n        /* \"#utility.yul\":9705:9737   */\n      slt\n        /* \"#utility.yul\":9702:9754   */\n      iszero\n      tag_800\n      jumpi\n        /* \"#utility.yul\":9750:9751   */\n      0x00\n        /* \"#utility.yul\":9747:9748   */\n      dup1\n        /* \"#utility.yul\":9740:9752   */\n      revert\n        /* \"#utility.yul\":9702:9754   */\n    tag_800:\n        /* \"#utility.yul\":9773:9802   */\n      tag_801\n        /* \"#utility.yul\":9792:9801   */\n      dup4\n        /* \"#utility.yul\":9773:9802   */\n      tag_700\n      jump\t// in\n    tag_801:\n        /* \"#utility.yul\":9763:9802   */\n      swap2\n      pop\n        /* \"#utility.yul\":9821:9859   */\n      tag_760\n        /* \"#utility.yul\":9855:9857   */\n      0x20\n        /* \"#utility.yul\":9844:9853   */\n      dup5\n        /* \"#utility.yul\":9840:9858   */\n      add\n        /* \"#utility.yul\":9821:9859   */\n      tag_700\n      jump\t// in\n        /* \"#utility.yul\":9870:10250   */\n    tag_239:\n        /* \"#utility.yul\":9949:9950   */\n      0x01\n        /* \"#utility.yul\":9945:9957   */\n      dup2\n      dup2\n      shr\n      swap1\n        /* \"#utility.yul\":9992:10004   */\n      dup3\n      and\n      dup1\n        /* \"#utility.yul\":10013:10074   */\n      tag_804\n      jumpi\n        /* \"#utility.yul\":10067:10071   */\n      0x7f\n        /* \"#utility.yul\":10059:10065   */\n      dup3\n        /* \"#utility.yul\":10055:10072   */\n      and\n        /* \"#utility.yul\":10045:10072   */\n      swap2\n      pop\n        /* \"#utility.yul\":10013:10074   */\n    tag_804:\n        /* \"#utility.yul\":10120:10122   */\n      0x20\n        /* \"#utility.yul\":10112:10118   */\n      dup3\n        /* \"#utility.yul\":10109:10123   */\n      lt\n        /* \"#utility.yul\":10089:10107   */\n      dup2\n        /* \"#utility.yul\":10086:10124   */\n      sub\n        /* \"#utility.yul\":10083:10244   */\n      tag_437\n      jumpi\n        /* \"#utility.yul\":10166:10176   */\n      0x4e487b71\n        /* \"#utility.yul\":10161:10164   */\n      0xe0\n        /* \"#utility.yul\":10157:10177   */\n      shl\n        /* \"#utility.yul\":10154:10155   */\n      0x00\n        /* \"#utility.yul\":10147:10178   */\n      mstore\n        /* \"#utility.yul\":10201:10205   */\n      0x22\n        /* \"#utility.yul\":10198:10199   */\n      0x04\n        /* \"#utility.yul\":10191:10206   */\n      mstore\n        /* \"#utility.yul\":10229:10233   */\n      0x24\n        /* \"#utility.yul\":10226:10227   */\n      0x00\n        /* \"#utility.yul\":10219:10234   */\n      revert\n        /* \"#utility.yul\":10940:11067   */\n    tag_284:\n        /* \"#utility.yul\":11001:11011   */\n      0x4e487b71\n        /* \"#utility.yul\":10996:10999   */\n      0xe0\n        /* \"#utility.yul\":10992:11012   */\n      shl\n        /* \"#utility.yul\":10989:10990   */\n      0x00\n        /* \"#utility.yul\":10982:11013   */\n      mstore\n        /* \"#utility.yul\":11032:11036   */\n      0x32\n        /* \"#utility.yul\":11029:11030   */\n      0x04\n        /* \"#utility.yul\":11022:11037   */\n      mstore\n        /* \"#utility.yul\":11056:11060   */\n      0x24\n        /* \"#utility.yul\":11053:11054   */\n      0x00\n        /* \"#utility.yul\":11046:11061   */\n      revert\n        /* \"#utility.yul\":11072:11199   */\n    tag_705:\n        /* \"#utility.yul\":11133:11143   */\n      0x4e487b71\n        /* \"#utility.yul\":11128:11131   */\n      0xe0\n        /* \"#utility.yul\":11124:11144   */\n      shl\n        /* \"#utility.yul\":11121:11122   */\n      0x00\n        /* \"#utility.yul\":11114:11145   */\n      mstore\n        /* \"#utility.yul\":11164:11168   */\n      0x11\n        /* \"#utility.yul\":11161:11162   */\n      0x04\n        /* \"#utility.yul\":11154:11169   */\n      mstore\n        /* \"#utility.yul\":11188:11192   */\n      0x24\n        /* \"#utility.yul\":11185:11186   */\n      0x00\n        /* \"#utility.yul\":11178:11193   */\n      revert\n        /* \"#utility.yul\":11204:11372   */\n    tag_290:\n        /* \"#utility.yul\":11244:11251   */\n      0x00\n        /* \"#utility.yul\":11310:11311   */\n      dup2\n        /* \"#utility.yul\":11306:11307   */\n      0x00\n        /* \"#utility.yul\":11302:11308   */\n      not\n        /* \"#utility.yul\":11298:11312   */\n      div\n        /* \"#utility.yul\":11295:11296   */\n      dup4\n        /* \"#utility.yul\":11292:11313   */\n      gt\n        /* \"#utility.yul\":11287:11288   */\n      dup3\n        /* \"#utility.yul\":11280:11289   */\n      iszero\n        /* \"#utility.yul\":11273:11290   */\n      iszero\n        /* \"#utility.yul\":11269:11314   */\n      and\n        /* \"#utility.yul\":11266:11337   */\n      iszero\n      tag_812\n      jumpi\n        /* \"#utility.yul\":11317:11335   */\n      tag_812\n      tag_705\n      jump\t// in\n    tag_812:\n      pop\n        /* \"#utility.yul\":11357:11366   */\n      mul\n      swap1\n        /* \"#utility.yul\":11204:11372   */\n      jump\t// out\n        /* \"#utility.yul\":11377:11504   */\n    tag_706:\n        /* \"#utility.yul\":11438:11448   */\n      0x4e487b71\n        /* \"#utility.yul\":11433:11436   */\n      0xe0\n        /* \"#utility.yul\":11429:11449   */\n      shl\n        /* \"#utility.yul\":11426:11427   */\n      0x00\n        /* \"#utility.yul\":11419:11450   */\n      mstore\n        /* \"#utility.yul\":11469:11473   */\n      0x12\n        /* \"#utility.yul\":11466:11467   */\n      0x04\n        /* \"#utility.yul\":11459:11474   */\n      mstore\n        /* \"#utility.yul\":11493:11497   */\n      0x24\n        /* \"#utility.yul\":11490:11491   */\n      0x00\n        /* \"#utility.yul\":11483:11498   */\n      revert\n        /* \"#utility.yul\":11509:11629   */\n    tag_292:\n        /* \"#utility.yul\":11549:11550   */\n      0x00\n        /* \"#utility.yul\":11575:11576   */\n      dup3\n        /* \"#utility.yul\":11565:11600   */\n      tag_816\n      jumpi\n        /* \"#utility.yul\":11580:11598   */\n      tag_816\n      tag_706\n      jump\t// in\n    tag_816:\n      pop\n        /* \"#utility.yul\":11614:11623   */\n      div\n      swap1\n        /* \"#utility.yul\":11509:11629   */\n      jump\t// out\n        /* \"#utility.yul\":12699:12827   */\n    tag_353:\n        /* \"#utility.yul\":12739:12742   */\n      0x00\n        /* \"#utility.yul\":12770:12771   */\n      dup3\n        /* \"#utility.yul\":12766:12772   */\n      not\n        /* \"#utility.yul\":12763:12764   */\n      dup3\n        /* \"#utility.yul\":12760:12773   */\n      gt\n        /* \"#utility.yul\":12757:12796   */\n      iszero\n      tag_822\n      jumpi\n        /* \"#utility.yul\":12776:12794   */\n      tag_822\n      tag_705\n      jump\t// in\n    tag_822:\n      pop\n        /* \"#utility.yul\":12812:12821   */\n      add\n      swap1\n        /* \"#utility.yul\":12699:12827   */\n      jump\t// out\n        /* \"#utility.yul\":12832:13353   */\n    tag_401:\n        /* \"#utility.yul\":12909:12913   */\n      0x00\n        /* \"#utility.yul\":12915:12921   */\n      dup1\n        /* \"#utility.yul\":12975:12986   */\n      dup4\n        /* \"#utility.yul\":12962:12987   */\n      calldataload\n        /* \"#utility.yul\":13069:13071   */\n      0x1e\n        /* \"#utility.yul\":13065:13072   */\n      not\n        /* \"#utility.yul\":13054:13062   */\n      dup5\n        /* \"#utility.yul\":13038:13052   */\n      calldatasize\n        /* \"#utility.yul\":13034:13063   */\n      sub\n        /* \"#utility.yul\":13030:13073   */\n      add\n        /* \"#utility.yul\":13010:13028   */\n      dup2\n        /* \"#utility.yul\":13006:13074   */\n      slt\n        /* \"#utility.yul\":12996:13092   */\n      tag_824\n      jumpi\n        /* \"#utility.yul\":13088:13089   */\n      0x00\n        /* \"#utility.yul\":13085:13086   */\n      dup1\n        /* \"#utility.yul\":13078:13090   */\n      revert\n        /* \"#utility.yul\":12996:13092   */\n    tag_824:\n        /* \"#utility.yul\":13115:13148   */\n      dup4\n      add\n        /* \"#utility.yul\":13167:13187   */\n      dup1\n      calldataload\n      swap2\n      pop\n        /* \"#utility.yul\":13210:13228   */\n      0xffffffffffffffff\n        /* \"#utility.yul\":13199:13229   */\n      dup3\n      gt\n        /* \"#utility.yul\":13196:13246   */\n      iszero\n      tag_825\n      jumpi\n        /* \"#utility.yul\":13242:13243   */\n      0x00\n        /* \"#utility.yul\":13239:13240   */\n      dup1\n        /* \"#utility.yul\":13232:13244   */\n      revert\n        /* \"#utility.yul\":13196:13246   */\n    tag_825:\n        /* \"#utility.yul\":13275:13279   */\n      0x20\n        /* \"#utility.yul\":13263:13280   */\n      add\n      swap2\n      pop\n        /* \"#utility.yul\":13306:13320   */\n      calldatasize\n        /* \"#utility.yul\":13302:13329   */\n      dup2\n      swap1\n      sub\n        /* \"#utility.yul\":13292:13330   */\n      dup3\n      sgt\n        /* \"#utility.yul\":13289:13347   */\n      iszero\n      tag_826\n      jumpi\n        /* \"#utility.yul\":13343:13344   */\n      0x00\n        /* \"#utility.yul\":13340:13341   */\n      dup1\n        /* \"#utility.yul\":13333:13345   */\n      revert\n        /* \"#utility.yul\":13289:13347   */\n    tag_826:\n        /* \"#utility.yul\":12832:13353   */\n      swap3\n      pop\n      swap3\n      swap1\n      pop\n      jump\t// out\n        /* \"#utility.yul\":13358:13493   */\n    tag_406:\n        /* \"#utility.yul\":13397:13400   */\n      0x00\n        /* \"#utility.yul\":13418:13435   */\n      0x01\n      dup3\n      add\n        /* \"#utility.yul\":13415:13458   */\n      tag_829\n      jumpi\n        /* \"#utility.yul\":13438:13456   */\n      tag_829\n      tag_705\n      jump\t// in\n    tag_829:\n      pop\n        /* \"#utility.yul\":13485:13486   */\n      0x01\n        /* \"#utility.yul\":13474:13487   */\n      add\n      swap1\n        /* \"#utility.yul\":13358:13493   */\n      jump\t// out\n        /* \"#utility.yul\":13498:13968   */\n    tag_428:\n        /* \"#utility.yul\":13677:13680   */\n      0x00\n        /* \"#utility.yul\":13715:13721   */\n      dup4\n        /* \"#utility.yul\":13709:13722   */\n      mload\n        /* \"#utility.yul\":13731:13784   */\n      tag_831\n        /* \"#utility.yul\":13777:13783   */\n      dup2\n        /* \"#utility.yul\":13772:13775   */\n      dup5\n        /* \"#utility.yul\":13765:13769   */\n      0x20\n        /* \"#utility.yul\":13757:13763   */\n      dup9\n        /* \"#utility.yul\":13753:13770   */\n      add\n        /* \"#utility.yul\":13731:13784   */\n      tag_703\n      jump\t// in\n    tag_831:\n        /* \"#utility.yul\":13847:13860   */\n      dup4\n      mload\n        /* \"#utility.yul\":13806:13822   */\n      swap1\n      dup4\n      add\n      swap1\n        /* \"#utility.yul\":13869:13926   */\n      tag_832\n        /* \"#utility.yul\":13847:13860   */\n      dup2\n        /* \"#utility.yul\":13806:13822   */\n      dup4\n        /* \"#utility.yul\":13903:13907   */\n      0x20\n        /* \"#utility.yul\":13891:13908   */\n      dup9\n      add\n        /* \"#utility.yul\":13869:13926   */\n      tag_703\n      jump\t// in\n    tag_832:\n        /* \"#utility.yul\":13942:13962   */\n      add\n      swap5\n        /* \"#utility.yul\":13498:13968   */\n      swap4\n      pop\n      pop\n      pop\n      pop\n      jump\t// out\n        /* \"#utility.yul\":13973:14757   */\n    tag_469:\n        /* \"#utility.yul\":14384:14407   */\n      0x5065726d697373696f6e733a206163636f756e74200000000000000000000000\n        /* \"#utility.yul\":14379:14382   */\n      dup2\n        /* \"#utility.yul\":14372:14408   */\n      mstore\n        /* \"#utility.yul\":14354:14357   */\n      0x00\n        /* \"#utility.yul\":14437:14443   */\n      dup4\n        /* \"#utility.yul\":14431:14444   */\n      mload\n        /* \"#utility.yul\":14453:14515   */\n      tag_834\n        /* \"#utility.yul\":14508:14514   */\n      dup2\n        /* \"#utility.yul\":14503:14505   */\n      0x15\n        /* \"#utility.yul\":14498:14501   */\n      dup6\n        /* \"#utility.yul\":14494:14506   */\n      add\n        /* \"#utility.yul\":14487:14491   */\n      0x20\n        /* \"#utility.yul\":14479:14485   */\n      dup9\n        /* \"#utility.yul\":14475:14492   */\n      add\n        /* \"#utility.yul\":14453:14515   */\n      tag_703\n      jump\t// in\n    tag_834:\n        /* \"#utility.yul\":14579:14598   */\n      0x206973206d697373696e6720726f6c6520000000000000000000000000000000\n        /* \"#utility.yul\":14574:14576   */\n      0x15\n        /* \"#utility.yul\":14534:14550   */\n      swap2\n      dup5\n      add\n        /* \"#utility.yul\":14566:14577   */\n      swap2\n      dup3\n      add\n        /* \"#utility.yul\":14559:14599   */\n      mstore\n        /* \"#utility.yul\":14624:14637   */\n      dup4\n      mload\n        /* \"#utility.yul\":14646:14709   */\n      tag_835\n        /* \"#utility.yul\":14624:14637   */\n      dup2\n        /* \"#utility.yul\":14695:14697   */\n      0x26\n        /* \"#utility.yul\":14687:14698   */\n      dup5\n      add\n        /* \"#utility.yul\":14680:14684   */\n      0x20\n        /* \"#utility.yul\":14668:14685   */\n      dup9\n      add\n        /* \"#utility.yul\":14646:14709   */\n      tag_703\n      jump\t// in\n    tag_835:\n        /* \"#utility.yul\":14729:14746   */\n      add\n        /* \"#utility.yul\":14748:14750   */\n      0x26\n        /* \"#utility.yul\":14725:14751   */\n      add\n      swap5\n        /* \"#utility.yul\":13973:14757   */\n      swap4\n      pop\n      pop\n      pop\n      pop\n      jump\t// out\n        /* \"#utility.yul\":15106:15489   */\n    tag_571:\n        /* \"#utility.yul\":15303:15305   */\n      0x40\n        /* \"#utility.yul\":15292:15301   */\n      dup2\n        /* \"#utility.yul\":15285:15306   */\n      mstore\n        /* \"#utility.yul\":15266:15270   */\n      0x00\n        /* \"#utility.yul\":15329:15374   */\n      tag_838\n        /* \"#utility.yul\":15370:15372   */\n      0x40\n        /* \"#utility.yul\":15359:15368   */\n      dup4\n        /* \"#utility.yul\":15355:15373   */\n      add\n        /* \"#utility.yul\":15347:15353   */\n      dup6\n        /* \"#utility.yul\":15329:15374   */\n      tag_704\n      jump\t// in\n    tag_838:\n        /* \"#utility.yul\":15422:15431   */\n      dup3\n        /* \"#utility.yul\":15414:15420   */\n      dup2\n        /* \"#utility.yul\":15410:15432   */\n      sub\n        /* \"#utility.yul\":15405:15407   */\n      0x20\n        /* \"#utility.yul\":15394:15403   */\n      dup5\n        /* \"#utility.yul\":15390:15408   */\n      add\n        /* \"#utility.yul\":15383:15433   */\n      mstore\n        /* \"#utility.yul\":15450:15483   */\n      tag_839\n        /* \"#utility.yul\":15476:15482   */\n      dup2\n        /* \"#utility.yul\":15468:15474   */\n      dup6\n        /* \"#utility.yul\":15450:15483   */\n      tag_704\n      jump\t// in\n    tag_839:\n        /* \"#utility.yul\":15442:15483   */\n      swap6\n        /* \"#utility.yul\":15106:15489   */\n      swap5\n      pop\n      pop\n      pop\n      pop\n      pop\n      jump\t// out\n        /* \"#utility.yul\":15494:16006   */\n    tag_583:\n        /* \"#utility.yul\":15688:15692   */\n      0x00\n      sub(shl(0xa0, 0x01), 0x01)\n        /* \"#utility.yul\":15798:15800   */\n      dup1\n        /* \"#utility.yul\":15790:15796   */\n      dup8\n        /* \"#utility.yul\":15786:15801   */\n      and\n        /* \"#utility.yul\":15775:15784   */\n      dup4\n        /* \"#utility.yul\":15768:15802   */\n      mstore\n        /* \"#utility.yul\":15850:15852   */\n      dup1\n        /* \"#utility.yul\":15842:15848   */\n      dup7\n        /* \"#utility.yul\":15838:15853   */\n      and\n        /* \"#utility.yul\":15833:15835   */\n      0x20\n        /* \"#utility.yul\":15822:15831   */\n      dup5\n        /* \"#utility.yul\":15818:15836   */\n      add\n        /* \"#utility.yul\":15811:15854   */\n      mstore\n      pop\n        /* \"#utility.yul\":15890:15896   */\n      dup4\n        /* \"#utility.yul\":15885:15887   */\n      0x40\n        /* \"#utility.yul\":15874:15883   */\n      dup4\n        /* \"#utility.yul\":15870:15888   */\n      add\n        /* \"#utility.yul\":15863:15897   */\n      mstore\n        /* \"#utility.yul\":15933:15936   */\n      0x80\n        /* \"#utility.yul\":15928:15930   */\n      0x60\n        /* \"#utility.yul\":15917:15926   */\n      dup4\n        /* \"#utility.yul\":15913:15931   */\n      add\n        /* \"#utility.yul\":15906:15937   */\n      mstore\n        /* \"#utility.yul\":15954:16000   */\n      tag_682\n        /* \"#utility.yul\":15995:15998   */\n      0x80\n        /* \"#utility.yul\":15984:15993   */\n      dup4\n        /* \"#utility.yul\":15980:15999   */\n      add\n        /* \"#utility.yul\":15972:15978   */\n      dup5\n        /* \"#utility.yul\":15954:16000   */\n      tag_704\n      jump\t// in\n        /* \"#utility.yul\":16011:16260   */\n    tag_586:\n        /* \"#utility.yul\":16080:16086   */\n      0x00\n        /* \"#utility.yul\":16133:16135   */\n      0x20\n        /* \"#utility.yul\":16121:16130   */\n      dup3\n        /* \"#utility.yul\":16112:16119   */\n      dup5\n        /* \"#utility.yul\":16108:16131   */\n      sub\n        /* \"#utility.yul\":16104:16136   */\n      slt\n        /* \"#utility.yul\":16101:16153   */\n      iszero\n      tag_843\n      jumpi\n        /* \"#utility.yul\":16149:16150   */\n      0x00\n        /* \"#utility.yul\":16146:16147   */\n      dup1\n        /* \"#utility.yul\":16139:16151   */\n      revert\n        /* \"#utility.yul\":16101:16153   */\n    tag_843:\n        /* \"#utility.yul\":16181:16190   */\n      dup2\n        /* \"#utility.yul\":16175:16191   */\n      mload\n        /* \"#utility.yul\":16200:16230   */\n      tag_577\n        /* \"#utility.yul\":16224:16229   */\n      dup2\n        /* \"#utility.yul\":16200:16230   */\n      tag_702\n      jump\t// in\n        /* \"#utility.yul\":16609:16734   */\n    tag_628:\n        /* \"#utility.yul\":16649:16653   */\n      0x00\n        /* \"#utility.yul\":16677:16678   */\n      dup3\n        /* \"#utility.yul\":16674:16675   */\n      dup3\n        /* \"#utility.yul\":16671:16679   */\n      lt\n        /* \"#utility.yul\":16668:16702   */\n      iszero\n      tag_848\n      jumpi\n        /* \"#utility.yul\":16682:16700   */\n      tag_848\n      tag_705\n      jump\t// in\n    tag_848:\n      pop\n        /* \"#utility.yul\":16719:16728   */\n      sub\n      swap1\n        /* \"#utility.yul\":16609:16734   */\n      jump\t// out\n        /* \"#utility.yul\":16739:16851   */\n    tag_630:\n        /* \"#utility.yul\":16771:16772   */\n      0x00\n        /* \"#utility.yul\":16797:16798   */\n      dup3\n        /* \"#utility.yul\":16787:16822   */\n      tag_851\n      jumpi\n        /* \"#utility.yul\":16802:16820   */\n      tag_851\n      tag_706\n      jump\t// in\n    tag_851:\n      pop\n        /* \"#utility.yul\":16836:16845   */\n      mod\n      swap1\n        /* \"#utility.yul\":16739:16851   */\n      jump\t// out\n        /* \"#utility.yul\":17200:17336   */\n    tag_661:\n        /* \"#utility.yul\":17239:17242   */\n      0x00\n        /* \"#utility.yul\":17267:17272   */\n      dup2\n        /* \"#utility.yul\":17257:17296   */\n      tag_855\n      jumpi\n        /* \"#utility.yul\":17276:17294   */\n      tag_855\n      tag_705\n      jump\t// in\n    tag_855:\n      pop\n      not(0x00)\n        /* \"#utility.yul\":17312:17330   */\n      add\n      swap1\n        /* \"#utility.yul\":17200:17336   */\n      jump\t// out\n        /* \"#utility.yul\":18109:18383   */\n    tag_678:\n        /* \"#utility.yul\":18238:18241   */\n      0x00\n        /* \"#utility.yul\":18276:18282   */\n      dup3\n        /* \"#utility.yul\":18270:18283   */\n      mload\n        /* \"#utility.yul\":18292:18345   */\n      tag_859\n        /* \"#utility.yul\":18338:18344   */\n      dup2\n        /* \"#utility.yul\":18333:18336   */\n      dup5\n        /* \"#utility.yul\":18326:18330   */\n      0x20\n        /* \"#utility.yul\":18318:18324   */\n      dup8\n        /* \"#utility.yul\":18314:18331   */\n      add\n        /* \"#utility.yul\":18292:18345   */\n      tag_703\n      jump\t// in\n    tag_859:\n        /* \"#utility.yul\":18361:18377   */\n      swap2\n      swap1\n      swap2\n      add\n      swap3\n        /* \"#utility.yul\":18109:18383   */\n      swap2\n      pop\n      pop\n      jump\t// out\n    stop\n    data_9fdcd12e4b726339b32a442b0a448365d5d85c96b2d2cff917b4f66c63110398 416464726573733a206c6f772d6c6576656c2064656c65676174652063616c6c206661696c6564\n\n    auxdata: 0xa2646970667358221220867e0f208e8b3c347eb828d134c309f40dd750e6742893a25af1010effcbc51864736f6c634300080d0033\n}\n",
    "bytecode": {
      "linkReferences": {},
      "object": "60806040523480156200001157600080fd5b506040516200354c3803806200354c83398101604081905262000034916200040e565b8383838383838160029080519060200190620000529291906200029b565b508051620000689060039060208401906200029b565b505060008055506200007a33620000ad565b6200008f826001600160801b038316620000ff565b50620000a3925060009150339050620001aa565b505050506200051d565b600980546001600160a01b038381166001600160a01b0319831681179093556040519116919082907f8292fce18fa69edf4db7b94ea2e58241df0ae57f97e0a6c9b29067028bf92d7690600090a35050565b612710811115620001485760405162461bcd60e51b815260206004820152600f60248201526e45786365656473206d61782062707360881b604482015260640160405180910390fd5b600a80546001600160a01b0384166001600160b01b03199091168117600160a01b61ffff851602179091556040518281527f90d7ec04bcb8978719414f82e52e4cb651db41d0e6f8cea6118c2191e6183adb9060200160405180910390a25050565b620001c18282620001d160201b620013181760201c565b620001cd82826200022c565b5050565b6000828152600f602090815260408083206001600160a01b0385168085529252808320805460ff1916600117905551339285917f2f8788117e7eff1d82e926ec794901d17c78024a50270940304540a733656f0d9190a45050565b6000828152601160205260408120805491600191906200024d8385620004ba565b9091555050600092835260116020908152604080852083865260018101835281862080546001600160a01b039096166001600160a01b03199096168617905593855260029093019052912055565b828054620002a990620004e1565b90600052602060002090601f016020900481019282620002cd576000855562000318565b82601f10620002e857805160ff191683800117855562000318565b8280016001018555821562000318579182015b8281111562000318578251825591602001919060010190620002fb565b50620003269291506200032a565b5090565b5b808211156200032657600081556001016200032b565b634e487b7160e01b600052604160045260246000fd5b600082601f8301126200036957600080fd5b81516001600160401b038082111562000386576200038662000341565b604051601f8301601f19908116603f01168101908282118183101715620003b157620003b162000341565b81604052838152602092508683858801011115620003ce57600080fd5b600091505b83821015620003f25785820183015181830184015290820190620003d3565b83821115620004045760008385830101525b9695505050505050565b600080600080608085870312156200042557600080fd5b84516001600160401b03808211156200043d57600080fd5b6200044b8883890162000357565b955060208701519150808211156200046257600080fd5b50620004718782880162000357565b604087015190945090506001600160a01b03811681146200049157600080fd5b60608601519092506001600160801b0381168114620004af57600080fd5b939692955090935050565b60008219821115620004dc57634e487b7160e01b600052601160045260246000fd5b500190565b600181811c90821680620004f657607f821691505b6020821081036200051757634e487b7160e01b600052602260045260246000fd5b50919050565b61301f806200052d6000396000f3fe608060405234801561001057600080fd5b50600436106102dd5760003560e01c806363b45e2d11610186578063a217fddf116100e3578063b88d4fde11610097578063d547741f11610071578063d547741f14610666578063e8a3d48514610679578063e985e9c51461068157600080fd5b8063b88d4fde1461062d578063c87b56dd14610640578063ca15c8731461065357600080fd5b8063a32fa5b3116100c8578063a32fa5b3146105dc578063ac9650d8146105ef578063b24f2d391461060f57600080fd5b8063a217fddf146105c1578063a22cb465146105c957600080fd5b80639010d07c1161013a578063938e3d7b1161011f578063938e3d7b1461059357806395d89b41146105a65780639bcf7a15146105ae57600080fd5b80639010d07c1461054757806391d148541461055a57600080fd5b806370a082311161016b57806370a0823114610510578063754a81d9146105235780638da5cb5b1461053657600080fd5b806363b45e2d146104e85780636741c81b146104f057600080fd5b8063248a9ca31161023f57806342842e0e116101f35780634cc157df116101cd5780634cc157df1461048d578063600dd5ea146104c25780636352211e146104d557600080fd5b806342842e0e1461045457806342966c6814610467578063430c20811461047a57600080fd5b80632f2ff15d116102245780632f2ff15d1461042657806336568abe146104395780633b1475a71461044c57600080fd5b8063248a9ca3146103d45780632a55205a146103f457600080fd5b80630dee795f1161029657806318160ddd1161027b57806318160ddd1461039857806323b872dd146103ae5780632419f51b146103c157600080fd5b80630dee795f1461037257806313af40351461038557600080fd5b806306fdde03116102c757806306fdde031461031f578063081812fc14610334578063095ea7b31461035f57600080fd5b806275a317146102e257806301ffc9a7146102f7575b600080fd5b6102f56102f03660046128ca565b6106bd565b005b61030a61030536600461292e565b6106dd565b60405190151581526020015b60405180910390f35b61032761074a565b60405161031691906129a3565b6103476103423660046129b6565b6107dc565b6040516001600160a01b039091168152602001610316565b6102f561036d3660046129cf565b610820565b6102f56103803660046129f9565b6108a6565b6102f5610393366004612a1b565b6108c5565b600154600054035b604051908152602001610316565b6102f56103bc366004612a36565b61091b565b6103a06103cf3660046129b6565b610926565b6103a06103e23660046129b6565b60009081526010602052604090205490565b6104076104023660046129f9565b6109a4565b604080516001600160a01b039093168352602083019190915201610316565b6102f5610434366004612a72565b6109e1565b6102f5610447366004612a72565b610a7b565b6000546103a0565b6102f5610462366004612a36565b610add565b6102f56104753660046129b6565b610af8565b61030a6104883660046129cf565b610b03565b6104a061049b3660046129b6565b610b82565b604080516001600160a01b03909316835261ffff909116602083015201610316565b6102f56104d03660046129cf565b610bed565b6103476104e33660046129b6565b610c3c565b600c546103a0565b6103a06104fe3660046129b6565b60126020526000908152604090205481565b6103a061051e366004612a1b565b610c4e565b6102f5610531366004612a9e565b610c9d565b6009546001600160a01b0316610347565b6103476105553660046129f9565b610d17565b61030a610568366004612a72565b6000918252600f602090815260408084206001600160a01b0393909316845291905290205460ff1690565b6102f56105a1366004612b1c565b610e17565b610327610e65565b6102f56105bc366004612b51565b610e74565b6103a0600081565b6102f56105d7366004612b76565b610ec4565b61030a6105ea366004612a72565b610f59565b6106026105fd366004612bb2565b610faf565b6040516103169190612c27565b600a546001600160a01b03811690600160a01b900461ffff166104a0565b6102f561063b366004612c89565b6110a4565b61032761064e3660046129b6565b6110e8565b6103a06106613660046129b6565b6111d6565b6102f5610674366004612a72565b611271565b61032761128a565b61030a61068f366004612ce5565b6001600160a01b03918216600090815260076020908152604080832093909416825291909152205460ff1690565b6000546106ca8383611373565b6000818152601260205260409020555050565b60006301ffc9a760e01b6001600160e01b03198316148061070e57506380ac58cd60e01b6001600160e01b03198316145b806107295750635b5e139f60e01b6001600160e01b03198316145b8061074457506001600160e01b0319821663152a902d60e11b145b92915050565b60606002805461075990612d0f565b80601f016020809104026020016040519081016040528092919081815260200182805461078590612d0f565b80156107d25780601f106107a7576101008083540402835291602001916107d2565b820191906000526020600020905b8154815290600101906020018083116107b557829003601f168201915b5050505050905090565b60006107e7826113f4565b610804576040516333d1c03960e21b815260040160405180910390fd5b506000908152600660205260409020546001600160a01b031690565b600061082b82610c3c565b9050806001600160a01b0316836001600160a01b03160361085f5760405163250fdee360e21b815260040160405180910390fd5b336001600160a01b0382161461089657610879813361068f565b610896576040516367d9dca160e11b815260040160405180910390fd5b6108a183838361141f565b505050565b60006108b2813361147b565b5060009182526012602052604090912055565b6108cd6114fb565b61090f5760405162461bcd60e51b815260206004820152600e60248201526d139bdd08185d5d1a1bdc9a5e995960921b60448201526064015b60405180910390fd5b61091881611528565b50565b6108a183838361157a565b6000610931600c5490565b821061097f5760405162461bcd60e51b815260206004820152600d60248201527f496e76616c696420696e646578000000000000000000000000000000000000006044820152606401610906565b600c828154811061099257610992612d43565b90600052602060002001549050919050565b6000806000806109b386610b82565b90945084925061ffff1690506127106109cc8287612d6f565b6109d69190612da4565b925050509250929050565b6000828152601060205260409020546109fa903361147b565b6000828152600f602090815260408083206001600160a01b038516845290915290205460ff1615610a6d5760405162461bcd60e51b815260206004820152601d60248201527f43616e206f6e6c79206772616e7420746f206e6f6e20686f6c646572730000006044820152606401610906565b610a778282611769565b5050565b336001600160a01b03821614610ad35760405162461bcd60e51b815260206004820152601a60248201527f43616e206f6e6c792072656e6f756e636520666f722073656c660000000000006044820152606401610906565b610a77828261177d565b6108a1838383604051806020016040528060008152506110a4565b6109188160016117d4565b600080610b0f83610c3c565b9050806001600160a01b0316846001600160a01b03161480610b5657506001600160a01b0380821660009081526007602090815260408083209388168352929052205460ff165b80610b7a5750836001600160a01b0316610b6f846107dc565b6001600160a01b0316145b949350505050565b6000818152600b60209081526040808320815180830190925280546001600160a01b031680835260019091015492820192909252829115610bc95780516020820151610be3565b600a546001600160a01b03811690600160a01b900461ffff165b9250925050915091565b610bf56114fb565b610c325760405162461bcd60e51b815260206004820152600e60248201526d139bdd08185d5d1a1bdc9a5e995960921b6044820152606401610906565b610a7782826119ca565b6000610c4782611a88565b5192915050565b60006001600160a01b038216610c77576040516323d3ad8160e21b815260040160405180910390fd5b506001600160a01b031660009081526005602052604090205467ffffffffffffffff1690565b610ca56114fb565b610cf15760405162461bcd60e51b815260206004820152601760248201527f4e6f7420617574686f72697a656420746f206d696e742e0000000000000000006044820152606401610906565b610d04610cfd60005490565b8484611ba4565b5050610d11848483611c11565b50505050565b60008281526011602052604081205481805b82811015610e0e5760008681526011602090815260408083208484526001019091529020546001600160a01b031615610da557848203610d935760008681526011602090815260408083209383526001909301905220546001600160a01b03169250610744915050565b610d9e600183612db8565b9150610dfc565b6000868152600f6020908152604080832083805290915290205460ff168015610de95750600086815260116020908152604080832083805260020190915290205481145b15610dfc57610df9600183612db8565b91505b610e07600182612db8565b9050610d29565b50505092915050565b610e1f6114fb565b610e5c5760405162461bcd60e51b815260206004820152600e60248201526d139bdd08185d5d1a1bdc9a5e995960921b6044820152606401610906565b61091881611dd9565b60606003805461075990612d0f565b610e7c6114fb565b610eb95760405162461bcd60e51b815260206004820152600e60248201526d139bdd08185d5d1a1bdc9a5e995960921b6044820152606401610906565b6108a1838383611ebb565b336001600160a01b03831603610eed5760405163b06307db60e01b815260040160405180910390fd5b3360008181526007602090815260408083206001600160a01b03871680855290835292819020805460ff191686151590811790915590519081529192917f17307eab39ab6107e8899845ad3d59bd9653f200f220920489ca2b5937696c31910160405180910390a35050565b6000828152600f6020908152604080832083805290915281205460ff16610fa657506000828152600f602090815260408083206001600160a01b038516845290915290205460ff16610744565b50600192915050565b60608167ffffffffffffffff811115610fca57610fca612827565b604051908082528060200260200182016040528015610ffd57816020015b6060815260200190600190039081610fe85790505b50905060005b8281101561109d5761106d3085858481811061102157611021612d43565b90506020028101906110339190612dd0565b8080601f016020809104026020016040519081016040528093929190818152602001838380828437600092019190915250611f8492505050565b82828151811061107f5761107f612d43565b6020026020010181905250808061109590612e1e565b915050611003565b5092915050565b6110af84848461157a565b6001600160a01b0383163b15610d11576110cb84848484611fb0565b610d11576040516368d2bf6b60e11b815260040160405180910390fd5b6000818152600e602052604081208054606092919061110690612d0f565b80601f016020809104026020016040519081016040528092919081815260200182805461113290612d0f565b801561117f5780601f106111545761010080835404028352916020019161117f565b820191906000526020600020905b81548152906001019060200180831161116257829003601f168201915b505050505090506000815111156111965792915050565b60006111a18461209b565b9050806111ad85612245565b6040516020016111be929190612e37565b60405160208183030381529060405292505050919050565b600081815260116020526040812054815b8181101561123a5760008481526011602090815260408083208484526001019091529020546001600160a01b03161561122857611225600184612db8565b92505b611233600182612db8565b90506111e7565b506000838152600f6020908152604080832083805290915290205460ff161561126b57611268600183612db8565b91505b50919050565b600082815260106020526040902054610ad3903361147b565b6008805461129790612d0f565b80601f01602080910402602001604051908101604052809291908181526020018280546112c390612d0f565b80156113105780601f106112e557610100808354040283529160200191611310565b820191906000526020600020905b8154815290600101906020018083116112f357829003601f168201915b505050505081565b6000828152600f602090815260408083206001600160a01b0385168085529252808320805460ff1916600117905551339285917f2f8788117e7eff1d82e926ec794901d17c78024a50270940304540a733656f0d9190a45050565b61137b6114fb565b6113c75760405162461bcd60e51b815260206004820152601760248201527f4e6f7420617574686f72697a656420746f206d696e742e0000000000000000006044820152606401610906565b6113d96113d360005490565b82612346565b610a7782600160405180602001604052806000815250611c11565b6000805482108015610744575050600090815260046020526040902054600160e01b900460ff161590565b60008281526006602052604080822080546001600160a01b0319166001600160a01b0387811691821790925591518593918516917f8c5be1e5ebec7d5bd14f71427d1e84f3dd0314c0f7b2291e5b200ac8c7c3b92591a4505050565b6000828152600f602090815260408083206001600160a01b038516845290915290205460ff16610a77576114b9816001600160a01b031660146123cd565b6114c48360206123cd565b6040516020016114d5929190612e66565b60408051601f198184030181529082905262461bcd60e51b8252610906916004016129a3565b600061150f6009546001600160a01b031690565b6001600160a01b0316336001600160a01b031614905090565b600980546001600160a01b038381166001600160a01b0319831681179093556040519116919082907f8292fce18fa69edf4db7b94ea2e58241df0ae57f97e0a6c9b29067028bf92d7690600090a35050565b600061158582611a88565b9050836001600160a01b031681600001516001600160a01b0316146115bc5760405162a1148160e81b815260040160405180910390fd5b6000336001600160a01b03861614806115da57506115da853361068f565b806115f55750336115ea846107dc565b6001600160a01b0316145b90508061161557604051632ce44b5f60e11b815260040160405180910390fd5b6001600160a01b03841661163c57604051633a954ecd60e21b815260040160405180910390fd5b6116486000848761141f565b6001600160a01b038581166000908152600560209081526040808320805467ffffffffffffffff1980821667ffffffffffffffff92831660001901831617909255898616808652838620805493841693831660019081018416949094179055898652600490945282852080546001600160e01b031916909417600160a01b4290921691909102178355870180845292208054919390911661171e57600054821461171e578054602086015167ffffffffffffffff16600160a01b026001600160e01b03199091166001600160a01b038a16171781555b50505082846001600160a01b0316866001600160a01b03167fddf252ad1be2c89b69c2b068fc378daa952ba7f163c4a11628f55a4df523b3ef60405160405180910390a45050505050565b6117738282611318565b610a778282612576565b61178782826125e3565b60008281526011602090815260408083206001600160a01b03851680855260028201808552838620805487526001909301855292852080546001600160a01b031916905584529152555050565b60006117df83611a88565b80519091508215611845576000336001600160a01b03831614806118085750611808823361068f565b80611823575033611818866107dc565b6001600160a01b0316145b90508061184357604051632ce44b5f60e11b815260040160405180910390fd5b505b6118516000858361141f565b6001600160a01b038082166000818152600560209081526040808320805470010000000000000000000000000000000060001967ffffffffffffffff80841691909101811667ffffffffffffffff19841681178390048216600190810183169093027fffffffffffffffff0000000000000000ffffffffffffffff0000000000000000909416179290921783558b8652600490945282852080547fffffff00ffffffffffffffffffffffffffffffffffffffffffffffffffffffff42909316600160a01b026001600160e01b03199091169097179690961716600160e01b178555918901808452922080549194909116611980576000548214611980578054602087015167ffffffffffffffff16600160a01b026001600160e01b03199091166001600160a01b038716171781555b5050604051869250600091506001600160a01b038416907fddf252ad1be2c89b69c2b068fc378daa952ba7f163c4a11628f55a4df523b3ef908390a4505060018054810190555050565b612710811115611a0e5760405162461bcd60e51b815260206004820152600f60248201526e45786365656473206d61782062707360881b6044820152606401610906565b600a80546001600160a01b0384167fffffffffffffffffffff000000000000000000000000000000000000000000009091168117600160a01b61ffff851602179091556040518281527f90d7ec04bcb8978719414f82e52e4cb651db41d0e6f8cea6118c2191e6183adb9060200160405180910390a25050565b604080516060810182526000808252602082018190529181019190915281600054811015611b8b57600081815260046020908152604091829020825160608101845290546001600160a01b0381168252600160a01b810467ffffffffffffffff1692820192909252600160e01b90910460ff16151591810182905290611b895780516001600160a01b031615611b1f579392505050565b5060001901600081815260046020908152604091829020825160608101845290546001600160a01b038116808352600160a01b820467ffffffffffffffff1693830193909352600160e01b900460ff1615159281019290925215611b84579392505050565b611b1f565b505b604051636f96cda160e11b815260040160405180910390fd5b600080611bb18486612db8565b600c8054600181019091557fdf6966c971051c3d54ec59162606531493a51404a002842f56009d7e5cf4a8c7018190556000818152600d602090815260409091208551929450849350611c08929091860190612772565b50935093915050565b6000546001600160a01b038416611c3a57604051622e076360e81b815260040160405180910390fd5b82600003611c5b5760405163b562e8dd60e01b815260040160405180910390fd5b6001600160a01b038416600081815260056020908152604080832080546fffffffffffffffffffffffffffffffff19811667ffffffffffffffff8083168b0181169182176801000000000000000067ffffffffffffffff1990941690921783900481168b01811690920217909155858452600490925290912080546001600160e01b0319168317600160a01b42909316929092029190911790558190818501903b15611d84575b60405182906001600160a01b038816906000907fddf252ad1be2c89b69c2b068fc378daa952ba7f163c4a11628f55a4df523b3ef908290a4611d4d6000878480600101955087611fb0565b611d6a576040516368d2bf6b60e11b815260040160405180910390fd5b808210611d02578260005414611d7f57600080fd5b611dc9565b5b6040516001830192906001600160a01b038816906000907fddf252ad1be2c89b69c2b068fc378daa952ba7f163c4a11628f55a4df523b3ef908290a4808210611d85575b506000908155610d119085838684565b600060088054611de890612d0f565b80601f0160208091040260200160405190810160405280929190818152602001828054611e1490612d0f565b8015611e615780601f10611e3657610100808354040283529160200191611e61565b820191906000526020600020905b815481529060010190602001808311611e4457829003601f168201915b50508551939450611e7d93600893506020870192509050612772565b507fc9c7c3fe08b88b4df9d4d47ef47d2c43d55c025a0ba88ca442580ed9e7348a168183604051611eaf929190612ee7565b60405180910390a15050565b612710811115611eff5760405162461bcd60e51b815260206004820152600f60248201526e45786365656473206d61782062707360881b6044820152606401610906565b6040805180820182526001600160a01b0384811680835260208084018681526000898152600b8352869020945185546001600160a01b031916941693909317845591516001909301929092559151838152909185917f7365cf4122f072a3365c20d54eff9b38d73c096c28e1892ec8f5b0e403a0f12d910160405180910390a3505050565b6060611fa98383604051806060016040528060278152602001612fc360279139612645565b9392505050565b604051630a85bd0160e11b81526000906001600160a01b0385169063150b7a0290611fe5903390899088908890600401612f15565b6020604051808303816000875af1925050508015612020575060408051601f3d908101601f1916820190925261201d91810190612f47565b60015b61207e573d80801561204e576040519150601f19603f3d011682016040523d82523d6000602084013e612053565b606091505b508051600003612076576040516368d2bf6b60e11b815260040160405180910390fd5b805181602001fd5b6001600160e01b031916630a85bd0160e11b149050949350505050565b606060006120a8600c5490565b90506000600c8054806020026020016040519081016040528092919081815260200182805480156120f857602002820191906000526020600020905b8154815260200190600101908083116120e4575b5050505050905060005b828110156121fc5781818151811061211c5761211c612d43565b60200260200101518510156121ea57600d600083838151811061214157612141612d43565b60200260200101518152602001908152602001600020805461216290612d0f565b80601f016020809104026020016040519081016040528092919081815260200182805461218e90612d0f565b80156121db5780601f106121b0576101008083540402835291602001916121db565b820191906000526020600020905b8154815290600101906020018083116121be57829003601f168201915b50505050509350505050919050565b6121f5600182612db8565b9050612102565b5060405162461bcd60e51b815260206004820152600f60248201527f496e76616c696420746f6b656e496400000000000000000000000000000000006044820152606401610906565b60608160000361226c5750506040805180820190915260018152600360fc1b602082015290565b8160005b8115612296578061228081612e1e565b915061228f9050600a83612da4565b9150612270565b60008167ffffffffffffffff8111156122b1576122b1612827565b6040519080825280601f01601f1916602001820160405280156122db576020820181803683370190505b5090505b8415610b7a576122f0600183612f64565b91506122fd600a86612f7b565b612308906030612db8565b60f81b81838151811061231d5761231d612d43565b60200101906001600160f81b031916908160001a90535061233f600a86612da4565b94506122df565b6000828152600e60205260409020805461235f90612d0f565b1590506123ae5760405162461bcd60e51b815260206004820152600f60248201527f55524920616c72656164792073657400000000000000000000000000000000006044820152606401610906565b6000828152600e6020908152604090912082516108a192840190612772565b606060006123dc836002612d6f565b6123e7906002612db8565b67ffffffffffffffff8111156123ff576123ff612827565b6040519080825280601f01601f191660200182016040528015612429576020820181803683370190505b509050600360fc1b8160008151811061244457612444612d43565b60200101906001600160f81b031916908160001a905350600f60fb1b8160018151811061247357612473612d43565b60200101906001600160f81b031916908160001a9053506000612497846002612d6f565b6124a2906001612db8565b90505b6001811115612527577f303132333435363738396162636465660000000000000000000000000000000085600f16601081106124e3576124e3612d43565b1a60f81b8282815181106124f9576124f9612d43565b60200101906001600160f81b031916908160001a90535060049490941c9361252081612f8f565b90506124a5565b508315611fa95760405162461bcd60e51b815260206004820181905260248201527f537472696e67733a20686578206c656e67746820696e73756666696369656e746044820152606401610906565b6000828152601160205260408120805491600191906125958385612db8565b9091555050600092835260116020908152604080852083865260018101835281862080546001600160a01b039096166001600160a01b03199096168617905593855260029093019052912055565b6125ed828261147b565b6000828152600f602090815260408083206001600160a01b0385168085529252808320805460ff1916905551339285917ff6391f5c32d9c69d2a47ea670b442974b53935d1edc7fd64eb21e047a839171b9190a45050565b60606001600160a01b0384163b6126c45760405162461bcd60e51b815260206004820152602660248201527f416464726573733a2064656c65676174652063616c6c20746f206e6f6e2d636f60448201527f6e747261637400000000000000000000000000000000000000000000000000006064820152608401610906565b600080856001600160a01b0316856040516126df9190612fa6565b600060405180830381855af49150503d806000811461271a576040519150601f19603f3d011682016040523d82523d6000602084013e61271f565b606091505b509150915061272f828286612739565b9695505050505050565b60608315612748575081611fa9565b8251156127585782518084602001fd5b8160405162461bcd60e51b815260040161090691906129a3565b82805461277e90612d0f565b90600052602060002090601f0160209004810192826127a057600085556127e6565b82601f106127b957805160ff19168380011785556127e6565b828001600101855582156127e6579182015b828111156127e65782518255916020019190600101906127cb565b506127f29291506127f6565b5090565b5b808211156127f257600081556001016127f7565b80356001600160a01b038116811461282257600080fd5b919050565b634e487b7160e01b600052604160045260246000fd5b600082601f83011261284e57600080fd5b813567ffffffffffffffff8082111561286957612869612827565b604051601f8301601f19908116603f0116810190828211818310171561289157612891612827565b816040528381528660208588010111156128aa57600080fd5b836020870160208301376000602085830101528094505050505092915050565b600080604083850312156128dd57600080fd5b6128e68361280b565b9150602083013567ffffffffffffffff81111561290257600080fd5b61290e8582860161283d565b9150509250929050565b6001600160e01b03198116811461091857600080fd5b60006020828403121561294057600080fd5b8135611fa981612918565b60005b8381101561296657818101518382015260200161294e565b83811115610d115750506000910152565b6000815180845261298f81602086016020860161294b565b601f01601f19169290920160200192915050565b602081526000611fa96020830184612977565b6000602082840312156129c857600080fd5b5035919050565b600080604083850312156129e257600080fd5b6129eb8361280b565b946020939093013593505050565b60008060408385031215612a0c57600080fd5b50508035926020909101359150565b600060208284031215612a2d57600080fd5b611fa98261280b565b600080600060608486031215612a4b57600080fd5b612a548461280b565b9250612a626020850161280b565b9150604084013590509250925092565b60008060408385031215612a8557600080fd5b82359150612a956020840161280b565b90509250929050565b60008060008060808587031215612ab457600080fd5b612abd8561280b565b935060208501359250604085013567ffffffffffffffff80821115612ae157600080fd5b612aed8883890161283d565b93506060870135915080821115612b0357600080fd5b50612b108782880161283d565b91505092959194509250565b600060208284031215612b2e57600080fd5b813567ffffffffffffffff811115612b4557600080fd5b610b7a8482850161283d565b600080600060608486031215612b6657600080fd5b83359250612a626020850161280b565b60008060408385031215612b8957600080fd5b612b928361280b565b915060208301358015158114612ba757600080fd5b809150509250929050565b60008060208385031215612bc557600080fd5b823567ffffffffffffffff80821115612bdd57600080fd5b818501915085601f830112612bf157600080fd5b813581811115612c0057600080fd5b8660208260051b8501011115612c1557600080fd5b60209290920196919550909350505050565b6000602080830181845280855180835260408601915060408160051b870101925083870160005b82811015612c7c57603f19888603018452612c6a858351612977565b94509285019290850190600101612c4e565b5092979650505050505050565b60008060008060808587031215612c9f57600080fd5b612ca88561280b565b9350612cb66020860161280b565b925060408501359150606085013567ffffffffffffffff811115612cd957600080fd5b612b108782880161283d565b60008060408385031215612cf857600080fd5b612d018361280b565b9150612a956020840161280b565b600181811c90821680612d2357607f821691505b60208210810361126b57634e487b7160e01b600052602260045260246000fd5b634e487b7160e01b600052603260045260246000fd5b634e487b7160e01b600052601160045260246000fd5b6000816000190483118215151615612d8957612d89612d59565b500290565b634e487b7160e01b600052601260045260246000fd5b600082612db357612db3612d8e565b500490565b60008219821115612dcb57612dcb612d59565b500190565b6000808335601e19843603018112612de757600080fd5b83018035915067ffffffffffffffff821115612e0257600080fd5b602001915036819003821315612e1757600080fd5b9250929050565b600060018201612e3057612e30612d59565b5060010190565b60008351612e4981846020880161294b565b835190830190612e5d81836020880161294b565b01949350505050565b7f5065726d697373696f6e733a206163636f756e74200000000000000000000000815260008351612e9e81601585016020880161294b565b7f206973206d697373696e6720726f6c65200000000000000000000000000000006015918401918201528351612edb81602684016020880161294b565b01602601949350505050565b604081526000612efa6040830185612977565b8281036020840152612f0c8185612977565b95945050505050565b60006001600160a01b0380871683528086166020840152508360408301526080606083015261272f6080830184612977565b600060208284031215612f5957600080fd5b8151611fa981612918565b600082821015612f7657612f76612d59565b500390565b600082612f8a57612f8a612d8e565b500690565b600081612f9e57612f9e612d59565b506000190190565b60008251612fb881846020870161294b565b919091019291505056fe416464726573733a206c6f772d6c6576656c2064656c65676174652063616c6c206661696c6564a2646970667358221220867e0f208e8b3c347eb828d134c309f40dd750e6742893a25af1010effcbc51864736f6c634300080d0033",
      "opcodes": "PUSH1 0x80 PUSH1 0x40 MSTORE CALLVALUE DUP1 ISZERO PUSH3 0x11 JUMPI PUSH1 0x0 DUP1 REVERT JUMPDEST POP PUSH1 0x40 MLOAD PUSH3 0x354C CODESIZE SUB DUP1 PUSH3 0x354C DUP4 CODECOPY DUP2 ADD PUSH1 0x40 DUP2 SWAP1 MSTORE PUSH3 0x34 SWAP2 PUSH3 0x40E JUMP JUMPDEST DUP4 DUP4 DUP4 DUP4 DUP4 DUP4 DUP2 PUSH1 0x2 SWAP1 DUP1 MLOAD SWAP1 PUSH1 0x20 ADD SWAP1 PUSH3 0x52 SWAP3 SWAP2 SWAP1 PUSH3 0x29B JUMP JUMPDEST POP DUP1 MLOAD PUSH3 0x68 SWAP1 PUSH1 0x3 SWAP1 PUSH1 0x20 DUP5 ADD SWAP1 PUSH3 0x29B JUMP JUMPDEST POP POP PUSH1 0x0 DUP1 SSTORE POP PUSH3 0x7A CALLER PUSH3 0xAD JUMP JUMPDEST PUSH3 0x8F DUP3 PUSH1 0x1 PUSH1 0x1 PUSH1 0x80 SHL SUB DUP4 AND PUSH3 0xFF JUMP JUMPDEST POP PUSH3 0xA3 SWAP3 POP PUSH1 0x0 SWAP2 POP CALLER SWAP1 POP PUSH3 0x1AA JUMP JUMPDEST POP POP POP POP PUSH3 0x51D JUMP JUMPDEST PUSH1 0x9 DUP1 SLOAD PUSH1 0x1 PUSH1 0x1 PUSH1 0xA0 SHL SUB DUP4 DUP2 AND PUSH1 0x1 PUSH1 0x1 PUSH1 0xA0 SHL SUB NOT DUP4 AND DUP2 OR SWAP1 SWAP4 SSTORE PUSH1 0x40 MLOAD SWAP2 AND SWAP2 SWAP1 DUP3 SWAP1 PUSH32 0x8292FCE18FA69EDF4DB7B94EA2E58241DF0AE57F97E0A6C9B29067028BF92D76 SWAP1 PUSH1 0x0 SWAP1 LOG3 POP POP JUMP JUMPDEST PUSH2 0x2710 DUP2 GT ISZERO PUSH3 0x148 JUMPI PUSH1 0x40 MLOAD PUSH3 0x461BCD PUSH1 0xE5 SHL DUP2 MSTORE PUSH1 0x20 PUSH1 0x4 DUP3 ADD MSTORE PUSH1 0xF PUSH1 0x24 DUP3 ADD MSTORE PUSH15 0x45786365656473206D617820627073 PUSH1 0x88 SHL PUSH1 0x44 DUP3 ADD MSTORE PUSH1 0x64 ADD PUSH1 0x40 MLOAD DUP1 SWAP2 SUB SWAP1 REVERT JUMPDEST PUSH1 0xA DUP1 SLOAD PUSH1 0x1 PUSH1 0x1 PUSH1 0xA0 SHL SUB DUP5 AND PUSH1 0x1 PUSH1 0x1 PUSH1 0xB0 SHL SUB NOT SWAP1 SWAP2 AND DUP2 OR PUSH1 0x1 PUSH1 0xA0 SHL PUSH2 0xFFFF DUP6 AND MUL OR SWAP1 SWAP2 SSTORE PUSH1 0x40 MLOAD DUP3 DUP2 MSTORE PUSH32 0x90D7EC04BCB8978719414F82E52E4CB651DB41D0E6F8CEA6118C2191E6183ADB SWAP1 PUSH1 0x20 ADD PUSH1 0x40 MLOAD DUP1 SWAP2 SUB SWAP1 LOG2 POP POP JUMP JUMPDEST PUSH3 0x1C1 DUP3 DUP3 PUSH3 0x1D1 PUSH1 0x20 SHL PUSH3 0x1318 OR PUSH1 0x20 SHR JUMP JUMPDEST PUSH3 0x1CD DUP3 DUP3 PUSH3 0x22C JUMP JUMPDEST POP POP JUMP JUMPDEST PUSH1 0x0 DUP3 DUP2 MSTORE PUSH1 0xF PUSH1 0x20 SWAP1 DUP2 MSTORE PUSH1 0x40 DUP1 DUP4 KECCAK256 PUSH1 0x1 PUSH1 0x1 PUSH1 0xA0 SHL SUB DUP6 AND DUP1 DUP6 MSTORE SWAP3 MSTORE DUP1 DUP4 KECCAK256 DUP1 SLOAD PUSH1 0xFF NOT AND PUSH1 0x1 OR SWAP1 SSTORE MLOAD CALLER SWAP3 DUP6 SWAP2 PUSH32 0x2F8788117E7EFF1D82E926EC794901D17C78024A50270940304540A733656F0D SWAP2 SWAP1 LOG4 POP POP JUMP JUMPDEST PUSH1 0x0 DUP3 DUP2 MSTORE PUSH1 0x11 PUSH1 0x20 MSTORE PUSH1 0x40 DUP2 KECCAK256 DUP1 SLOAD SWAP2 PUSH1 0x1 SWAP2 SWAP1 PUSH3 0x24D DUP4 DUP6 PUSH3 0x4BA JUMP JUMPDEST SWAP1 SWAP2 SSTORE POP POP PUSH1 0x0 SWAP3 DUP4 MSTORE PUSH1 0x11 PUSH1 0x20 SWAP1 DUP2 MSTORE PUSH1 0x40 DUP1 DUP6 KECCAK256 DUP4 DUP7 MSTORE PUSH1 0x1 DUP2 ADD DUP4 MSTORE DUP2 DUP7 KECCAK256 DUP1 SLOAD PUSH1 0x1 PUSH1 0x1 PUSH1 0xA0 SHL SUB SWAP1 SWAP7 AND PUSH1 0x1 PUSH1 0x1 PUSH1 0xA0 SHL SUB NOT SWAP1 SWAP7 AND DUP7 OR SWAP1 SSTORE SWAP4 DUP6 MSTORE PUSH1 0x2 SWAP1 SWAP4 ADD SWAP1 MSTORE SWAP2 KECCAK256 SSTORE JUMP JUMPDEST DUP3 DUP1 SLOAD PUSH3 0x2A9 SWAP1 PUSH3 0x4E1 JUMP JUMPDEST SWAP1 PUSH1 0x0 MSTORE PUSH1 0x20 PUSH1 0x0 KECCAK256 SWAP1 PUSH1 0x1F ADD PUSH1 0x20 SWAP1 DIV DUP2 ADD SWAP3 DUP3 PUSH3 0x2CD JUMPI PUSH1 0x0 DUP6 SSTORE PUSH3 0x318 JUMP JUMPDEST DUP3 PUSH1 0x1F LT PUSH3 0x2E8 JUMPI DUP1 MLOAD PUSH1 0xFF NOT AND DUP4 DUP1 ADD OR DUP6 SSTORE PUSH3 0x318 JUMP JUMPDEST DUP3 DUP1 ADD PUSH1 0x1 ADD DUP6 SSTORE DUP3 ISZERO PUSH3 0x318 JUMPI SWAP2 DUP3 ADD JUMPDEST DUP3 DUP2 GT ISZERO PUSH3 0x318 JUMPI DUP3 MLOAD DUP3 SSTORE SWAP2 PUSH1 0x20 ADD SWAP2 SWAP1 PUSH1 0x1 ADD SWAP1 PUSH3 0x2FB JUMP JUMPDEST POP PUSH3 0x326 SWAP3 SWAP2 POP PUSH3 0x32A JUMP JUMPDEST POP SWAP1 JUMP JUMPDEST JUMPDEST DUP1 DUP3 GT ISZERO PUSH3 0x326 JUMPI PUSH1 0x0 DUP2 SSTORE PUSH1 0x1 ADD PUSH3 0x32B JUMP JUMPDEST PUSH4 0x4E487B71 PUSH1 0xE0 SHL PUSH1 0x0 MSTORE PUSH1 0x41 PUSH1 0x4 MSTORE PUSH1 0x24 PUSH1 0x0 REVERT JUMPDEST PUSH1 0x0 DUP3 PUSH1 0x1F DUP4 ADD SLT PUSH3 0x369 JUMPI PUSH1 0x0 DUP1 REVERT JUMPDEST DUP2 MLOAD PUSH1 0x1 PUSH1 0x1 PUSH1 0x40 SHL SUB DUP1 DUP3 GT ISZERO PUSH3 0x386 JUMPI PUSH3 0x386 PUSH3 0x341 JUMP JUMPDEST PUSH1 0x40 MLOAD PUSH1 0x1F DUP4 ADD PUSH1 0x1F NOT SWAP1 DUP2 AND PUSH1 0x3F ADD AND DUP2 ADD SWAP1 DUP3 DUP3 GT DUP2 DUP4 LT OR ISZERO PUSH3 0x3B1 JUMPI PUSH3 0x3B1 PUSH3 0x341 JUMP JUMPDEST DUP2 PUSH1 0x40 MSTORE DUP4 DUP2 MSTORE PUSH1 0x20 SWAP3 POP DUP7 DUP4 DUP6 DUP9 ADD ADD GT ISZERO PUSH3 0x3CE JUMPI PUSH1 0x0 DUP1 REVERT JUMPDEST PUSH1 0x0 SWAP2 POP JUMPDEST DUP4 DUP3 LT ISZERO PUSH3 0x3F2 JUMPI DUP6 DUP3 ADD DUP4 ADD MLOAD DUP2 DUP4 ADD DUP5 ADD MSTORE SWAP1 DUP3 ADD SWAP1 PUSH3 0x3D3 JUMP JUMPDEST DUP4 DUP3 GT ISZERO PUSH3 0x404 JUMPI PUSH1 0x0 DUP4 DUP6 DUP4 ADD ADD MSTORE JUMPDEST SWAP7 SWAP6 POP POP POP POP POP POP JUMP JUMPDEST PUSH1 0x0 DUP1 PUSH1 0x0 DUP1 PUSH1 0x80 DUP6 DUP8 SUB SLT ISZERO PUSH3 0x425 JUMPI PUSH1 0x0 DUP1 REVERT JUMPDEST DUP5 MLOAD PUSH1 0x1 PUSH1 0x1 PUSH1 0x40 SHL SUB DUP1 DUP3 GT ISZERO PUSH3 0x43D JUMPI PUSH1 0x0 DUP1 REVERT JUMPDEST PUSH3 0x44B DUP9 DUP4 DUP10 ADD PUSH3 0x357 JUMP JUMPDEST SWAP6 POP PUSH1 0x20 DUP8 ADD MLOAD SWAP2 POP DUP1 DUP3 GT ISZERO PUSH3 0x462 JUMPI PUSH1 0x0 DUP1 REVERT JUMPDEST POP PUSH3 0x471 DUP8 DUP3 DUP9 ADD PUSH3 0x357 JUMP JUMPDEST PUSH1 0x40 DUP8 ADD MLOAD SWAP1 SWAP5 POP SWAP1 POP PUSH1 0x1 PUSH1 0x1 PUSH1 0xA0 SHL SUB DUP2 AND DUP2 EQ PUSH3 0x491 JUMPI PUSH1 0x0 DUP1 REVERT JUMPDEST PUSH1 0x60 DUP7 ADD MLOAD SWAP1 SWAP3 POP PUSH1 0x1 PUSH1 0x1 PUSH1 0x80 SHL SUB DUP2 AND DUP2 EQ PUSH3 0x4AF JUMPI PUSH1 0x0 DUP1 REVERT JUMPDEST SWAP4 SWAP7 SWAP3 SWAP6 POP SWAP1 SWAP4 POP POP JUMP JUMPDEST PUSH1 0x0 DUP3 NOT DUP3 GT ISZERO PUSH3 0x4DC JUMPI PUSH4 0x4E487B71 PUSH1 0xE0 SHL PUSH1 0x0 MSTORE PUSH1 0x11 PUSH1 0x4 MSTORE PUSH1 0x24 PUSH1 0x0 REVERT JUMPDEST POP ADD SWAP1 JUMP JUMPDEST PUSH1 0x1 DUP2 DUP2 SHR SWAP1 DUP3 AND DUP1 PUSH3 0x4F6 JUMPI PUSH1 0x7F DUP3 AND SWAP2 POP JUMPDEST PUSH1 0x20 DUP3 LT DUP2 SUB PUSH3 0x517 JUMPI PUSH4 0x4E487B71 PUSH1 0xE0 SHL PUSH1 0x0 MSTORE PUSH1 0x22 PUSH1 0x4 MSTORE PUSH1 0x24 PUSH1 0x0 REVERT JUMPDEST POP SWAP2 SWAP1 POP JUMP JUMPDEST PUSH2 0x301F DUP1 PUSH3 0x52D PUSH1 0x0 CODECOPY PUSH1 0x0 RETURN INVALID PUSH1 0x80 PUSH1 0x40 MSTORE CALLVALUE DUP1 ISZERO PUSH2 0x10 JUMPI PUSH1 0x0 DUP1 REVERT JUMPDEST POP PUSH1 0x4 CALLDATASIZE LT PUSH2 0x2DD JUMPI PUSH1 0x0 CALLDATALOAD PUSH1 0xE0 SHR DUP1 PUSH4 0x63B45E2D GT PUSH2 0x186 JUMPI DUP1 PUSH4 0xA217FDDF GT PUSH2 0xE3 JUMPI DUP1 PUSH4 0xB88D4FDE GT PUSH2 0x97 JUMPI DUP1 PUSH4 0xD547741F GT PUSH2 0x71 JUMPI DUP1 PUSH4 0xD547741F EQ PUSH2 0x666 JUMPI DUP1 PUSH4 0xE8A3D485 EQ PUSH2 0x679 JUMPI DUP1 PUSH4 0xE985E9C5 EQ PUSH2 0x681 JUMPI PUSH1 0x0 DUP1 REVERT JUMPDEST DUP1 PUSH4 0xB88D4FDE EQ PUSH2 0x62D JUMPI DUP1 PUSH4 0xC87B56DD EQ PUSH2 0x640 JUMPI DUP1 PUSH4 0xCA15C873 EQ PUSH2 0x653 JUMPI PUSH1 0x0 DUP1 REVERT JUMPDEST DUP1 PUSH4 0xA32FA5B3 GT PUSH2 0xC8 JUMPI DUP1 PUSH4 0xA32FA5B3 EQ PUSH2 0x5DC JUMPI DUP1 PUSH4 0xAC9650D8 EQ PUSH2 0x5EF JUMPI DUP1 PUSH4 0xB24F2D39 EQ PUSH2 0x60F JUMPI PUSH1 0x0 DUP1 REVERT JUMPDEST DUP1 PUSH4 0xA217FDDF EQ PUSH2 0x5C1 JUMPI DUP1 PUSH4 0xA22CB465 EQ PUSH2 0x5C9 JUMPI PUSH1 0x0 DUP1 REVERT JUMPDEST DUP1 PUSH4 0x9010D07C GT PUSH2 0x13A JUMPI DUP1 PUSH4 0x938E3D7B GT PUSH2 0x11F JUMPI DUP1 PUSH4 0x938E3D7B EQ PUSH2 0x593 JUMPI DUP1 PUSH4 0x95D89B41 EQ PUSH2 0x5A6 JUMPI DUP1 PUSH4 0x9BCF7A15 EQ PUSH2 0x5AE JUMPI PUSH1 0x0 DUP1 REVERT JUMPDEST DUP1 PUSH4 0x9010D07C EQ PUSH2 0x547 JUMPI DUP1 PUSH4 0x91D14854 EQ PUSH2 0x55A JUMPI PUSH1 0x0 DUP1 REVERT JUMPDEST DUP1 PUSH4 0x70A08231 GT PUSH2 0x16B JUMPI DUP1 PUSH4 0x70A08231 EQ PUSH2 0x510 JUMPI DUP1 PUSH4 0x754A81D9 EQ PUSH2 0x523 JUMPI DUP1 PUSH4 0x8DA5CB5B EQ PUSH2 0x536 JUMPI PUSH1 0x0 DUP1 REVERT JUMPDEST DUP1 PUSH4 0x63B45E2D EQ PUSH2 0x4E8 JUMPI DUP1 PUSH4 0x6741C81B EQ PUSH2 0x4F0 JUMPI PUSH1 0x0 DUP1 REVERT JUMPDEST DUP1 PUSH4 0x248A9CA3 GT PUSH2 0x23F JUMPI DUP1 PUSH4 0x42842E0E GT PUSH2 0x1F3 JUMPI DUP1 PUSH4 0x4CC157DF GT PUSH2 0x1CD JUMPI DUP1 PUSH4 0x4CC157DF EQ PUSH2 0x48D JUMPI DUP1 PUSH4 0x600DD5EA EQ PUSH2 0x4C2 JUMPI DUP1 PUSH4 0x6352211E EQ PUSH2 0x4D5 JUMPI PUSH1 0x0 DUP1 REVERT JUMPDEST DUP1 PUSH4 0x42842E0E EQ PUSH2 0x454 JUMPI DUP1 PUSH4 0x42966C68 EQ PUSH2 0x467 JUMPI DUP1 PUSH4 0x430C2081 EQ PUSH2 0x47A JUMPI PUSH1 0x0 DUP1 REVERT JUMPDEST DUP1 PUSH4 0x2F2FF15D GT PUSH2 0x224 JUMPI DUP1 PUSH4 0x2F2FF15D EQ PUSH2 0x426 JUMPI DUP1 PUSH4 0x36568ABE EQ PUSH2 0x439 JUMPI DUP1 PUSH4 0x3B1475A7 EQ PUSH2 0x44C JUMPI PUSH1 0x0 DUP1 REVERT JUMPDEST DUP1 PUSH4 0x248A9CA3 EQ PUSH2 0x3D4 JUMPI DUP1 PUSH4 0x2A55205A EQ PUSH2 0x3F4 JUMPI PUSH1 0x0 DUP1 REVERT JUMPDEST DUP1 PUSH4 0xDEE795F GT PUSH2 0x296 JUMPI DUP1 PUSH4 0x18160DDD GT PUSH2 0x27B JUMPI DUP1 PUSH4 0x18160DDD EQ PUSH2 0x398 JUMPI DUP1 PUSH4 0x23B872DD EQ PUSH2 0x3AE JUMPI DUP1 PUSH4 0x2419F51B EQ PUSH2 0x3C1 JUMPI PUSH1 0x0 DUP1 REVERT JUMPDEST DUP1 PUSH4 0xDEE795F EQ PUSH2 0x372 JUMPI DUP1 PUSH4 0x13AF4035 EQ PUSH2 0x385 JUMPI PUSH1 0x0 DUP1 REVERT JUMPDEST DUP1 PUSH4 0x6FDDE03 GT PUSH2 0x2C7 JUMPI DUP1 PUSH4 0x6FDDE03 EQ PUSH2 0x31F JUMPI DUP1 PUSH4 0x81812FC EQ PUSH2 0x334 JUMPI DUP1 PUSH4 0x95EA7B3 EQ PUSH2 0x35F JUMPI PUSH1 0x0 DUP1 REVERT JUMPDEST DUP1 PUSH3 0x75A317 EQ PUSH2 0x2E2 JUMPI DUP1 PUSH4 0x1FFC9A7 EQ PUSH2 0x2F7 JUMPI JUMPDEST PUSH1 0x0 DUP1 REVERT JUMPDEST PUSH2 0x2F5 PUSH2 0x2F0 CALLDATASIZE PUSH1 0x4 PUSH2 0x28CA JUMP JUMPDEST PUSH2 0x6BD JUMP JUMPDEST STOP JUMPDEST PUSH2 0x30A PUSH2 0x305 CALLDATASIZE PUSH1 0x4 PUSH2 0x292E JUMP JUMPDEST PUSH2 0x6DD JUMP JUMPDEST PUSH1 0x40 MLOAD SWAP1 ISZERO ISZERO DUP2 MSTORE PUSH1 0x20 ADD JUMPDEST PUSH1 0x40 MLOAD DUP1 SWAP2 SUB SWAP1 RETURN JUMPDEST PUSH2 0x327 PUSH2 0x74A JUMP JUMPDEST PUSH1 0x40 MLOAD PUSH2 0x316 SWAP2 SWAP1 PUSH2 0x29A3 JUMP JUMPDEST PUSH2 0x347 PUSH2 0x342 CALLDATASIZE PUSH1 0x4 PUSH2 0x29B6 JUMP JUMPDEST PUSH2 0x7DC JUMP JUMPDEST PUSH1 0x40 MLOAD PUSH1 0x1 PUSH1 0x1 PUSH1 0xA0 SHL SUB SWAP1 SWAP2 AND DUP2 MSTORE PUSH1 0x20 ADD PUSH2 0x316 JUMP JUMPDEST PUSH2 0x2F5 PUSH2 0x36D CALLDATASIZE PUSH1 0x4 PUSH2 0x29CF JUMP JUMPDEST PUSH2 0x820 JUMP JUMPDEST PUSH2 0x2F5 PUSH2 0x380 CALLDATASIZE PUSH1 0x4 PUSH2 0x29F9 JUMP JUMPDEST PUSH2 0x8A6 JUMP JUMPDEST PUSH2 0x2F5 PUSH2 0x393 CALLDATASIZE PUSH1 0x4 PUSH2 0x2A1B JUMP JUMPDEST PUSH2 0x8C5 JUMP JUMPDEST PUSH1 0x1 SLOAD PUSH1 0x0 SLOAD SUB JUMPDEST PUSH1 0x40 MLOAD SWAP1 DUP2 MSTORE PUSH1 0x20 ADD PUSH2 0x316 JUMP JUMPDEST PUSH2 0x2F5 PUSH2 0x3BC CALLDATASIZE PUSH1 0x4 PUSH2 0x2A36 JUMP JUMPDEST PUSH2 0x91B JUMP JUMPDEST PUSH2 0x3A0 PUSH2 0x3CF CALLDATASIZE PUSH1 0x4 PUSH2 0x29B6 JUMP JUMPDEST PUSH2 0x926 JUMP JUMPDEST PUSH2 0x3A0 PUSH2 0x3E2 CALLDATASIZE PUSH1 0x4 PUSH2 0x29B6 JUMP JUMPDEST PUSH1 0x0 SWAP1 DUP2 MSTORE PUSH1 0x10 PUSH1 0x20 MSTORE PUSH1 0x40 SWAP1 KECCAK256 SLOAD SWAP1 JUMP JUMPDEST PUSH2 0x407 PUSH2 0x402 CALLDATASIZE PUSH1 0x4 PUSH2 0x29F9 JUMP JUMPDEST PUSH2 0x9A4 JUMP JUMPDEST PUSH1 0x40 DUP1 MLOAD PUSH1 0x1 PUSH1 0x1 PUSH1 0xA0 SHL SUB SWAP1 SWAP4 AND DUP4 MSTORE PUSH1 0x20 DUP4 ADD SWAP2 SWAP1 SWAP2 MSTORE ADD PUSH2 0x316 JUMP JUMPDEST PUSH2 0x2F5 PUSH2 0x434 CALLDATASIZE PUSH1 0x4 PUSH2 0x2A72 JUMP JUMPDEST PUSH2 0x9E1 JUMP JUMPDEST PUSH2 0x2F5 PUSH2 0x447 CALLDATASIZE PUSH1 0x4 PUSH2 0x2A72 JUMP JUMPDEST PUSH2 0xA7B JUMP JUMPDEST PUSH1 0x0 SLOAD PUSH2 0x3A0 JUMP JUMPDEST PUSH2 0x2F5 PUSH2 0x462 CALLDATASIZE PUSH1 0x4 PUSH2 0x2A36 JUMP JUMPDEST PUSH2 0xADD JUMP JUMPDEST PUSH2 0x2F5 PUSH2 0x475 CALLDATASIZE PUSH1 0x4 PUSH2 0x29B6 JUMP JUMPDEST PUSH2 0xAF8 JUMP JUMPDEST PUSH2 0x30A PUSH2 0x488 CALLDATASIZE PUSH1 0x4 PUSH2 0x29CF JUMP JUMPDEST PUSH2 0xB03 JUMP JUMPDEST PUSH2 0x4A0 PUSH2 0x49B CALLDATASIZE PUSH1 0x4 PUSH2 0x29B6 JUMP JUMPDEST PUSH2 0xB82 JUMP JUMPDEST PUSH1 0x40 DUP1 MLOAD PUSH1 0x1 PUSH1 0x1 PUSH1 0xA0 SHL SUB SWAP1 SWAP4 AND DUP4 MSTORE PUSH2 0xFFFF SWAP1 SWAP2 AND PUSH1 0x20 DUP4 ADD MSTORE ADD PUSH2 0x316 JUMP JUMPDEST PUSH2 0x2F5 PUSH2 0x4D0 CALLDATASIZE PUSH1 0x4 PUSH2 0x29CF JUMP JUMPDEST PUSH2 0xBED JUMP JUMPDEST PUSH2 0x347 PUSH2 0x4E3 CALLDATASIZE PUSH1 0x4 PUSH2 0x29B6 JUMP JUMPDEST PUSH2 0xC3C JUMP JUMPDEST PUSH1 0xC SLOAD PUSH2 0x3A0 JUMP JUMPDEST PUSH2 0x3A0 PUSH2 0x4FE CALLDATASIZE PUSH1 0x4 PUSH2 0x29B6 JUMP JUMPDEST PUSH1 0x12 PUSH1 0x20 MSTORE PUSH1 0x0 SWAP1 DUP2 MSTORE PUSH1 0x40 SWAP1 KECCAK256 SLOAD DUP2 JUMP JUMPDEST PUSH2 0x3A0 PUSH2 0x51E CALLDATASIZE PUSH1 0x4 PUSH2 0x2A1B JUMP JUMPDEST PUSH2 0xC4E JUMP JUMPDEST PUSH2 0x2F5 PUSH2 0x531 CALLDATASIZE PUSH1 0x4 PUSH2 0x2A9E JUMP JUMPDEST PUSH2 0xC9D JUMP JUMPDEST PUSH1 0x9 SLOAD PUSH1 0x1 PUSH1 0x1 PUSH1 0xA0 SHL SUB AND PUSH2 0x347 JUMP JUMPDEST PUSH2 0x347 PUSH2 0x555 CALLDATASIZE PUSH1 0x4 PUSH2 0x29F9 JUMP JUMPDEST PUSH2 0xD17 JUMP JUMPDEST PUSH2 0x30A PUSH2 0x568 CALLDATASIZE PUSH1 0x4 PUSH2 0x2A72 JUMP JUMPDEST PUSH1 0x0 SWAP2 DUP3 MSTORE PUSH1 0xF PUSH1 0x20 SWAP1 DUP2 MSTORE PUSH1 0x40 DUP1 DUP5 KECCAK256 PUSH1 0x1 PUSH1 0x1 PUSH1 0xA0 SHL SUB SWAP4 SWAP1 SWAP4 AND DUP5 MSTORE SWAP2 SWAP1 MSTORE SWAP1 KECCAK256 SLOAD PUSH1 0xFF AND SWAP1 JUMP JUMPDEST PUSH2 0x2F5 PUSH2 0x5A1 CALLDATASIZE PUSH1 0x4 PUSH2 0x2B1C JUMP JUMPDEST PUSH2 0xE17 JUMP JUMPDEST PUSH2 0x327 PUSH2 0xE65 JUMP JUMPDEST PUSH2 0x2F5 PUSH2 0x5BC CALLDATASIZE PUSH1 0x4 PUSH2 0x2B51 JUMP JUMPDEST PUSH2 0xE74 JUMP JUMPDEST PUSH2 0x3A0 PUSH1 0x0 DUP2 JUMP JUMPDEST PUSH2 0x2F5 PUSH2 0x5D7 CALLDATASIZE PUSH1 0x4 PUSH2 0x2B76 JUMP JUMPDEST PUSH2 0xEC4 JUMP JUMPDEST PUSH2 0x30A PUSH2 0x5EA CALLDATASIZE PUSH1 0x4 PUSH2 0x2A72 JUMP JUMPDEST PUSH2 0xF59 JUMP JUMPDEST PUSH2 0x602 PUSH2 0x5FD CALLDATASIZE PUSH1 0x4 PUSH2 0x2BB2 JUMP JUMPDEST PUSH2 0xFAF JUMP JUMPDEST PUSH1 0x40 MLOAD PUSH2 0x316 SWAP2 SWAP1 PUSH2 0x2C27 JUMP JUMPDEST PUSH1 0xA SLOAD PUSH1 0x1 PUSH1 0x1 PUSH1 0xA0 SHL SUB DUP2 AND SWAP1 PUSH1 0x1 PUSH1 0xA0 SHL SWAP1 DIV PUSH2 0xFFFF AND PUSH2 0x4A0 JUMP JUMPDEST PUSH2 0x2F5 PUSH2 0x63B CALLDATASIZE PUSH1 0x4 PUSH2 0x2C89 JUMP JUMPDEST PUSH2 0x10A4 JUMP JUMPDEST PUSH2 0x327 PUSH2 0x64E CALLDATASIZE PUSH1 0x4 PUSH2 0x29B6 JUMP JUMPDEST PUSH2 0x10E8 JUMP JUMPDEST PUSH2 0x3A0 PUSH2 0x661 CALLDATASIZE PUSH1 0x4 PUSH2 0x29B6 JUMP JUMPDEST PUSH2 0x11D6 JUMP JUMPDEST PUSH2 0x2F5 PUSH2 0x674 CALLDATASIZE PUSH1 0x4 PUSH2 0x2A72 JUMP JUMPDEST PUSH2 0x1271 JUMP JUMPDEST PUSH2 0x327 PUSH2 0x128A JUMP JUMPDEST PUSH2 0x30A PUSH2 0x68F CALLDATASIZE PUSH1 0x4 PUSH2 0x2CE5 JUMP JUMPDEST PUSH1 0x1 PUSH1 0x1 PUSH1 0xA0 SHL SUB SWAP2 DUP3 AND PUSH1 0x0 SWAP1 DUP2 MSTORE PUSH1 0x7 PUSH1 0x20 SWAP1 DUP2 MSTORE PUSH1 0x40 DUP1 DUP4 KECCAK256 SWAP4 SWAP1 SWAP5 AND DUP3 MSTORE SWAP2 SWAP1 SWAP2 MSTORE KECCAK256 SLOAD PUSH1 0xFF AND SWAP1 JUMP JUMPDEST PUSH1 0x0 SLOAD PUSH2 0x6CA DUP4 DUP4 PUSH2 0x1373 JUMP JUMPDEST PUSH1 0x0 DUP2 DUP2 MSTORE PUSH1 0x12 PUSH1 0x20 MSTORE PUSH1 0x40 SWAP1 KECCAK256 SSTORE POP POP JUMP JUMPDEST PUSH1 0x0 PUSH4 0x1FFC9A7 PUSH1 0xE0 SHL PUSH1 0x1 PUSH1 0x1 PUSH1 0xE0 SHL SUB NOT DUP4 AND EQ DUP1 PUSH2 0x70E JUMPI POP PUSH4 0x80AC58CD PUSH1 0xE0 SHL PUSH1 0x1 PUSH1 0x1 PUSH1 0xE0 SHL SUB NOT DUP4 AND EQ JUMPDEST DUP1 PUSH2 0x729 JUMPI POP PUSH4 0x5B5E139F PUSH1 0xE0 SHL PUSH1 0x1 PUSH1 0x1 PUSH1 0xE0 SHL SUB NOT DUP4 AND EQ JUMPDEST DUP1 PUSH2 0x744 JUMPI POP PUSH1 0x1 PUSH1 0x1 PUSH1 0xE0 SHL SUB NOT DUP3 AND PUSH4 0x152A902D PUSH1 0xE1 SHL EQ JUMPDEST SWAP3 SWAP2 POP POP JUMP JUMPDEST PUSH1 0x60 PUSH1 0x2 DUP1 SLOAD PUSH2 0x759 SWAP1 PUSH2 0x2D0F JUMP JUMPDEST DUP1 PUSH1 0x1F ADD PUSH1 0x20 DUP1 SWAP2 DIV MUL PUSH1 0x20 ADD PUSH1 0x40 MLOAD SWAP1 DUP2 ADD PUSH1 0x40 MSTORE DUP1 SWAP3 SWAP2 SWAP1 DUP2 DUP2 MSTORE PUSH1 0x20 ADD DUP3 DUP1 SLOAD PUSH2 0x785 SWAP1 PUSH2 0x2D0F JUMP JUMPDEST DUP1 ISZERO PUSH2 0x7D2 JUMPI DUP1 PUSH1 0x1F LT PUSH2 0x7A7 JUMPI PUSH2 0x100 DUP1 DUP4 SLOAD DIV MUL DUP4 MSTORE SWAP2 PUSH1 0x20 ADD SWAP2 PUSH2 0x7D2 JUMP JUMPDEST DUP3 ADD SWAP2 SWAP1 PUSH1 0x0 MSTORE PUSH1 0x20 PUSH1 0x0 KECCAK256 SWAP1 JUMPDEST DUP2 SLOAD DUP2 MSTORE SWAP1 PUSH1 0x1 ADD SWAP1 PUSH1 0x20 ADD DUP1 DUP4 GT PUSH2 0x7B5 JUMPI DUP3 SWAP1 SUB PUSH1 0x1F AND DUP3 ADD SWAP2 JUMPDEST POP POP POP POP POP SWAP1 POP SWAP1 JUMP JUMPDEST PUSH1 0x0 PUSH2 0x7E7 DUP3 PUSH2 0x13F4 JUMP JUMPDEST PUSH2 0x804 JUMPI PUSH1 0x40 MLOAD PUSH4 0x33D1C039 PUSH1 0xE2 SHL DUP2 MSTORE PUSH1 0x4 ADD PUSH1 0x40 MLOAD DUP1 SWAP2 SUB SWAP1 REVERT JUMPDEST POP PUSH1 0x0 SWAP1 DUP2 MSTORE PUSH1 0x6 PUSH1 0x20 MSTORE PUSH1 0x40 SWAP1 KECCAK256 SLOAD PUSH1 0x1 PUSH1 0x1 PUSH1 0xA0 SHL SUB AND SWAP1 JUMP JUMPDEST PUSH1 0x0 PUSH2 0x82B DUP3 PUSH2 0xC3C JUMP JUMPDEST SWAP1 POP DUP1 PUSH1 0x1 PUSH1 0x1 PUSH1 0xA0 SHL SUB AND DUP4 PUSH1 0x1 PUSH1 0x1 PUSH1 0xA0 SHL SUB AND SUB PUSH2 0x85F JUMPI PUSH1 0x40 MLOAD PUSH4 0x250FDEE3 PUSH1 0xE2 SHL DUP2 MSTORE PUSH1 0x4 ADD PUSH1 0x40 MLOAD DUP1 SWAP2 SUB SWAP1 REVERT JUMPDEST CALLER PUSH1 0x1 PUSH1 0x1 PUSH1 0xA0 SHL SUB DUP3 AND EQ PUSH2 0x896 JUMPI PUSH2 0x879 DUP2 CALLER PUSH2 0x68F JUMP JUMPDEST PUSH2 0x896 JUMPI PUSH1 0x40 MLOAD PUSH4 0x67D9DCA1 PUSH1 0xE1 SHL DUP2 MSTORE PUSH1 0x4 ADD PUSH1 0x40 MLOAD DUP1 SWAP2 SUB SWAP1 REVERT JUMPDEST PUSH2 0x8A1 DUP4 DUP4 DUP4 PUSH2 0x141F JUMP JUMPDEST POP POP POP JUMP JUMPDEST PUSH1 0x0 PUSH2 0x8B2 DUP2 CALLER PUSH2 0x147B JUMP JUMPDEST POP PUSH1 0x0 SWAP2 DUP3 MSTORE PUSH1 0x12 PUSH1 0x20 MSTORE PUSH1 0x40 SWAP1 SWAP2 KECCAK256 SSTORE JUMP JUMPDEST PUSH2 0x8CD PUSH2 0x14FB JUMP JUMPDEST PUSH2 0x90F JUMPI PUSH1 0x40 MLOAD PUSH3 0x461BCD PUSH1 0xE5 SHL DUP2 MSTORE PUSH1 0x20 PUSH1 0x4 DUP3 ADD MSTORE PUSH1 0xE PUSH1 0x24 DUP3 ADD MSTORE PUSH14 0x139BDD08185D5D1A1BDC9A5E9959 PUSH1 0x92 SHL PUSH1 0x44 DUP3 ADD MSTORE PUSH1 0x64 ADD JUMPDEST PUSH1 0x40 MLOAD DUP1 SWAP2 SUB SWAP1 REVERT JUMPDEST PUSH2 0x918 DUP2 PUSH2 0x1528 JUMP JUMPDEST POP JUMP JUMPDEST PUSH2 0x8A1 DUP4 DUP4 DUP4 PUSH2 0x157A JUMP JUMPDEST PUSH1 0x0 PUSH2 0x931 PUSH1 0xC SLOAD SWAP1 JUMP JUMPDEST DUP3 LT PUSH2 0x97F JUMPI PUSH1 0x40 MLOAD PUSH3 0x461BCD PUSH1 0xE5 SHL DUP2 MSTORE PUSH1 0x20 PUSH1 0x4 DUP3 ADD MSTORE PUSH1 0xD PUSH1 0x24 DUP3 ADD MSTORE PUSH32 0x496E76616C696420696E64657800000000000000000000000000000000000000 PUSH1 0x44 DUP3 ADD MSTORE PUSH1 0x64 ADD PUSH2 0x906 JUMP JUMPDEST PUSH1 0xC DUP3 DUP2 SLOAD DUP2 LT PUSH2 0x992 JUMPI PUSH2 0x992 PUSH2 0x2D43 JUMP JUMPDEST SWAP1 PUSH1 0x0 MSTORE PUSH1 0x20 PUSH1 0x0 KECCAK256 ADD SLOAD SWAP1 POP SWAP2 SWAP1 POP JUMP JUMPDEST PUSH1 0x0 DUP1 PUSH1 0x0 DUP1 PUSH2 0x9B3 DUP7 PUSH2 0xB82 JUMP JUMPDEST SWAP1 SWAP5 POP DUP5 SWAP3 POP PUSH2 0xFFFF AND SWAP1 POP PUSH2 0x2710 PUSH2 0x9CC DUP3 DUP8 PUSH2 0x2D6F JUMP JUMPDEST PUSH2 0x9D6 SWAP2 SWAP1 PUSH2 0x2DA4 JUMP JUMPDEST SWAP3 POP POP POP SWAP3 POP SWAP3 SWAP1 POP JUMP JUMPDEST PUSH1 0x0 DUP3 DUP2 MSTORE PUSH1 0x10 PUSH1 0x20 MSTORE PUSH1 0x40 SWAP1 KECCAK256 SLOAD PUSH2 0x9FA SWAP1 CALLER PUSH2 0x147B JUMP JUMPDEST PUSH1 0x0 DUP3 DUP2 MSTORE PUSH1 0xF PUSH1 0x20 SWAP1 DUP2 MSTORE PUSH1 0x40 DUP1 DUP4 KECCAK256 PUSH1 0x1 PUSH1 0x1 PUSH1 0xA0 SHL SUB DUP6 AND DUP5 MSTORE SWAP1 SWAP2 MSTORE SWAP1 KECCAK256 SLOAD PUSH1 0xFF AND ISZERO PUSH2 0xA6D JUMPI PUSH1 0x40 MLOAD PUSH3 0x461BCD PUSH1 0xE5 SHL DUP2 MSTORE PUSH1 0x20 PUSH1 0x4 DUP3 ADD MSTORE PUSH1 0x1D PUSH1 0x24 DUP3 ADD MSTORE PUSH32 0x43616E206F6E6C79206772616E7420746F206E6F6E20686F6C64657273000000 PUSH1 0x44 DUP3 ADD MSTORE PUSH1 0x64 ADD PUSH2 0x906 JUMP JUMPDEST PUSH2 0xA77 DUP3 DUP3 PUSH2 0x1769 JUMP JUMPDEST POP POP JUMP JUMPDEST CALLER PUSH1 0x1 PUSH1 0x1 PUSH1 0xA0 SHL SUB DUP3 AND EQ PUSH2 0xAD3 JUMPI PUSH1 0x40 MLOAD PUSH3 0x461BCD PUSH1 0xE5 SHL DUP2 MSTORE PUSH1 0x20 PUSH1 0x4 DUP3 ADD MSTORE PUSH1 0x1A PUSH1 0x24 DUP3 ADD MSTORE PUSH32 0x43616E206F6E6C792072656E6F756E636520666F722073656C66000000000000 PUSH1 0x44 DUP3 ADD MSTORE PUSH1 0x64 ADD PUSH2 0x906 JUMP JUMPDEST PUSH2 0xA77 DUP3 DUP3 PUSH2 0x177D JUMP JUMPDEST PUSH2 0x8A1 DUP4 DUP4 DUP4 PUSH1 0x40 MLOAD DUP1 PUSH1 0x20 ADD PUSH1 0x40 MSTORE DUP1 PUSH1 0x0 DUP2 MSTORE POP PUSH2 0x10A4 JUMP JUMPDEST PUSH2 0x918 DUP2 PUSH1 0x1 PUSH2 0x17D4 JUMP JUMPDEST PUSH1 0x0 DUP1 PUSH2 0xB0F DUP4 PUSH2 0xC3C JUMP JUMPDEST SWAP1 POP DUP1 PUSH1 0x1 PUSH1 0x1 PUSH1 0xA0 SHL SUB AND DUP5 PUSH1 0x1 PUSH1 0x1 PUSH1 0xA0 SHL SUB AND EQ DUP1 PUSH2 0xB56 JUMPI POP PUSH1 0x1 PUSH1 0x1 PUSH1 0xA0 SHL SUB DUP1 DUP3 AND PUSH1 0x0 SWAP1 DUP2 MSTORE PUSH1 0x7 PUSH1 0x20 SWAP1 DUP2 MSTORE PUSH1 0x40 DUP1 DUP4 KECCAK256 SWAP4 DUP9 AND DUP4 MSTORE SWAP3 SWAP1 MSTORE KECCAK256 SLOAD PUSH1 0xFF AND JUMPDEST DUP1 PUSH2 0xB7A JUMPI POP DUP4 PUSH1 0x1 PUSH1 0x1 PUSH1 0xA0 SHL SUB AND PUSH2 0xB6F DUP5 PUSH2 0x7DC JUMP JUMPDEST PUSH1 0x1 PUSH1 0x1 PUSH1 0xA0 SHL SUB AND EQ JUMPDEST SWAP5 SWAP4 POP POP POP POP JUMP JUMPDEST PUSH1 0x0 DUP2 DUP2 MSTORE PUSH1 0xB PUSH1 0x20 SWAP1 DUP2 MSTORE PUSH1 0x40 DUP1 DUP4 KECCAK256 DUP2 MLOAD DUP1 DUP4 ADD SWAP1 SWAP3 MSTORE DUP1 SLOAD PUSH1 0x1 PUSH1 0x1 PUSH1 0xA0 SHL SUB AND DUP1 DUP4 MSTORE PUSH1 0x1 SWAP1 SWAP2 ADD SLOAD SWAP3 DUP3 ADD SWAP3 SWAP1 SWAP3 MSTORE DUP3 SWAP2 ISZERO PUSH2 0xBC9 JUMPI DUP1 MLOAD PUSH1 0x20 DUP3 ADD MLOAD PUSH2 0xBE3 JUMP JUMPDEST PUSH1 0xA SLOAD PUSH1 0x1 PUSH1 0x1 PUSH1 0xA0 SHL SUB DUP2 AND SWAP1 PUSH1 0x1 PUSH1 0xA0 SHL SWAP1 DIV PUSH2 0xFFFF AND JUMPDEST SWAP3 POP SWAP3 POP POP SWAP2 POP SWAP2 JUMP JUMPDEST PUSH2 0xBF5 PUSH2 0x14FB JUMP JUMPDEST PUSH2 0xC32 JUMPI PUSH1 0x40 MLOAD PUSH3 0x461BCD PUSH1 0xE5 SHL DUP2 MSTORE PUSH1 0x20 PUSH1 0x4 DUP3 ADD MSTORE PUSH1 0xE PUSH1 0x24 DUP3 ADD MSTORE PUSH14 0x139BDD08185D5D1A1BDC9A5E9959 PUSH1 0x92 SHL PUSH1 0x44 DUP3 ADD MSTORE PUSH1 0x64 ADD PUSH2 0x906 JUMP JUMPDEST PUSH2 0xA77 DUP3 DUP3 PUSH2 0x19CA JUMP JUMPDEST PUSH1 0x0 PUSH2 0xC47 DUP3 PUSH2 0x1A88 JUMP JUMPDEST MLOAD SWAP3 SWAP2 POP POP JUMP JUMPDEST PUSH1 0x0 PUSH1 0x1 PUSH1 0x1 PUSH1 0xA0 SHL SUB DUP3 AND PUSH2 0xC77 JUMPI PUSH1 0x40 MLOAD PUSH4 0x23D3AD81 PUSH1 0xE2 SHL DUP2 MSTORE PUSH1 0x4 ADD PUSH1 0x40 MLOAD DUP1 SWAP2 SUB SWAP1 REVERT JUMPDEST POP PUSH1 0x1 PUSH1 0x1 PUSH1 0xA0 SHL SUB AND PUSH1 0x0 SWAP1 DUP2 MSTORE PUSH1 0x5 PUSH1 0x20 MSTORE PUSH1 0x40 SWAP1 KECCAK256 SLOAD PUSH8 0xFFFFFFFFFFFFFFFF AND SWAP1 JUMP JUMPDEST PUSH2 0xCA5 PUSH2 0x14FB JUMP JUMPDEST PUSH2 0xCF1 JUMPI PUSH1 0x40 MLOAD PUSH3 0x461BCD PUSH1 0xE5 SHL DUP2 MSTORE PUSH1 0x20 PUSH1 0x4 DUP3 ADD MSTORE PUSH1 0x17 PUSH1 0x24 DUP3 ADD MSTORE PUSH32 0x4E6F7420617574686F72697A656420746F206D696E742E000000000000000000 PUSH1 0x44 DUP3 ADD MSTORE PUSH1 0x64 ADD PUSH2 0x906 JUMP JUMPDEST PUSH2 0xD04 PUSH2 0xCFD PUSH1 0x0 SLOAD SWAP1 JUMP JUMPDEST DUP5 DUP5 PUSH2 0x1BA4 JUMP JUMPDEST POP POP PUSH2 0xD11 DUP5 DUP5 DUP4 PUSH2 0x1C11 JUMP JUMPDEST POP POP POP POP JUMP JUMPDEST PUSH1 0x0 DUP3 DUP2 MSTORE PUSH1 0x11 PUSH1 0x20 MSTORE PUSH1 0x40 DUP2 KECCAK256 SLOAD DUP2 DUP1 JUMPDEST DUP3 DUP2 LT ISZERO PUSH2 0xE0E JUMPI PUSH1 0x0 DUP7 DUP2 MSTORE PUSH1 0x11 PUSH1 0x20 SWAP1 DUP2 MSTORE PUSH1 0x40 DUP1 DUP4 KECCAK256 DUP5 DUP5 MSTORE PUSH1 0x1 ADD SWAP1 SWAP2 MSTORE SWAP1 KECCAK256 SLOAD PUSH1 0x1 PUSH1 0x1 PUSH1 0xA0 SHL SUB AND ISZERO PUSH2 0xDA5 JUMPI DUP5 DUP3 SUB PUSH2 0xD93 JUMPI PUSH1 0x0 DUP7 DUP2 MSTORE PUSH1 0x11 PUSH1 0x20 SWAP1 DUP2 MSTORE PUSH1 0x40 DUP1 DUP4 KECCAK256 SWAP4 DUP4 MSTORE PUSH1 0x1 SWAP1 SWAP4 ADD SWAP1 MSTORE KECCAK256 SLOAD PUSH1 0x1 PUSH1 0x1 PUSH1 0xA0 SHL SUB AND SWAP3 POP PUSH2 0x744 SWAP2 POP POP JUMP JUMPDEST PUSH2 0xD9E PUSH1 0x1 DUP4 PUSH2 0x2DB8 JUMP JUMPDEST SWAP2 POP PUSH2 0xDFC JUMP JUMPDEST PUSH1 0x0 DUP7 DUP2 MSTORE PUSH1 0xF PUSH1 0x20 SWAP1 DUP2 MSTORE PUSH1 0x40 DUP1 DUP4 KECCAK256 DUP4 DUP1 MSTORE SWAP1 SWAP2 MSTORE SWAP1 KECCAK256 SLOAD PUSH1 0xFF AND DUP1 ISZERO PUSH2 0xDE9 JUMPI POP PUSH1 0x0 DUP7 DUP2 MSTORE PUSH1 0x11 PUSH1 0x20 SWAP1 DUP2 MSTORE PUSH1 0x40 DUP1 DUP4 KECCAK256 DUP4 DUP1 MSTORE PUSH1 0x2 ADD SWAP1 SWAP2 MSTORE SWAP1 KECCAK256 SLOAD DUP2 EQ JUMPDEST ISZERO PUSH2 0xDFC JUMPI PUSH2 0xDF9 PUSH1 0x1 DUP4 PUSH2 0x2DB8 JUMP JUMPDEST SWAP2 POP JUMPDEST PUSH2 0xE07 PUSH1 0x1 DUP3 PUSH2 0x2DB8 JUMP JUMPDEST SWAP1 POP PUSH2 0xD29 JUMP JUMPDEST POP POP POP SWAP3 SWAP2 POP POP JUMP JUMPDEST PUSH2 0xE1F PUSH2 0x14FB JUMP JUMPDEST PUSH2 0xE5C JUMPI PUSH1 0x40 MLOAD PUSH3 0x461BCD PUSH1 0xE5 SHL DUP2 MSTORE PUSH1 0x20 PUSH1 0x4 DUP3 ADD MSTORE PUSH1 0xE PUSH1 0x24 DUP3 ADD MSTORE PUSH14 0x139BDD08185D5D1A1BDC9A5E9959 PUSH1 0x92 SHL PUSH1 0x44 DUP3 ADD MSTORE PUSH1 0x64 ADD PUSH2 0x906 JUMP JUMPDEST PUSH2 0x918 DUP2 PUSH2 0x1DD9 JUMP JUMPDEST PUSH1 0x60 PUSH1 0x3 DUP1 SLOAD PUSH2 0x759 SWAP1 PUSH2 0x2D0F JUMP JUMPDEST PUSH2 0xE7C PUSH2 0x14FB JUMP JUMPDEST PUSH2 0xEB9 JUMPI PUSH1 0x40 MLOAD PUSH3 0x461BCD PUSH1 0xE5 SHL DUP2 MSTORE PUSH1 0x20 PUSH1 0x4 DUP3 ADD MSTORE PUSH1 0xE PUSH1 0x24 DUP3 ADD MSTORE PUSH14 0x139BDD08185D5D1A1BDC9A5E9959 PUSH1 0x92 SHL PUSH1 0x44 DUP3 ADD MSTORE PUSH1 0x64 ADD PUSH2 0x906 JUMP JUMPDEST PUSH2 0x8A1 DUP4 DUP4 DUP4 PUSH2 0x1EBB JUMP JUMPDEST CALLER PUSH1 0x1 PUSH1 0x1 PUSH1 0xA0 SHL SUB DUP4 AND SUB PUSH2 0xEED JUMPI PUSH1 0x40 MLOAD PUSH4 0xB06307DB PUSH1 0xE0 SHL DUP2 MSTORE PUSH1 0x4 ADD PUSH1 0x40 MLOAD DUP1 SWAP2 SUB SWAP1 REVERT JUMPDEST CALLER PUSH1 0x0 DUP2 DUP2 MSTORE PUSH1 0x7 PUSH1 0x20 SWAP1 DUP2 MSTORE PUSH1 0x40 DUP1 DUP4 KECCAK256 PUSH1 0x1 PUSH1 0x1 PUSH1 0xA0 SHL SUB DUP8 AND DUP1 DUP6 MSTORE SWAP1 DUP4 MSTORE SWAP3 DUP2 SWAP1 KECCAK256 DUP1 SLOAD PUSH1 0xFF NOT AND DUP7 ISZERO ISZERO SWAP1 DUP2 OR SWAP1 SWAP2 SSTORE SWAP1 MLOAD SWAP1 DUP2 MSTORE SWAP2 SWAP3 SWAP2 PUSH32 0x17307EAB39AB6107E8899845AD3D59BD9653F200F220920489CA2B5937696C31 SWAP2 ADD PUSH1 0x40 MLOAD DUP1 SWAP2 SUB SWAP1 LOG3 POP POP JUMP JUMPDEST PUSH1 0x0 DUP3 DUP2 MSTORE PUSH1 0xF PUSH1 0x20 SWAP1 DUP2 MSTORE PUSH1 0x40 DUP1 DUP4 KECCAK256 DUP4 DUP1 MSTORE SWAP1 SWAP2 MSTORE DUP2 KECCAK256 SLOAD PUSH1 0xFF AND PUSH2 0xFA6 JUMPI POP PUSH1 0x0 DUP3 DUP2 MSTORE PUSH1 0xF PUSH1 0x20 SWAP1 DUP2 MSTORE PUSH1 0x40 DUP1 DUP4 KECCAK256 PUSH1 0x1 PUSH1 0x1 PUSH1 0xA0 SHL SUB DUP6 AND DUP5 MSTORE SWAP1 SWAP2 MSTORE SWAP1 KECCAK256 SLOAD PUSH1 0xFF AND PUSH2 0x744 JUMP JUMPDEST POP PUSH1 0x1 SWAP3 SWAP2 POP POP JUMP JUMPDEST PUSH1 0x60 DUP2 PUSH8 0xFFFFFFFFFFFFFFFF DUP2 GT ISZERO PUSH2 0xFCA JUMPI PUSH2 0xFCA PUSH2 0x2827 JUMP JUMPDEST PUSH1 0x40 MLOAD SWAP1 DUP1 DUP3 MSTORE DUP1 PUSH1 0x20 MUL PUSH1 0x20 ADD DUP3 ADD PUSH1 0x40 MSTORE DUP1 ISZERO PUSH2 0xFFD JUMPI DUP2 PUSH1 0x20 ADD JUMPDEST PUSH1 0x60 DUP2 MSTORE PUSH1 0x20 ADD SWAP1 PUSH1 0x1 SWAP1 SUB SWAP1 DUP2 PUSH2 0xFE8 JUMPI SWAP1 POP JUMPDEST POP SWAP1 POP PUSH1 0x0 JUMPDEST DUP3 DUP2 LT ISZERO PUSH2 0x109D JUMPI PUSH2 0x106D ADDRESS DUP6 DUP6 DUP5 DUP2 DUP2 LT PUSH2 0x1021 JUMPI PUSH2 0x1021 PUSH2 0x2D43 JUMP JUMPDEST SWAP1 POP PUSH1 0x20 MUL DUP2 ADD SWAP1 PUSH2 0x1033 SWAP2 SWAP1 PUSH2 0x2DD0 JUMP JUMPDEST DUP1 DUP1 PUSH1 0x1F ADD PUSH1 0x20 DUP1 SWAP2 DIV MUL PUSH1 0x20 ADD PUSH1 0x40 MLOAD SWAP1 DUP2 ADD PUSH1 0x40 MSTORE DUP1 SWAP4 SWAP3 SWAP2 SWAP1 DUP2 DUP2 MSTORE PUSH1 0x20 ADD DUP4 DUP4 DUP1 DUP3 DUP5 CALLDATACOPY PUSH1 0x0 SWAP3 ADD SWAP2 SWAP1 SWAP2 MSTORE POP PUSH2 0x1F84 SWAP3 POP POP POP JUMP JUMPDEST DUP3 DUP3 DUP2 MLOAD DUP2 LT PUSH2 0x107F JUMPI PUSH2 0x107F PUSH2 0x2D43 JUMP JUMPDEST PUSH1 0x20 MUL PUSH1 0x20 ADD ADD DUP2 SWAP1 MSTORE POP DUP1 DUP1 PUSH2 0x1095 SWAP1 PUSH2 0x2E1E JUMP JUMPDEST SWAP2 POP POP PUSH2 0x1003 JUMP JUMPDEST POP SWAP3 SWAP2 POP POP JUMP JUMPDEST PUSH2 0x10AF DUP5 DUP5 DUP5 PUSH2 0x157A JUMP JUMPDEST PUSH1 0x1 PUSH1 0x1 PUSH1 0xA0 SHL SUB DUP4 AND EXTCODESIZE ISZERO PUSH2 0xD11 JUMPI PUSH2 0x10CB DUP5 DUP5 DUP5 DUP5 PUSH2 0x1FB0 JUMP JUMPDEST PUSH2 0xD11 JUMPI PUSH1 0x40 MLOAD PUSH4 0x68D2BF6B PUSH1 0xE1 SHL DUP2 MSTORE PUSH1 0x4 ADD PUSH1 0x40 MLOAD DUP1 SWAP2 SUB SWAP1 REVERT JUMPDEST PUSH1 0x0 DUP2 DUP2 MSTORE PUSH1 0xE PUSH1 0x20 MSTORE PUSH1 0x40 DUP2 KECCAK256 DUP1 SLOAD PUSH1 0x60 SWAP3 SWAP2 SWAP1 PUSH2 0x1106 SWAP1 PUSH2 0x2D0F JUMP JUMPDEST DUP1 PUSH1 0x1F ADD PUSH1 0x20 DUP1 SWAP2 DIV MUL PUSH1 0x20 ADD PUSH1 0x40 MLOAD SWAP1 DUP2 ADD PUSH1 0x40 MSTORE DUP1 SWAP3 SWAP2 SWAP1 DUP2 DUP2 MSTORE PUSH1 0x20 ADD DUP3 DUP1 SLOAD PUSH2 0x1132 SWAP1 PUSH2 0x2D0F JUMP JUMPDEST DUP1 ISZERO PUSH2 0x117F JUMPI DUP1 PUSH1 0x1F LT PUSH2 0x1154 JUMPI PUSH2 0x100 DUP1 DUP4 SLOAD DIV MUL DUP4 MSTORE SWAP2 PUSH1 0x20 ADD SWAP2 PUSH2 0x117F JUMP JUMPDEST DUP3 ADD SWAP2 SWAP1 PUSH1 0x0 MSTORE PUSH1 0x20 PUSH1 0x0 KECCAK256 SWAP1 JUMPDEST DUP2 SLOAD DUP2 MSTORE SWAP1 PUSH1 0x1 ADD SWAP1 PUSH1 0x20 ADD DUP1 DUP4 GT PUSH2 0x1162 JUMPI DUP3 SWAP1 SUB PUSH1 0x1F AND DUP3 ADD SWAP2 JUMPDEST POP POP POP POP POP SWAP1 POP PUSH1 0x0 DUP2 MLOAD GT ISZERO PUSH2 0x1196 JUMPI SWAP3 SWAP2 POP POP JUMP JUMPDEST PUSH1 0x0 PUSH2 0x11A1 DUP5 PUSH2 0x209B JUMP JUMPDEST SWAP1 POP DUP1 PUSH2 0x11AD DUP6 PUSH2 0x2245 JUMP JUMPDEST PUSH1 0x40 MLOAD PUSH1 0x20 ADD PUSH2 0x11BE SWAP3 SWAP2 SWAP1 PUSH2 0x2E37 JUMP JUMPDEST PUSH1 0x40 MLOAD PUSH1 0x20 DUP2 DUP4 SUB SUB DUP2 MSTORE SWAP1 PUSH1 0x40 MSTORE SWAP3 POP POP POP SWAP2 SWAP1 POP JUMP JUMPDEST PUSH1 0x0 DUP2 DUP2 MSTORE PUSH1 0x11 PUSH1 0x20 MSTORE PUSH1 0x40 DUP2 KECCAK256 SLOAD DUP2 JUMPDEST DUP2 DUP2 LT ISZERO PUSH2 0x123A JUMPI PUSH1 0x0 DUP5 DUP2 MSTORE PUSH1 0x11 PUSH1 0x20 SWAP1 DUP2 MSTORE PUSH1 0x40 DUP1 DUP4 KECCAK256 DUP5 DUP5 MSTORE PUSH1 0x1 ADD SWAP1 SWAP2 MSTORE SWAP1 KECCAK256 SLOAD PUSH1 0x1 PUSH1 0x1 PUSH1 0xA0 SHL SUB AND ISZERO PUSH2 0x1228 JUMPI PUSH2 0x1225 PUSH1 0x1 DUP5 PUSH2 0x2DB8 JUMP JUMPDEST SWAP3 POP JUMPDEST PUSH2 0x1233 PUSH1 0x1 DUP3 PUSH2 0x2DB8 JUMP JUMPDEST SWAP1 POP PUSH2 0x11E7 JUMP JUMPDEST POP PUSH1 0x0 DUP4 DUP2 MSTORE PUSH1 0xF PUSH1 0x20 SWAP1 DUP2 MSTORE PUSH1 0x40 DUP1 DUP4 KECCAK256 DUP4 DUP1 MSTORE SWAP1 SWAP2 MSTORE SWAP1 KECCAK256 SLOAD PUSH1 0xFF AND ISZERO PUSH2 0x126B JUMPI PUSH2 0x1268 PUSH1 0x1 DUP4 PUSH2 0x2DB8 JUMP JUMPDEST SWAP2 POP JUMPDEST POP SWAP2 SWAP1 POP JUMP JUMPDEST PUSH1 0x0 DUP3 DUP2 MSTORE PUSH1 0x10 PUSH1 0x20 MSTORE PUSH1 0x40 SWAP1 KECCAK256 SLOAD PUSH2 0xAD3 SWAP1 CALLER PUSH2 0x147B JUMP JUMPDEST PUSH1 0x8 DUP1 SLOAD PUSH2 0x1297 SWAP1 PUSH2 0x2D0F JUMP JUMPDEST DUP1 PUSH1 0x1F ADD PUSH1 0x20 DUP1 SWAP2 DIV MUL PUSH1 0x20 ADD PUSH1 0x40 MLOAD SWAP1 DUP2 ADD PUSH1 0x40 MSTORE DUP1 SWAP3 SWAP2 SWAP1 DUP2 DUP2 MSTORE PUSH1 0x20 ADD DUP3 DUP1 SLOAD PUSH2 0x12C3 SWAP1 PUSH2 0x2D0F JUMP JUMPDEST DUP1 ISZERO PUSH2 0x1310 JUMPI DUP1 PUSH1 0x1F LT PUSH2 0x12E5 JUMPI PUSH2 0x100 DUP1 DUP4 SLOAD DIV MUL DUP4 MSTORE SWAP2 PUSH1 0x20 ADD SWAP2 PUSH2 0x1310 JUMP JUMPDEST DUP3 ADD SWAP2 SWAP1 PUSH1 0x0 MSTORE PUSH1 0x20 PUSH1 0x0 KECCAK256 SWAP1 JUMPDEST DUP2 SLOAD DUP2 MSTORE SWAP1 PUSH1 0x1 ADD SWAP1 PUSH1 0x20 ADD DUP1 DUP4 GT PUSH2 0x12F3 JUMPI DUP3 SWAP1 SUB PUSH1 0x1F AND DUP3 ADD SWAP2 JUMPDEST POP POP POP POP POP DUP2 JUMP JUMPDEST PUSH1 0x0 DUP3 DUP2 MSTORE PUSH1 0xF PUSH1 0x20 SWAP1 DUP2 MSTORE PUSH1 0x40 DUP1 DUP4 KECCAK256 PUSH1 0x1 PUSH1 0x1 PUSH1 0xA0 SHL SUB DUP6 AND DUP1 DUP6 MSTORE SWAP3 MSTORE DUP1 DUP4 KECCAK256 DUP1 SLOAD PUSH1 0xFF NOT AND PUSH1 0x1 OR SWAP1 SSTORE MLOAD CALLER SWAP3 DUP6 SWAP2 PUSH32 0x2F8788117E7EFF1D82E926EC794901D17C78024A50270940304540A733656F0D SWAP2 SWAP1 LOG4 POP POP JUMP JUMPDEST PUSH2 0x137B PUSH2 0x14FB JUMP JUMPDEST PUSH2 0x13C7 JUMPI PUSH1 0x40 MLOAD PUSH3 0x461BCD PUSH1 0xE5 SHL DUP2 MSTORE PUSH1 0x20 PUSH1 0x4 DUP3 ADD MSTORE PUSH1 0x17 PUSH1 0x24 DUP3 ADD MSTORE PUSH32 0x4E6F7420617574686F72697A656420746F206D696E742E000000000000000000 PUSH1 0x44 DUP3 ADD MSTORE PUSH1 0x64 ADD PUSH2 0x906 JUMP JUMPDEST PUSH2 0x13D9 PUSH2 0x13D3 PUSH1 0x0 SLOAD SWAP1 JUMP JUMPDEST DUP3 PUSH2 0x2346 JUMP JUMPDEST PUSH2 0xA77 DUP3 PUSH1 0x1 PUSH1 0x40 MLOAD DUP1 PUSH1 0x20 ADD PUSH1 0x40 MSTORE DUP1 PUSH1 0x0 DUP2 MSTORE POP PUSH2 0x1C11 JUMP JUMPDEST PUSH1 0x0 DUP1 SLOAD DUP3 LT DUP1 ISZERO PUSH2 0x744 JUMPI POP POP PUSH1 0x0 SWAP1 DUP2 MSTORE PUSH1 0x4 PUSH1 0x20 MSTORE PUSH1 0x40 SWAP1 KECCAK256 SLOAD PUSH1 0x1 PUSH1 0xE0 SHL SWAP1 DIV PUSH1 0xFF AND ISZERO SWAP1 JUMP JUMPDEST PUSH1 0x0 DUP3 DUP2 MSTORE PUSH1 0x6 PUSH1 0x20 MSTORE PUSH1 0x40 DUP1 DUP3 KECCAK256 DUP1 SLOAD PUSH1 0x1 PUSH1 0x1 PUSH1 0xA0 SHL SUB NOT AND PUSH1 0x1 PUSH1 0x1 PUSH1 0xA0 SHL SUB DUP8 DUP2 AND SWAP2 DUP3 OR SWAP1 SWAP3 SSTORE SWAP2 MLOAD DUP6 SWAP4 SWAP2 DUP6 AND SWAP2 PUSH32 0x8C5BE1E5EBEC7D5BD14F71427D1E84F3DD0314C0F7B2291E5B200AC8C7C3B925 SWAP2 LOG4 POP POP POP JUMP JUMPDEST PUSH1 0x0 DUP3 DUP2 MSTORE PUSH1 0xF PUSH1 0x20 SWAP1 DUP2 MSTORE PUSH1 0x40 DUP1 DUP4 KECCAK256 PUSH1 0x1 PUSH1 0x1 PUSH1 0xA0 SHL SUB DUP6 AND DUP5 MSTORE SWAP1 SWAP2 MSTORE SWAP1 KECCAK256 SLOAD PUSH1 0xFF AND PUSH2 0xA77 JUMPI PUSH2 0x14B9 DUP2 PUSH1 0x1 PUSH1 0x1 PUSH1 0xA0 SHL SUB AND PUSH1 0x14 PUSH2 0x23CD JUMP JUMPDEST PUSH2 0x14C4 DUP4 PUSH1 0x20 PUSH2 0x23CD JUMP JUMPDEST PUSH1 0x40 MLOAD PUSH1 0x20 ADD PUSH2 0x14D5 SWAP3 SWAP2 SWAP1 PUSH2 0x2E66 JUMP JUMPDEST PUSH1 0x40 DUP1 MLOAD PUSH1 0x1F NOT DUP2 DUP5 SUB ADD DUP2 MSTORE SWAP1 DUP3 SWAP1 MSTORE PUSH3 0x461BCD PUSH1 0xE5 SHL DUP3 MSTORE PUSH2 0x906 SWAP2 PUSH1 0x4 ADD PUSH2 0x29A3 JUMP JUMPDEST PUSH1 0x0 PUSH2 0x150F PUSH1 0x9 SLOAD PUSH1 0x1 PUSH1 0x1 PUSH1 0xA0 SHL SUB AND SWAP1 JUMP JUMPDEST PUSH1 0x1 PUSH1 0x1 PUSH1 0xA0 SHL SUB AND CALLER PUSH1 0x1 PUSH1 0x1 PUSH1 0xA0 SHL SUB AND EQ SWAP1 POP SWAP1 JUMP JUMPDEST PUSH1 0x9 DUP1 SLOAD PUSH1 0x1 PUSH1 0x1 PUSH1 0xA0 SHL SUB DUP4 DUP2 AND PUSH1 0x1 PUSH1 0x1 PUSH1 0xA0 SHL SUB NOT DUP4 AND DUP2 OR SWAP1 SWAP4 SSTORE PUSH1 0x40 MLOAD SWAP2 AND SWAP2 SWAP1 DUP3 SWAP1 PUSH32 0x8292FCE18FA69EDF4DB7B94EA2E58241DF0AE57F97E0A6C9B29067028BF92D76 SWAP1 PUSH1 0x0 SWAP1 LOG3 POP POP JUMP JUMPDEST PUSH1 0x0 PUSH2 0x1585 DUP3 PUSH2 0x1A88 JUMP JUMPDEST SWAP1 POP DUP4 PUSH1 0x1 PUSH1 0x1 PUSH1 0xA0 SHL SUB AND DUP2 PUSH1 0x0 ADD MLOAD PUSH1 0x1 PUSH1 0x1 PUSH1 0xA0 SHL SUB AND EQ PUSH2 0x15BC JUMPI PUSH1 0x40 MLOAD PUSH3 0xA11481 PUSH1 0xE8 SHL DUP2 MSTORE PUSH1 0x4 ADD PUSH1 0x40 MLOAD DUP1 SWAP2 SUB SWAP1 REVERT JUMPDEST PUSH1 0x0 CALLER PUSH1 0x1 PUSH1 0x1 PUSH1 0xA0 SHL SUB DUP7 AND EQ DUP1 PUSH2 0x15DA JUMPI POP PUSH2 0x15DA DUP6 CALLER PUSH2 0x68F JUMP JUMPDEST DUP1 PUSH2 0x15F5 JUMPI POP CALLER PUSH2 0x15EA DUP5 PUSH2 0x7DC JUMP JUMPDEST PUSH1 0x1 PUSH1 0x1 PUSH1 0xA0 SHL SUB AND EQ JUMPDEST SWAP1 POP DUP1 PUSH2 0x1615 JUMPI PUSH1 0x40 MLOAD PUSH4 0x2CE44B5F PUSH1 0xE1 SHL DUP2 MSTORE PUSH1 0x4 ADD PUSH1 0x40 MLOAD DUP1 SWAP2 SUB SWAP1 REVERT JUMPDEST PUSH1 0x1 PUSH1 0x1 PUSH1 0xA0 SHL SUB DUP5 AND PUSH2 0x163C JUMPI PUSH1 0x40 MLOAD PUSH4 0x3A954ECD PUSH1 0xE2 SHL DUP2 MSTORE PUSH1 0x4 ADD PUSH1 0x40 MLOAD DUP1 SWAP2 SUB SWAP1 REVERT JUMPDEST PUSH2 0x1648 PUSH1 0x0 DUP5 DUP8 PUSH2 0x141F JUMP JUMPDEST PUSH1 0x1 PUSH1 0x1 PUSH1 0xA0 SHL SUB DUP6 DUP2 AND PUSH1 0x0 SWAP1 DUP2 MSTORE PUSH1 0x5 PUSH1 0x20 SWAP1 DUP2 MSTORE PUSH1 0x40 DUP1 DUP4 KECCAK256 DUP1 SLOAD PUSH8 0xFFFFFFFFFFFFFFFF NOT DUP1 DUP3 AND PUSH8 0xFFFFFFFFFFFFFFFF SWAP3 DUP4 AND PUSH1 0x0 NOT ADD DUP4 AND OR SWAP1 SWAP3 SSTORE DUP10 DUP7 AND DUP1 DUP7 MSTORE DUP4 DUP7 KECCAK256 DUP1 SLOAD SWAP4 DUP5 AND SWAP4 DUP4 AND PUSH1 0x1 SWAP1 DUP2 ADD DUP5 AND SWAP5 SWAP1 SWAP5 OR SWAP1 SSTORE DUP10 DUP7 MSTORE PUSH1 0x4 SWAP1 SWAP5 MSTORE DUP3 DUP6 KECCAK256 DUP1 SLOAD PUSH1 0x1 PUSH1 0x1 PUSH1 0xE0 SHL SUB NOT AND SWAP1 SWAP5 OR PUSH1 0x1 PUSH1 0xA0 SHL TIMESTAMP SWAP1 SWAP3 AND SWAP2 SWAP1 SWAP2 MUL OR DUP4 SSTORE DUP8 ADD DUP1 DUP5 MSTORE SWAP3 KECCAK256 DUP1 SLOAD SWAP2 SWAP4 SWAP1 SWAP2 AND PUSH2 0x171E JUMPI PUSH1 0x0 SLOAD DUP3 EQ PUSH2 0x171E JUMPI DUP1 SLOAD PUSH1 0x20 DUP7 ADD MLOAD PUSH8 0xFFFFFFFFFFFFFFFF AND PUSH1 0x1 PUSH1 0xA0 SHL MUL PUSH1 0x1 PUSH1 0x1 PUSH1 0xE0 SHL SUB NOT SWAP1 SWAP2 AND PUSH1 0x1 PUSH1 0x1 PUSH1 0xA0 SHL SUB DUP11 AND OR OR DUP2 SSTORE JUMPDEST POP POP POP DUP3 DUP5 PUSH1 0x1 PUSH1 0x1 PUSH1 0xA0 SHL SUB AND DUP7 PUSH1 0x1 PUSH1 0x1 PUSH1 0xA0 SHL SUB AND PUSH32 0xDDF252AD1BE2C89B69C2B068FC378DAA952BA7F163C4A11628F55A4DF523B3EF PUSH1 0x40 MLOAD PUSH1 0x40 MLOAD DUP1 SWAP2 SUB SWAP1 LOG4 POP POP POP POP POP JUMP JUMPDEST PUSH2 0x1773 DUP3 DUP3 PUSH2 0x1318 JUMP JUMPDEST PUSH2 0xA77 DUP3 DUP3 PUSH2 0x2576 JUMP JUMPDEST PUSH2 0x1787 DUP3 DUP3 PUSH2 0x25E3 JUMP JUMPDEST PUSH1 0x0 DUP3 DUP2 MSTORE PUSH1 0x11 PUSH1 0x20 SWAP1 DUP2 MSTORE PUSH1 0x40 DUP1 DUP4 KECCAK256 PUSH1 0x1 PUSH1 0x1 PUSH1 0xA0 SHL SUB DUP6 AND DUP1 DUP6 MSTORE PUSH1 0x2 DUP3 ADD DUP1 DUP6 MSTORE DUP4 DUP7 KECCAK256 DUP1 SLOAD DUP8 MSTORE PUSH1 0x1 SWAP1 SWAP4 ADD DUP6 MSTORE SWAP3 DUP6 KECCAK256 DUP1 SLOAD PUSH1 0x1 PUSH1 0x1 PUSH1 0xA0 SHL SUB NOT AND SWAP1 SSTORE DUP5 MSTORE SWAP2 MSTORE SSTORE POP POP JUMP JUMPDEST PUSH1 0x0 PUSH2 0x17DF DUP4 PUSH2 0x1A88 JUMP JUMPDEST DUP1 MLOAD SWAP1 SWAP2 POP DUP3 ISZERO PUSH2 0x1845 JUMPI PUSH1 0x0 CALLER PUSH1 0x1 PUSH1 0x1 PUSH1 0xA0 SHL SUB DUP4 AND EQ DUP1 PUSH2 0x1808 JUMPI POP PUSH2 0x1808 DUP3 CALLER PUSH2 0x68F JUMP JUMPDEST DUP1 PUSH2 0x1823 JUMPI POP CALLER PUSH2 0x1818 DUP7 PUSH2 0x7DC JUMP JUMPDEST PUSH1 0x1 PUSH1 0x1 PUSH1 0xA0 SHL SUB AND EQ JUMPDEST SWAP1 POP DUP1 PUSH2 0x1843 JUMPI PUSH1 0x40 MLOAD PUSH4 0x2CE44B5F PUSH1 0xE1 SHL DUP2 MSTORE PUSH1 0x4 ADD PUSH1 0x40 MLOAD DUP1 SWAP2 SUB SWAP1 REVERT JUMPDEST POP JUMPDEST PUSH2 0x1851 PUSH1 0x0 DUP6 DUP4 PUSH2 0x141F JUMP JUMPDEST PUSH1 0x1 PUSH1 0x1 PUSH1 0xA0 SHL SUB DUP1 DUP3 AND PUSH1 0x0 DUP2 DUP2 MSTORE PUSH1 0x5 PUSH1 0x20 SWAP1 DUP2 MSTORE PUSH1 0x40 DUP1 DUP4 KECCAK256 DUP1 SLOAD PUSH17 0x100000000000000000000000000000000 PUSH1 0x0 NOT PUSH8 0xFFFFFFFFFFFFFFFF DUP1 DUP5 AND SWAP2 SWAP1 SWAP2 ADD DUP2 AND PUSH8 0xFFFFFFFFFFFFFFFF NOT DUP5 AND DUP2 OR DUP4 SWAP1 DIV DUP3 AND PUSH1 0x1 SWAP1 DUP2 ADD DUP4 AND SWAP1 SWAP4 MUL PUSH32 0xFFFFFFFFFFFFFFFF0000000000000000FFFFFFFFFFFFFFFF0000000000000000 SWAP1 SWAP5 AND OR SWAP3 SWAP1 SWAP3 OR DUP4 SSTORE DUP12 DUP7 MSTORE PUSH1 0x4 SWAP1 SWAP5 MSTORE DUP3 DUP6 KECCAK256 DUP1 SLOAD PUSH32 0xFFFFFF00FFFFFFFFFFFFFFFFFFFFFFFFFFFFFFFFFFFFFFFFFFFFFFFFFFFFFFFF TIMESTAMP SWAP1 SWAP4 AND PUSH1 0x1 PUSH1 0xA0 SHL MUL PUSH1 0x1 PUSH1 0x1 PUSH1 0xE0 SHL SUB NOT SWAP1 SWAP2 AND SWAP1 SWAP8 OR SWAP7 SWAP1 SWAP7 OR AND PUSH1 0x1 PUSH1 0xE0 SHL OR DUP6 SSTORE SWAP2 DUP10 ADD DUP1 DUP5 MSTORE SWAP3 KECCAK256 DUP1 SLOAD SWAP2 SWAP5 SWAP1 SWAP2 AND PUSH2 0x1980 JUMPI PUSH1 0x0 SLOAD DUP3 EQ PUSH2 0x1980 JUMPI DUP1 SLOAD PUSH1 0x20 DUP8 ADD MLOAD PUSH8 0xFFFFFFFFFFFFFFFF AND PUSH1 0x1 PUSH1 0xA0 SHL MUL PUSH1 0x1 PUSH1 0x1 PUSH1 0xE0 SHL SUB NOT SWAP1 SWAP2 AND PUSH1 0x1 PUSH1 0x1 PUSH1 0xA0 SHL SUB DUP8 AND OR OR DUP2 SSTORE JUMPDEST POP POP PUSH1 0x40 MLOAD DUP7 SWAP3 POP PUSH1 0x0 SWAP2 POP PUSH1 0x1 PUSH1 0x1 PUSH1 0xA0 SHL SUB DUP5 AND SWAP1 PUSH32 0xDDF252AD1BE2C89B69C2B068FC378DAA952BA7F163C4A11628F55A4DF523B3EF SWAP1 DUP4 SWAP1 LOG4 POP POP PUSH1 0x1 DUP1 SLOAD DUP2 ADD SWAP1 SSTORE POP POP JUMP JUMPDEST PUSH2 0x2710 DUP2 GT ISZERO PUSH2 0x1A0E JUMPI PUSH1 0x40 MLOAD PUSH3 0x461BCD PUSH1 0xE5 SHL DUP2 MSTORE PUSH1 0x20 PUSH1 0x4 DUP3 ADD MSTORE PUSH1 0xF PUSH1 0x24 DUP3 ADD MSTORE PUSH15 0x45786365656473206D617820627073 PUSH1 0x88 SHL PUSH1 0x44 DUP3 ADD MSTORE PUSH1 0x64 ADD PUSH2 0x906 JUMP JUMPDEST PUSH1 0xA DUP1 SLOAD PUSH1 0x1 PUSH1 0x1 PUSH1 0xA0 SHL SUB DUP5 AND PUSH32 0xFFFFFFFFFFFFFFFFFFFF00000000000000000000000000000000000000000000 SWAP1 SWAP2 AND DUP2 OR PUSH1 0x1 PUSH1 0xA0 SHL PUSH2 0xFFFF DUP6 AND MUL OR SWAP1 SWAP2 SSTORE PUSH1 0x40 MLOAD DUP3 DUP2 MSTORE PUSH32 0x90D7EC04BCB8978719414F82E52E4CB651DB41D0E6F8CEA6118C2191E6183ADB SWAP1 PUSH1 0x20 ADD PUSH1 0x40 MLOAD DUP1 SWAP2 SUB SWAP1 LOG2 POP POP JUMP JUMPDEST PUSH1 0x40 DUP1 MLOAD PUSH1 0x60 DUP2 ADD DUP3 MSTORE PUSH1 0x0 DUP1 DUP3 MSTORE PUSH1 0x20 DUP3 ADD DUP2 SWAP1 MSTORE SWAP2 DUP2 ADD SWAP2 SWAP1 SWAP2 MSTORE DUP2 PUSH1 0x0 SLOAD DUP2 LT ISZERO PUSH2 0x1B8B JUMPI PUSH1 0x0 DUP2 DUP2 MSTORE PUSH1 0x4 PUSH1 0x20 SWAP1 DUP2 MSTORE PUSH1 0x40 SWAP2 DUP3 SWAP1 KECCAK256 DUP3 MLOAD PUSH1 0x60 DUP2 ADD DUP5 MSTORE SWAP1 SLOAD PUSH1 0x1 PUSH1 0x1 PUSH1 0xA0 SHL SUB DUP2 AND DUP3 MSTORE PUSH1 0x1 PUSH1 0xA0 SHL DUP2 DIV PUSH8 0xFFFFFFFFFFFFFFFF AND SWAP3 DUP3 ADD SWAP3 SWAP1 SWAP3 MSTORE PUSH1 0x1 PUSH1 0xE0 SHL SWAP1 SWAP2 DIV PUSH1 0xFF AND ISZERO ISZERO SWAP2 DUP2 ADD DUP3 SWAP1 MSTORE SWAP1 PUSH2 0x1B89 JUMPI DUP1 MLOAD PUSH1 0x1 PUSH1 0x1 PUSH1 0xA0 SHL SUB AND ISZERO PUSH2 0x1B1F JUMPI SWAP4 SWAP3 POP POP POP JUMP JUMPDEST POP PUSH1 0x0 NOT ADD PUSH1 0x0 DUP2 DUP2 MSTORE PUSH1 0x4 PUSH1 0x20 SWAP1 DUP2 MSTORE PUSH1 0x40 SWAP2 DUP3 SWAP1 KECCAK256 DUP3 MLOAD PUSH1 0x60 DUP2 ADD DUP5 MSTORE SWAP1 SLOAD PUSH1 0x1 PUSH1 0x1 PUSH1 0xA0 SHL SUB DUP2 AND DUP1 DUP4 MSTORE PUSH1 0x1 PUSH1 0xA0 SHL DUP3 DIV PUSH8 0xFFFFFFFFFFFFFFFF AND SWAP4 DUP4 ADD SWAP4 SWAP1 SWAP4 MSTORE PUSH1 0x1 PUSH1 0xE0 SHL SWAP1 DIV PUSH1 0xFF AND ISZERO ISZERO SWAP3 DUP2 ADD SWAP3 SWAP1 SWAP3 MSTORE ISZERO PUSH2 0x1B84 JUMPI SWAP4 SWAP3 POP POP POP JUMP JUMPDEST PUSH2 0x1B1F JUMP JUMPDEST POP JUMPDEST PUSH1 0x40 MLOAD PUSH4 0x6F96CDA1 PUSH1 0xE1 SHL DUP2 MSTORE PUSH1 0x4 ADD PUSH1 0x40 MLOAD DUP1 SWAP2 SUB SWAP1 REVERT JUMPDEST PUSH1 0x0 DUP1 PUSH2 0x1BB1 DUP5 DUP7 PUSH2 0x2DB8 JUMP JUMPDEST PUSH1 0xC DUP1 SLOAD PUSH1 0x1 DUP2 ADD SWAP1 SWAP2 SSTORE PUSH32 0xDF6966C971051C3D54EC59162606531493A51404A002842F56009D7E5CF4A8C7 ADD DUP2 SWAP1 SSTORE PUSH1 0x0 DUP2 DUP2 MSTORE PUSH1 0xD PUSH1 0x20 SWAP1 DUP2 MSTORE PUSH1 0x40 SWAP1 SWAP2 KECCAK256 DUP6 MLOAD SWAP3 SWAP5 POP DUP5 SWAP4 POP PUSH2 0x1C08 SWAP3 SWAP1 SWAP2 DUP7 ADD SWAP1 PUSH2 0x2772 JUMP JUMPDEST POP SWAP4 POP SWAP4 SWAP2 POP POP JUMP JUMPDEST PUSH1 0x0 SLOAD PUSH1 0x1 PUSH1 0x1 PUSH1 0xA0 SHL SUB DUP5 AND PUSH2 0x1C3A JUMPI PUSH1 0x40 MLOAD PUSH3 0x2E0763 PUSH1 0xE8 SHL DUP2 MSTORE PUSH1 0x4 ADD PUSH1 0x40 MLOAD DUP1 SWAP2 SUB SWAP1 REVERT JUMPDEST DUP3 PUSH1 0x0 SUB PUSH2 0x1C5B JUMPI PUSH1 0x40 MLOAD PUSH4 0xB562E8DD PUSH1 0xE0 SHL DUP2 MSTORE PUSH1 0x4 ADD PUSH1 0x40 MLOAD DUP1 SWAP2 SUB SWAP1 REVERT JUMPDEST PUSH1 0x1 PUSH1 0x1 PUSH1 0xA0 SHL SUB DUP5 AND PUSH1 0x0 DUP2 DUP2 MSTORE PUSH1 0x5 PUSH1 0x20 SWAP1 DUP2 MSTORE PUSH1 0x40 DUP1 DUP4 KECCAK256 DUP1 SLOAD PUSH16 0xFFFFFFFFFFFFFFFFFFFFFFFFFFFFFFFF NOT DUP2 AND PUSH8 0xFFFFFFFFFFFFFFFF DUP1 DUP4 AND DUP12 ADD DUP2 AND SWAP2 DUP3 OR PUSH9 0x10000000000000000 PUSH8 0xFFFFFFFFFFFFFFFF NOT SWAP1 SWAP5 AND SWAP1 SWAP3 OR DUP4 SWAP1 DIV DUP2 AND DUP12 ADD DUP2 AND SWAP1 SWAP3 MUL OR SWAP1 SWAP2 SSTORE DUP6 DUP5 MSTORE PUSH1 0x4 SWAP1 SWAP3 MSTORE SWAP1 SWAP2 KECCAK256 DUP1 SLOAD PUSH1 0x1 PUSH1 0x1 PUSH1 0xE0 SHL SUB NOT AND DUP4 OR PUSH1 0x1 PUSH1 0xA0 SHL TIMESTAMP SWAP1 SWAP4 AND SWAP3 SWAP1 SWAP3 MUL SWAP2 SWAP1 SWAP2 OR SWAP1 SSTORE DUP2 SWAP1 DUP2 DUP6 ADD SWAP1 EXTCODESIZE ISZERO PUSH2 0x1D84 JUMPI JUMPDEST PUSH1 0x40 MLOAD DUP3 SWAP1 PUSH1 0x1 PUSH1 0x1 PUSH1 0xA0 SHL SUB DUP9 AND SWAP1 PUSH1 0x0 SWAP1 PUSH32 0xDDF252AD1BE2C89B69C2B068FC378DAA952BA7F163C4A11628F55A4DF523B3EF SWAP1 DUP3 SWAP1 LOG4 PUSH2 0x1D4D PUSH1 0x0 DUP8 DUP5 DUP1 PUSH1 0x1 ADD SWAP6 POP DUP8 PUSH2 0x1FB0 JUMP JUMPDEST PUSH2 0x1D6A JUMPI PUSH1 0x40 MLOAD PUSH4 0x68D2BF6B PUSH1 0xE1 SHL DUP2 MSTORE PUSH1 0x4 ADD PUSH1 0x40 MLOAD DUP1 SWAP2 SUB SWAP1 REVERT JUMPDEST DUP1 DUP3 LT PUSH2 0x1D02 JUMPI DUP3 PUSH1 0x0 SLOAD EQ PUSH2 0x1D7F JUMPI PUSH1 0x0 DUP1 REVERT JUMPDEST PUSH2 0x1DC9 JUMP JUMPDEST JUMPDEST PUSH1 0x40 MLOAD PUSH1 0x1 DUP4 ADD SWAP3 SWAP1 PUSH1 0x1 PUSH1 0x1 PUSH1 0xA0 SHL SUB DUP9 AND SWAP1 PUSH1 0x0 SWAP1 PUSH32 0xDDF252AD1BE2C89B69C2B068FC378DAA952BA7F163C4A11628F55A4DF523B3EF SWAP1 DUP3 SWAP1 LOG4 DUP1 DUP3 LT PUSH2 0x1D85 JUMPI JUMPDEST POP PUSH1 0x0 SWAP1 DUP2 SSTORE PUSH2 0xD11 SWAP1 DUP6 DUP4 DUP7 DUP5 JUMP JUMPDEST PUSH1 0x0 PUSH1 0x8 DUP1 SLOAD PUSH2 0x1DE8 SWAP1 PUSH2 0x2D0F JUMP JUMPDEST DUP1 PUSH1 0x1F ADD PUSH1 0x20 DUP1 SWAP2 DIV MUL PUSH1 0x20 ADD PUSH1 0x40 MLOAD SWAP1 DUP2 ADD PUSH1 0x40 MSTORE DUP1 SWAP3 SWAP2 SWAP1 DUP2 DUP2 MSTORE PUSH1 0x20 ADD DUP3 DUP1 SLOAD PUSH2 0x1E14 SWAP1 PUSH2 0x2D0F JUMP JUMPDEST DUP1 ISZERO PUSH2 0x1E61 JUMPI DUP1 PUSH1 0x1F LT PUSH2 0x1E36 JUMPI PUSH2 0x100 DUP1 DUP4 SLOAD DIV MUL DUP4 MSTORE SWAP2 PUSH1 0x20 ADD SWAP2 PUSH2 0x1E61 JUMP JUMPDEST DUP3 ADD SWAP2 SWAP1 PUSH1 0x0 MSTORE PUSH1 0x20 PUSH1 0x0 KECCAK256 SWAP1 JUMPDEST DUP2 SLOAD DUP2 MSTORE SWAP1 PUSH1 0x1 ADD SWAP1 PUSH1 0x20 ADD DUP1 DUP4 GT PUSH2 0x1E44 JUMPI DUP3 SWAP1 SUB PUSH1 0x1F AND DUP3 ADD SWAP2 JUMPDEST POP POP DUP6 MLOAD SWAP4 SWAP5 POP PUSH2 0x1E7D SWAP4 PUSH1 0x8 SWAP4 POP PUSH1 0x20 DUP8 ADD SWAP3 POP SWAP1 POP PUSH2 0x2772 JUMP JUMPDEST POP PUSH32 0xC9C7C3FE08B88B4DF9D4D47EF47D2C43D55C025A0BA88CA442580ED9E7348A16 DUP2 DUP4 PUSH1 0x40 MLOAD PUSH2 0x1EAF SWAP3 SWAP2 SWAP1 PUSH2 0x2EE7 JUMP JUMPDEST PUSH1 0x40 MLOAD DUP1 SWAP2 SUB SWAP1 LOG1 POP POP JUMP JUMPDEST PUSH2 0x2710 DUP2 GT ISZERO PUSH2 0x1EFF JUMPI PUSH1 0x40 MLOAD PUSH3 0x461BCD PUSH1 0xE5 SHL DUP2 MSTORE PUSH1 0x20 PUSH1 0x4 DUP3 ADD MSTORE PUSH1 0xF PUSH1 0x24 DUP3 ADD MSTORE PUSH15 0x45786365656473206D617820627073 PUSH1 0x88 SHL PUSH1 0x44 DUP3 ADD MSTORE PUSH1 0x64 ADD PUSH2 0x906 JUMP JUMPDEST PUSH1 0x40 DUP1 MLOAD DUP1 DUP3 ADD DUP3 MSTORE PUSH1 0x1 PUSH1 0x1 PUSH1 0xA0 SHL SUB DUP5 DUP2 AND DUP1 DUP4 MSTORE PUSH1 0x20 DUP1 DUP5 ADD DUP7 DUP2 MSTORE PUSH1 0x0 DUP10 DUP2 MSTORE PUSH1 0xB DUP4 MSTORE DUP7 SWAP1 KECCAK256 SWAP5 MLOAD DUP6 SLOAD PUSH1 0x1 PUSH1 0x1 PUSH1 0xA0 SHL SUB NOT AND SWAP5 AND SWAP4 SWAP1 SWAP4 OR DUP5 SSTORE SWAP2 MLOAD PUSH1 0x1 SWAP1 SWAP4 ADD SWAP3 SWAP1 SWAP3 SSTORE SWAP2 MLOAD DUP4 DUP2 MSTORE SWAP1 SWAP2 DUP6 SWAP2 PUSH32 0x7365CF4122F072A3365C20D54EFF9B38D73C096C28E1892EC8F5B0E403A0F12D SWAP2 ADD PUSH1 0x40 MLOAD DUP1 SWAP2 SUB SWAP1 LOG3 POP POP POP JUMP JUMPDEST PUSH1 0x60 PUSH2 0x1FA9 DUP4 DUP4 PUSH1 0x40 MLOAD DUP1 PUSH1 0x60 ADD PUSH1 0x40 MSTORE DUP1 PUSH1 0x27 DUP2 MSTORE PUSH1 0x20 ADD PUSH2 0x2FC3 PUSH1 0x27 SWAP2 CODECOPY PUSH2 0x2645 JUMP JUMPDEST SWAP4 SWAP3 POP POP POP JUMP JUMPDEST PUSH1 0x40 MLOAD PUSH4 0xA85BD01 PUSH1 0xE1 SHL DUP2 MSTORE PUSH1 0x0 SWAP1 PUSH1 0x1 PUSH1 0x1 PUSH1 0xA0 SHL SUB DUP6 AND SWAP1 PUSH4 0x150B7A02 SWAP1 PUSH2 0x1FE5 SWAP1 CALLER SWAP1 DUP10 SWAP1 DUP9 SWAP1 DUP9 SWAP1 PUSH1 0x4 ADD PUSH2 0x2F15 JUMP JUMPDEST PUSH1 0x20 PUSH1 0x40 MLOAD DUP1 DUP4 SUB DUP2 PUSH1 0x0 DUP8 GAS CALL SWAP3 POP POP POP DUP1 ISZERO PUSH2 0x2020 JUMPI POP PUSH1 0x40 DUP1 MLOAD PUSH1 0x1F RETURNDATASIZE SWAP1 DUP2 ADD PUSH1 0x1F NOT AND DUP3 ADD SWAP1 SWAP3 MSTORE PUSH2 0x201D SWAP2 DUP2 ADD SWAP1 PUSH2 0x2F47 JUMP JUMPDEST PUSH1 0x1 JUMPDEST PUSH2 0x207E JUMPI RETURNDATASIZE DUP1 DUP1 ISZERO PUSH2 0x204E JUMPI PUSH1 0x40 MLOAD SWAP2 POP PUSH1 0x1F NOT PUSH1 0x3F RETURNDATASIZE ADD AND DUP3 ADD PUSH1 0x40 MSTORE RETURNDATASIZE DUP3 MSTORE RETURNDATASIZE PUSH1 0x0 PUSH1 0x20 DUP5 ADD RETURNDATACOPY PUSH2 0x2053 JUMP JUMPDEST PUSH1 0x60 SWAP2 POP JUMPDEST POP DUP1 MLOAD PUSH1 0x0 SUB PUSH2 0x2076 JUMPI PUSH1 0x40 MLOAD PUSH4 0x68D2BF6B PUSH1 0xE1 SHL DUP2 MSTORE PUSH1 0x4 ADD PUSH1 0x40 MLOAD DUP1 SWAP2 SUB SWAP1 REVERT JUMPDEST DUP1 MLOAD DUP2 PUSH1 0x20 ADD REVERT JUMPDEST PUSH1 0x1 PUSH1 0x1 PUSH1 0xE0 SHL SUB NOT AND PUSH4 0xA85BD01 PUSH1 0xE1 SHL EQ SWAP1 POP SWAP5 SWAP4 POP POP POP POP JUMP JUMPDEST PUSH1 0x60 PUSH1 0x0 PUSH2 0x20A8 PUSH1 0xC SLOAD SWAP1 JUMP JUMPDEST SWAP1 POP PUSH1 0x0 PUSH1 0xC DUP1 SLOAD DUP1 PUSH1 0x20 MUL PUSH1 0x20 ADD PUSH1 0x40 MLOAD SWAP1 DUP2 ADD PUSH1 0x40 MSTORE DUP1 SWAP3 SWAP2 SWAP1 DUP2 DUP2 MSTORE PUSH1 0x20 ADD DUP3 DUP1 SLOAD DUP1 ISZERO PUSH2 0x20F8 JUMPI PUSH1 0x20 MUL DUP3 ADD SWAP2 SWAP1 PUSH1 0x0 MSTORE PUSH1 0x20 PUSH1 0x0 KECCAK256 SWAP1 JUMPDEST DUP2 SLOAD DUP2 MSTORE PUSH1 0x20 ADD SWAP1 PUSH1 0x1 ADD SWAP1 DUP1 DUP4 GT PUSH2 0x20E4 JUMPI JUMPDEST POP POP POP POP POP SWAP1 POP PUSH1 0x0 JUMPDEST DUP3 DUP2 LT ISZERO PUSH2 0x21FC JUMPI DUP2 DUP2 DUP2 MLOAD DUP2 LT PUSH2 0x211C JUMPI PUSH2 0x211C PUSH2 0x2D43 JUMP JUMPDEST PUSH1 0x20 MUL PUSH1 0x20 ADD ADD MLOAD DUP6 LT ISZERO PUSH2 0x21EA JUMPI PUSH1 0xD PUSH1 0x0 DUP4 DUP4 DUP2 MLOAD DUP2 LT PUSH2 0x2141 JUMPI PUSH2 0x2141 PUSH2 0x2D43 JUMP JUMPDEST PUSH1 0x20 MUL PUSH1 0x20 ADD ADD MLOAD DUP2 MSTORE PUSH1 0x20 ADD SWAP1 DUP2 MSTORE PUSH1 0x20 ADD PUSH1 0x0 KECCAK256 DUP1 SLOAD PUSH2 0x2162 SWAP1 PUSH2 0x2D0F JUMP JUMPDEST DUP1 PUSH1 0x1F ADD PUSH1 0x20 DUP1 SWAP2 DIV MUL PUSH1 0x20 ADD PUSH1 0x40 MLOAD SWAP1 DUP2 ADD PUSH1 0x40 MSTORE DUP1 SWAP3 SWAP2 SWAP1 DUP2 DUP2 MSTORE PUSH1 0x20 ADD DUP3 DUP1 SLOAD PUSH2 0x218E SWAP1 PUSH2 0x2D0F JUMP JUMPDEST DUP1 ISZERO PUSH2 0x21DB JUMPI DUP1 PUSH1 0x1F LT PUSH2 0x21B0 JUMPI PUSH2 0x100 DUP1 DUP4 SLOAD DIV MUL DUP4 MSTORE SWAP2 PUSH1 0x20 ADD SWAP2 PUSH2 0x21DB JUMP JUMPDEST DUP3 ADD SWAP2 SWAP1 PUSH1 0x0 MSTORE PUSH1 0x20 PUSH1 0x0 KECCAK256 SWAP1 JUMPDEST DUP2 SLOAD DUP2 MSTORE SWAP1 PUSH1 0x1 ADD SWAP1 PUSH1 0x20 ADD DUP1 DUP4 GT PUSH2 0x21BE JUMPI DUP3 SWAP1 SUB PUSH1 0x1F AND DUP3 ADD SWAP2 JUMPDEST POP POP POP POP POP SWAP4 POP POP POP POP SWAP2 SWAP1 POP JUMP JUMPDEST PUSH2 0x21F5 PUSH1 0x1 DUP3 PUSH2 0x2DB8 JUMP JUMPDEST SWAP1 POP PUSH2 0x2102 JUMP JUMPDEST POP PUSH1 0x40 MLOAD PUSH3 0x461BCD PUSH1 0xE5 SHL DUP2 MSTORE PUSH1 0x20 PUSH1 0x4 DUP3 ADD MSTORE PUSH1 0xF PUSH1 0x24 DUP3 ADD MSTORE PUSH32 0x496E76616C696420746F6B656E49640000000000000000000000000000000000 PUSH1 0x44 DUP3 ADD MSTORE PUSH1 0x64 ADD PUSH2 0x906 JUMP JUMPDEST PUSH1 0x60 DUP2 PUSH1 0x0 SUB PUSH2 0x226C JUMPI POP POP PUSH1 0x40 DUP1 MLOAD DUP1 DUP3 ADD SWAP1 SWAP2 MSTORE PUSH1 0x1 DUP2 MSTORE PUSH1 0x3 PUSH1 0xFC SHL PUSH1 0x20 DUP3 ADD MSTORE SWAP1 JUMP JUMPDEST DUP2 PUSH1 0x0 JUMPDEST DUP2 ISZERO PUSH2 0x2296 JUMPI DUP1 PUSH2 0x2280 DUP2 PUSH2 0x2E1E JUMP JUMPDEST SWAP2 POP PUSH2 0x228F SWAP1 POP PUSH1 0xA DUP4 PUSH2 0x2DA4 JUMP JUMPDEST SWAP2 POP PUSH2 0x2270 JUMP JUMPDEST PUSH1 0x0 DUP2 PUSH8 0xFFFFFFFFFFFFFFFF DUP2 GT ISZERO PUSH2 0x22B1 JUMPI PUSH2 0x22B1 PUSH2 0x2827 JUMP JUMPDEST PUSH1 0x40 MLOAD SWAP1 DUP1 DUP3 MSTORE DUP1 PUSH1 0x1F ADD PUSH1 0x1F NOT AND PUSH1 0x20 ADD DUP3 ADD PUSH1 0x40 MSTORE DUP1 ISZERO PUSH2 0x22DB JUMPI PUSH1 0x20 DUP3 ADD DUP2 DUP1 CALLDATASIZE DUP4 CALLDATACOPY ADD SWAP1 POP JUMPDEST POP SWAP1 POP JUMPDEST DUP5 ISZERO PUSH2 0xB7A JUMPI PUSH2 0x22F0 PUSH1 0x1 DUP4 PUSH2 0x2F64 JUMP JUMPDEST SWAP2 POP PUSH2 0x22FD PUSH1 0xA DUP7 PUSH2 0x2F7B JUMP JUMPDEST PUSH2 0x2308 SWAP1 PUSH1 0x30 PUSH2 0x2DB8 JUMP JUMPDEST PUSH1 0xF8 SHL DUP2 DUP4 DUP2 MLOAD DUP2 LT PUSH2 0x231D JUMPI PUSH2 0x231D PUSH2 0x2D43 JUMP JUMPDEST PUSH1 0x20 ADD ADD SWAP1 PUSH1 0x1 PUSH1 0x1 PUSH1 0xF8 SHL SUB NOT AND SWAP1 DUP2 PUSH1 0x0 BYTE SWAP1 MSTORE8 POP PUSH2 0x233F PUSH1 0xA DUP7 PUSH2 0x2DA4 JUMP JUMPDEST SWAP5 POP PUSH2 0x22DF JUMP JUMPDEST PUSH1 0x0 DUP3 DUP2 MSTORE PUSH1 0xE PUSH1 0x20 MSTORE PUSH1 0x40 SWAP1 KECCAK256 DUP1 SLOAD PUSH2 0x235F SWAP1 PUSH2 0x2D0F JUMP JUMPDEST ISZERO SWAP1 POP PUSH2 0x23AE JUMPI PUSH1 0x40 MLOAD PUSH3 0x461BCD PUSH1 0xE5 SHL DUP2 MSTORE PUSH1 0x20 PUSH1 0x4 DUP3 ADD MSTORE PUSH1 0xF PUSH1 0x24 DUP3 ADD MSTORE PUSH32 0x55524920616C7265616479207365740000000000000000000000000000000000 PUSH1 0x44 DUP3 ADD MSTORE PUSH1 0x64 ADD PUSH2 0x906 JUMP JUMPDEST PUSH1 0x0 DUP3 DUP2 MSTORE PUSH1 0xE PUSH1 0x20 SWAP1 DUP2 MSTORE PUSH1 0x40 SWAP1 SWAP2 KECCAK256 DUP3 MLOAD PUSH2 0x8A1 SWAP3 DUP5 ADD SWAP1 PUSH2 0x2772 JUMP JUMPDEST PUSH1 0x60 PUSH1 0x0 PUSH2 0x23DC DUP4 PUSH1 0x2 PUSH2 0x2D6F JUMP JUMPDEST PUSH2 0x23E7 SWAP1 PUSH1 0x2 PUSH2 0x2DB8 JUMP JUMPDEST PUSH8 0xFFFFFFFFFFFFFFFF DUP2 GT ISZERO PUSH2 0x23FF JUMPI PUSH2 0x23FF PUSH2 0x2827 JUMP JUMPDEST PUSH1 0x40 MLOAD SWAP1 DUP1 DUP3 MSTORE DUP1 PUSH1 0x1F ADD PUSH1 0x1F NOT AND PUSH1 0x20 ADD DUP3 ADD PUSH1 0x40 MSTORE DUP1 ISZERO PUSH2 0x2429 JUMPI PUSH1 0x20 DUP3 ADD DUP2 DUP1 CALLDATASIZE DUP4 CALLDATACOPY ADD SWAP1 POP JUMPDEST POP SWAP1 POP PUSH1 0x3 PUSH1 0xFC SHL DUP2 PUSH1 0x0 DUP2 MLOAD DUP2 LT PUSH2 0x2444 JUMPI PUSH2 0x2444 PUSH2 0x2D43 JUMP JUMPDEST PUSH1 0x20 ADD ADD SWAP1 PUSH1 0x1 PUSH1 0x1 PUSH1 0xF8 SHL SUB NOT AND SWAP1 DUP2 PUSH1 0x0 BYTE SWAP1 MSTORE8 POP PUSH1 0xF PUSH1 0xFB SHL DUP2 PUSH1 0x1 DUP2 MLOAD DUP2 LT PUSH2 0x2473 JUMPI PUSH2 0x2473 PUSH2 0x2D43 JUMP JUMPDEST PUSH1 0x20 ADD ADD SWAP1 PUSH1 0x1 PUSH1 0x1 PUSH1 0xF8 SHL SUB NOT AND SWAP1 DUP2 PUSH1 0x0 BYTE SWAP1 MSTORE8 POP PUSH1 0x0 PUSH2 0x2497 DUP5 PUSH1 0x2 PUSH2 0x2D6F JUMP JUMPDEST PUSH2 0x24A2 SWAP1 PUSH1 0x1 PUSH2 0x2DB8 JUMP JUMPDEST SWAP1 POP JUMPDEST PUSH1 0x1 DUP2 GT ISZERO PUSH2 0x2527 JUMPI PUSH32 0x3031323334353637383961626364656600000000000000000000000000000000 DUP6 PUSH1 0xF AND PUSH1 0x10 DUP2 LT PUSH2 0x24E3 JUMPI PUSH2 0x24E3 PUSH2 0x2D43 JUMP JUMPDEST BYTE PUSH1 0xF8 SHL DUP3 DUP3 DUP2 MLOAD DUP2 LT PUSH2 0x24F9 JUMPI PUSH2 0x24F9 PUSH2 0x2D43 JUMP JUMPDEST PUSH1 0x20 ADD ADD SWAP1 PUSH1 0x1 PUSH1 0x1 PUSH1 0xF8 SHL SUB NOT AND SWAP1 DUP2 PUSH1 0x0 BYTE SWAP1 MSTORE8 POP PUSH1 0x4 SWAP5 SWAP1 SWAP5 SHR SWAP4 PUSH2 0x2520 DUP2 PUSH2 0x2F8F JUMP JUMPDEST SWAP1 POP PUSH2 0x24A5 JUMP JUMPDEST POP DUP4 ISZERO PUSH2 0x1FA9 JUMPI PUSH1 0x40 MLOAD PUSH3 0x461BCD PUSH1 0xE5 SHL DUP2 MSTORE PUSH1 0x20 PUSH1 0x4 DUP3 ADD DUP2 SWAP1 MSTORE PUSH1 0x24 DUP3 ADD MSTORE PUSH32 0x537472696E67733A20686578206C656E67746820696E73756666696369656E74 PUSH1 0x44 DUP3 ADD MSTORE PUSH1 0x64 ADD PUSH2 0x906 JUMP JUMPDEST PUSH1 0x0 DUP3 DUP2 MSTORE PUSH1 0x11 PUSH1 0x20 MSTORE PUSH1 0x40 DUP2 KECCAK256 DUP1 SLOAD SWAP2 PUSH1 0x1 SWAP2 SWAP1 PUSH2 0x2595 DUP4 DUP6 PUSH2 0x2DB8 JUMP JUMPDEST SWAP1 SWAP2 SSTORE POP POP PUSH1 0x0 SWAP3 DUP4 MSTORE PUSH1 0x11 PUSH1 0x20 SWAP1 DUP2 MSTORE PUSH1 0x40 DUP1 DUP6 KECCAK256 DUP4 DUP7 MSTORE PUSH1 0x1 DUP2 ADD DUP4 MSTORE DUP2 DUP7 KECCAK256 DUP1 SLOAD PUSH1 0x1 PUSH1 0x1 PUSH1 0xA0 SHL SUB SWAP1 SWAP7 AND PUSH1 0x1 PUSH1 0x1 PUSH1 0xA0 SHL SUB NOT SWAP1 SWAP7 AND DUP7 OR SWAP1 SSTORE SWAP4 DUP6 MSTORE PUSH1 0x2 SWAP1 SWAP4 ADD SWAP1 MSTORE SWAP2 KECCAK256 SSTORE JUMP JUMPDEST PUSH2 0x25ED DUP3 DUP3 PUSH2 0x147B JUMP JUMPDEST PUSH1 0x0 DUP3 DUP2 MSTORE PUSH1 0xF PUSH1 0x20 SWAP1 DUP2 MSTORE PUSH1 0x40 DUP1 DUP4 KECCAK256 PUSH1 0x1 PUSH1 0x1 PUSH1 0xA0 SHL SUB DUP6 AND DUP1 DUP6 MSTORE SWAP3 MSTORE DUP1 DUP4 KECCAK256 DUP1 SLOAD PUSH1 0xFF NOT AND SWAP1 SSTORE MLOAD CALLER SWAP3 DUP6 SWAP2 PUSH32 0xF6391F5C32D9C69D2A47EA670B442974B53935D1EDC7FD64EB21E047A839171B SWAP2 SWAP1 LOG4 POP POP JUMP JUMPDEST PUSH1 0x60 PUSH1 0x1 PUSH1 0x1 PUSH1 0xA0 SHL SUB DUP5 AND EXTCODESIZE PUSH2 0x26C4 JUMPI PUSH1 0x40 MLOAD PUSH3 0x461BCD PUSH1 0xE5 SHL DUP2 MSTORE PUSH1 0x20 PUSH1 0x4 DUP3 ADD MSTORE PUSH1 0x26 PUSH1 0x24 DUP3 ADD MSTORE PUSH32 0x416464726573733A2064656C65676174652063616C6C20746F206E6F6E2D636F PUSH1 0x44 DUP3 ADD MSTORE PUSH32 0x6E74726163740000000000000000000000000000000000000000000000000000 PUSH1 0x64 DUP3 ADD MSTORE PUSH1 0x84 ADD PUSH2 0x906 JUMP JUMPDEST PUSH1 0x0 DUP1 DUP6 PUSH1 0x1 PUSH1 0x1 PUSH1 0xA0 SHL SUB AND DUP6 PUSH1 0x40 MLOAD PUSH2 0x26DF SWAP2 SWAP1 PUSH2 0x2FA6 JUMP JUMPDEST PUSH1 0x0 PUSH1 0x40 MLOAD DUP1 DUP4 SUB DUP2 DUP6 GAS DELEGATECALL SWAP2 POP POP RETURNDATASIZE DUP1 PUSH1 0x0 DUP2 EQ PUSH2 0x271A JUMPI PUSH1 0x40 MLOAD SWAP2 POP PUSH1 0x1F NOT PUSH1 0x3F RETURNDATASIZE ADD AND DUP3 ADD PUSH1 0x40 MSTORE RETURNDATASIZE DUP3 MSTORE RETURNDATASIZE PUSH1 0x0 PUSH1 0x20 DUP5 ADD RETURNDATACOPY PUSH2 0x271F JUMP JUMPDEST PUSH1 0x60 SWAP2 POP JUMPDEST POP SWAP2 POP SWAP2 POP PUSH2 0x272F DUP3 DUP3 DUP7 PUSH2 0x2739 JUMP JUMPDEST SWAP7 SWAP6 POP POP POP POP POP POP JUMP JUMPDEST PUSH1 0x60 DUP4 ISZERO PUSH2 0x2748 JUMPI POP DUP2 PUSH2 0x1FA9 JUMP JUMPDEST DUP3 MLOAD ISZERO PUSH2 0x2758 JUMPI DUP3 MLOAD DUP1 DUP5 PUSH1 0x20 ADD REVERT JUMPDEST DUP2 PUSH1 0x40 MLOAD PUSH3 0x461BCD PUSH1 0xE5 SHL DUP2 MSTORE PUSH1 0x4 ADD PUSH2 0x906 SWAP2 SWAP1 PUSH2 0x29A3 JUMP JUMPDEST DUP3 DUP1 SLOAD PUSH2 0x277E SWAP1 PUSH2 0x2D0F JUMP JUMPDEST SWAP1 PUSH1 0x0 MSTORE PUSH1 0x20 PUSH1 0x0 KECCAK256 SWAP1 PUSH1 0x1F ADD PUSH1 0x20 SWAP1 DIV DUP2 ADD SWAP3 DUP3 PUSH2 0x27A0 JUMPI PUSH1 0x0 DUP6 SSTORE PUSH2 0x27E6 JUMP JUMPDEST DUP3 PUSH1 0x1F LT PUSH2 0x27B9 JUMPI DUP1 MLOAD PUSH1 0xFF NOT AND DUP4 DUP1 ADD OR DUP6 SSTORE PUSH2 0x27E6 JUMP JUMPDEST DUP3 DUP1 ADD PUSH1 0x1 ADD DUP6 SSTORE DUP3 ISZERO PUSH2 0x27E6 JUMPI SWAP2 DUP3 ADD JUMPDEST DUP3 DUP2 GT ISZERO PUSH2 0x27E6 JUMPI DUP3 MLOAD DUP3 SSTORE SWAP2 PUSH1 0x20 ADD SWAP2 SWAP1 PUSH1 0x1 ADD SWAP1 PUSH2 0x27CB JUMP JUMPDEST POP PUSH2 0x27F2 SWAP3 SWAP2 POP PUSH2 0x27F6 JUMP JUMPDEST POP SWAP1 JUMP JUMPDEST JUMPDEST DUP1 DUP3 GT ISZERO PUSH2 0x27F2 JUMPI PUSH1 0x0 DUP2 SSTORE PUSH1 0x1 ADD PUSH2 0x27F7 JUMP JUMPDEST DUP1 CALLDATALOAD PUSH1 0x1 PUSH1 0x1 PUSH1 0xA0 SHL SUB DUP2 AND DUP2 EQ PUSH2 0x2822 JUMPI PUSH1 0x0 DUP1 REVERT JUMPDEST SWAP2 SWAP1 POP JUMP JUMPDEST PUSH4 0x4E487B71 PUSH1 0xE0 SHL PUSH1 0x0 MSTORE PUSH1 0x41 PUSH1 0x4 MSTORE PUSH1 0x24 PUSH1 0x0 REVERT JUMPDEST PUSH1 0x0 DUP3 PUSH1 0x1F DUP4 ADD SLT PUSH2 0x284E JUMPI PUSH1 0x0 DUP1 REVERT JUMPDEST DUP2 CALLDATALOAD PUSH8 0xFFFFFFFFFFFFFFFF DUP1 DUP3 GT ISZERO PUSH2 0x2869 JUMPI PUSH2 0x2869 PUSH2 0x2827 JUMP JUMPDEST PUSH1 0x40 MLOAD PUSH1 0x1F DUP4 ADD PUSH1 0x1F NOT SWAP1 DUP2 AND PUSH1 0x3F ADD AND DUP2 ADD SWAP1 DUP3 DUP3 GT DUP2 DUP4 LT OR ISZERO PUSH2 0x2891 JUMPI PUSH2 0x2891 PUSH2 0x2827 JUMP JUMPDEST DUP2 PUSH1 0x40 MSTORE DUP4 DUP2 MSTORE DUP7 PUSH1 0x20 DUP6 DUP9 ADD ADD GT ISZERO PUSH2 0x28AA JUMPI PUSH1 0x0 DUP1 REVERT JUMPDEST DUP4 PUSH1 0x20 DUP8 ADD PUSH1 0x20 DUP4 ADD CALLDATACOPY PUSH1 0x0 PUSH1 0x20 DUP6 DUP4 ADD ADD MSTORE DUP1 SWAP5 POP POP POP POP POP SWAP3 SWAP2 POP POP JUMP JUMPDEST PUSH1 0x0 DUP1 PUSH1 0x40 DUP4 DUP6 SUB SLT ISZERO PUSH2 0x28DD JUMPI PUSH1 0x0 DUP1 REVERT JUMPDEST PUSH2 0x28E6 DUP4 PUSH2 0x280B JUMP JUMPDEST SWAP2 POP PUSH1 0x20 DUP4 ADD CALLDATALOAD PUSH8 0xFFFFFFFFFFFFFFFF DUP2 GT ISZERO PUSH2 0x2902 JUMPI PUSH1 0x0 DUP1 REVERT JUMPDEST PUSH2 0x290E DUP6 DUP3 DUP7 ADD PUSH2 0x283D JUMP JUMPDEST SWAP2 POP POP SWAP3 POP SWAP3 SWAP1 POP JUMP JUMPDEST PUSH1 0x1 PUSH1 0x1 PUSH1 0xE0 SHL SUB NOT DUP2 AND DUP2 EQ PUSH2 0x918 JUMPI PUSH1 0x0 DUP1 REVERT JUMPDEST PUSH1 0x0 PUSH1 0x20 DUP3 DUP5 SUB SLT ISZERO PUSH2 0x2940 JUMPI PUSH1 0x0 DUP1 REVERT JUMPDEST DUP2 CALLDATALOAD PUSH2 0x1FA9 DUP2 PUSH2 0x2918 JUMP JUMPDEST PUSH1 0x0 JUMPDEST DUP4 DUP2 LT ISZERO PUSH2 0x2966 JUMPI DUP2 DUP2 ADD MLOAD DUP4 DUP3 ADD MSTORE PUSH1 0x20 ADD PUSH2 0x294E JUMP JUMPDEST DUP4 DUP2 GT ISZERO PUSH2 0xD11 JUMPI POP POP PUSH1 0x0 SWAP2 ADD MSTORE JUMP JUMPDEST PUSH1 0x0 DUP2 MLOAD DUP1 DUP5 MSTORE PUSH2 0x298F DUP2 PUSH1 0x20 DUP7 ADD PUSH1 0x20 DUP7 ADD PUSH2 0x294B JUMP JUMPDEST PUSH1 0x1F ADD PUSH1 0x1F NOT AND SWAP3 SWAP1 SWAP3 ADD PUSH1 0x20 ADD SWAP3 SWAP2 POP POP JUMP JUMPDEST PUSH1 0x20 DUP2 MSTORE PUSH1 0x0 PUSH2 0x1FA9 PUSH1 0x20 DUP4 ADD DUP5 PUSH2 0x2977 JUMP JUMPDEST PUSH1 0x0 PUSH1 0x20 DUP3 DUP5 SUB SLT ISZERO PUSH2 0x29C8 JUMPI PUSH1 0x0 DUP1 REVERT JUMPDEST POP CALLDATALOAD SWAP2 SWAP1 POP JUMP JUMPDEST PUSH1 0x0 DUP1 PUSH1 0x40 DUP4 DUP6 SUB SLT ISZERO PUSH2 0x29E2 JUMPI PUSH1 0x0 DUP1 REVERT JUMPDEST PUSH2 0x29EB DUP4 PUSH2 0x280B JUMP JUMPDEST SWAP5 PUSH1 0x20 SWAP4 SWAP1 SWAP4 ADD CALLDATALOAD SWAP4 POP POP POP JUMP JUMPDEST PUSH1 0x0 DUP1 PUSH1 0x40 DUP4 DUP6 SUB SLT ISZERO PUSH2 0x2A0C JUMPI PUSH1 0x0 DUP1 REVERT JUMPDEST POP POP DUP1 CALLDATALOAD SWAP3 PUSH1 0x20 SWAP1 SWAP2 ADD CALLDATALOAD SWAP2 POP JUMP JUMPDEST PUSH1 0x0 PUSH1 0x20 DUP3 DUP5 SUB SLT ISZERO PUSH2 0x2A2D JUMPI PUSH1 0x0 DUP1 REVERT JUMPDEST PUSH2 0x1FA9 DUP3 PUSH2 0x280B JUMP JUMPDEST PUSH1 0x0 DUP1 PUSH1 0x0 PUSH1 0x60 DUP5 DUP7 SUB SLT ISZERO PUSH2 0x2A4B JUMPI PUSH1 0x0 DUP1 REVERT JUMPDEST PUSH2 0x2A54 DUP5 PUSH2 0x280B JUMP JUMPDEST SWAP3 POP PUSH2 0x2A62 PUSH1 0x20 DUP6 ADD PUSH2 0x280B JUMP JUMPDEST SWAP2 POP PUSH1 0x40 DUP5 ADD CALLDATALOAD SWAP1 POP SWAP3 POP SWAP3 POP SWAP3 JUMP JUMPDEST PUSH1 0x0 DUP1 PUSH1 0x40 DUP4 DUP6 SUB SLT ISZERO PUSH2 0x2A85 JUMPI PUSH1 0x0 DUP1 REVERT JUMPDEST DUP3 CALLDATALOAD SWAP2 POP PUSH2 0x2A95 PUSH1 0x20 DUP5 ADD PUSH2 0x280B JUMP JUMPDEST SWAP1 POP SWAP3 POP SWAP3 SWAP1 POP JUMP JUMPDEST PUSH1 0x0 DUP1 PUSH1 0x0 DUP1 PUSH1 0x80 DUP6 DUP8 SUB SLT ISZERO PUSH2 0x2AB4 JUMPI PUSH1 0x0 DUP1 REVERT JUMPDEST PUSH2 0x2ABD DUP6 PUSH2 0x280B JUMP JUMPDEST SWAP4 POP PUSH1 0x20 DUP6 ADD CALLDATALOAD SWAP3 POP PUSH1 0x40 DUP6 ADD CALLDATALOAD PUSH8 0xFFFFFFFFFFFFFFFF DUP1 DUP3 GT ISZERO PUSH2 0x2AE1 JUMPI PUSH1 0x0 DUP1 REVERT JUMPDEST PUSH2 0x2AED DUP9 DUP4 DUP10 ADD PUSH2 0x283D JUMP JUMPDEST SWAP4 POP PUSH1 0x60 DUP8 ADD CALLDATALOAD SWAP2 POP DUP1 DUP3 GT ISZERO PUSH2 0x2B03 JUMPI PUSH1 0x0 DUP1 REVERT JUMPDEST POP PUSH2 0x2B10 DUP8 DUP3 DUP9 ADD PUSH2 0x283D JUMP JUMPDEST SWAP2 POP POP SWAP3 SWAP6 SWAP2 SWAP5 POP SWAP3 POP JUMP JUMPDEST PUSH1 0x0 PUSH1 0x20 DUP3 DUP5 SUB SLT ISZERO PUSH2 0x2B2E JUMPI PUSH1 0x0 DUP1 REVERT JUMPDEST DUP2 CALLDATALOAD PUSH8 0xFFFFFFFFFFFFFFFF DUP2 GT ISZERO PUSH2 0x2B45 JUMPI PUSH1 0x0 DUP1 REVERT JUMPDEST PUSH2 0xB7A DUP5 DUP3 DUP6 ADD PUSH2 0x283D JUMP JUMPDEST PUSH1 0x0 DUP1 PUSH1 0x0 PUSH1 0x60 DUP5 DUP7 SUB SLT ISZERO PUSH2 0x2B66 JUMPI PUSH1 0x0 DUP1 REVERT JUMPDEST DUP4 CALLDATALOAD SWAP3 POP PUSH2 0x2A62 PUSH1 0x20 DUP6 ADD PUSH2 0x280B JUMP JUMPDEST PUSH1 0x0 DUP1 PUSH1 0x40 DUP4 DUP6 SUB SLT ISZERO PUSH2 0x2B89 JUMPI PUSH1 0x0 DUP1 REVERT JUMPDEST PUSH2 0x2B92 DUP4 PUSH2 0x280B JUMP JUMPDEST SWAP2 POP PUSH1 0x20 DUP4 ADD CALLDATALOAD DUP1 ISZERO ISZERO DUP2 EQ PUSH2 0x2BA7 JUMPI PUSH1 0x0 DUP1 REVERT JUMPDEST DUP1 SWAP2 POP POP SWAP3 POP SWAP3 SWAP1 POP JUMP JUMPDEST PUSH1 0x0 DUP1 PUSH1 0x20 DUP4 DUP6 SUB SLT ISZERO PUSH2 0x2BC5 JUMPI PUSH1 0x0 DUP1 REVERT JUMPDEST DUP3 CALLDATALOAD PUSH8 0xFFFFFFFFFFFFFFFF DUP1 DUP3 GT ISZERO PUSH2 0x2BDD JUMPI PUSH1 0x0 DUP1 REVERT JUMPDEST DUP2 DUP6 ADD SWAP2 POP DUP6 PUSH1 0x1F DUP4 ADD SLT PUSH2 0x2BF1 JUMPI PUSH1 0x0 DUP1 REVERT JUMPDEST DUP2 CALLDATALOAD DUP2 DUP2 GT ISZERO PUSH2 0x2C00 JUMPI PUSH1 0x0 DUP1 REVERT JUMPDEST DUP7 PUSH1 0x20 DUP3 PUSH1 0x5 SHL DUP6 ADD ADD GT ISZERO PUSH2 0x2C15 JUMPI PUSH1 0x0 DUP1 REVERT JUMPDEST PUSH1 0x20 SWAP3 SWAP1 SWAP3 ADD SWAP7 SWAP2 SWAP6 POP SWAP1 SWAP4 POP POP POP POP JUMP JUMPDEST PUSH1 0x0 PUSH1 0x20 DUP1 DUP4 ADD DUP2 DUP5 MSTORE DUP1 DUP6 MLOAD DUP1 DUP4 MSTORE PUSH1 0x40 DUP7 ADD SWAP2 POP PUSH1 0x40 DUP2 PUSH1 0x5 SHL DUP8 ADD ADD SWAP3 POP DUP4 DUP8 ADD PUSH1 0x0 JUMPDEST DUP3 DUP2 LT ISZERO PUSH2 0x2C7C JUMPI PUSH1 0x3F NOT DUP9 DUP7 SUB ADD DUP5 MSTORE PUSH2 0x2C6A DUP6 DUP4 MLOAD PUSH2 0x2977 JUMP JUMPDEST SWAP5 POP SWAP3 DUP6 ADD SWAP3 SWAP1 DUP6 ADD SWAP1 PUSH1 0x1 ADD PUSH2 0x2C4E JUMP JUMPDEST POP SWAP3 SWAP8 SWAP7 POP POP POP POP POP POP POP JUMP JUMPDEST PUSH1 0x0 DUP1 PUSH1 0x0 DUP1 PUSH1 0x80 DUP6 DUP8 SUB SLT ISZERO PUSH2 0x2C9F JUMPI PUSH1 0x0 DUP1 REVERT JUMPDEST PUSH2 0x2CA8 DUP6 PUSH2 0x280B JUMP JUMPDEST SWAP4 POP PUSH2 0x2CB6 PUSH1 0x20 DUP7 ADD PUSH2 0x280B JUMP JUMPDEST SWAP3 POP PUSH1 0x40 DUP6 ADD CALLDATALOAD SWAP2 POP PUSH1 0x60 DUP6 ADD CALLDATALOAD PUSH8 0xFFFFFFFFFFFFFFFF DUP2 GT ISZERO PUSH2 0x2CD9 JUMPI PUSH1 0x0 DUP1 REVERT JUMPDEST PUSH2 0x2B10 DUP8 DUP3 DUP9 ADD PUSH2 0x283D JUMP JUMPDEST PUSH1 0x0 DUP1 PUSH1 0x40 DUP4 DUP6 SUB SLT ISZERO PUSH2 0x2CF8 JUMPI PUSH1 0x0 DUP1 REVERT JUMPDEST PUSH2 0x2D01 DUP4 PUSH2 0x280B JUMP JUMPDEST SWAP2 POP PUSH2 0x2A95 PUSH1 0x20 DUP5 ADD PUSH2 0x280B JUMP JUMPDEST PUSH1 0x1 DUP2 DUP2 SHR SWAP1 DUP3 AND DUP1 PUSH2 0x2D23 JUMPI PUSH1 0x7F DUP3 AND SWAP2 POP JUMPDEST PUSH1 0x20 DUP3 LT DUP2 SUB PUSH2 0x126B JUMPI PUSH4 0x4E487B71 PUSH1 0xE0 SHL PUSH1 0x0 MSTORE PUSH1 0x22 PUSH1 0x4 MSTORE PUSH1 0x24 PUSH1 0x0 REVERT JUMPDEST PUSH4 0x4E487B71 PUSH1 0xE0 SHL PUSH1 0x0 MSTORE PUSH1 0x32 PUSH1 0x4 MSTORE PUSH1 0x24 PUSH1 0x0 REVERT JUMPDEST PUSH4 0x4E487B71 PUSH1 0xE0 SHL PUSH1 0x0 MSTORE PUSH1 0x11 PUSH1 0x4 MSTORE PUSH1 0x24 PUSH1 0x0 REVERT JUMPDEST PUSH1 0x0 DUP2 PUSH1 0x0 NOT DIV DUP4 GT DUP3 ISZERO ISZERO AND ISZERO PUSH2 0x2D89 JUMPI PUSH2 0x2D89 PUSH2 0x2D59 JUMP JUMPDEST POP MUL SWAP1 JUMP JUMPDEST PUSH4 0x4E487B71 PUSH1 0xE0 SHL PUSH1 0x0 MSTORE PUSH1 0x12 PUSH1 0x4 MSTORE PUSH1 0x24 PUSH1 0x0 REVERT JUMPDEST PUSH1 0x0 DUP3 PUSH2 0x2DB3 JUMPI PUSH2 0x2DB3 PUSH2 0x2D8E JUMP JUMPDEST POP DIV SWAP1 JUMP JUMPDEST PUSH1 0x0 DUP3 NOT DUP3 GT ISZERO PUSH2 0x2DCB JUMPI PUSH2 0x2DCB PUSH2 0x2D59 JUMP JUMPDEST POP ADD SWAP1 JUMP JUMPDEST PUSH1 0x0 DUP1 DUP4 CALLDATALOAD PUSH1 0x1E NOT DUP5 CALLDATASIZE SUB ADD DUP2 SLT PUSH2 0x2DE7 JUMPI PUSH1 0x0 DUP1 REVERT JUMPDEST DUP4 ADD DUP1 CALLDATALOAD SWAP2 POP PUSH8 0xFFFFFFFFFFFFFFFF DUP3 GT ISZERO PUSH2 0x2E02 JUMPI PUSH1 0x0 DUP1 REVERT JUMPDEST PUSH1 0x20 ADD SWAP2 POP CALLDATASIZE DUP2 SWAP1 SUB DUP3 SGT ISZERO PUSH2 0x2E17 JUMPI PUSH1 0x0 DUP1 REVERT JUMPDEST SWAP3 POP SWAP3 SWAP1 POP JUMP JUMPDEST PUSH1 0x0 PUSH1 0x1 DUP3 ADD PUSH2 0x2E30 JUMPI PUSH2 0x2E30 PUSH2 0x2D59 JUMP JUMPDEST POP PUSH1 0x1 ADD SWAP1 JUMP JUMPDEST PUSH1 0x0 DUP4 MLOAD PUSH2 0x2E49 DUP2 DUP5 PUSH1 0x20 DUP9 ADD PUSH2 0x294B JUMP JUMPDEST DUP4 MLOAD SWAP1 DUP4 ADD SWAP1 PUSH2 0x2E5D DUP2 DUP4 PUSH1 0x20 DUP9 ADD PUSH2 0x294B JUMP JUMPDEST ADD SWAP5 SWAP4 POP POP POP POP JUMP JUMPDEST PUSH32 0x5065726D697373696F6E733A206163636F756E74200000000000000000000000 DUP2 MSTORE PUSH1 0x0 DUP4 MLOAD PUSH2 0x2E9E DUP2 PUSH1 0x15 DUP6 ADD PUSH1 0x20 DUP9 ADD PUSH2 0x294B JUMP JUMPDEST PUSH32 0x206973206D697373696E6720726F6C6520000000000000000000000000000000 PUSH1 0x15 SWAP2 DUP5 ADD SWAP2 DUP3 ADD MSTORE DUP4 MLOAD PUSH2 0x2EDB DUP2 PUSH1 0x26 DUP5 ADD PUSH1 0x20 DUP9 ADD PUSH2 0x294B JUMP JUMPDEST ADD PUSH1 0x26 ADD SWAP5 SWAP4 POP POP POP POP JUMP JUMPDEST PUSH1 0x40 DUP2 MSTORE PUSH1 0x0 PUSH2 0x2EFA PUSH1 0x40 DUP4 ADD DUP6 PUSH2 0x2977 JUMP JUMPDEST DUP3 DUP2 SUB PUSH1 0x20 DUP5 ADD MSTORE PUSH2 0x2F0C DUP2 DUP6 PUSH2 0x2977 JUMP JUMPDEST SWAP6 SWAP5 POP POP POP POP POP JUMP JUMPDEST PUSH1 0x0 PUSH1 0x1 PUSH1 0x1 PUSH1 0xA0 SHL SUB DUP1 DUP8 AND DUP4 MSTORE DUP1 DUP7 AND PUSH1 0x20 DUP5 ADD MSTORE POP DUP4 PUSH1 0x40 DUP4 ADD MSTORE PUSH1 0x80 PUSH1 0x60 DUP4 ADD MSTORE PUSH2 0x272F PUSH1 0x80 DUP4 ADD DUP5 PUSH2 0x2977 JUMP JUMPDEST PUSH1 0x0 PUSH1 0x20 DUP3 DUP5 SUB SLT ISZERO PUSH2 0x2F59 JUMPI PUSH1 0x0 DUP1 REVERT JUMPDEST DUP2 MLOAD PUSH2 0x1FA9 DUP2 PUSH2 0x2918 JUMP JUMPDEST PUSH1 0x0 DUP3 DUP3 LT ISZERO PUSH2 0x2F76 JUMPI PUSH2 0x2F76 PUSH2 0x2D59 JUMP JUMPDEST POP SUB SWAP1 JUMP JUMPDEST PUSH1 0x0 DUP3 PUSH2 0x2F8A JUMPI PUSH2 0x2F8A PUSH2 0x2D8E JUMP JUMPDEST POP MOD SWAP1 JUMP JUMPDEST PUSH1 0x0 DUP2 PUSH2 0x2F9E JUMPI PUSH2 0x2F9E PUSH2 0x2D59 JUMP JUMPDEST POP PUSH1 0x0 NOT ADD SWAP1 JUMP JUMPDEST PUSH1 0x0 DUP3 MLOAD PUSH2 0x2FB8 DUP2 DUP5 PUSH1 0x20 DUP8 ADD PUSH2 0x294B JUMP JUMPDEST SWAP2 SWAP1 SWAP2 ADD SWAP3 SWAP2 POP POP JUMP INVALID COINBASE PUSH5 0x6472657373 GASPRICE KECCAK256 PUSH13 0x6F772D6C6576656C2064656C65 PUSH8 0x6174652063616C6C KECCAK256 PUSH7 0x61696C6564A264 PUSH10 0x70667358221220867E0F KECCAK256 DUP15 DUP12 EXTCODECOPY CALLVALUE PUSH31 0xB828D134C309F40DD750E6742893A25AF1010EFFCBC51864736F6C63430008 0xD STOP CALLER "
    },
    "gasEstimates": {
      "creation": {
        "codeDepositCost": "2463800",
        "executionCost": "infinite",
        "totalCost": "infinite"
      },
      "external": {
        "DEFAULT_ADMIN_ROLE()": "263",
        "approve(address,uint256)": "infinite",
        "balanceOf(address)": "2663",
        "batchMintTo(address,uint256,string,bytes)": "infinite",
        "burn(uint256)": "infinite",
        "contractURI()": "infinite",
        "getApproved(uint256)": "6959",
        "getBaseURICount()": "2361",
        "getBatchIdAtIndex(uint256)": "6827",
        "getDefaultRoyaltyInfo()": "2498",
        "getRoleAdmin(bytes32)": "2507",
        "getRoleMember(bytes32,uint256)": "infinite",
        "getRoleMemberCount(bytes32)": "infinite",
        "getRoyaltyInfoForToken(uint256)": "6958",
        "grantRole(bytes32,address)": "infinite",
        "hasRole(bytes32,address)": "2732",
        "hasRoleWithSwitch(bytes32,address)": "4996",
        "isApprovedForAll(address,address)": "infinite",
        "isApprovedOrOwner(address,uint256)": "infinite",
        "mintTo(address,string)": "infinite",
        "multicall(bytes[])": "infinite",
        "name()": "infinite",
        "nextTokenIdToMint()": "2404",
        "owner()": "2443",
        "ownerOf(uint256)": "infinite",
        "powerLevel(uint256)": "2529",
        "renounceRole(bytes32,address)": "infinite",
        "revokeRole(bytes32,address)": "infinite",
        "royaltyInfo(uint256,uint256)": "7245",
        "safeTransferFrom(address,address,uint256)": "infinite",
        "safeTransferFrom(address,address,uint256,bytes)": "infinite",
        "setApprovalForAll(address,bool)": "26715",
        "setContractURI(string)": "infinite",
        "setDefaultRoyaltyInfo(address,uint256)": "28411",
        "setOwner(address)": "28454",
        "setPowerLevel(uint256,uint256)": "infinite",
        "setRoyaltyInfoForToken(uint256,address,uint256)": "51103",
        "supportsInterface(bytes4)": "657",
        "symbol()": "infinite",
        "tokenURI(uint256)": "infinite",
        "totalSupply()": "4455",
        "transferFrom(address,address,uint256)": "infinite"
      }
    },
    "methodIdentifiers": {
      "DEFAULT_ADMIN_ROLE()": "a217fddf",
      "approve(address,uint256)": "095ea7b3",
      "balanceOf(address)": "70a08231",
      "batchMintTo(address,uint256,string,bytes)": "754a81d9",
      "burn(uint256)": "42966c68",
      "contractURI()": "e8a3d485",
      "getApproved(uint256)": "081812fc",
      "getBaseURICount()": "63b45e2d",
      "getBatchIdAtIndex(uint256)": "2419f51b",
      "getDefaultRoyaltyInfo()": "b24f2d39",
      "getRoleAdmin(bytes32)": "248a9ca3",
      "getRoleMember(bytes32,uint256)": "9010d07c",
      "getRoleMemberCount(bytes32)": "ca15c873",
      "getRoyaltyInfoForToken(uint256)": "4cc157df",
      "grantRole(bytes32,address)": "2f2ff15d",
      "hasRole(bytes32,address)": "91d14854",
      "hasRoleWithSwitch(bytes32,address)": "a32fa5b3",
      "isApprovedForAll(address,address)": "e985e9c5",
      "isApprovedOrOwner(address,uint256)": "430c2081",
      "mintTo(address,string)": "0075a317",
      "multicall(bytes[])": "ac9650d8",
      "name()": "06fdde03",
      "nextTokenIdToMint()": "3b1475a7",
      "owner()": "8da5cb5b",
      "ownerOf(uint256)": "6352211e",
      "powerLevel(uint256)": "6741c81b",
      "renounceRole(bytes32,address)": "36568abe",
      "revokeRole(bytes32,address)": "d547741f",
      "royaltyInfo(uint256,uint256)": "2a55205a",
      "safeTransferFrom(address,address,uint256)": "42842e0e",
      "safeTransferFrom(address,address,uint256,bytes)": "b88d4fde",
      "setApprovalForAll(address,bool)": "a22cb465",
      "setContractURI(string)": "938e3d7b",
      "setDefaultRoyaltyInfo(address,uint256)": "600dd5ea",
      "setOwner(address)": "13af4035",
      "setPowerLevel(uint256,uint256)": "0dee795f",
      "setRoyaltyInfoForToken(uint256,address,uint256)": "9bcf7a15",
      "supportsInterface(bytes4)": "01ffc9a7",
      "symbol()": "95d89b41",
      "tokenURI(uint256)": "c87b56dd",
      "totalSupply()": "18160ddd",
      "transferFrom(address,address,uint256)": "23b872dd"
    }
  },
  "storageLayout": {
    "storage": [
      {
        "astId": 731,
        "contract": "Contract.sol:Contract",
        "label": "_currentIndex",
        "offset": 0,
        "slot": "0",
        "type": "t_uint256"
      },
      {
        "astId": 733,
        "contract": "Contract.sol:Contract",
        "label": "_burnCounter",
        "offset": 0,
        "slot": "1",
        "type": "t_uint256"
      },
      {
        "astId": 735,
        "contract": "Contract.sol:Contract",
        "label": "_name",
        "offset": 0,
        "slot": "2",
        "type": "t_string_storage"
      },
      {
        "astId": 737,
        "contract": "Contract.sol:Contract",
        "label": "_symbol",
        "offset": 0,
        "slot": "3",
        "type": "t_string_storage"
      },
      {
        "astId": 742,
        "contract": "Contract.sol:Contract",
        "label": "_ownerships",
        "offset": 0,
        "slot": "4",
        "type": "t_mapping(t_uint256,t_struct(TokenOwnership)3383_storage)"
      },
      {
        "astId": 747,
        "contract": "Contract.sol:Contract",
        "label": "_addressData",
        "offset": 0,
        "slot": "5",
        "type": "t_mapping(t_address,t_struct(AddressData)3392_storage)"
      },
      {
        "astId": 751,
        "contract": "Contract.sol:Contract",
        "label": "_tokenApprovals",
        "offset": 0,
        "slot": "6",
        "type": "t_mapping(t_uint256,t_address)"
      },
      {
        "astId": 757,
        "contract": "Contract.sol:Contract",
        "label": "_operatorApprovals",
        "offset": 0,
        "slot": "7",
        "type": "t_mapping(t_address,t_mapping(t_address,t_bool))"
      },
      {
        "astId": 2301,
        "contract": "Contract.sol:Contract",
        "label": "contractURI",
        "offset": 0,
        "slot": "8",
        "type": "t_string_storage"
      },
      {
        "astId": 2417,
        "contract": "Contract.sol:Contract",
        "label": "_owner",
        "offset": 0,
        "slot": "9",
        "type": "t_address"
      },
      {
        "astId": 2499,
        "contract": "Contract.sol:Contract",
        "label": "royaltyRecipient",
        "offset": 0,
        "slot": "10",
        "type": "t_address"
      },
      {
        "astId": 2502,
        "contract": "Contract.sol:Contract",
        "label": "royaltyBps",
        "offset": 20,
        "slot": "10",
        "type": "t_uint16"
      },
      {
        "astId": 2508,
        "contract": "Contract.sol:Contract",
        "label": "royaltyInfoForToken",
        "offset": 0,
        "slot": "11",
        "type": "t_mapping(t_uint256,t_struct(RoyaltyInfo)3805_storage)"
      },
      {
        "astId": 2088,
        "contract": "Contract.sol:Contract",
        "label": "batchIds",
        "offset": 0,
        "slot": "12",
        "type": "t_array(t_uint256)dyn_storage"
      },
      {
        "astId": 2093,
        "contract": "Contract.sol:Contract",
        "label": "baseURI",
        "offset": 0,
        "slot": "13",
        "type": "t_mapping(t_uint256,t_string_storage)"
      },
      {
        "astId": 110,
        "contract": "Contract.sol:Contract",
        "label": "fullURI",
        "offset": 0,
        "slot": "14",
        "type": "t_mapping(t_uint256,t_string_storage)"
      },
      {
        "astId": 2946,
        "contract": "Contract.sol:Contract",
        "label": "_hasRole",
        "offset": 0,
        "slot": "15",
        "type": "t_mapping(t_bytes32,t_mapping(t_address,t_bool))"
      },
      {
        "astId": 2951,
        "contract": "Contract.sol:Contract",
        "label": "_getRoleAdmin",
        "offset": 0,
        "slot": "16",
        "type": "t_mapping(t_bytes32,t_bytes32)"
      },
      {
        "astId": 435,
        "contract": "Contract.sol:Contract",
        "label": "roleMembers",
        "offset": 0,
        "slot": "17",
        "type": "t_mapping(t_bytes32,t_struct(RoleMembers)429_storage)"
      },
      {
        "astId": 11,
        "contract": "Contract.sol:Contract",
        "label": "powerLevel",
        "offset": 0,
        "slot": "18",
        "type": "t_mapping(t_uint256,t_uint256)"
      }
    ],
    "types": {
      "t_address": {
        "encoding": "inplace",
        "label": "address",
        "numberOfBytes": "20"
      },
      "t_array(t_uint256)dyn_storage": {
        "base": "t_uint256",
        "encoding": "dynamic_array",
        "label": "uint256[]",
        "numberOfBytes": "32"
      },
      "t_bool": {
        "encoding": "inplace",
        "label": "bool",
        "numberOfBytes": "1"
      },
      "t_bytes32": {
        "encoding": "inplace",
        "label": "bytes32",
        "numberOfBytes": "32"
      },
      "t_mapping(t_address,t_bool)": {
        "encoding": "mapping",
        "key": "t_address",
        "label": "mapping(address => bool)",
        "numberOfBytes": "32",
        "value": "t_bool"
      },
      "t_mapping(t_address,t_mapping(t_address,t_bool))": {
        "encoding": "mapping",
        "key": "t_address",
        "label": "mapping(address => mapping(address => bool))",
        "numberOfBytes": "32",
        "value": "t_mapping(t_address,t_bool)"
      },
      "t_mapping(t_address,t_struct(AddressData)3392_storage)": {
        "encoding": "mapping",
        "key": "t_address",
        "label": "mapping(address => struct IERC721A.AddressData)",
        "numberOfBytes": "32",
        "value": "t_struct(AddressData)3392_storage"
      },
      "t_mapping(t_address,t_uint256)": {
        "encoding": "mapping",
        "key": "t_address",
        "label": "mapping(address => uint256)",
        "numberOfBytes": "32",
        "value": "t_uint256"
      },
      "t_mapping(t_bytes32,t_bytes32)": {
        "encoding": "mapping",
        "key": "t_bytes32",
        "label": "mapping(bytes32 => bytes32)",
        "numberOfBytes": "32",
        "value": "t_bytes32"
      },
      "t_mapping(t_bytes32,t_mapping(t_address,t_bool))": {
        "encoding": "mapping",
        "key": "t_bytes32",
        "label": "mapping(bytes32 => mapping(address => bool))",
        "numberOfBytes": "32",
        "value": "t_mapping(t_address,t_bool)"
      },
      "t_mapping(t_bytes32,t_struct(RoleMembers)429_storage)": {
        "encoding": "mapping",
        "key": "t_bytes32",
        "label": "mapping(bytes32 => struct PermissionsEnumerable.RoleMembers)",
        "numberOfBytes": "32",
        "value": "t_struct(RoleMembers)429_storage"
      },
      "t_mapping(t_uint256,t_address)": {
        "encoding": "mapping",
        "key": "t_uint256",
        "label": "mapping(uint256 => address)",
        "numberOfBytes": "32",
        "value": "t_address"
      },
      "t_mapping(t_uint256,t_string_storage)": {
        "encoding": "mapping",
        "key": "t_uint256",
        "label": "mapping(uint256 => string)",
        "numberOfBytes": "32",
        "value": "t_string_storage"
      },
      "t_mapping(t_uint256,t_struct(RoyaltyInfo)3805_storage)": {
        "encoding": "mapping",
        "key": "t_uint256",
        "label": "mapping(uint256 => struct IRoyalty.RoyaltyInfo)",
        "numberOfBytes": "32",
        "value": "t_struct(RoyaltyInfo)3805_storage"
      },
      "t_mapping(t_uint256,t_struct(TokenOwnership)3383_storage)": {
        "encoding": "mapping",
        "key": "t_uint256",
        "label": "mapping(uint256 => struct IERC721A.TokenOwnership)",
        "numberOfBytes": "32",
        "value": "t_struct(TokenOwnership)3383_storage"
      },
      "t_mapping(t_uint256,t_uint256)": {
        "encoding": "mapping",
        "key": "t_uint256",
        "label": "mapping(uint256 => uint256)",
        "numberOfBytes": "32",
        "value": "t_uint256"
      },
      "t_string_storage": {
        "encoding": "bytes",
        "label": "string",
        "numberOfBytes": "32"
      },
      "t_struct(AddressData)3392_storage": {
        "encoding": "inplace",
        "label": "struct IERC721A.AddressData",
        "members": [
          {
            "astId": 3385,
            "contract": "Contract.sol:Contract",
            "label": "balance",
            "offset": 0,
            "slot": "0",
            "type": "t_uint64"
          },
          {
            "astId": 3387,
            "contract": "Contract.sol:Contract",
            "label": "numberMinted",
            "offset": 8,
            "slot": "0",
            "type": "t_uint64"
          },
          {
            "astId": 3389,
            "contract": "Contract.sol:Contract",
            "label": "numberBurned",
            "offset": 16,
            "slot": "0",
            "type": "t_uint64"
          },
          {
            "astId": 3391,
            "contract": "Contract.sol:Contract",
            "label": "aux",
            "offset": 24,
            "slot": "0",
            "type": "t_uint64"
          }
        ],
        "numberOfBytes": "32"
      },
      "t_struct(RoleMembers)429_storage": {
        "encoding": "inplace",
        "label": "struct PermissionsEnumerable.RoleMembers",
        "members": [
          {
            "astId": 420,
            "contract": "Contract.sol:Contract",
            "label": "index",
            "offset": 0,
            "slot": "0",
            "type": "t_uint256"
          },
          {
            "astId": 424,
            "contract": "Contract.sol:Contract",
            "label": "members",
            "offset": 0,
            "slot": "1",
            "type": "t_mapping(t_uint256,t_address)"
          },
          {
            "astId": 428,
            "contract": "Contract.sol:Contract",
            "label": "indexOf",
            "offset": 0,
            "slot": "2",
            "type": "t_mapping(t_address,t_uint256)"
          }
        ],
        "numberOfBytes": "96"
      },
      "t_struct(RoyaltyInfo)3805_storage": {
        "encoding": "inplace",
        "label": "struct IRoyalty.RoyaltyInfo",
        "members": [
          {
            "astId": 3802,
            "contract": "Contract.sol:Contract",
            "label": "recipient",
            "offset": 0,
            "slot": "0",
            "type": "t_address"
          },
          {
            "astId": 3804,
            "contract": "Contract.sol:Contract",
            "label": "bps",
            "offset": 0,
            "slot": "1",
            "type": "t_uint256"
          }
        ],
        "numberOfBytes": "64"
      },
      "t_struct(TokenOwnership)3383_storage": {
        "encoding": "inplace",
        "label": "struct IERC721A.TokenOwnership",
        "members": [
          {
            "astId": 3378,
            "contract": "Contract.sol:Contract",
            "label": "addr",
            "offset": 0,
            "slot": "0",
            "type": "t_address"
          },
          {
            "astId": 3380,
            "contract": "Contract.sol:Contract",
            "label": "startTimestamp",
            "offset": 20,
            "slot": "0",
            "type": "t_uint64"
          },
          {
            "astId": 3382,
            "contract": "Contract.sol:Contract",
            "label": "burned",
            "offset": 28,
            "slot": "0",
            "type": "t_bool"
          }
        ],
        "numberOfBytes": "32"
      },
      "t_uint16": {
        "encoding": "inplace",
        "label": "uint16",
        "numberOfBytes": "2"
      },
      "t_uint256": {
        "encoding": "inplace",
        "label": "uint256",
        "numberOfBytes": "32"
      },
      "t_uint64": {
        "encoding": "inplace",
        "label": "uint64",
        "numberOfBytes": "8"
      }
    }
  },
  "userdoc": {
    "errors": {
      "ApprovalCallerNotOwnerNorApproved()": [
        {
          "notice": "The caller must own the token or be an approved operator."
        }
      ],
      "ApprovalQueryForNonexistentToken()": [
        {
          "notice": "The token does not exist."
        }
      ],
      "ApprovalToCurrentOwner()": [
        {
          "notice": "The caller cannot approve to the current owner."
        }
      ],
      "ApproveToCaller()": [
        {
          "notice": "The caller cannot approve to their own address."
        }
      ],
      "BalanceQueryForZeroAddress()": [
        {
          "notice": "Cannot query the balance for the zero address."
        }
      ],
      "MintToZeroAddress()": [
        {
          "notice": "Cannot mint to the zero address."
        }
      ],
      "MintZeroQuantity()": [
        {
          "notice": "The quantity of tokens minted must be more than zero."
        }
      ],
      "OwnerQueryForNonexistentToken()": [
        {
          "notice": "The token does not exist."
        }
      ],
      "TransferCallerNotOwnerNorApproved()": [
        {
          "notice": "The caller must own the token or be an approved operator."
        }
      ],
      "TransferFromIncorrectOwner()": [
        {
          "notice": "The token must be owned by `from`."
        }
      ],
      "TransferToNonERC721ReceiverImplementer()": [
        {
          "notice": "Cannot safely transfer to a contract that does not implement the ERC721Receiver interface."
        }
      ],
      "TransferToZeroAddress()": [
        {
          "notice": "Cannot transfer to the zero address."
        }
      ],
      "URIQueryForNonexistentToken()": [
        {
          "notice": "The token does not exist."
        }
      ]
    },
    "kind": "user",
    "methods": {
      "batchMintTo(address,uint256,string,bytes)": {
        "notice": "Lets an authorized address mint multiple NFTs at once to a recipient."
      },
      "burn(uint256)": {
        "notice": "Lets an owner or approved operator burn the NFT of the given tokenId."
      },
      "contractURI()": {
        "notice": "Returns the contract metadata URI."
      },
      "getBaseURICount()": {
        "notice": "Returns the count of batches of NFTs."
      },
      "getBatchIdAtIndex(uint256)": {
        "notice": "Returns the ID for the batch of tokens the given tokenId belongs to."
      },
      "getDefaultRoyaltyInfo()": {
        "notice": "Returns the defualt royalty recipient and BPS for this contract's NFTs."
      },
      "getRoleAdmin(bytes32)": {
        "notice": "Returns the admin role that controls the specified role."
      },
      "getRoleMember(bytes32,uint256)": {
        "notice": "Returns the role-member from a list of members for a role,                  at a given index."
      },
      "getRoleMemberCount(bytes32)": {
        "notice": "Returns total number of accounts that have a role."
      },
      "getRoyaltyInfoForToken(uint256)": {
        "notice": "View royalty info for a given token."
      },
      "grantRole(bytes32,address)": {
        "notice": "Grants a role to an account, if not previously granted."
      },
      "hasRole(bytes32,address)": {
        "notice": "Checks whether an account has a particular role."
      },
      "hasRoleWithSwitch(bytes32,address)": {
        "notice": "Checks whether an account has a particular role;                  role restrictions can be swtiched on and off."
      },
      "isApprovedOrOwner(address,uint256)": {
        "notice": "Returns whether a given address is the owner, or approved to transfer an NFT."
      },
      "mintTo(address,string)": {
        "notice": "Lets an authorized address mint an NFT to a recipient."
      },
      "multicall(bytes[])": {
        "notice": "Receives and executes a batch of function calls on this contract."
      },
      "nextTokenIdToMint()": {
        "notice": "The tokenId assigned to the next new NFT to be minted."
      },
      "owner()": {
        "notice": "Returns the owner of the contract."
      },
      "renounceRole(bytes32,address)": {
        "notice": "Revokes role from the account."
      },
      "revokeRole(bytes32,address)": {
        "notice": "Revokes role from an account."
      },
      "royaltyInfo(uint256,uint256)": {
        "notice": "View royalty info for a given token and sale price."
      },
      "setContractURI(string)": {
        "notice": "Lets a contract admin set the URI for contract-level metadata."
      },
      "setDefaultRoyaltyInfo(address,uint256)": {
        "notice": "Updates default royalty recipient and bps."
      },
      "setOwner(address)": {
        "notice": "Lets an authorized wallet set a new owner for the contract."
      },
      "setRoyaltyInfoForToken(uint256,address,uint256)": {
        "notice": "Updates default royalty recipient and bps for a particular token."
      },
      "tokenURI(uint256)": {
        "notice": "Returns the metadata URI for an NFT."
      }
    },
    "version": 1
  }
}